:102BA5005389F0438901C2A9E4FDFCC3ED9FEC9E66
:102BB5005016758CFA758A1FC28DD28C308DFDC268
:082BC5008C0DBD00010C80E342
:012BCD0022E5
:052C3D00C200752F38F4
:102C4200A20092B6D2B77F0A7E00122BA5852F80F2
:0D2C5200C2B77F017E00122BA57580FF2206
:0829D9008F2A8B2B8A2C892D1B
:1029E100E52A701FF52EAB2BAA2CA92D852E8275F9
:1029F1008300121A6DFF602FD200F52F122C4205B1
:102A01002E80E3E4F52EE52EC3952A501AD200ABB1
:102A11002BAA2CA92D852E82758300121A6DF52FF4
:072A2100122C42052E80DF9C
:012A2800228B
:102B6F007F1E7E00122BA5122C3D7F057E00122B9F
:102B7F00A5122C3D122C3DC200752F0F122C42C2F4
:102B8F0000752F01122C427F027E00122BA5C2006E
:062B9F00752F06022C4216
:0F2CC900C200752F01122C427F027E00022BA544
:102AFE00252D323073004D6F756E74696E672044EC
:102B0E007269766500696E697420646F6E65005235
:102B1E00656365697665642056616C7565203D2038
:092B2E0025322E3262580A0D0016
:1024E800C2A6122C80122B6F7F807E1A7D067C007C
:1024F8001228BA12220C8F227553FF75542B75556A
:10250800047BFF7A2A79FE12175A7F0A122BCE7F94
:102518000D122BCE7E007F00120FD38F22788B12E4
:102528001C97752E00752F0012206E8E288F291289
:102538002CC9C200752F80122C427BFF7A2B79138D
:102548007F091229D9852423AB25AA26A9277D012D
:102558007F43121D1A1523EF6004E52370EA8524D2
:1025680023AB25AA26A9277D017F43121EC915235F
:10257800EF6004E52370EAAB25AA26A927121C7789
:102588008F568E558D548C537BFF7A2B791D0217ED
:012598005AE8
:102A78002570200025322E3262582000416464728D
:102A88002E202020302020312020322020332020EA
:102A980034202035202036202037202038202039A7
:102AA800202041202042202043202044202045206F
:052AB80020460A0D009C
:1027CC008B4B8A4C894D8B538A5489557BFF7A2AC3
:1027DC00797812175AE4F54EAB4BAA4CA94D854E9D
:1027EC0082758300121A6DF54F7BFF7A2A797CF57E
:1027FC005312175A054EE54EC3941040DBE4F54EC8
:10280C00AB4BAA4CA94D854E82758300121A6DF5FF
:10281C004FC394204007E54FD3947F4003754F2E50
:10282C00AF4F122BCE054EE54EC3941040D27F0D08
:08283C00122BCE7F0A022BCE05
:0A2921008C468D478B438A4489459C
:10292B008B488A49894AAF0153070F7E00C3E49F46
:10293B00FFE49EFEEF254AF54AEE3549F5497BFF4C
:10294B007A2A798412175AAB48AA49A94A1227CC7A
:10295B007410254AF54AE43549F549E5452547F90B
:10296B00E5443546FA8A838982C3E54A9582E5496F
:04297B00958340D32D
:01297F002235
:082CE40025322E326258200057
:10220C00758E0CD294E4F5307B007A00792A7FFF2E
:10221C00122C5F0530E530C3940A40EC7B007A0049
:10222C00792A122B378F2FE4F530742A2530F8E6F3
:10223C00F5317BFF7A2C79E4F55312175A0530E50A
:10224C0030C3940540E47F0A122BCE7F0D122BCEA7
:10225C007F647E00122BA5E52F700AFB7A00792A89
:10226C00122ABD8F2FE4F530742A2530F8E6F531AB
:10227C007BFF7A2C79E4F55312175A0530E530C3FD
:10228C00940540E47F0A122BCE7F0D122BCE7F6477
:10229C007E00122BA5E52F7015FB7A00792A122BE4
:1022AC00F58F2FE52A64016005752F05C2A5E4F5AD
:1022BC0030742A2530F8E6F5317BFF7A2C79E4F579
:1022CC005312175A0530E530C3940540E47F0A12C7
:1022DC002BCE7F0D122BCE7F647E00122BA5E52F0B
:1022EC00700AFB7A00792A12274F8F2FE4F530748D
:1022FC002A2530F8E6F5317BFF7A2C79E4F5531278
:10230C00175A0530E530C3940540E47F0A122BCEF2
:10231C007F0D122BCE7F647E00122BA5E52F701D36
:10232C00FB7A00792A122BF58F2FE52B54C0700DF8
:10233C00E52B30E705752F078003752F05E4F53085
:10234C00742A2530F8E6F5317BFF7A2C79E4F553C5
:10235C0012175A0530E530C3940540E47F0A122B5E
:10236C00CE7F0D122BCE7F647E00122BA5E52F6045
:07237C0002C2A7D294AF2FAB
:012383002237
:062B37008B328A33893461
:102B3D00C294E4F555F554F553F552FF122637EFCF
:102B4D00700BAB32AA33A9347F011225A1EF700FA0
:102B5D00AB32AA33A934121A54640160027F05D234
:012B6D0094D3
:012B6E002244
:062ABD008B328A338934DC
:102AC300C294E47555AA755401F553F5527F081263
:102AD3002637EF700BAB32AA33A9347F051225A139
:102AE300AB32AA33A934121A54FEB405047F098009
:0A2AF30007EE640160027F06D29432
:012AFD0022B6
:062BF5008B328A338934A3
:102BFB00C294E4F555F554F553F5527F3A12263746
:0E2C0B00EF700BAB32AA33A9347F051225A15E
:012C19002298
:06274F008B328A3389344D
:10275500E4F539F538F537753640C294F535053564
:10276500E4F555F554F553F5527F37122637EF70DA
:1027750003122599AB32AA33A934121A54FE600606
:10278500640160027F02EF701185395585385485E3
:1027950037538536527F29122637EF700312259954
:1027A500AB32AA33A934121A54FE600664016002E2
:1027B5007F020535EE6007E5356003EF60A0E5357E
:0627C50070027F01D294B6
:0127CB0022EB
:022637008F51C1
:10263900E551C3944040030226C6E5514440F5578D
:102649007B007A007958FF122C5F8F56755918E56F
:102659005670047F0180027F00E559C39419500424
:102669007E0180027E00EE5F6024AF55AE54AD530B
:10267900AC52A959A801121C518F577B007A0079D5
:1026890058122C5F8F5674F82559F55980C1E551B8
:102699007005755795800DE551B408057557878004
:1026A90003755701E556700CFB7A007958AF57123C
:1026B9002C5F8F56E55660087556028003755603E0
:0226C900AF560A
:0126CB0022EC
:08259900AB32AA33A9347F0123
:0825A1008F3A8B3B8A3C893D17
:1025A900E4F53EF53F7B007A0079407FFF122C5F0E
:1025B9008F3F053EE53E6009E53F7005E540F46063
:1025C900E4AB3BAA3CA93DE540121A9AE53E7005E9
:1025D900753F018046E53F6002800AE5406401607D
:1025E90009E5406005753F028031E53AD394014021
:1025F9002A754101E541C3953A50207B007A00795B
:10260900407FFF122C5FAB3BAA3CA93D85418275F7
:102619008300E540121AAC054180D9E53F700CFBF7
:0D2629007A0079407FFF122C5F8F3FAF3F9A
:012636002281
:082A29007F01FB7A00794CFEED
:0A2A31008E518F528B538A54895541
:102A3B00E4F556F557F559F55AC3E55A9552E5594C
:102A4B00955150267B007A0079587FFF122C5FAB93
:102A5B0053AA54A955855A82855983E558121AAC45
:0C2A6B00055AE55A70D3055980CFAF57CB
:012A7700223C
:0E2844008F478E468D458C448B488A49894AC1
:10285200C294E4F54B8F558E548D538C527F1112D6
:102862002637054BEF7003122A29E54C6004E54B2D
:1028720070F0E54B70027F01E4F54B054BEF7003FE
:10288200122A29E54C64FE6007E54B6003EF60EB1A
:10289200E54B70027F01E54C54F070027F08EF7047
:1028A2000CAB48AA49A94AFF7E02122A31EF7005F1
:0728B2007F03122A2BD294D0
:0128B90022FC
:1028BA00E4F52AAB07AA06A905A804FF7EA07D8C29
:1028CA00FC121BAEEFD39402500575C3708045EF1E
:1028DA00D39404500575C371803AEFD39408500518
:1028EA0075C372802FEFD39410500575C37380247B
:1028FA00EFD39420500575C3F08019EFD39440505C
:10290A000575C3F1800EEFD39480500575C3F2802C
:06291A0003752A04AF2A38
:012920002294
:102C5F00E4FE8FC5AFC40EEF20E703EE70F6EE6013
:102C6F000BE5C5121A9AEF5470FE80027E01AF0673
:012C7F002232
:102C8000759AE285878753877F759850E4F59B7521
:0C2C90009AE2759B1ED299C2ACFEFF2296
:10238400252D333573004D42525F52656C5365639E
:10239400202000256C7500252D32307300425042F8
:1023A4005F427974657350657253656300257500E7
:1023B4004250425F536563506572436C75730025E8
:1023C4006275004250425F52737664536563436E94
:1023D40074004250425F4E756D4641547300425042
:1023E400425F526F6F74456E74436E740042504284
:1023F4005F546F745365633136004250425F464107
:1024040054537A3136004250425F48696464656EC1
:10241400536563004250425F546F745365633332B3
:10242400004250425F464154537A33320042504294
:102434005F526F6F745F436C7500526F6F744469C1
:1024440072536563004641542073697A65333200E0
:102454006572726F722077726F6E67206661747432
:102464007970652000546F745365633332006E7560
:102474006D6F66464154536563746F7273004461B3
:10248400746153656300636F756E746F66436C7536
:102494007374657273004669727374446174615332
:1024A4006563004669727374526F6F744469725342
:1024B4006563004641542073697A652031320046D1
:1024C40041542073697A65203136004641542073A3
:1024D400697A65203332002535642E20005B444937
:0424E400525D0A003B
:0826CC00AA2AA92B7B017E0064
:1026D4008E438F448B458A468947C3E54394025011
:0126E4006392
:1026E500E4F54BF54AF549F548F54DAB45E5472584
:1026F50044F9E5463543FAC37403954DFFE4940068
:10270500FEE92FF9EA3EFA121A54F54CAF4BAE4AE0
:10271500AD49AC487808121C648F4B8E4A8D498CA4
:1027250048E54B454CF54BE54AF54AE549F549E59C
:1027350048F548054DE54DB404B1AF4BAE4AAD493A
:03274500AC48227B
:07274800E47F0CFEFDFC2202
:08298000AA2AA92B7B017E00AD
:0A2988008E438F448B458A46894731
:10299200E4F548F549C3E54394025036E4FDAB45FE
:1029A200E5472544F9E5463543FAEDFFC374019F37
:1029B200FFE49400FEE92FF9EA3EFA121A54FCE50C
:1029C20049754900F548EC42490DBD02D1AE48AF08
:0629D20049227E007F0C8B
:0129D80022DC
:102C1A007E00E539253DFFEE3538FEAB41AA42A9D3
:012C2A004366
:102C2B00C3EE940250098F828E83121A6DFF227F9E
:012C3B000C8C
:012C3C002275
:040FD3008E2A8F2BA8
:100FD700E4F52CAA06A9077B01FFFEFDFC122844B5
:100FE700AA2AA92B7B017D007C02122921AA2AA902
:100FF7002B7B01E4FFFE122C2BEF64EB605DAA2A2A
:10100700A92BE4FF122C2BEF64E9604FAA2AA92B26
:101017007FC60E1226D47864121CB07864121C970F
:101027008F328E318D308C2F7553FF755423755544
:101037008A7BFF7A23798412175A7BFF7A23799761
:10104700853256853155853054852F5312175A7F6F
:101057000A122BCE7F0D122BCE8003752C0AE52C9E
:1010670060030216F5AF32AE31AD30AC2FAA2AA914
:101077002B7B01122844AA2AA92B7B017D007C0225
:101087001229217553FF7554237555A17BFF7A23C8
:10109700799B12175A7F0B1229807868A60608A633
:1010A700077BFF7A2379B118E6F55308E6F5541262
:1010B700175A7F0A122BCE7F0D122BCE7553FF7551
:1010C70054237555B47BFF7A23799B12175AAA2AA2
:1010D700A92B7B017F0D7E00122C2B786AA6077B3C
:1010E700FF7A2379C3E6F55312175A7F0A122BCEDC
:1010F7007F0D122BCE7553FF7554237555C77BFF94
:101107007A23799B12175A7F0E122980786BA606CD
:1011170008A6077BFF7A2379B118E6F55308E6F5A9
:101127005412175A7F0A122BCE7F0D122BCE7553EE
:10113700FF7554237555D67BFF7A23799B12175A6F
:10114700AA2AA92B7B017F107E00122C2B7878A668
:10115700077BFF7A2379C3E6F55312175A7F0A12E2
:101167002BCE7F0D122BCE7553FF7554237555E289
:101177007BFF7A23799B12175AAA2AA92B7B017F17
:10118700117E001229887876A60608A6077BFF7AC3
:101197002379B118E6F55308E6F55412175A7F0A72
:1011A700122BCE7F0D122BCE7553FF755423755519
:1011B700F17BFF7A23799B12175AAA2AA92B7B0165
:1011C7007F137E001229887893A60608A6077BFF5F
:1011D7007A2379B118E6F55308E6F55412175A7FC2
:1011E7000A122BCE7F0D122BCE7553FF7554237524
:1011F70055FE7BFF7A23799B12175AAA2AA92B7BC4
:10120700017F167E001229887881A60608A6077B2B
:10121700FF7A2379B118E6F55308E6F55412175A01
:101227007F0A122BCE7F0D122BCE7553FF755424D8
:1012370075550A7BFF7A23799B12175A7F1C122652
:10124700CC786E121CB07BFF7A237997786E121CCC
:10125700978F568E558D548C5312175A7F0A122B1F
:10126700CE7F0D122BCE7553FF7554247555187B01
:10127700FF7A23799B12175A7F201226CC788F1278
:101287001CB07BFF7A237997788F121C978F568E25
:10129700558D548C5312175A7F0A122BCE7F0D127D
:1012A7002BCE7553FF7554247555257BFF7A23790B
:1012B7009B12175AAA2AA92B7B017F247E0012268C
:1012C700D4787D121CB07BFF7A237997787D121C26
:1012D700978F568E558D548C5312175A7F0A122B9F
:1012E700CE7F0D122BCE7553FF7554247555317B68
:1012F700FF7A23799B12175AAA2AA92B7B017F2CE5
:101307007E001226D47883121CB07BFF7A2379974C
:101317007883121C978F568E558D548C5312175AFB
:101327007F0A122BCE7F0D122BCE7553FF755424D7
:1013370075553E7BFF7A23799B12175A7876E6FE1E
:1013470008E67805C333CE33CED8F9FF7868E6FCD4
:1013570008E6FD24FFFBEC34FFCB2FFFEB3EFE122C
:101367001ACEE4FCFD7887121CB07BFF7A237997AD
:101377007887121C978F568E558D548C5312175A97
:101387007F0A122BCE7F0D122BCE7882E61846707D
:1013970033787D121C978F368E358D348C33755389
:1013A700FF7554247555497BFF7A23799B12175A89
:1013B7007BFF7A237997853656853555853454854D
:1013C700335380227881E6FE08E6FFE48F368E35B8
:1013D700F534F533752C0B7553FF75542475555437
:1013E7007BFF7A23799712175A7F0A122BCE7F0D2C
:1013F700122BCE7894E618467040788F121C978F80
:101407003A8E398D388C377553FF75542475556965
:101417007BFF7A23799B12175A7BFF7A237997856B
:101427003A5685395585385485375312175A7F0AE6
:10143700122BCE7F0D122BCE80137893E6FE08E693
:10144700FFE48F3A8E39F538F537752C0B7878E647
:10145700FFE4FCFDFEAB36AA35A934A833121B23E3
:101467008E2D8F2E7553FF7554247555727BFF7A19
:1014770023799B12175A7BFF7A237997852D5385FA
:101487002E5412175A7F0A122BCE7F0D122BCE78AD
:1014970078E6FFE4FCFDFEAB36AA35A934A8331283
:1014A7001B23C004A905AA06AB07786BE6FE08E66E
:1014B700FFE4FCFDD000EB2FFFEA3EFEED39FDEC2B
:1014C70038FC7887121CA3EF2BFBEE3AFAED39F9BB
:1014D700EC38F8C3E53A9BF542E5399AF541E5382A
:1014E70099F540E53798F53F7553FF7554247555C1
:1014F700827BFF7A23799B12175A7BFF7A2379978E
:10150700854256854155854054853F5312175A7F6A
:101517000A122BCE7F0D122BCE786AE6FBE4FAF97E
:10152700F8AF42AE41AD40AC3F121BAE8F3E8E3D91
:101537008D3C8C3B7553FF75542475558A7BFF7A18
:1015470023799B12175A7BFF7A237997853E568515
:101557003D55853C54853B5312175A7F0A122BCEB3
:101567007F0D122BCE7878E6FFE4FCFDFEAB36AAA2
:1015770035A934A833121B23C004A905AA06AB0753
:10158700786BE6FE08E6FFE4FCFDD000EB2FFFEAF0
:101597003EFEED39FDEC38FC7887121CA3EF2BFFDC
:1015A700EE3AFEED39FDEC38FC7864121CA3EF2B04
:1015B700FFEE3AFEED39FDEC38FC7872121CB0757F
:1015C70053FF75542475559A7BFF7A23799B12171D
:1015D7005A7BFF7A2379977872121C978F568E550C
:1015E7008D548C5312175A7F0A122BCE7F0D122B54
:1015F700CE7883121C97EF24FEFFEE34FFFEED3406
:10160700FFFDEC34FFFCC004A905AA06AB07786A06
:10161700E6FFE4FCFDFED000121B237872121CA328
:10162700EF2BFFEE3AFEED39FDEC38FC788B121C00
:10163700B07553FF7554247555A77BFF7A23799BA3
:1016470012175A7BFF7A237997788B121C978F563C
:101657008E558D548C5312175A7F0A122BCE7F0D3D
:10166700122BCEE47FF57E0FFDFCAB3EAA3DA93CD5
:10167700A83BC3121C40501D786D760C752C0B7659
:1016870002752C0B7553FF7554247555B77BFF7A7C
:1016970023799B804CE47FF57EFFFDFCAB3EAA3DA2
:1016A700A93CA83BC3121C40786D50247602752CC8
:1016B7000B7553FF7554247555C37BFF7A23799BAC
:1016C70012175A7BFF7A237997786DE6F5538011C5
:1016D70076047553FF7554247555CF7BFF7A2379AC
:1016E7009B12175A7F0A122BCE7F0D122BCEAF2CCF
:0116F70022D0
:08206E008F2D8E2C8D2B8C2A86
:10207600754101852E42852F43E4F53AF53BF53847
:10208600F5397872121C97AB2DAA2CA92BA82AC356
:10209600121C40500F7887121C978F378E368D355D
:1020A6008C34800D786AE6FFE48F37F536F535F522
:1020B60034852D33852C32852B31852A30AF33AECE
:1020C60032AD31AC30AB41AA42A9431228448F400D
:1020D600E5406003022202AB41AA42A943AF39AEF2
:1020E60038122C2B8F3CE53C64E57003022180E519
:1020F6003C7003022180E539240BFFE4122C228F69
:102106003ED2A5E53E540E7071053BE53B700205D7
:102116003A7BFF7A2479DB853A53F55412175AE451
:10212600F53D122C1A8F3F122BCE053DE53DC3948B
:102136000840EFE53E30E41F753D08122C1A8F3F2C
:10214600122BCE053DE53DC3940B40EF7BFF7A2471
:1021560079E112175A80237F2E122BCE753D081275
:102166002C1A8F3F122BCE053DE53DC3940B40EF55
:102176007F0D122BCE7F0A122BCE74202539F5390E
:10218600E43538F538D3E53994FEE53894014063F3
:10219600E5332401F533E43532F532E43531F531F2
:1021A600E43530F530C3E533952DFFE532952CFE49
:1021B600E531952BFDE530952AFCAB37AA36A935D6
:1021C600A834D3121C404025AF33AE32AD31AC300B
:1021D600AB41AA42A9431228448F40E5406007E478
:1021E600F53AF53BF53CE4F538F5398006433A8097
:1021F600E4F53CE53C60030220DD8005E4F53AF5B4
:052206003BAE3AAF3BC6
:01220B0022B0
:0A1D1A008F2A8D2B8B2C8A2D892E29
:101D2400122CB7E52A25E054FEF532D293C29275FF
:101D34002F07E52FD3940A4065E53370617F0412C1
:101D44002CA2C29374017E00A82F088005C333CE51
:101D540033CED8F9FFE4FEEF5532A82F088006CE23
:101D6400A2E713CE13D8F8FF139292EF5401F5347F
:101D74007F04122CA2D293753101209308E53160BF
:101D840004053180F5E531700375330EE533700ACF
:101D9400A292336534600375330F152F8094E533B5
:101DA400701F7F04122CA2122C9CD2937531012037
:101DB4009308E5316004053180F5E531700375332E
:101DC4000EE5337006309203753310E4F530E530D8
:101DD400C3952B4003021E91E5336003021E9175E7
:101DE4002F07E52FD3940840727F04122CA2C293CC
:101DF400AB2CAA2DA92E853082758300121A6DFD95
:101E040074017E00A82F088005C333CE33CED8F9E1
:101E1400FFEDFBE4FEEF5BA82F088006CEA2E713DC
:101E2400CE13D8F8FF139292EF5401F5347F0412C5
:101E34002CA2D293753101209308E5316004053159
:101E440080F5E531700375330EE533700AA29233E1
:101E54006534600375330F152F8087E533701F7F5A
:101E640004122CA2122C9CD293753101209308E504
:101E7400316004053180F5E531700375330EE533C7
:101E840070063092037533100530021DD27F0412A0
:101E94002CA2C293C2927F07122CA2D29375310155
:101EA400209308E5316004053180F5E53170037550
:101EB400330EE533700AA292336534600375330F31
:041EC400D292AF33D4
:011EC80022F7
:0A1EC9008F2A8D2B8B2C8A2D892E79
:101ED300122CB7E52A25E04401F532D293C292755C
:101EE3002F07E52FD3940A4065E53370617F041211
:101EF3002CA2C29374017E00A82F088005C333CEA1
:101F030033CED8F9FFE4FEEF5532A82F088006CE72
:101F1300A2E713CE13D8F8FF139292EF5401F534CE
:101F23007F04122CA2D293753101209308E531600E
:101F330004053180F5E531700375330EE533700A1E
:101F4300A292336534600375330F152F8094E53304
:101F5300701F7F04122CA2122C9CD2937531012086
:101F63009308E5316004053180F5E531700375337D
:101F73000EE5337006309203753310E4F530E53027
:101F8300C3952B4003022036E5336003022036ABB2
:101F93002CE52E2530F9E4352DFA121A54E4121AE1
:101FA3009A752F07E52FD3940840507F04122CA273
:101FB300C2937F04122CA2D293753101209308E5BA
:101FC300316004053180F5E531700375330EE53377
:101FD3007025A29233F534AB2CE52E2530F9E43588
:101FE3002DFA121A54FFAE2FE534A806088002C357
:101FF30033D8FC4F121A9A152F80A9E533702F7F1F
:1020030004122CA2C293E52B14B53004D2928002A1
:10201300C2927F04122CA2D293753101209308E55A
:10202300316004053180F5E531700375330E0530F9
:10203300021F817F04122CA2C293C2927F07122C2B
:10204300A2D293753101209308E5316004053180F4
:10205300F5E531700375330EE533700AA2923365EB
:0A20630034600375330FD292AF33DF
:01206D002250
:062C9C00C293D2927F04F6
:102CA200308E03308FFDC28EBF0409E4F58DF58BA3
:052CB200C28FD28E224A
:102CB70053890F438910C2ABE4F58DF58BC28FD2D0
:022CC7008E225B
:100003003A012A04280029002000210022002300AD
:10001300240025002600270028012802218F280319
:100023002100280428052806280728082809280A63
:10003300280B280C20802190280D20002100280E59
:1000430020812191280F20002192281021002811BE
:1000530021932812210028132814281520822816FA
:1000630020002817281828192194281A2195281BBD
:100073002196281C2100281D2083281E2000281FCC
:1000830021972820210028212822282328242825D5
:100093002826282728282829282A2084282B2000B6
:1000A300282C282D282E282F283028312832208547
:1000B3002833200028342835283628372198283833
:1000C30021002839283A283B283C283D283E283F50
:1000D30028402841284228432844284528462847C1
:1000E30028482849284A284B284C284D284E284F71
:1000F3002850285128522853285428552856285721
:1001030028582859285A285B285C285D285E285FD0
:1001130028602861286221992863210028642865C2
:100123002866286728682869286A286B286C286D40
:10013300286E286F287028712872287328742875F0
:100143002876287728782879287A287B287C287DA0
:10015300287E287F28802881288228832884288550
:100163002886288728882889288A288B288C288D00
:10017300288E288F289028912086289220872893DC
:100183002000289428952896289728982899289A13
:10019300289B289C289D289E289F219A28A02100DF
:1001A30028A128A228A328A428A528A628A728A8E8
:1001B30028A928AA28AB28AC28AD28AE28AF28B098
:1001C30028B128B228B328B428B528B628B728B848
:1001D30028B9208828BA200028BB208928BC200001
:1001E30028BD28BE28BF28C028C128C228C3219BF8
:1001F30028C4210028C528C628C728C828C928CA52
:1002030028CB28CC28CD28CE28CF28D028D128D237
:1002130028D328D428D528D628D728D828D928DAE7
:1002230028DB28DC28DD28DE28DF28E028E1208AF7
:1002330028E2208B28E3200028E428E528E628E7A5
:1002430028E828E928EA28EB28EC28ED28EE28EF0F
:1002530028F028F128F228F328F428F528F628F7BF
:1002630028F8208C28F92000219C28FA219D28FBBE
:10027300208D219E28FC208E219F28FD2000210017
:1002830028FE28FF2A012800220123952489250717
:1002930026A42707280121C72200238026C4270C70
:1002A30028022009211C220426AA270A2803200049
:1002B3002100220023A626A02707280428052005BD
:1002C300238426B42709280620002203230024813F
:1002D30025C026AB270A280721AE220023952489AF
:1002E300250726A42700280821482201238026C4A5
:1002F300270C280920092104220426AA270A280AF0
:1003030020002100220023A826A42707280B280C5D
:1003130021402220238026C4270C280D222426C610
:10032300280E219E220026C8280F2009210222140C
:1003330026AA270A2810200521002200238426B498
:1003430027092811200021012300240125C026AB01
:10035300270A281221C3239524892507262027004D
:100363002813200321C223832626270D281421B313
:0D03730022082815200021C622002395260F
:100380000027082816210023002496250326AA27E3
:100390000A2817204221B6238024892507281820FF
:1003A0000021002394260E2819200F238426B42729
:1003B00009281A2000239326A82703281B2628276C
:1003C00000281C21012300240125C026AB270A2870
:1003D0001D21C523952489250726202700281E21B5
:1003E0000023942600270A281F260E2820200321F8
:1003F00079220123832626270D2821213228222035
:1004000000210422002380240025FC26AA270A2894
:1004100023210023002500282421A3220D2380244A
:100420009E253B2825204221572201248925072883
:100430002620002143220D240025382827210822C8
:10044000982395248925072624270028282042213F
:10045000932201238026AA270A28292003217E220D
:100460000423832626270D282A200021B0220023DA
:100470009526A02707282B21002300240C250426DD
:10048000AA270A282C21022380248625C326AB28EC
:100490002D2042219722012489250726AA282E20D3
:1004A0000021002200241F2504282F21B223952497
:1004B0008925072620270428302042218B22042367
:1004C0008026AA270A2831200021B1220023952660
:1004D000A0270728322003217522042383262627FC
:1004E0000D2833200521002200238426B427092863
:1004F00034200021602300240125C026AB270A28D0
:1005000035210822982395248925072624270028A9
:100510003621BC2200283721A3220D2300240125E7
:10052000C026AB270A28382160220023802400251A
:100530003826AA28392106229823952489250726BA
:10054000242700283A21BE2200283B200521002331
:100550008426B42709283C2000216023002401259B
:10056000C026AB270A283D21422201239524892554
:100570000726242700283E210C229826A427072896
:100580003F21082840216022002300240125C026A5
:10059000AB270A2841210C22982395248925072678
:1005A0002427002842200521002200238426B42786
:1005B000092843200023802400251026AB270A2881
:1005C0004421222201239524892507262427002857
:1005D000452100220023002404251226AA270A28E8
:1005E00046200321D4220523832489250726262794
:1005F0000D28472000216022002300240125C02669
:10060000AB270A284821B3239524892507260027EC
:10061000082849210023002409250026AA270A28A2
:100620004A210223802486253B284B204221DD22BB
:100630000524892507284C200021002200241F259D
:1006400000284D21B323952489250726202700283B
:100650004E210023002497250326AA270A284F208D
:100660004221E222052380248925072850200021E9
:100670001022002300248025CC26AB285121002203
:100680004023B42489250726AA27042852220023C0
:10069000B0269227092853211422012395260027EA
:1006A000082854214823A4262A270028552100225F
:1006B0000023002409250026AA270A2856210823FA
:1006C000802486253B285720422111220724892592
:1006D000072858200021002200241F250028592126
:1006E00014220123952489250726202700285A2132
:0D06F0001626022709285B210022002300A6
:1006FD002480254826AA270A285C23A024892507BB
:10070D0026142709285D2480255026A42704285E59
:10071D00211622012395248925072700285F21040E
:10072D0022002300249C257826AA270A286021432D
:10073D00220D240125C426AB286121032200241596
:10074D00286221002400250026AA2863215E239516
:10075D002489250726102709286421032300241541
:10076D0025C426AB270A28652100238024002506F1
:10077D0026AA2866248F25E326AB2867204221CDA3
:10078D0022072489250726AA286820002160220037
:10079D002300240125C026AB286921002380248F46
:1007AD00250326AA286A204221DD22072489250750
:1007BD00286B20002143220D2300240125C026ABE8
:1007CD00286C210022002400250426AA286D200370
:1007DD00217F22012383248925072626270D286EB4
:1007ED002162286F200521002200238426B42709C9
:1007FD002870200021062395260027082871210145
:10080D0023002497253B26AA270A28722042210E71
:10081D00220823802489250728732003213C220BDD
:10082D0023832626270D28742000210322002395DB
:10083D0026022708287521272300248125C426ABED
:10084D00270A2876210023802409254826AA2877FF
:10085D002158223423A324892507262A2700287806
:10086D002100220023A026002709287921072380B3
:10087D002403253926AA270A287A21042300241CBB
:10088D002538287B2107238024832539287C2103C3
:10089D0023952489250726022708287D2127230053
:1008AD00248125C426AB270A287E21002380240914
:1008BD00254826AA287F2158223423A324892507D9
:1008CD00262A27002880210622002300248125C006
:1008DD00269327012881210023802489254826AAD3
:1008ED00270A28822002216622082300240025667B
:1008FD0028832000210022002380241F2502288424
:10090D0021062489250726DC270C2885210023AA0A
:10091D0026AA270A288623B626002708288723809B
:10092D002486253B26AA270A288821052489250700
:10093D0026DC270C2889210023AA26AA270A288A23
:10094D0023B626002708288B23802486253B26AA3C
:10095D00270A288C2042217B220824892507288DEF
:10096D00200021002200230024012582288E21054C
:10097D00248125C226AB288F2003219322082383AF
:10098D00248925072626270D2890200021052200E1
:10099D002300248125C026132701289121002380BF
:1009AD002489254826AA270A28922002217E22087A
:1009BD002300240025662893200021002200238097
:1009CD00241F2502289421052489250726DC270CC0
:1009DD002895210023AA26AA270A289623B62600A1
:1009ED002708289723802486253B26AA270A28989E
:1009FD0021052489250726DC270C2899210023AA07
:100A0D0026AA270A289A2380241F2502289B210124
:100A1D002300248125C226AB289C20032193220884
:100A2D002383248925072626270D289D20002104B0
:100A3D002200239526122708289E216023C426AA6A
:100A4D002704289F210023C02600270928A0204223
:100A5D0021CB2208238026AA270A28A12070215401
:0D0A6D0022B823952612270828A220022176
:100A7A00CC2208238026AA270A28A3200321CA22D7
:100A8A000F23832626270D28A420002100220023D5
:100A9A0000248C250C26AA270A28A52104248225AD
:100AAA007828A6210023802489254826122704288D
:100ABA00A7200321DE220F238325072626270D28B8
:100ACA00A82000210122002300249C257826AA2799
:100ADA000A28A9210023802481254028AA2003214D
:100AEA00CF220F2383248925072626270D28AB200A
:100AFA0070210822B8239526A0270428AC200321B8
:100B0A00D4220F23832626270D28AD2127220B283E
:100B1A00AE2070216322B823952612270828AF2019
:100B2A0000210122002380248625CB26AB270A2810
:100B3A00B0204221DD22082489250726AA28B120CF
:100B4A000021182280239526A4270028B2200321F9
:100B5A00D9220F23832626270D28B32070210A22A3
:100B6A00B8239526A0270028B4200221E0220823D2
:100B7A008026AA270A28B52070210A22B82395269A
:100B8A00A0270028B621542602270828B7200021CA
:100B9A0018228026A4270028B821002200238024B6
:100BAA0080254826AA270A28B92070215E22B82360
:100BBA0095248925072612270828BA200021002211
:100BCA000023802409254B26AA270A28BB20702146
:100BDA005F22B82395248925072610270828BC20D8
:100BEA0000210022002300241C258326AB270A2883
:100BFA00BD2003213222092383248925072626279B
:100C0A000D28BE20002100220023002482258C26E4
:100C1A00AB270A28BF2003212522092383248925FB
:100C2A00072626270D28C0204221BC238026AA2772
:100C3A000A28C12000210122002300240125C02600
:100C4A00AB28C22070210F22B823952489250726B4
:100C5A0020270028C3200321E3220F2383262627E7
:100C6A000D28C4200521002200238426B427092840
:100C7A00C52000210323952614270828C621A62368
:100C8A00A4262A270528C7210023A02644270928A5
:100C9A00C82118226D2380249E257B26AA270A288C
:100CAA00C920422113220B2489250728CA200021A2
:100CBA00AE220023952624270028CB2100220323D5
:100CCA00802487257B26AA270A28CC20422116229F
:100CDA000B2489250728CD200021AE220023952642
:100CEA0024270028CE20052100238426B42709289A
:100CFA00CF2003210D220B23832626270D28D0205F
:100D0A000021002200230024802602270028D12364
:100D1A008024092548261E28D22158223423332428
:100D2A00802507262A28D32100220023002680278F
:100D3A001028D421102363262A270028D52100232E
:100D4A006026A8271228D621AF224C230026C827BE
:100D5A000C28D7210022002680270528D8238024A2
:100D6A0086253B261E270028D92042211C220E2335
:100D7A00002480250728DA20002135222926C427C5
:100D8A000C28DB2002211D220E261E270028DC202B
:100D9A0000217F223426C4270C28DD2100220023CB
:100DAA0090249F25042610270A28DE230024842560
:100DBA00002680271028DF210623632480250726A2
:100DCA002A270028E021002380248926AA270A2826
:100DDA00E12005238426B4270928E2207021612214
:0D0DEA00B823952612270828E320002101D8
:100DF70022002380248625C326AB270A28E4204225
:100E070021CE220F2489250726AA28E52070215004
:100E170022B823952612270828E62005210022005C
:100E2700238426B4270928E72070216422B8239554
:100E37002612270828E82000210122002380248683
:100E470025C326AB270A28E9204221D3220F24896C
:100E5700250726AA28EA2070215122B823952612B1
:100E6700270828EB200521002200238426B4270920
:100E770028EC2070216522B823952612270828ED33
:100E87002000210122002380248625C326AB270AC0
:100E970028EE204221D8220F2489250726AA28EFE9
:100EA7002070215222B823952612270828F0200502
:100EB70021002200238426B4270928F1207021610C
:100EC70022B823952602270828F2200021012200B4
:100ED7002380248625C326AB270A28F3204221DD59
:100EE700220F2489250726AA28F42070215022B82A
:100EF70023952602270828F52005210022002384B0
:100F070026B4270928F6200021012380248625CB33
:100F170026AB270A28F7204221E1220F248925073B
:100F270026AA28F82000210222002300248125C4B4
:100F370026AB28F9210023802489254826AA28FAE8
:100F470020052384250726B4270928FB2070214E76
:100F570022B823952610270828FC2000210022000C
:100F67002380248625C326AB270A28FD204221E7B4
:100F7700220F2489250726AA28FE200021BB22004C
:100F870023952620270028FF20052100238426B447
:100F970027092A081001FFFFFFFF3A00643A65BBE3
:100FA700083A09BB50105267517705A1180454013C
:100FB70055210700060C0B03501051005204610F16
:0C0FC7006455655505A11804FFFFFFFFED
:03000000022CD8F7
:0C2CD800787FE4F6D8FD7581940224E8B2
:101A5400BB010689828A83E0225002E722BBFE0290
:091A6400E32289828A83E49322C3
:101A6D00BB010CE58229F582E5833AF583E022502E
:101A7D0006E92582F8E622BBFE06E92582F8E22278
:0D1A8D00E58229F582E5833AF583E4932292
:101A9A00BB010689828A83F0225002F722BBFE012B
:021AAA00F32225
:101AAC00F8BB010DE58229F582E5833AF583E8F070
:101ABC00225006E92582C8F622BBFE05E92582C81C
:021ACC00F22204
:101ACE00BC000BBE0029EF8DF084FFADF022E4CCFC
:101ADE00F875F008EF2FFFEE33FEEC33FCEE9DECC5
:101AEE00984005FCEE9DFE0FD5F0E9E4CEFD22ED0B
:101AFE00F8F5F0EE8420D21CFEADF075F008EF2F55
:101B0E00FFED33FD4007985006D5F0F222C398FD45
:051B1E000FD5F0EA22E2
:101B2300E88FF0A4CC8BF0A42CFCE98EF0A42CFC61
:101B33008AF0EDA42CFCEA8EF0A4CDA8F08BF0A4DF
:101B43002DCC3825F0FDE98FF0A42CCD35F0FCEB3E
:101B53008EF0A4FEA9F0EB8FF0A4CFC5F02ECD3903
:0F1B6300FEE43CFCEAA42DCE35F0FDE43CFC2270
:101B720075F008758200EF2FFFEE33FECD33CDCC2A
:101B820033CCC58233C5829BED9AEC99E5829840AD
:101B92000CF582EE9BFEED9AFDEC99FC0FD5F0D68A
:101BA200E4CEFBE4CDFAE4CCF9A88222B800C1B9B4
:101BB2000059BA002DEC8BF084CFCECDFCE5F0CBF2
:101BC200F97818EF2FFFEE33FEED33FDEC33FCEB2B
:101BD20033FB10D703994004EB99FB0FD8E5E4F9E6
:101BE200FA227818EF2FFFEE33FEED33FDEC33FCD3
:101BF200C933C910D7059BE99A4007EC9BFCE99AC7
:101C0200F90FD8E0E4C9FAE4CCFB2275F010EF2F0B
:101C1200FFEE33FEED33FDCC33CCC833C810D7070B
:101C22009BEC9AE899400AED9BFDEC9AFCE899F846
:0E1C32000FD5F0DAE4CDFBE4CCFAE4C8F922D9
:101C4000EB9FF5F0EA9E42F0E99D42F0E89C45F0FA
:011C50002271
:101C5100E8600FECC313FCED13FDEE13FEEF13FF71
:031C6100D8F12295
:101C6400E8600FEFC333FFEE33FEED33FDEC33FCDE
:031C7400D8F12282
:101C7700BB010789828A83021CBC5005E9F8021C54
:101C870097BBFE05E9F8021CC889828A83021CD427
:0C1C9700E6FC08E6FD08E6FE08E6FF2279
:0D1CA300E6FB08E6F908E6FA08E6CBF822B1
:0C1CB000ECF608EDF608EEF608EFF62260
:102BCE00EFB40A07740D122BD9740A309811A89914
:102BDE00B8130CC2983098FDA899C298B811F63067
:072BEE0099FDC299F599223F
:1016F800E55F2453F8E6055F2278503007027853F7
:10170800E475F001121CE4021A542000EB7F2ED27B
:10171800008018EF540F2490D43440D4FF30040BC9
:10172800EF24BFB41A0050032461FFE5606002157E
:10173800600563E5637002056230070D7850E47553
:10174800F001121CE4EF021A9A022BCE7403D2079E
:101758008003E4C207F55F8B508A518952E4F56033
:10176800F562F563E56060077F2012173380F57531
:1017780061FFC201C200C202C203C205C206C2089A
:10178800121701FF700D3007057F00121744AF6371
:10179800AE6222B4255FC2D5C204121701FF24D05D
:1017A800B40A00501A75F00A786030D50508B6FFFB
:1017B8000106C6A426F620D5047002D20380D924D7
:1017C800CFB41A00EF5004C2E5D204021944D20182
:1017D80080C6D20080C0D20280BCD2D580BAD205E1
:1017E80080B47F201217332002077401B5600040CF
:1017F800F11216F8FF12173302176CD208D20680BE
:10180800951216F8FB1216F8FA1216F8F94A4B70E8
:101818000679157A1A7BFF20022EE560602A7E0081
:101828008E82758300121A6D60060EEE656170F087
:10183800C2D5EBC0E0EAC0E0E9C0E0EE12198BD0F7
:10184800E0F9D0E0FAD0E0FB121A54FF60AAEBC02E
:10185800E0EAC0E0E9C0E0121733D0E02401F9D093
:10186800E03400FAD0E0FBE5610460DCD561D980A2
:10187800877BFF7A197987D202809C791080027958
:1018880008C206C2088008D2D5790A8004790AC23B
:10189800D5E561047002F561E4FAFDFEFF1216F861
:1018A800FC7B082001131216F8FD7B1030000A1289
:1018B80016F8FE1216F8FF7B20EC3382D592D5502D
:1018C80013C3E43000069FFFE49EFEE42001039D5D
:1018D800FDE49CFCE4CBF8C201EC700CCFCECDCC7F
:1018E800E824F8F870F38017C3EF33FFEE33FEED0A
:1018F80033FDEC33FCEB33FB994002FB0FD8E9EBEB
:10190800300105F8D0E0C448B201C0E00AEC4D4E01
:101918004F78207B0070C2EAB5610040BCC0E0127D
:10192800198DD0F0D0E0200104C4C0E0C4B201C0D9
:10193800F012171CD0F0D5F0EB02176C121CF4183B
:10194800095318835817DA4C17D64218874F188F3F
:0F19580044188F4917EF43189555187946187999
:10196700451879471A355017DE2D17E22E18052B23
:1019770017E6231803201A1E2A179E48000017FD92
:101987003F3F3F00790AA2D5200314300509B9105B
:10199700020404B9080104A2D5200602500104205C
:1019A70002689202B560005034C0E07F203003190E
:1019B7007F30A20272067205500F1219E4C202C2EA
:1019C70006C205C2087F30800F300503E9C0E01268
:1019D7001733300503D0E0F9D0E0B560CC300517F8
:1019E7007F30B9100C1217337F583004077F788087
:1019F70003B908031217333002057F2D0217337F0F
:101A0700202008F87F2B2006F322920280CF286E31
:101A1700756C6C2900D2011216F83001F8C20178F2
:101A27006030D50108F602179E2D5043495812160B
:101A3700F82403B405004001E4901A3093121724E8
:0D1A4700743A121724D2037560040218834C
:0C1CBC00E0FCA3E0FDA3E0FEA3E0FF229B
:0C1CC800E2FC08E2FD08E2FE08E2FF2258
:101CD400E493FC740193FD740293FE740393FF2256
:101CE400FAE6FB0808E6F925F0F618E6CA3AF62201
:101CF400D083D082F8E4937012740193700DA3A37F
:101D040093F8740193F5828883E473740293686092
:061D1400EFA3A3A380DF92
:00000001FF
