:10136700456E746572206120426C6F636B004E7529
:101377006D6265723A2000252D33357300456E7412
:101387006572206120426C6F636B204E756D6265DC
:021397007200E2
:100F9900C2A61214821212FD7F807E1A7D067C0081
:100FA9001210F11210838F08C2A4C2A7E5086004C9
:100FB900C2A78002D2A77FE87E03121399D2A4D2D6
:100FC900A7C200750F801214657BFF7A1379677FBA
:100FD9000D1211B7C200750FC01214657BFF7A1389
:100FE90079757F081211B7750DFF750E13750F848A
:100FF9007BFF7A13797E1208621200008F0912149E
:061009009E120E9880A269
:10128D00436F6465204D656D6F72793A20537472AA
:10129D00696E6720666F7220436F6C746F6E20509D
:1012AD0069657263652026204D61747468657720C9
:0812BD00576564657765720056
:0714B9007BFF7A12798D22FE
:10133300E4FFEF90128D93FE74012FF582E43400E5
:10134300F583EEF00F70EB9000007458F0A3746413
:10135300F0A37461F0A37474F0A37461F07B017A59
:031363000079000E
:011366002264
:101207002570200025322E32625820004164647216
:101217002E20202030202031202032202033202073
:101227003420203520203620203720203820203930
:1012370020204120204220204320204420204520F8
:0512470020460A0D0025
:100F21008B3E8A3F89408B0D8A0E890F7BFF7A1297
:100F31007907120862E4F541AB3EAA3FA940854119
:100F410082758300120B75F5427BFF7A12790BF5DE
:100F51000D1208620541E541C3941040DBE4F541FF
:100F6100AB3EAA3FA940854182758300120B75F5FE
:100F710042C394204007E542D3947F400375422E3B
:100F8100AF421214140541E541C3941040D27F0DC4
:080F91001214147F0A0214146B
:0A1158008C328D338B2F8A308931E1
:101162008B348A358936AF0153070F7E00C3E49F63
:10117200FFE49EFEEF2536F536EE3535F5357BFF7D
:101182007A127913120862AB34AA35A936120F21EA
:1011920074102536F536E43535F535E5312533F964
:1011A200E5303532FA8A838982C3E5369582E535A0
:0411B200958340D30E
:0111B6002216
:10148200759AE285878753877F759850E4F59B7537
:0C1492009AE2759B1ED299C2ACFEFF22AC
:101399005389F0438901C2A9E4FDFCC3ED9FEC9E8A
:1013A9005016758CFA758A1FC28DD28C308DFDC28C
:0813B9008C0DBD00010C80E366
:0113C1002209
:1013C2005389F0438901C2A9E4FDFCC3ED9FEC9E61
:1013D2005016758CFA758A1FC28DD28C308DFDC263
:0813E2008C0DBD00010C80E33D
:0113EA0022E0
:05146000C200750F3809
:10146500A20092B6D2B77F0A7E00121399850F802B
:0D147500C2B77F017E001213997580FF221F
:0811B7008F0A8B0B8A0C890DD5
:1011BF00E50A701FF50EAB0BAA0CA90D850E8275F3
:1011CF008300120B75FF602FD200F50F1214650507
:1011DF000E80E3E4F50EE50EC3950A501AD200AB6C
:1011EF000BAA0CA90D850E82758300120B75F50FD6
:0711FF00121465050E80DFEC
:0112060022C5
:1012FD007F1E7E001213991214607F057E0012135B
:10130D0099121460121460C200750F0F121465C289
:10131D0000750F011214657F027E00121399C20031
:06132D00750F06021465B5
:0F149E00C200750F011214657F027E00021399C0
:10108300D294E4F50F7B007A00790A7FFF1213F301
:10109300050FE50FC3940A40EC7B007A00790A122E
:1010A30012C5EF7008FB7A00790A12124CEF700F29
:1010B300FB7A00790A12143BE50AB401027F05EFBB
:1010C3007008FB7A00790A120D7FEF7019FB7A0022
:1010D300790A12143BE50B54C0700BE50B30E7049F
:0D10E3007F0780027F05EF6002C2A7D29454
:0110F00022DD
:0612C5008B108A11891252
:1012CB00C294E4F51CF51BF51AF519FF120E98EFF5
:1012DB00700BAB10AA11A9127F0112100FEF700F38
:1012EB00AB10AA11A912120B5C640160027F05D22C
:0112FB00945E
:0112FC0022CF
:06124C008B108A118912CB
:10125200C294E4751CAA751B01F51AF5197F0812D0
:101262000E98EF700BAB10AA11A9127F0512100F86
:10127200AB10AA11A912120B5CFEB405047F058003
:0A12820007EE640160027F06D294BB
:01128C00223F
:06143B008B108A118912DA
:10144100C294E4F51CF51BF51AF5197F3A120E98B2
:0E145100EF700BAB10AA11A9127F0512100F3D
:01145F00226A
:060D7F008B108A1189129D
:100D8500E4F517F516F515751440C294F51305131A
:100D9500E4F51CF51BF51AF5197F37120E98EF705F
:100DA5000BAB10AA11A9127F0112100FAB10AA11DB
:100DB500A912120B5CFE6006640160027F02EF70EF
:100DC5001185171C85161B85151A8514197F29127F
:100DD5000E98EF700BAB10AA11A9127F0112100F1C
:100DE500AB10AA11A912120B5CFE60066401600229
:100DF5007F020513EE6007E5136003EF6090E513CE
:060E050070027F01D2948F
:010E0B0022C4
:0E0CED008F258E248D238C228B268A27892822
:100CFB00C294E4F5298F1C8E1B8D1A8C197F11124F
:100D0B000E980529EF700AFB7A00792A7F011210E1
:100D1B000F742A44006004E52970E7E52970027F0F
:100D2B0001E4F5290529EF700BFB7A00792A7F0185
:100D3B00FE120E0CE52A64FE600DE52A54F06007E6
:100D4B00E5296003EF60DDE52970027F01E52A5498
:100D5B00F070027F08EF700CAB26AA27A928FF7E44
:100D6B0002120E0CEF700AFB7A00792A7F02121026
:030D7B000FD29400
:010D7E002252
:1010F100E4F50AAB07AA06A905A804FF7EA07D8C2A
:10110100FC120C12EFD39402500575C3708045EFA9
:10111100D39404500575C371803AEFD394085005F8
:1011210075C372802FEFD39410500575C37380245B
:10113100EFD39420500575C3F08019EFD39440503C
:101141000575C3F1800EEFD39480500575C3F2800D
:0611510003750A04AF0A59
:011157002275
:0813EB007B007A00791C7FFFF2
:1013F300E4FE8FC5AFC40EEF20E703EE70F6EE6098
:101403000BE5C5120BA2EF5470FE80027E01AF06FE
:0114130022B6
:020E98008F18B1
:100E9A00E518C39440507BE5184440FCFF7B007A78
:100EAA0000791D1213F3AD07751E18ED70047F014A
:100EBA0080027F00E51EC3941950047E0180027EE1
:100ECA0000EE5F6024AF1CAE1BAD1AAC19A91EA8B8
:100EDA0001120CA4AC077B007A00791D1213F3AD42
:100EEA000774F8251EF51E80C2E51870047C9580EB
:100EFA000BE518B408047C8780027C01ED700CAF06
:100F0A0004FB7A00791D1213F3AD07ED70067D021A
:060F1A0080027D03AF051B
:010F200022AE
:08100F008F188B198A1A891B46
:10101700E4FDFC1213EBAC070DED6008EC7005E581
:101027001CF460EFAB19AA1AA91BE51C120BA2ED61
:1010370070047C01803AEC60047C028033E51C6418
:10104700016008E51C60047C028025E518D3940143
:10105700401E7D01EDC3951850161213EBAB19AA6C
:101067001AA91B8D82758300E51C120BB40D80E451
:0B107700EC7006FB1213EDAC07AF0499
:01108200224B
:0A0E0C008E378F388B398A3A893B04
:100E1600E4FDF53C7B007A00793D7FFF1213F38FEA
:100E26003C0DED6009E53C7005E53DF460E6AB3947
:100E3600AA3AA93BE53D120BA2ED7005753C01806F
:100E46004EE53C6002800AE53D64016009E53D60CF
:100E560005753C028039D3E5389401E537940040A6
:100E66002E7D017C00C3ED9538EC953750217B0033
:100E76007A00793D7FFF1213F3AB39AA3AA93B8D6D
:100E8600828C83E53D120BB40DBD00010C80D6AFFC
:010E96003C1F
:010E97002238
:030000000214AD3A
:0C14AD00787FE4F6D8FD758142020F99AB
:100B5C00BB010689828A83E0225002E722BBFE0297
:090B6C00E32289828A83E49322CA
:100B7500BB010CE58229F582E5833AF583E0225035
:100B850006E92582F8E622BBFE06E92582F8E2227F
:0D0B9500E58229F582E5833AF583E4932299
:100BA200BB010689828A83F0225002F722BBFE0132
:020BB200F3222C
:100BB400F8BB010DE58229F582E5833AF583E8F077
:100BC400225006E92582C8F622BBFE05E92582C823
:020BD400F2220B
:100BD60075F008758200EF2FFFEE33FECD33CDCCD6
:100BE60033CCC58233C5829BED9AEC99E582984059
:100BF6000CF582EE9BFEED9AFDEC99FC0FD5F0D636
:100C0600E4CEFBE4CDFAE4CCF9A88222B800C1B95F
:100C16000059BA002DEC8BF084CFCECDFCE5F0CB9D
:100C2600F97818EF2FFFEE33FEED33FDEC33FCEBD6
:100C360033FB10D703994004EB99FB0FD8E5E4F991
:100C4600FA227818EF2FFFEE33FEED33FDEC33FC7E
:100C5600C933C910D7059BE99A4007EC9BFCE99A72
:100C6600F90FD8E0E4C9FAE4CCFB2275F010EF2FB7
:100C7600FFEE33FEED33FDCC33CCC833C810D707B7
:100C86009BEC9AE899400AED9BFDEC9AFCE899F8F2
:0E0C96000FD5F0DAE4CDFBE4CCFAE4C8F92285
:100CA400E8600FECC313FCED13FDEE13FEEF13FF2E
:030CB400D8F12252
:10141400EFB40A07740D12141F740A309811A899B6
:10142400B8130CC2983098FDA899C298B811F63038
:0714340099FDC299F5992210
:10080000E519240DF8E6051922780A300702780D5B
:10081000E475F001120CB7020B5C2000EB7F2ED2C6
:10082000008018EF540F2490D43440D4FF30040BD0
:10083000EF24BFB41A0050032461FFE51A600215CB
:100840001A051DE51D7002051C30070D780AE475B8
:10085000F001120CB7EF020BA20214147403D207BA
:100860008003E4C207F5198B0A8A0B890CE4F51A98
:10087000F51CF51DE51A60077F2012083B80F57511
:100880001BFFC201C200C202C203C205C206C208E7
:10089000120809FF700D3007057F0012084CAF1DCC
:1008A000AE1C22B4255FC2D5C204120809FF24D0B1
:1008B000B40A00501A75F00A781A30D50508B6FF48
:1008C0000106C6A426F620D5047002D20380D924DE
:1008D000CFB41A00EF5004C2E5D204020A4CD20190
:1008E00080C6D20080C0D20280BCD2D580BAD205E8
:1008F00080B47F2012083B2002077401B51A004023
:10090000F1120800FF12083B020874D208D20680D8
:1009100095120800FB120800FA120800F94A4B7001
:1009200006791D7A0B7BFF20022EE51A602A7E00D5
:100930008E82758300120B7560060EEE651B70F0DB
:10094000C2D5EBC0E0EAC0E0E9C0E0EE120A93D005
:10095000E0F9D0E0FAD0E0FB120B5CFF60AAEBC03C
:10096000E0EAC0E0E9C0E012083BD0E02401F9D0A1
:10097000E03400FAD0E0FBE51B0460DCD51BD98035
:10098000877BFF7A0A798FD202809C791080027966
:1009900008C206C2088008D2D5790A8004790AC242
:1009A000D5E51B047002F51BE4FAFDFEFF120800FA
:1009B000FC7B08200113120800FD7B1030000A1296
:1009C0000800FE120800FF7B20EC3382D592D55040
:1009D00013C3E43000069FFFE49EFEE42001039D64
:1009E000FDE49CFCE4CBF8C201EC700CCFCECDCC86
:1009F000E824F8F870F38017C3EF33FFEE33FEED11
:100A000033FDEC33FCEB33FB994002FB0FD8E9EBF1
:100A1000300105F8D0E0C448B201C0E00AEC4D4E08
:100A20004F78207B0070C2EAB51B0040BCC0E012CA
:100A30000A95D0F0D0E0200104C4C0E0C4B201C0E7
:100A4000F0120824D0F0D5F0EB020874120CC7099C
:100A50001153098B5808E24C08DE42098F4F099761
:0F0A60004409974908F743099D550981460981C3
:100A6F00450981470B3D5008E62D08EA2E090D2B4D
:100A7F0008EE23090B200B262A08A64800000905BB
:100A8F003F3F3F00790AA2D5200314300509B91062
:100A9F00020404B9080104A2D52006025001042063
:100AAF0002689202B51A005034C0E07F203003195B
:100ABF007F30A20272067205500F120AECC202C2F8
:100ACF0006C205C2087F30800F300503E9C0E0126F
:100ADF00083B300503D0E0F9D0E0B51ACC3005174C
:100AEF007F30B9100C12083B7F583004077F788095
:100AFF0003B9080312083B3002057F2D02083B7F24
:100B0F00202008F87F2B2006F322920280CF286E38
:100B1F00756C6C2900D2011208003001F8C20178FF
:100B2F001A30D50108F60208A62D5043495812086D
:100B3F00002403B405004001E4900B389312082CF5
:0D0B4F00743A12082CD203751A0402098BA7
:100CB700FAE6FB0808E6F925F0F618E6CA3AF6223E
:100CC700D083D082F8E4937012740193700DA3A3BC
:100CD70093F8740193F5828883E4737402936860D0
:060CE700EFA3A3A380DFD0
:00000001FF
