:104476005389F0438901C2A9E4FDFCC3ED9FEC9E7C
:104486005016758CF4758A3DC28DD28C308DFDC266
:084496008C0DBD00010C80E358
:01449E0022FB
:0544C600C209754B382E
:1044CB00A20992B6D2B77F0A7E00124476854B8042
:0D44DB00C2B77F017E001244767580FF227B
:0842B8008F468B478A488949B3
:1042C000E546701FF54AAB47AA48A949854A827559
:1042D0008300122954FF602FD209F54B1244CB05FD
:1042E0004A80E3E4F54AE54AC39546501AD209AB41
:1042F00047AA48A949854A82758300122954F54B7B
:074300001244CB054A80DFE7
:014307002293
:104415007F1E7E001244761244C67F057E0012443C
:10442500761244C61244C6C209754B0F1244CBC25C
:1044350009754B011244CB7F027E00124476C209F6
:06444500754B060244CB9A
:0F459900C209754B011244CB7F027E00024476AB
:1037D500E4F54674482546F8E4F60546E546B40B97
:1037E500F274FFF556F555F554F553E4F5461245D3
:1037F500888F47E547C394304012E547D394395045
:103805000B74482546F8A6470546804AE5476408EF
:103815006005E547B47F0B154674482546F8E4F680
:10382500802AE547640D6005E547B40A1A7B007AEE
:103835000079481236F78F568E558D548C537F0D6F
:1038450012449F7F0A800C7F0812449F7F201244F8
:103855009F7F0812449FE546B40A1B7B007A0079D6
:10386500481236F78F568E558D548C537F0D124462
:103875009F7F0A12449F74FFFFFEFDFCAB56AA55BD
:10388500A954A853C3122B2770030237F3AF56AEC2
:0538950055AD54AC53D9
:01389A00220B
:10361100494E41435449564520310A0D00494E4116
:10362100435449564520320A0D00444F4E450A0D78
:1036310000252D323073004D6F756E74696E6720F1
:10364100447269766500696E697420646F6E650005
:10365100252D31307300636F6E6669672065727264
:10366100200025322E326258004552524F523121EC
:103671002000746573745F69326320657272200083
:10368100252D33357300456E746572206120426CBF
:103691006F636B204E756D6265723A20004E756DD9
:1036A10062657220746F6F206C617267652E0A0DFE
:1036B1000072657475726E5F656E7472790025387B
:1036C1002E386C58007761732061206469726563DC
:1036D100746F727900736563746F725F6261736591
:1036E1005F670077617320612066696C65004552F0
:0636F100524F522120009F
:03002B0002172396
:10172300C0E0C0F0C083C082C0D075D000C000C08C
:1017330001C002C003C004C005C006C007C2CFC2B7
:101743008C758C00758A00C28DD28CE47F01FEFDFE
:10175300FC78D1122B6AC3122B2770197F40FEFD30
:10176300FC78B1122B6AC3122B27400978D1122BB4
:101773008300000003E47F02FEFDFC78D1122B6A94
:10178300C3122B2770197F40FEFDFC78B1122B6A20
:10179300C3122B27400978D1122B83000000047851
:1017A300D1122B5E122B9C18AA000000011A4600CE
:1017B3000000021900000000031AA0000000041733
:1017C300DE00000005197D0000000619630000001B
:1017D300071AF90000000800001B0DC2A4D2A5D20D
:1017E300A6D2A7D291C2B3209071208D6E78B9E6AC
:1017F300FE08E62400F58274003EF583E0FF7B00DB
:101803007A0079D512444B78BA06E618700106D3EC
:1018130078BAE694FF18E6940140CCD378BCE694FA
:10182300FF18E694014027E47F03FEFDFC78C11214
:101833002B6AC3122B27700B78C1122B8300000075
:1018430000801478D1122B8300000002800978D124
:10185300122B8300000006D28D808C309038E47FF9
:1018630005FEFDFC78D1122B6AC3122B2770277B50
:10187300FF7A3679111222EAD378BCE694FF18E690
:10188300940178D14009122B8300000002800712D3
:101893002B83000000073090097BFF7A36791E12F4
:1018A30022EAC291021B0DD2A4D2A5D2A6D2A77856
:1018B300B1122B5E78CD122B6AEB2FFFEA3EFEE9C5
:1018C3003DFDE83CFC78B5122B7778B5122B5E7B97
:1018D300017A007900123CAA78B1122B5EEF240141
:1018E300FFE43EFEE43DFDE43CFC78B1122B777847
:1018F300D1122B830000000878B9021A99D2A4C22E
:10190300A5D2A6D2A778C5122B5E7527007528002D
:1019130012395E78C5122B7774FFFFFEFD7C0F78BA
:10192300C5122B6AC3122B2770147BFF7A36792BCF
:101933001222EA78C1122B8300000003801678C5B7
:10194300122B5E12414F78CD122B7778B1122B8375
:101953000000000078D1122B8300000008021B0D49
:10196300D2A4D2A5D2A6D2A7309003021B0D78D160
:10197300122B8300000005021B0DD2A4D2A5C2A620
:10198300D2A7D291209070208D6D78BBE6FE08E639
:101993002400F58274003EF583E0FF7B007A007932
:1019A300D512444B78BC06E618700106D378BCE622
:1019B30094FF18E6940140CCD318E694FF18E694FC
:1019C300014027E47F03FEFDFC78C1122B6AC3129A
:1019D3002B27700B78C1122B830000000080147832
:1019E300D1122B8300000001800978D1122B8300D0
:1019F300000005D28D808D309038E47F06FEFDFC1B
:101A030078D1122B6AC3122B2770277BFF7A367982
:101A13001E1222EAD378BAE694FF18E6940178D12D
:101A23004009122B83000000018007122B83000062
:101A330000083090097BFF7A36791E1222EAC291A0
:101A4300021B0DD2A4D2A5D2A6D2A778B1122B5EC7
:101A530078CD122B6AEB2FFFEA3EFEE93DFDE83C11
:101A6300FC78B5122B7778B5122B5E7B017A02795D
:101A730000123CAA78B1122B5EEF2401FFE43EFE74
:101A8300E43DFDE43CFC78B1122B7778D1122B8333
:101A93000000000778BB7600087600806DD2A4D2E0
:101AA300A5D2A6C2A778C5122B5E7527027528009A
:101AB30012395E78C5122B7774FFFFFEFD7C0F7819
:101AC300C5122B6AC3122B27700B78C1122B83000C
:101AD300000003801678C5122B5E12414F78CD1299
:101AE3002B7778B1122B830000000078D1122B835F
:101AF300000000078014D2A4D2A5D2A6D2A72090BA
:101B03000978D1122B8300000006D2B3D007D00688
:101B1300D005D004D003D002D001D000D0D0D082E1
:071B2300D083D0F0D0E032C6
:101B2A00758F01D2B3C2A412452A1244157F807E52
:101B3A001A7D067C001240881233748F41756FFF3C
:101B4A007570367571387BFF7A3679321222EA7FE0
:101B5A000A12449F7F0D12449F7E007F00120FFEDF
:101B6A008F41124599C209754B801244CB7BFF7A8B
:101B7A003679477F091242B8C2A51225E48F41E59A
:101B8A0041602AC2A7756FFF7570367571577BFF62
:101B9A007A3679511222EA7BFF7A36796385416F68
:101BAA001222EA7F0A12449F7F0D12449F75420156
:101BBA007543AC7B007A0079421241AA8F41E54114
:101BCA00602AC2A7756FFF75703675716A7BFF7AD6
:101BDA003679511222EA7BFF7A36796385416F1290
:101BEA0022EA7F0A12449F7F0D12449F7FC07EE142
:101BFA007DE47C00124088C2A6E541602AC2A7752E
:101C0A006FFF7570367571737BFF7A3679511222C0
:101C1A00EA7BFF7A36796385416F1222EA7F0A12DC
:101C2A00449F7F0D12449FE4F5CDF5CC75C880C260
:101C3A008CF58CF58AC28D438901D2ADD2AF758FEE
:101C4A000178A7122B5E754A00754B00122E4E8E34
:101C5A00448F4578A7122B5E78CD122B77E5416029
:101C6A0003021EE6756FFF7570367571877BFF7A02
:101C7A003679811222EA1237D578D6122B77AE44FA
:101C8A00AF45E4FCFD78D6122B6AD3122B275010ED
:101C9A00E4FFFEFDFC78D6122B6AC3122B277012C2
:101CAA00756FFF75703675719E7BFF7A3679811272
:101CBA0022EAAE44AF45E4FCFD78D6122B6AD31271
:101CCA002B2750A0E4FFFEFDFC78D6122B6AC31224
:101CDA002B27609078D6122B5E8E4A8F4B754C005C
:101CEA00754D0078CD122B5E122C1A78BD122B7707
:101CFA00756FFF7570367571B27BFF7A367932125D
:101D0A0022EA7BFF7A3679BF78BD122B5E8F728EFC
:101D1A00718D708C6F1222EA7F0A12449F7F0D1216
:101D2A00449F78BD122B5EEC540FFC78C9122B77B6
:101D3A0078BD122B5EE4FFFEFDEC5410FC606D755D
:101D4A006FFF7570367571C67BFF7A36793212224B
:101D5A00EA7F0A12449F7F0D12449F78C9122B5EB4
:101D6A001234EC78CD122B77756FFF75703675715A
:101D7A00D67BFF7A3679321222EA7BFF7A3679BF2E
:101D8A0078CD122B5E8F728E718D708C6F1222EA53
:101D9A007F0A12449F7F0D12449F78CD122B5E75E5
:101DAA004A00754B00122E4E8E448F4578BD122B79
:101DBA005EE4FFFEFDEC5410FCE4FBFAF9F8C312F2
:101DCA002B276003021ECFFFFEFDFC78D6122B6A7A
:101DDA00C3122B277003021ECF78B1122B83000087
:101DEA000000756FFF7570367571E47BFF7A36797E
:101DFA00321222EA78C9122B5E1234EC78CD122BF9
:101E0A007778B1122B5E78CD122B6AEB2FFFEA3E60
:101E1A00FEE93DFDE83CFC78B5122B7778B5122B2C
:101E2A005E7B017A007900123DB978B1122B5EEF20
:101E3A002401FFE43EFEE43DFDE43CFC78B1122BB4
:101E4A007778B1122B5E78CD122B6AEB2FFFEA3E20
:101E5A00FEE93DFDE83CFC78B5122B7778B5122BEC
:101E6A005E7B017A027900123DB978B1122B5EEFDE
:101E7A002401FFE43EFEE43DFDE43CFC78B1122B74
:101E8A007778D1122B830000000578C1122B8300CA
:101E9A00000001E478B9F608F608F608F6C2CFD2CF
:101EAA00CAE4FFFEFDFC78C1122B6AC3122B27700D
:101EBA00F0C2CA78A7122B5E754A00754B00122E23
:101ECA004E8E448F4578BD122B5EE4FEFDEC5480A5
:101EDA00FC7003021C6775410D021C67E541700323
:101EEA00021C5DC2A77F0A12449F7F0D12449F7590
:101EFA006FFF7570367571EF7BFF7A367951122252
:101F0A00EA7BFF7A36796385416F1222EA7F0A12E9
:091F1A00449F7F0D12449F80FEDC
:104357002570200025322E32625820004164647295
:104367002E202020302020312020322020332020F2
:1043770034202035202036202037202038202039AF
:104387002020412020422020432020442020452077
:0543970020460A0D00A4
:103F33008B678A6889698B6F8A7089717BFF7A4383
:103F430079571222EAE4F56AAB67AA68A969856A18
:103F530082758300122954F56B7BFF7A43795BF5F5
:103F63006F1222EA056AE56AC3941040DBE4F56A3E
:103F7300AB67AA68A969856A82758300122954F51B
:103F83006BC394204007E56BD3947F4003756B2E7E
:103F9300AF6B12449F056AE56AC3941040D27F0D4C
:083FA30012449F7F0A02449FB3
:0A40F0008C628D638B5F8A6089612A
:1040FA008B648A658966AF0153070F7E00C3E49F0C
:10410A00FFE49EFEEF2566F566EE3565F5657BFFF5
:10411A007A4379631222EAAB64AA65A966123F332D
:10412A0074102566F566E43565F565E5612563F97C
:10413A00E5603562FA8A838982C3E5669582E56518
:04414A00958340D346
:01414E00224E
:0845CD0025322E326258200055
:10337400758E0CD294E4F54C7B007A0079467FFF7D
:103384001244E8054CE54CC3940A40EC7B007A00F7
:1033940079461243DD8F4BE4F54C7446254CF8E630
:1033A400F54D7BFF7A4579CDF56F1222EA054CE5A0
:1033B4004CC3940540E47F0A12449F7F0D12449F3E
:1033C4007F647E00124476E54B700AFB7A007946EE
:1033D40012439C8F4BE4F54C7446254CF8E6F54DAE
:1033E4007BFF7A4579CDF56F1222EA054CE54CC393
:1033F400940540E47F0A12449F7F0D12449F7F642A
:103404007E00124476E54B7015FB7A007946120073
:10341400038F4BE54664016005754B05C2A5E4F5D1
:103424004C7446254CF8E6F54D7BFF7A4579CDF58D
:103434006F1222EA054CE54CC3940540E47F0A125E
:10344400449F7F0D12449F7F647E00124476E54BB7
:10345400700AFB7A007946123E3B8F4BE4F54C74BC
:1034640046254CF8E6F54D7BFF7A4579CDF56F128C
:1034740022EA054CE54CC3940540E47F0A12449FBC
:103484007F0D12449F7F647E00124476E54B701DCD
:10349400FB7A0079461200038F4BE54754C0700D48
:1034A400E54730E705754B078003754B05E4F54C9C
:1034B4007446254CF8E6F54D7BFF7A4579CDF56FDA
:1034C4001222EA054CE54CC3940540E47F0A1244F9
:1034D4009F7F0D12449F7F647E00124476E54B600B
:0734E40002C2A7D294AF4B16
:0134EB0022BE
:0643DD008B4E8A4F89504F
:1043E300C294E4F575F574F573F572FF123B77EF3C
:1043F300700BAB4EAA4FA9507F01123C14EF700F04
:10440300AB4EAA4FA95012293B640160027F05D22B
:014413009414
:014414002285
:06439C008B4E8A4F895090
:1043A200C294E47575AA757401F573F5727F0812EB
:1043B2003B77EF700BAB4EAA4FA9507F05123C140E
:1043C200AB4EAA4FA95012293BFEB405047F0980C7
:0A43D20007EE640160027F06D2943A
:0143DC0022BE
:060003008B4E8A4F89506C
:10000900C294E4F575F574F573F5727F3A123B778E
:10001900EF700BAB4EAA4FA9507F05123C14D29436
:0100290022B4
:063E3B008B4E8A4F8950F6
:103E4100E4F555F554F553755240C294F5510551B9
:103E5100E4F575F574F573F5727F37123B77EF7002
:103E610003123C0CAB4EAA4FA95012293BFE60062F
:103E7100640160027F02EF70118555758554748568
:103E810053738552727F29123B77EF7003123C0CFA
:103E9100AB4EAA4FA95012293BFE60066401600295
:103EA1007F020551EE6007E5516003EF60A0E55127
:063EB10070027F01D294B3
:013EB70022E8
:0A3B6D008F758E748D738C727F11BA
:023B77008F714C
:103B7900E571C394404003023C06E5714440F57782
:103B89007B007A007978FF1244E88F76757918E519
:103B99007670047F0180027F00E579C3941950048F
:103BA9007E0180027E00EE5F6024AF75AE74AD7356
:103BB900AC72A979A801122B388F777B007A00792A
:103BC900781244E88F7674F82579F57980C1E57122
:103BD9007005757795800DE571B40805757787804F
:103BE90003757701E576700CFB7A007978AF771267
:103BF90044E88F76E576600875760280037576036A
:023C0900AF7694
:013C0B002296
:023A21008F3CD8
:103A2300E53CC394404003023ABFE53C4440FF7881
:103A3300E2F67B007A0079E312444B78E1A607783B
:103A4300E4761878E1E670047F0180027F0078E471
:103A5300E6F9C3941950047E0180027E00EE5F6094
:103A630026AF40AE3FAD3EAC3DA801122B3878E205
:103A7300EFF67B007A0079E312444B78E1A60778EE
:103A8300E474F826F680BCE53C700678E27695800F
:103A93000DE53C78E2B4080476878002760178E18C
:103AA300E6701008E6FF7B007A0079E312444B7856
:103AB300E1A60778E1E660087602800478E1760300
:043AC30078E1E6FFC1
:013AC70022DC
:083C0C00AB4EAA4FA9507F0145
:083C14008F568B578A5889591D
:103C1C00E4F55AF55B7B007A00795C7FFF1244E88F
:103C2C008F5B055AE55A6009E55B7005E55CF4604D
:103C3C00E4AB57AA58A959E55C122981E55A7005DD
:103C4C00755B018046E55B6002800AE55C6401609F
:103C5C0009E55C6005755B028031E556D394014043
:103C6C002A755D01E55DC3955650207B007A00797D
:103C7C005C7FFF1244E8AB57AA58A959855D827541
:103C8C008300E55C122993055D80D9E55B700CFB24
:0D3C9C007A00795C7FFF1244E88F5BAF5B1C
:013CA90022F8
:084308007F01FB7A00796CFED5
:0A4310008E718F728B738A748975A9
:10431A00E4F576F577F579F57AC3E57A9572E57974
:10432A00957150267B007A0079787FFF1244E8ABBA
:10433A0073AA74A975857A82857983E57812299397
:0C434A00057AE57A70D3057980CFAF7753
:014356002244
:084205007F01FB7A0079DCFE69
:0A420D008E3C8F3D8B3E8A3F8940B6
:10421700E478E1F608F678E4F608F6C378E5E6957B
:104227003D18E6953C502C7B007A0079E37FFF121E
:10423700444B78E3E6FFAB3EAA3FA94008E6FC08FB
:10424700E6F5828C83EF12299378E506E61870CBA2
:074257000680C878E2E6FFD3
:01425E00223D
:0E401C008F678E668D658C648B688A69896AF1
:10402A00C294E4F56B123B6D056BEF700312430803
:10403A00E56C6004E56B70F0E56B70027F01E4F5F6
:10404A006B056BEF7003124308E56C64FE6007E5CD
:10405A006B6003EF60EBE56B70027F01E56C54F077
:10406A0070027F08EF700CAB68AA69A96AFF7E022A
:0D407A00124310EF70057F0312430AD29429
:014087002216
:0E3AC8008F388E378D368C358B398A3A893B94
:103AD600C294E478DBF685384085373F85363E85E7
:103AE600353D7F11123A2178DAA60778DB0618E60B
:103AF600700712420578DAA60778DCE6600418E655
:103B060070E978DBE67003187601E478DBF678DB9B
:103B16000618E6700712420578DAA60778DCE6FF93
:103B260064FE600818E6600418E660E278DBE6707A
:103B360003187601EF54F0700478DA760878DAE63E
:103B46007010AB39AA3AA93BFF7E0212420D78DA11
:103B5600A60778DAE670097F0312420778DAA60725
:063B6600D29478DAE6FFBC
:013B6C002236
:0E3DB9008F498E488D478C468B4A8A4B894C29
:103DC700C294E4F54D123B6D054DEF700BFB7A0085
:103DD700794E7F01FE124310E54E6004E54D70E811
:103DE700E54D70027F01E4F54D054DEF700BFB7A51
:103DF70000794E7F01FE124310E54E64FE6007E531
:103E07004D6003EF60E3E54D70027F01E54E54F02E
:103E170070027F08EF700CAB4AAA4BA94CFF7E02D9
:103E2700124310EF700BFB7A00794E7F03FE1243AB
:033E370010D29412
:013E3A002265
:0E3CAA008F268E258D248C238B278A2889292E
:103CB800C294E4F52A8F408E3F8D3E8C3D7F1112D1
:103CC8003A21052AEF700BFB7A00792B7F01FE124F
:103CD800420DE52B6004E52A70E8E52A70027F01B1
:103CE800E4F52A052AEF700BFB7A00792B7F01FE99
:103CF80012420DE52B64FE6007E52A6003EF60E3DE
:103D0800E52A70027F01E52B54F070027F08EF70FE
:103D18000CAB27AA28A929FF7E0212420DEF700BCF
:0D3D2800FB7A00792B7F03FE12420DD2942E
:013D3500226B
:10408800E4F546AB07AA06A905A804FF7E407D19FA
:104098007C01122A95EFD39402500575C3708045B0
:1040A800EFD39404500575C371803AEFD394085048
:1040B8000575C372802FEFD39410500575C37380B4
:1040C80024EFD39420500575C3F08019EFD39440A2
:1040D800500575C3F1800EEFD39480500575C3F277
:0740E8008003754604AF469A
:0140EF0022AE
:1044E800E4FE8FC5AFC40EEF20E703EE70F6EE6072
:1044F8000BE5C5122981EF5470FE80027E01AF06DC
:014508002290
:10444B00E4FE8FC5AFC40EEF54F07003EE70F5EEC3
:10445B006014EF5470700BE5C5122981EF5470FE98
:0A446B0080067E0280027E01AF068B
:014475002224
:10452A00759AC485878753877F759850E4F59B757C
:0C453A009AC4759B1ED299C2ACFEFF22F1
:1031E900252D333573004D42525F52656C5365632B
:1031F900202000256C7500252D3230730042504285
:103209005F42797465735065725365630025750073
:103219004250425F536563506572436C7573002574
:103229006275004250425F52737664536563436E20
:1032390074004250425F4E756D46415473004250CE
:10324900425F526F6F74456E74436E740042504210
:103259005F546F745365633136004250425F464193
:1032690054537A3136004250425F48696464656E4E
:10327900536563004250425F546F74536563333240
:10328900004250425F464154537A33320042504221
:103299005F526F6F745F436C7500526F6F7444694E
:1032A90072536563004641542073697A653332006D
:1032B9006572726F722077726F6E672066617474BF
:1032C9007970652000546F745365633332006E75ED
:1032D9006D6F66464154536563746F727300446140
:1032E900746153656300636F756E746F66436C75C3
:1032F90073746572730046697273744461746153BF
:103309006563004669727374526F6F7444697253CE
:103319006563004641542073697A6520313200465D
:1033290041542073697A652031360046415420732F
:10333900697A652033320066697273745F736563F5
:10334900746F720025382E386C5800636C7573746D
:1033590065725F6E756D0025382E38625800253507
:0B336900642E20005B4449525D0A0006
:083D3600AA46A9477B017E00AB
:103D3E008E5F8F608B618A628963C3E55F940250E8
:013D4E006311
:103D4F00E4F567F566F565F564F569AB61E563253F
:103D5F0060F9E562355FFAC374039569FFE4940077
:103D6F00FEE92FF9EA3EFA12293BF568AF67AE6616
:103D7F00AD65AC647808122B4B8F678E668D658CA2
:103D8F0064E5674568F567E566F566E565F565E53C
:103D9F0064F5640569E569B404B1AF67AE66AD65F6
:033DAF00AC6422DF
:073DB200E47F0CFEFDFC2282
:103EB8008E358F368B378A388939C3E53594025069
:013EC8006396
:103EC900E4F53DF53CF53BF53AF53FAB37E53925EA
:103ED90036F9E5383535FAC37403953FFFE49400A4
:103EE900FEE92FF9EA3EFA12293BF53EAF3DAE3C19
:103EF900AD3BAC3A7808122B4B8F3D8E3C8D3B8CF9
:103F09003AE53D453EF53DE53CF53CE53BF53BE510
:103F19003AF53A053FE53FB404B1AF3DAE3CAD3BA0
:033F2900AC3A228D
:073F2C00E47F0CFEFDFC2206
:08425F00AA46A9477B017E007D
:0A4267008E5F8F608B618A628963AD
:10427100E4F564F565C3E55F94025036E4FDAB6196
:10428100E5632560F9E562355FFAEDFFC374019FCF
:10429100FFE49400FEE92FF9EA3EFA12293BFCE51E
:1042A10065756500F564EC42650DBD02D1AE64AF84
:0642B10065227E007F0C77
:0142B70022E4
:0F450900E55B240BFFE4355AFEAB61AA62A963A0
:10451800C3EE940250098F828E83122954FF227FA2
:014528000C86
:01452900226F
:040FFE008E468F4745
:10100200E4F548AA06A9077B01FFFEFDFC12401C7D
:10101200AA46A9477B017D007C021240F0AA46A99C
:10102200477B01E4FFFE124518EF64EB605DAA46C0
:10103200A947E4FF124518EF64E9604FAA46A947A1
:101042007FC60E123D3E7880122B777880122B5E7F
:101052008F4E8E4D8D4C8C4B756FFF757031757147
:10106200EF7BFF7A3179E91222EA7BFF7A3179FC50
:10107200854E72854D71854C70854B6F1222EA7FC9
:101082000A12449F7F0D12449F800375480AE54867
:101092006003021720AF4EAE4DAD4CAC4BAA46A931
:1010A200477B0112401CAA46A9477B017D007C02B6
:1010B2001240F0756FFF7570327571067BFF7A32E0
:1010C20079001222EA7F0B12425F7884A60608A6F4
:1010D200077BFF7A32791618E6F56F08E6F570128B
:1010E20022EA7F0A12449F7F0D12449F756FFF759B
:1010F20070327571197BFF7A3279001222EAAA46A0
:10110200A9477B017F0D7E001245187886A6077BD2
:10111200FF7A327928E6F56F1222EA7F0A12449F9B
:101122007F0D12449F756FFF75703275712C7BFFB6
:101132007A3279001222EA7F0E12425F7887A6067F
:1011420008A6077BFF7A32791618E6F56F08E6F5EE
:10115200701222EA7F0A12449F7F0D12449F756F1C
:10116200FF75703275713B7BFF7A3279001222EA89
:10117200AA46A9477B017F107E001245187894A6E3
:10118200077BFF7A327928E6F56F1222EA7F0A128C
:10119200449F7F0D12449F756FFF757032757147C2
:1011A2007BFF7A3279001222EAAA46A9477B017FA5
:1011B200117E001242677892A60608A6077BFF7A84
:1011C20032791618E6F56F08E6F5701222EA7F0A00
:1011D20012449F7F0D12449F756FFF7570327571B7
:1011E200567BFF7A3279001222EAAA46A9477B018E
:1011F2007F137E0012426778AFA60608A6077BFF20
:101202007A32791618E6F56F08E6F5701222EA7F4F
:101212000A12449F7F0D12449F756FFF75703275DD
:1012220071637BFF7A3279001222EAAA46A9477BD0
:10123200017F167E00124267789DA60608A6077BEC
:10124200FF7A32791618E6F56F08E6F5701222EA8F
:101252007F0A12449F7F0D12449F756FFF75703293
:1012620075716F7BFF7A3279001222EA7F1C123D80
:1012720036788A122B777BFF7A3179FC788A122BA7
:101282005E8F728E718D708C6F1222EA7F0A124409
:101292009F7F0D12449F756FFF75703275717D7B54
:1012A200FF7A3279001222EA7F20123D3678AB12A1
:1012B2002B777BFF7A3179FC78AB122B5E8F728EA3
:1012C200718D708C6F1222EA7F0A12449F7F0D1279
:1012D200449F756FFF75703275718A7BFF7A327920
:1012E200001222EAAA46A9477B017F247E00123D12
:1012F2003E7899122B777BFF7A3179FC7899122B01
:101302005E8F728E718D708C6F1222EA7F0A124488
:101312009F7F0D12449F756FFF7570327571967BBA
:10132200FF7A3279001222EAAA46A9477B017F2C72
:101332007E00123D3E789F122B777BFF7A3179FC3B
:10134200789F122B5E8F728E718D708C6F1222EAD3
:101352007F0A12449F7F0D12449F756FFF75703292
:101362007571A37BFF7A3279001222EA7892E6FE47
:1013720008E67805C333CE33CED8F9FF7884E6FC8D
:1013820008E6FD24FFFBEC34FFCB2FFFEB3EFE1201
:1013920029B5E4FCFD78A3122B777BFF7A3179FC27
:1013A20078A3122B5E8F728E718D708C6F1222EA6F
:1013B2007F0A12449F7F0D12449F789EE618467062
:1013C200337899122B5E8F528E518D508C4F756FE0
:1013D200FF7570327571AE7BFF7A3279001222EAA4
:1013E2007BFF7A3179FC8552728551718550708507
:1013F2004F6F8022789DE6FE08E6FFE48F528E5101
:10140200F550F54F75480B756FFF7570327571B9F0
:101412007BFF7A3179FC1222EA7F0A12449F7F0D08
:1014220012449F78B0E61846704078AB122B5E8F5C
:10143200568E558D548C53756FFF7570327571CE03
:101442007BFF7A3279001222EA7BFF7A3179FC85BE
:10145200567285557185547085536F1222EA7F0A40
:1014620012449F7F0D12449F801378AFE6FE08E678
:10147200FFE48F568E55F554F55375480B7894E674
:10148200FFE4FCFDFEAB52AA51A950A84F122A0A52
:101492008E498F4A756FFF7570327571D77BFF7AEF
:1014A2003279001222EA7BFF7A3179FC85496F8515
:1014B2004A701222EA7F0A12449F7F0D12449F78DB
:1014C20094E6FFE4FCFDFEAB52AA51A950A84F12CC
:1014D2002A0AC004A905AA06AB077887E6FE08E631
:1014E200FFE4FCFDD000EB2FFFEA3EFEED39FDEC00
:1014F20038FC78A3122B6AEF2BFBEE3AFAED39F99E
:10150200EC38F8C3E5569BF55EE5559AF55DE55472
:1015120099F55CE55398F55B756FFF7570327571DF
:10152200E77BFF7A3279001222EA7BFF7A3179FC7B
:10153200855E72855D71855C70855B6F1222EA7FC4
:101542000A12449F7F0D12449F7886E6FBE4FAF963
:10155200F8AF5EAE5DAD5CAC5B122A958F5A8E59C8
:101562008D588C57756FFF7570327571EF7BFF7AEE
:101572003279001222EA7BFF7A3179FC855A728530
:10158200597185587085576F1222EA7F0A12449F5B
:101592007F0D12449F7894E6FFE4FCFDFEAB52AA55
:1015A20051A950A84F122A0AC004A905AA06AB07DE
:1015B2007887E6FE08E6FFE4FCFDD000EB2FFFEAA9
:1015C2003EFEED39FDEC38FC78A3122B6AEF2BFFBF
:1015D200EE3AFEED39FDEC38FC7880122B6AEF2BE7
:1015E200FFEE3AFEED39FDEC38FC788E122B777562
:1015F2006FFF7570327571FF7BFF7A3279001222AC
:10160200EA7BFF7A3179FC788E122B5E8F728E71B3
:101612008D708C6F1222EA7F0A12449F7F0D124452
:101622009F789F122B5EEF24FEFFEE34FFFEED3417
:10163200FFFDEC34FFFCC004A905AA06AB077886BF
:10164200E6FFE4FCFDFED000122A0A788E122B6A15
:10165200EF2BFFEE3AFEED39FDEC38FC78A7122BAA
:1016620077756FFF75703375710C7BFF7A32790075
:101672001222EA7BFF7A3179FC78A7122B5E8F72F5
:101682008E718D708C6F1222EA7F0A12449F7F0D39
:1016920012449FE47FF57E0FFDFCAB5AAA59A9586C
:1016A200A857C3122B27501D7889760C75480B76E4
:1016B2000275480B756FFF75703375711C7BFF7A6D
:1016C200327900804CE47FF57EFFFDFCAB5AAA59CB
:1016D200A958A857C3122B27788950247602754837
:1016E2000B756FFF7570337571287BFF7A32790045
:1016F2001222EA7BFF7A3179FC7889E6F56F801154
:101702007604756FFF7570337571347BFF7A3279A9
:10171200001222EA7F0A12449F7F0D12449FAF48B3
:0117220022A4
:0834EC008F498E488D478C4684
:1034F400E4FFFEFDFCAB49AA48A947A846C3122B2A
:1035040027700578A7022B5EE54924FEFFE54834C1
:10351400FFFEE54734FFFDE54634FFFCC004A90582
:10352400AA06AB077886E6FFE4FCFDFED000122A6B
:103534000A788E122B6AEF2BF54DEE3AF54CED39E5
:10354400F54BEC38F54A756FFF7570337571407B38
:10355400FF7A3279001222EA7BFF7A33794D854D66
:1035640072854C71854B70854A6F1222EA7F0A126C
:10357400449F7F0D12449F756FFF757033757154AE
:103584007BFF7A3279001222EA7BFF7A33794D8508
:10359400497285487185477085466F1222EA7F0A11
:1035A40012449F7F0D12449F756FFF7570327571C1
:1035B400197BFF7A3279001222EA7BFF7A33796031
:1035C4007886E6F56F1222EA7F0A12449F7F0D1275
:1035D400449F756FFF7570327571FF7BFF7A327986
:1035E400001222EA7BFF7A33794D788E122B5E8F9C
:1035F400728E718D708C6F1222EA7F0A12449F7F43
:0C3604000D12449FAF4DAE4CAD4BAC4AD4
:013610002297
:08414F008F268E258D248C23A0
:10415700E4FFFEFDFCAB26AA25A924A823C3122B46
:1041670027700578A7022B5EE52624FEFFE5253498
:10417700FFFEE52434FFFDE52334FFFCC004A90559
:10418700AA06AB077886E6FFE4FCFDFED000122AFC
:104197000A788E122B6AEF2BFFEE3AFEED39FDEC13
:0241A70038FCE2
:0141A90022F3
:08389B008F0B8E0A8D098C08C9
:1038A3007887E6FE08E6FFE4FCFD7880122B6AEFDA
:1038B3002BFFEE3AFEED39FDEC38FC7895122B77B1
:1038C300E47F04FEFDFCAB0BAA0AA909A808122A8F
:1038D3000A8F118E108D0F8C0E7884E6FE08E6FB9E
:1038E300AA06E4F9F8AF11AE10122A957895122BB7
:1038F3006AEF2BF519EE3AF518ED39F517EC38F5B3
:1039030016C294851975851874851773F5727F111E
:10391300123B77AA0CA90D7B017F007E027D007C00
:103923000012401CD2947884E6FE08E6FBAA06E463
:10393300F9F8AF11AE10AD0FAC0E122A95AC00AD75
:1039430001AE02AF038F158E148D138C12AA0CA92E
:0A3953000D7B01123D3EEC540FFC09
:01395D002247
:08395E008F268E258D248C2399
:103966007887E6FE08E6FFE4FCFD7880122B6AEF16
:103976002BFFEE3AFEED39FDEC38FC7895122B77ED
:10398600E47F04FEFDFCAB26AA25A924A823122A5F
:103996000A8F2C8E2B8D2A8C297884E6FE08E6FB6E
:1039A600AA06E4F9F8AF2CAE2B122A957895122BBD
:1039B6006AEF2BF534EE3AF533ED39F532EC38F59E
:1039C60031C29485344085333F85323EF53D7F11C3
:1039D600123A21AA27A9287B017F007E027D007C5E
:1039E60000123AC8D2947884E6FE08E6FBAA06E4FA
:1039F600F9F8AF2CAE2BAD2AAC29122A95AC00AD46
:103A060001AE02AF038F308E2F8D2E8C2DAA27A9E3
:0A3A1600287B01123EB8EC540FFCAF
:013A20002283
:082E4E008F498E488D478C4628
:102E5600755D01854A5E854B5FE4F556F557F55479
:102E6600F555788E122B5EAB49AA48A947A846C3EA
:102E7600122B27500F78A3122B5E8F538E528D5133
:102E86008C50800D7886E6FFE48F53F552F551F5A8
:102E96005085494F85484E85474D85464CAF4FAEC8
:102EA6004EAD4DAC4CAB5DAA5EA95F12401C8F5C6B
:102EB600E55C6003023021AB5DAA5EA95FAF55AE4B
:102EC600541245188F58E55864E57003022F9FE5A4
:102ED600587003022F9FE555240BFFE43554FEABD3
:102EE6005DAA5EA95F1245188F5AD2A5E55A540EFF
:102EF6006003022F9F0557E557700205567BFF7A40
:102F060033796785566FF5701222EAE4F5597E002B
:102F1600E5552559FFEE3554FEAB5DAA5EA95F1255
:102F260045188F5B12449F0559E559C3940840DE46
:102F3600E55A30E4307559087E00E5552559FFEE0F
:102F46003554FEAB5DAA5EA95F1245188F5B12442D
:102F56009F0559E559C3940B40DE7BFF7A33796DA3
:102F66001222EA80347F2E12449F7559087E00E5AE
:102F7600552559FFEE3554FEAB5DAA5EA95F124595
:102F8600188F5B12449F0559E559C3940B40DE7FA9
:102F96000D12449F7F0A12449F74202555F555E46F
:102FA6003554F554D3E55594FEE55494014063E554
:102FB6004F2401F54FE4354EF54EE4354DF54DE41D
:102FC600354CF54CC3E54F9549FFE54E9548FEE572
:102FD6004D9547FDE54C9546FCAB53AA52A951A821
:102FE60050D3122B274025AF4FAE4EAD4DAC4CAB58
:102FF6005DAA5EA95F12401C8F5CE55C6007E4F584
:1030060056F557F558E4F554F5558006435680E4D1
:10301600F558E5586003022EBD8005E4F556F557D0
:04302600AE56AF579C
:01302A002283
:082C1A008F498E488D478C465E
:102C2200756101854C62854D63E4F55CF55DF55A8D
:102C3200F55BF559F558F557F556788E122B5EABC4
:102C420049AA48A947A846C3122B27500F78A312B6
:102C52002B5E8F558E548D538C52800D7886E6FFF5
:102C6200E48F55F554F553F5528549518548508501
:102C7200474F85464EAF51AE50AD4FAC4EAB61AAF9
:102C820062A96312401C8F60E5606003022E1FABD5
:102C920061AA62A963AF5BAE5A1245188F5EE55E08
:102CA20064E57003022D9BE55E7003022D9B1245C5
:102CB200098F5FE55F540E6003022D9B055DE55DA4
:102CC2007002055C654B7004E55C654A6003022D89
:102CD2009B7889E66404705EE55B241512450DE479
:102CE2008F59F558F557F556E559540FF559E4F54E
:102CF20058F557F556AF59AE58AD57AC567808123D
:102D02002B4B8F598E588D578C56E55B24141245E8
:102D12000DE5594FF559E558F558E557F557E5567C
:102D2200F556AF59AE58AD57FC7808122B4B8F5958
:102D32008E588D578C56E55B241B12450DE5594F75
:102D4200F559E558F558E557F557E556F556AF5993
:102D5200AE58AD57FC7808122B4B8F598E588D57B1
:102D62008C56E55B241A12450DE5594FF559E55885
:102D7200F558E557F557E556F5561245098F5FE5C3
:102D82005F30E412E559F559E558F558E557F5571E
:102D9200E5564410F556E4F55E7420255BF55BE4D8
:102DA200355AF55AD3E55B94FEE55A94014065E540
:102DB200512401F551E43550F550E4354FF54FE417
:102DC200354EF54EC3E5519549FFE5509548FEE570
:102DD2004F9547FDE54E9546FCAB55AA54A953A81D
:102DE20052D3122B27402AAF51AE50AD4FAC4EAB4F
:102DF20061AA62A96312401C8F60E560600CE4F571
:102E020059F558F557755680F55EE4F55AF55B802D
:102E120003E4F55EE55E6003022C91800AE4F55955
:102E2200F558F557755680E4FFFEFDFCAB59AA58DC
:102E3200A957A856C3122B277009F559F558F5570B
:0B2E4200755680AF59AE58AD57AC5626
:012E4D002262
:0A302B008F518D528B538A54895542
:10303500E4F55A309203209303755A0F124562E561
:103045005125E054FEF559D293C292755607E556BF
:10305500C394085057E55A70537F0412454CC293E8
:1030650074017E00A856088005C333CE33CED8F947
:10307500FFE4FEEF5559A856088006CEA2E713CE09
:1030850013D8F8FF139292EF5401F55B7F041245B4
:103095004CD293755801209308E558600405588073
:1030A500F5E5587003755A0E155680A2E55A700A53
:1030B500A29233655B6003755A0FE55A701F7F0452
:1030C50012454C124546D293755801209308E55890
:1030D5006004055880F5E5587003755A0EE55A7079
:1030E50006309203755A10E4F557E557D3955240CB
:1030F500030231AEE55A60030231AE755607E55657
:10310500C3940850727F0412454CC293AB53AA5422
:10311500A955855782758300122954FD74017E00D7
:10312500A856088005C333CE33CED8F9FFEDFBE4AE
:10313500FEEF5BA856088006CEA2E713CE13D8F89B
:10314500FF139292EF5401F55B7F0412454CD29325
:10315500755801209308E5586004055880F5E55831
:103165007003755A0EE55A700AA29233655B6003C7
:10317500755A0F15568087E55A701F7F0412454C06
:10318500124546D293755801209308E55860040509
:103195005880F5E5587003755A0EE55A7006309259
:1031A50003755A1005570230EF7F0412454CC29340
:1031B500C292E4F55B7F0712454CD2937558012006
:1031C5009308E5586004055880F5E5587003755A6D
:1031D5000EE55A700AA29233655B6003755A0FD2E9
:0331E50092AF5A4C
:0131E80022C4
:0A1F23008F518D528B538A5489555B
:101F2D00E4F55A309203209303755A0F124562E57A
:101F3D005125E054FEF559D293C292755607E556D8
:101F4D00C394085065E55A70617F0412454CC293E5
:101F5D0074017E00A856088005C333CE33CED8F960
:101F6D00FFE4FEEF5559A856088006CEA2E713CE22
:101F7D0013D8F8FF139292EF5401F55B7F041245CD
:101F8D004CD293755801209308E55860040558808C
:101F9D00F5E5587003755A0EE55A700AA29233652D
:101FAD005B6003755A0F15568094E55A701F7F04B8
:101FBD0012454C124546D293755801209308E558A9
:101FCD006004055880F5E5587003755A0EE55A7092
:101FDD0006309203755A10E4F557E55A6003022056
:101FED00A9755607E556C3940850787F0412454CE1
:101FFD00C293AB53AA54A9558557827583001229F4
:10200D0054FD74017E00A856088005C333CE33CE2F
:10201D00D8F9FFEDFBE4FEEF5BA856088006CEA2D3
:10202D00E713CE13D8F8FF139292EF5401F55B7FAF
:10203D000412454CD293755801209308E55860045D
:10204D00055880F5E5587003755A0EE55A7010A2C3
:10205D009233F558A292E433655B6003755A0F1500
:10206D00568081E55A701F7F0412454C124546D2A9
:10207D0093755801209308E5586004055880F5E5DF
:10208D00587003755A0EE55A7006309203755A1042
:10209D000557E557D394005003021FE77F041245FF
:1020AD004CC293C292E4F55B7F0712454CD29375F7
:1020BD005801209308E5586004055880F5E55870DF
:1020CD0003755A0EE55A700AA29233655B6003756B
:1020DD005A0FD292309203209303755A0F12456214
:1020ED00E55125E04401F559D293C292755607E5A5
:1020FD0056C394085065E55A70617F0412454CC271
:10210D009374017E00A856088005C333CE33CED814
:10211D00F9FFE4FEEF5559A856088006CEA2E71345
:10212D00CE13D8F8FF139292EF5401F55B7F041292
:10213D00454CD293755801209308E5586004055815
:10214D0080F5E5587003755A0EE55A700AA2923360
:10215D00655B6003755A0F15568094E55A701F7FA5
:10216D000412454C124546D293755801209308E54B
:10217D00586004055880F5E5587003755A0EE55AF8
:10218D007006309203755A10E4F557E557C3955212
:10219D00400302224DE55A600302224DAB53E55533
:1021AD002557F9E43554FA12293BE4122981755665
:1021BD0007E556C3940850507F0412454CC2937FD7
:1021CD000412454CD293755801209308E5586004CC
:1021DD00055880F5E5587003755A0EE55A7025A21D
:1021ED009233F55BAB53E5552557F9E43554FA12A7
:1021FD00293BFFAE56E55BA806088002C333D8FC29
:10220D004F122981155680A9E55A702F7F0412456A
:10221D004CC293E55214B55704D2928002C2927FFC
:10222D000412454CD293755801209308E55860046B
:10223D00055880F5E5587003755A0E05570221981B
:10224D007F0412454CC293C292E4F55B7F071245A1
:10225D004CD293755801209308E5586004055880B9
:10226D00F5E5587003755A0EE55A700AA29233655A
:0A227D005B6003755A0FD292AF5A4E
:012287002234
:06454600C293D2927F0433
:10454C00308E03308FFDC28EBF040A758DFF758BC4
:06455C00DEC28FD28E22A8
:1045620053890F438910C2AB758DFF758BDEC28FE5
:03457200D28E22C4
:103FAB0070617463680A0D00252D31307300636FE7
:103FBB00206572726F7231200025342E346C5800DC
:103FCB00636F206572726F72200073656E643120AF
:103FDB000025322E326258006765743120007365FC
:103FEB006E64322000676574322000746573745FF1
:103FFB006572726F72200052656365697665642025
:10400B0056616C7565203D2025322E3262580A0DA3
:01401B0000A4
:1025E400D2B2C2B27BFF7A3F79AB1222EAD2B27581
:1025F40046FF75470075482EE4F550F54FF54EF546
:102604004DAB46AA47A948855082854F8312295469
:10261400F549E5502401F550E4354FF54FE4354EC6
:10262400F54EE4354DF54D855082854F831229547E
:10263400F54AE5502401F550E4354FF54FE4354EA5
:10264400F54EE4354DF54DE549F460117B007A0013
:1026540079497D017F4312302B8F4CC2A7E549F4A1
:102664006004E54C609BE54C6012756FFF75703F2C
:102674007571B97BFF7A3F79B31222EA7BFF7A3F07
:1026840079C4855072854F71854E70854D6F1222C5
:10269400EA7F0A12449F7F0D12449F7546FF7547D7
:1026A4000F7548CCE4F550F54FF54EF54DAB46AA01
:1026B40047A948855082854F83122954F549E5502E
:1026C4002401F550E4354FF54FE4354EF54EE4352D
:1026D4004DF54D855082854F83122954F54AE550B6
:1026E4002401F550E4354FF54FE4354EF54EE4350D
:1026F4004DF54DE549F460117B007A0079497D017F
:102704007F4312302B8F4CC2A7E549F46004E54C9B
:10271400609BE54C6012756FFF75703F7571CB7BE4
:10272400FF7A3F79B31222EA7BFF7A3F79C485505E
:1027340072854F71854E70854D6F1222EA7F0A12A1
:10274400449F7F0D12449F754954754A0785494B30
:102754007B007A0079497D017F4312302B7B007A1C
:1027640000794B7D017F43121F238F4C756FFF75DA
:10277400703F7571D57BFF7A3F79B31222EA7BFFF4
:102784007A3F79DC854A6F1222EA756FFF75703FD4
:102794007571E37BFF7A3F79B31222EA7BFF7A3FBC
:1027A40079DC854B6F1222EA7F0A12449F7F0D1257
:1027B400449F754955754A1085494B7B007A0079C9
:1027C400497D017F4312302B7B007A00794B7D01D8
:1027D4007F43121F23756FFF75703F7571E97BFF8F
:1027E4007A3F79B31222EA7BFF7A3F79DC854A6F1C
:1027F4001222EA756FFF75703F7571F07BFF7A3FA7
:1028040079B31222EA7BFF7A3F79DC854B6F12227F
:10281400EA7F0A12449F7F0D12449F754906754A48
:10282400097B007A0079497D017F4312302B754979
:102834000B754A027B007A0079497D017F4312308F
:102844002B754961754A057B007A0079497D017FC2
:102854004312302B754950754A067B007A0079493A
:102864007D017F4312302B754965E4F54AFB7A00FC
:1028740079497D017F4312302B754952754AB87BE3
:10288400007A0079497D017F4312302B754964E455
:10289400F54AFB7A0079497D017F4312302B754953
:1028A40051E4F54AFB7A0079497D017F4312302BCC
:1028B400754905754AA17B007A0079497D017F43FA
:1028C40012302B754903E4F54AFB7A0079497D01FE
:1028D4007F4312302B754918754A047B007A0079BE
:1028E400497D017F4312302B75490C754A057B00E5
:1028F4007A0079497D017F4312302B754946754A28
:10290400087B007A0079497D017F4312302B754999
:1029140048754A087B007A0079497D017F4312306B
:102924002B754972754A017B007A0079497D017FD4
:062934004312302BAF4CF2
:01293A00227A
:0641AA008B468A4789489C
:1041B000E4F54AF549AB46AA47A9487D017F431279
:1041C0001F238F4A1549E54A6004E54970E7E54A2F
:1041D000601C756FFF75703F7571F67BFF7A3F79D4
:1041E000B31222EA7F0A12449F7F0D12449FAB460E
:1041F000AA47A94812293BF56F7BFF7A4079021242
:0442000022EAAF4AB5
:014204002297
:10002E003A012A0428002900200021002200230082
:10003E00240025002600270028012802218F2803EE
:10004E002100280428052806280728082809280A38
:10005E00280B280C20802190280D20002100280E2E
:10006E0020812191280F2000219228102100281193
:10007E0021932812210028132814281520822816CF
:10008E0020002817281828192194281A2195281B92
:10009E002196281C2100281D2083281E2000281FA1
:1000AE0021972820210028212822282328242825AA
:1000BE002826282728282829282A2084282B20008B
:1000CE00282C282D282E282F28302831283220851C
:1000DE002833200028342835283628372198283808
:1000EE0021002839283A283B283C283D283E283F25
:1000FE002840284128422843284428452846284796
:10010E0028482849284A284B284C284D284E284F45
:10011E0028502851285228532854285528562857F5
:10012E0028582859285A285B285C285D285E285FA5
:10013E002860286128622199286321002864286597
:10014E002866286728682869286A286B286C286D15
:10015E00286E286F287028712872287328742875C5
:10016E002876287728782879287A287B287C287D75
:10017E00287E287F28802881288228832884288525
:10018E002886288728882889288A288B288C288DD5
:10019E00288E288F289028912086289220872893B1
:1001AE002000289428952896289728982899289AE8
:1001BE00289B289C289D289E289F219A28A02100B4
:1001CE0028A128A228A328A428A528A628A728A8BD
:1001DE0028A928AA28AB28AC28AD28AE28AF28B06D
:1001EE0028B128B228B328B428B528B628B728B81D
:1001FE0028B9208828BA200028BB208928BC2000D6
:10020E0028BD28BE28BF28C028C128C228C3219BCC
:10021E0028C4210028C528C628C728C828C928CA26
:10022E0028CB28CC28CD28CE28CF28D028D128D20C
:10023E0028D328D428D528D628D728D828D928DABC
:10024E0028DB28DC28DD28DE28DF28E028E1208ACC
:10025E0028E2208B28E3200028E428E528E628E77A
:10026E0028E828E928EA28EB28EC28ED28EE28EFE4
:10027E0028F028F128F228F328F428F528F628F794
:10028E0028F8208C28F92000219C28FA219D28FB93
:10029E00208D219E28FC208E219F28FD20002100EC
:1002AE0028FE28FF2A0128002201239524892507EC
:1002BE0026A42707280121C72200238026C4270C45
:1002CE0028022009211C220426AA270A280320001E
:1002DE002100220023A626A0270728042805200592
:1002EE00238426B427092806200022032300248114
:1002FE0025C026AB270A280721AE22002395248984
:10030E00250726A42700280821482201238026C479
:10031E00270C280920092104220426AA270A280AC4
:10032E0020002100220023A826A42707280B280C32
:10033E0021402220238026C4270C280D222426C6E5
:10034E00280E219E220026C8280F200921022214E1
:10035E0026AA270A2810200521002200238426B46D
:10036E0027092811200021012300240125C026ABD6
:10037E00270A281221C32395248925072620270022
:10038E002813200321C223832626270D281421B3E8
:0D039E0022082815200021C62200239526E4
:1003AB000027082816210023002496250326AA27B8
:1003BB000A2817204221B6238024892507281820D4
:1003CB000021002394260E2819200F238426B427FE
:1003DB0009281A2000239326A82703281B26282741
:1003EB0000281C21012300240125C026AB270A2845
:1003FB001D21C523952489250726202700281E218A
:10040B000023942600270A281F260E2820200321CC
:10041B0079220123832626270D2821213228222009
:10042B0000210422002380240025FC26AA270A2869
:10043B0023210023002500282421A3220D2380241F
:10044B009E253B2825204221572201248925072858
:10045B002620002143220D2400253828272108229D
:10046B009823952489250726242700282820422114
:10047B00932201238026AA270A28292003217E22E2
:10048B000423832626270D282A200021B0220023AF
:10049B009526A02707282B21002300240C250426B2
:1004AB00AA270A282C21022380248625C326AB28C1
:1004BB002D2042219722012489250726AA282E20A8
:1004CB000021002200241F2504282F21B22395246C
:1004DB008925072620270428302042218B2204233C
:1004EB008026AA270A2831200021B1220023952635
:1004FB00A0270728322003217522042383262627D1
:10050B000D2833200521002200238426B427092837
:10051B0034200021602300240125C026AB270A28A4
:10052B00352108229823952489250726242700287E
:10053B003621BC2200283721A3220D2300240125BC
:10054B00C026AB270A2838216022002380240025EF
:10055B003826AA283921062298239524892507268F
:10056B00242700283A21BE2200283B200521002306
:10057B008426B42709283C20002160230024012570
:10058B00C026AB270A283D21422201239524892529
:10059B000726242700283E210C229826A42707286B
:1005AB003F21082840216022002300240125C0267A
:1005BB00AB270A2841210C2298239524892507264D
:1005CB002427002842200521002200238426B4275B
:1005DB00092843200023802400251026AB270A2856
:1005EB00442122220123952489250726242700282C
:1005FB00452100220023002404251226AA270A28BD
:10060B0046200321D4220523832489250726262768
:10061B000D28472000216022002300240125C0263D
:10062B00AB270A284821B3239524892507260027C1
:10063B00082849210023002409250026AA270A2877
:10064B004A210223802486253B284B204221DD2290
:10065B000524892507284C200021002200241F2572
:10066B0000284D21B3239524892507262027002810
:10067B004E210023002497250326AA270A284F2062
:10068B004221E222052380248925072850200021BE
:10069B001022002300248025CC26AB2851210022D8
:1006AB004023B42489250726AA2704285222002395
:1006BB00B0269227092853211422012395260027BF
:1006CB00082854214823A4262A2700285521002234
:1006DB000023002409250026AA270A2856210823CF
:1006EB00802486253B285720422111220724892567
:1006FB00072858200021002200241F2500285921FB
:10070B0014220123952489250726202700285A2106
:0D071B001626022709285B2100220023007A
:100728002480254826AA270A285C23A0248925078F
:1007380026142709285D2480255026A42704285E2E
:10074800211622012395248925072700285F2104E3
:1007580022002300249C257826AA270A2860214302
:10076800220D240125C426AB28612103220024156B
:10077800286221002400250026AA2863215E2395EB
:100788002489250726102709286421032300241516
:1007980025C426AB270A28652100238024002506C6
:1007A80026AA2866248F25E326AB2867204221CD78
:1007B80022072489250726AA28682000216022000C
:1007C8002300240125C026AB286921002380248F1B
:1007D800250326AA286A204221DD22072489250725
:1007E800286B20002143220D2300240125C026ABBD
:1007F800286C210022002400250426AA286D200345
:10080800217F22012383248925072626270D286E88
:100818002162286F200521002200238426B427099D
:100828002870200021062395260027082871210119
:1008380023002497253B26AA270A28722042210E46
:10084800220823802489250728732003213C220BB2
:1008580023832626270D28742000210322002395B0
:1008680026022708287521272300248125C426ABC2
:10087800270A2876210023802409254826AA2877D4
:100888002158223423A324892507262A27002878DB
:100898002100220023A02600270928792107238088
:1008A8002403253926AA270A287A21042300241C90
:1008B8002538287B2107238024832539287C210398
:1008C80023952489250726022708287D2127230028
:1008D800248125C426AB270A287E210023802409E9
:1008E800254826AA287F2158223423A324892507AE
:1008F800262A27002880210622002300248125C0DB
:10090800269327012881210023802489254826AAA7
:10091800270A28822002216622082300240025664F
:1009280028832000210022002380241F25022884F8
:1009380021062489250726DC270C2885210023AADF
:1009480026AA270A288623B6260027082887238070
:100958002486253B26AA270A2888210524892507D5
:1009680026DC270C2889210023AA26AA270A288AF8
:1009780023B626002708288B23802486253B26AA11
:10098800270A288C2042217B220824892507288DC4
:10099800200021002200230024012582288E210521
:1009A800248125C226AB288F200321932208238384
:1009B800248925072626270D2890200021052200B6
:1009C8002300248125C02613270128912100238094
:1009D8002489254826AA270A28922002217E22084F
:1009E800230024002566289320002100220023806C
:1009F800241F2502289421052489250726DC270C95
:100A08002895210023AA26AA270A289623B6260075
:100A18002708289723802486253B26AA270A289872
:100A280021052489250726DC270C2899210023AADB
:100A380026AA270A289A2380241F2502289B2101F9
:100A48002300248125C226AB289C20032193220859
:100A58002383248925072626270D289D2000210485
:100A68002200239526122708289E216023C426AA3F
:100A78002704289F210023C02600270928A02042F8
:100A880021CB2208238026AA270A28A120702154D6
:0D0A980022B823952612270828A22002214B
:100AA500CC2208238026AA270A28A3200321CA22AC
:100AB5000F23832626270D28A420002100220023AA
:100AC50000248C250C26AA270A28A5210424822582
:100AD5007828A62100238024892548261227042862
:100AE500A7200321DE220F238325072626270D288D
:100AF500A82000210122002300249C257826AA276E
:100B05000A28A9210023802481254028AA20032121
:100B1500CF220F2383248925072626270D28AB20DE
:100B250070210822B8239526A0270428AC2003218C
:100B3500D4220F23832626270D28AD2127220B2813
:100B4500AE2070216322B823952612270828AF20EE
:100B550000210122002380248625CB26AB270A28E5
:100B6500B0204221DD22082489250726AA28B120A4
:100B75000021182280239526A4270028B2200321CE
:100B8500D9220F23832626270D28B32070210A2278
:100B9500B8239526A0270028B4200221E0220823A7
:100BA5008026AA270A28B52070210A22B82395266F
:100BB500A0270028B621542602270828B72000219F
:100BC50018228026A4270028B8210022002380248B
:100BD50080254826AA270A28B92070215E22B82335
:100BE50095248925072612270828BA2000210022E6
:100BF5000023802409254B26AA270A28BB2070211B
:100C05005F22B82395248925072610270828BC20AC
:100C150000210022002300241C258326AB270A2857
:100C2500BD2003213222092383248925072626276F
:100C35000D28BE20002100220023002482258C26B9
:100C4500AB270A28BF2003212522092383248925D0
:100C5500072626270D28C0204221BC238026AA2747
:100C65000A28C12000210122002300240125C026D5
:100C7500AB28C22070210F22B82395248925072689
:100C850020270028C3200321E3220F2383262627BC
:100C95000D28C4200521002200238426B427092815
:100CA500C52000210323952614270828C621A6233D
:100CB500A4262A270528C7210023A026442709287A
:100CC500C82118226D2380249E257B26AA270A2861
:100CD500C920422113220B2489250728CA20002177
:100CE500AE220023952624270028CB2100220323AA
:100CF500802487257B26AA270A28CC204221162274
:100D05000B2489250728CD200021AE220023952616
:100D150024270028CE20052100238426B42709286E
:100D2500CF2003210D220B23832626270D28D02033
:100D35000021002200230024802602270028D12339
:100D45008024092548261E28D221582234233324FD
:100D5500802507262A28D321002200230026802764
:100D65001028D421102363262A270028D521002303
:100D75006026A8271228D621AF224C230026C82793
:100D85000C28D7210022002680270528D823802477
:100D950086253B261E270028D92042211C220E230A
:100DA500002480250728DA20002135222926C4279A
:100DB5000C28DB2002211D220E261E270028DC2000
:100DC50000217F223426C4270C28DD2100220023A0
:100DD50090249F25042610270A28DE230024842535
:100DE500002680271028DF21062363248025072677
:100DF5002A270028E021002380248926AA270A28FB
:100E0500E12005238426B4270928E22070216122E8
:0D0E1500B823952612270828E320002101AC
:100E220022002380248625C326AB270A28E42042F9
:100E320021CE220F2489250726AA28E520702150D9
:100E420022B823952612270828E620052100220031
:100E5200238426B4270928E72070216422B8239529
:100E62002612270828E82000210122002380248658
:100E720025C326AB270A28E9204221D3220F248941
:100E8200250726AA28EA2070215122B82395261286
:100E9200270828EB200521002200238426B42709F5
:100EA20028EC2070216522B823952612270828ED08
:100EB2002000210122002380248625C326AB270A95
:100EC20028EE204221D8220F2489250726AA28EFBE
:100ED2002070215222B823952612270828F02005D7
:100EE20021002200238426B4270928F120702161E1
:100EF20022B823952602270828F220002101220089
:100F02002380248625C326AB270A28F3204221DD2D
:100F1200220F2489250726AA28F42070215022B8FE
:100F220023952602270828F5200521002200238484
:100F320026B4270928F6200021012380248625CB08
:100F420026AB270A28F7204221E1220F2489250710
:100F520026AA28F82000210222002300248125C489
:100F620026AB28F9210023802489254826AA28FABD
:100F720020052384250726B4270928FB2070214E4B
:100F820022B823952610270828FC200021002200E1
:100F92002380248625C326AB270A28FD204221E789
:100FA200220F2489250726AA28FE200021BB220021
:100FB20023952620270028FF20052100238426B41C
:100FC20027092A081001FFFFFFFF3A00643A65BBB8
:100FD200083A09BB50105267517705A11804540111
:100FE20055210700060C0B03501051005204610FEB
:0C0FF2006455655505A11804FFFFFFFFC2
:030000000245B7FF
:0C45B700787FE4F6D8FD7581E5021B2A30
:10293B00BB010689828A83E0225002E722BBFE029A
:09294B00E32289828A83E49322CD
:10295400BB010CE58229F582E5833AF583E0225038
:1029640006E92582F8E622BBFE06E92582F8E22282
:0D297400E58229F582E5833AF583E493229C
:10298100BB010689828A83F0225002F722BBFE0135
:02299100F3222F
:10299300F8BB010DE58229F582E5833AF583E8F07A
:1029A300225006E92582C8F622BBFE05E92582C826
:0229B300F2220E
:1029B500BC000BBE0029EF8DF084FFADF022E4CC06
:1029C500F875F008EF2FFFEE33FEEC33FCEE9DECCF
:1029D500984005FCEE9DFE0FD5F0E9E4CEFD22ED15
:1029E500F8F5F0EE8420D21CFEADF075F008EF2F5F
:1029F500FFED33FD4007985006D5F0F222C398FD50
:052A05000FD5F0EA22EC
:102A0A00E88FF0A4CC8BF0A42CFCE98EF0A42CFC6B
:102A1A008AF0EDA42CFCEA8EF0A4CDA8F08BF0A4E9
:102A2A002DCC3825F0FDE98FF0A42CCD35F0FCEB48
:102A3A008EF0A4FEA9F0EB8FF0A4CFC5F02ECD390D
:0F2A4A00FEE43CFCEAA42DCE35F0FDE43CFC227A
:102A590075F008758200EF2FFFEE33FECD33CDCC34
:102A690033CCC58233C5829BED9AEC99E5829840B7
:102A79000CF582EE9BFEED9AFDEC99FC0FD5F0D694
:102A8900E4CEFBE4CDFAE4CCF9A88222B800C1B9BE
:102A99000059BA002DEC8BF084CFCECDFCE5F0CBFC
:102AA900F97818EF2FFFEE33FEED33FDEC33FCEB35
:102AB90033FB10D703994004EB99FB0FD8E5E4F9F0
:102AC900FA227818EF2FFFEE33FEED33FDEC33FCDD
:102AD900C933C910D7059BE99A4007EC9BFCE99AD1
:102AE900F90FD8E0E4C9FAE4CCFB2275F010EF2F16
:102AF900FFEE33FEED33FDCC33CCC833C810D70716
:102B09009BEC9AE899400AED9BFDEC9AFCE899F850
:0E2B19000FD5F0DAE4CDFBE4CCFAE4C8F922E3
:102B2700EB9FF5F0EA9E42F0E99D42F0E89C45F004
:012B3700227B
:102B3800E8600FECC313FCED13FDEE13FEEF13FF7B
:032B4800D8F1229F
:102B4B00E8600FEFC333FFEE33FEED33FDEC33FCE8
:032B5B00D8F1228C
:0C2B5E00E6FC08E6FD08E6FE08E6FF22A3
:0D2B6A00E6FB08E6F908E6FA08E6CBF822DB
:0C2B7700ECF608EDF608EEF608EFF6228A
:102B8300D083D082E493F608740193F60874029319
:092B9300F608740393F674047350
:102B9C00D083D082E4937012740193700DA3A3932D
:102BAC00F8740193F5828883E4737402936C701249
:102BBC007403936D700C7404936E70067405936FAC
:0A2BCC0060DDA3A3A3A3A3A380CAA6
:10449F00EFB40A07740D1244AA740A309811A89940
:1044AF00B8130CC2983098FDA899C298B811F6307D
:0744BF0099FDC299F5992255
:10228800E57B246FF8E6057B22786C301002786FC6
:10229800E475F001122BE402293B2009EB7F2ED2D2
:1022A800098018EF540F2490D43440D4FF300D0B1C
:1022B800EF24BFB41A0050032461FFE57C600215C7
:1022C8007C057FE57F7002057E30100D786CE47523
:1022D800F001122BE4EF02298102449F7403D2100B
:1022E8008003E4C210F57B8B6C8A6D896EE4F57C03
:1022F800F57EF57FE57C60077F201222C380F575A7
:102308007DFFC20AC209C20BC20CC20EC20FC211A3
:10231800122291FF700D3010057F001222D4AF7F7A
:10232800AE7E22B4255FC2D5C20D122291FF24D001
:10233800B40A00501A75F00A787C30D50508B6FF43
:102348000106C6A426F620D5047002D20C80D92432
:10235800CFB41A00EF5004C2E5D20D0224D4D20A39
:1023680080C6D20980C0D20B80BCD2D580BAD20E2A
:1023780080B47F201222C3200B077401B57C004073
:10238800F1122288FF1222C30222FCD211D20F803E
:1023980095122288FB122288FA122288F94A4B7079
:1023A8000679A57A257BFF200B2EE57C602A7E0026
:1023B8008E8275830012295460060EEE657D70F0DA
:1023C800C2D5EBC0E0EAC0E0E9C0E0EE12251BD0C0
:1023D800E0F9D0E0FAD0E0FB12293BFF60AAEBC09D
:1023E800E0EAC0E0E9C0E01222C3D0E02401F9D05D
:1023F800E03400FAD0E0FBE57D0460DCD57DD980CF
:10240800877BFF7A257917D20B809C791080027917
:1024180008C20FC2118008D2D5790A8004790AC28D
:10242800D5E57D047002F57DE4FAFDFEFF122288F1
:10243800FC7B08200A13122288FD7B1030090A123F
:102448002288FE122288FF7B20EC3382D592D55059
:1024580013C3E43009069FFFE49EFEE4200A039DAF
:10246800FDE49CFCE4CBF8C20AEC700CCFCECDCCDA
:10247800E824F8F870F38017C3EF33FFEE33FEED6E
:1024880033FDEC33FCEB33FB994002FB0FD8E9EB4F
:10249800300A05F8D0E0C448B20AC0E00AEC4D4E54
:1024A8004F78207B0070C2EAB57D0040BCC0E012C6
:1024B800251DD0F0D0E0200A04C4C0E0C4B20AC090
:1024C800F01222ACD0F0D5F0EB0222FC122BF42350
:1024D8009953241358236A4C23664224174F241F08
:0F24E80044241F49237F432425552409462409F2
:1024F7004524094725C550236E2D23722E23952B7E
:1025070023762323932025AE2A232E480000238DEC
:102517003F3F3F00790AA2D5200C14300E09B910AD
:10252700020404B9080104A2D5200F0250010420B7
:102537000B68920BB57C005034C0E07F20300C193B
:102547007F30A20B720F720E500F122574C20BC28E
:102557000FC20EC2117F30800F300E03E9C0E012A8
:1025670022C3300E03D0E0F9D0E0B57CCC300E1793
:102577007F30B9100C1222C37F58300D077F788047
:1025870003B908031222C3300B057F2D0222C37F34
:10259700202011F87F2B200FF322920B80CF286E7B
:1025A700756C6C2900D20A122288300AF8C20A78A0
:1025B7007C30D50108F602232E2D504349581222AC
:1025C700882403B405004001E49025C0931222B487
:0D25D700743A1222B4D20C757C0402241355
:1045880010120B1245C3BF0D027F0A02449FAF1AD7
:014598002200
:1036F7008B578A588959AB57AA58A95912293BFFA2
:10370700124575500D74012559F559E43558F5588A
:1037170080E4D209AB57AA58A95912293BFF642B59
:103727006004EFB42D1BAB570559E559AA58700231
:10373700055814F912293B642D6003D38001C39205
:1037470009E4F55DF55CF55BF55AAB57AA58A9593D
:1037570012293BFF1245A8505CE47F0AFEFDFCAB33
:103767005DAA5CA95BA85A122A0AC8ECC8EDC0E09A
:10377700EEC0E0EFC0E0AB57AA58A95912293BFFAA
:103787003395E0FEEF24D0FFEE34FFFEE4FCFDD0DE
:10379700E0FBD0E0FAD0E0F9EB2FF55DEA3EF55C0F
:1037A700ED39F55BEC38F55A74012559F559E435CF
:1037B70058F558809530090AAF5DAE5CAD5BAC5AE1
:0E37C700800BAF5DAE5CAD5BAC5A122BD62210
:0E2BD600C3E49FFFE49EFEE49DFDE49CFC2210
:102BE400FAE6FB0808E6F925F0F618E6CA3AF622F2
:102BF400D083D082F8E4937012740193700DA3A370
:102C040093F8740193F5828883E473740293686083
:062C1400EFA3A3A380DF83
:0A45C3003098FDAF99C2987E0022E7
:0F45A800EFC394304007EF943A50028001C322D2
:10457500EFC394094005EF940E4003BF2003D38099
:0345850001C3224D
:00000001FF
