:1022A7005389F0438901C2A9E4FDFCC3ED9FEC9E6D
:1022B7005016758CFA758A1FC28DD28C308DFDC26F
:0822C7008C0DBD00010C80E349
:0122CF0022EC
:05231C00C200753A3813
:10232100A20092B6D2B77F0A7E001222A7853A8018
:0D233100C2B77F017E001222A77580FF2237
:082114008F358B368A378938BC
:10211C00E535701FF539AB36AA37A9388539827584
:10212C008300120AA1FF602FD200F53A1223210579
:10213C003980E3E4F539E539C39535501AD200AB53
:10214C0036AA37A938853982758300120AA1F53A67
:07215C00122321053980DF89
:012163002259
:102271007F1E7E001222A712231C7F057E001222E0
:10228100A712231C12231CC200753A0F122321C26C
:1022910000753A011223217F027E001222A7C2009B
:0622A100753A060223213C
:0F23C000C200753A011223217F027E000222A77C
:101A2400E4F54674482546F8E4F60546E546B40B65
:101A3400F274FFF556F555F554F553E4F5461223C3
:101A4400AF8F47E547C394304012E547D3943950EC
:101A54000B74482546F8A6470546804AE5476408BE
:101A64006005E547B47F0B154674482546F8E4F64F
:101A7400802AE547640D6005E547B40A1A7B007ABD
:101A84000079481219468F568E558D548C537F0D0C
:101A94001222D07F0A800C7F081222D07F201222CB
:101AA400D07F081222D0E546B40A1B7B007A007965
:101AB400481219468F568E558D548C537F0D122221
:101AC400D07F0A1222D074FFFFFEFDFCAB56AA554C
:101AD400A954A853C3120C867003021A42AF56AE1F
:051AE40055AD54AC53A8
:011AE90022DA
:101BAD00252D323073004D6F756E74696E6720444C
:101BBD007269766500696E697420646F6E650025C3
:101BCD002D33357300456E746572206120426C6F44
:101BDD00636B204E756D6265723A20004E756D62B5
:101BED00657220746F6F206C617267652E0A0D002F
:101BFD0072657475726E5F656E7472790025382E1C
:101C0D00386C580077617320612064697265637464
:101C1D006F7279006E6578745F736563746F7200AF
:101C2D0077617320612066696C6500252D313073F5
:101C3D00004552524F5221200025322E326258005B
:100D2600C2A61223801222717F807E1A7D067C0065
:100D3600121FF51215998F22755CFF755D1B755E86
:100D4600B37BFF7A1B79AD12078E7F0A1222D07F02
:100D56000D1222D01200038F227896120CBD75391F
:100D660000753A001211F08E338F347896120CBD4E
:100D76008F328E318D308C2F1223C0C200753A808F
:100D86001223217BFF7A1B79C27F09122114E522E7
:100D96006003020F69755CFF755D1B755ED27BFF94
:100DA6007A1B79CC12078E121A248F268E258D2453
:100DB6008C23AE33AF34E4FCFDAB26AA25A924A8C8
:100DC60023D3120C86500DE4FFFEFDFCA823C312AC
:100DD6000C867012755CFF755D1B755EE97BFF7A8C
:100DE6001B79CC12078EAE33AF34E4FCFDAB26AADA
:100DF60025A924A823D3120C86509AE4FFFEFDFCF5
:100E0600A823C3120C86608DAF32AE31AD30AC2F45
:100E16008A398B3A753B00753C00120FA48F2A8ED7
:100E2600298D288C27755CFF755D1B755EFD7BFF24
:100E36007A1B79AD12078E7BFF7A1C790A852A5FA9
:100E460085295E85285D85275C12078E7F0A12221A
:100E5600D07F0D1222D0E52AF52EE529F52DE528BD
:100E6600F52CE527540FF52BE4FFFEFDE52754107E
:100E7600FC6075755CFF755D1C755E117BFF7A1BEA
:100E860079AD12078E7F0A1222D07F0D1222D0AFC3
:100E96002EAE2DAD2CAC2B1217198F328E318D3014
:100EA6008C2F755CFF755D1C755E217BFF7A1B7947
:100EB600AD12078E7BFF7A1C790A85325F85315E1B
:100EC60085305D852F5C12078E7F0A1222D07F0D3A
:100ED6001222D0AF32AE31AD30AC2F753900753A33
:100EE600001211F08E338F34E4FFFEFDE527541017
:100EF600FCE4FBFAF9F8C3120C867054FFFEFDFC05
:100F0600AB26AA25A924A823C3120C866042755CC9
:100F1600FF755D1C755E2D7BFF7A1B79AD12078E02
:100F2600AF2EAE2DAD2CAC2B753900753A001218CC
:100F36003E7896120CBD753900753A001211F08E86
:100F4600338F347896120CBD8F328E318D308C2FC4
:100F5600E4FEFDE5275480FC7003020D9475220D16
:100F6600020D94E5227003020D947F0A1222D07FAF
:100F76000D1222D0755CFF755D1C755E3E7BFF7A97
:100F86001C793812078E7BFF7A1C794685225C1203
:0E0F9600078E7F0A1222D07F0D1222D080FE1D
:1021B3002570200025322E3262582000416464725B
:1021C3002E202020302020312020322020332020B8
:1021D3003420203520203620203720203820203975
:1021E300202041202042202043202044202045203D
:0521F30020460A0D006A
:101F07008B548A5589568B5C8A5D895E7BFF7A2163
:101F170079B312078EE4F557AB54AA55A9568557DE
:101F270082758300120AA1F5587BFF7A2179B7F5EC
:101F37005C12078E0557E557C3941040DBE4F5574D
:101F4700AB54AA55A956855782758300120AA1F585
:101F570058C394204007E558D3947F400375582E03
:101F6700AF581222D00557E557C3941040D27F0DC2
:081F77001222D07F0A0222D0E1
:0A205C008C4F8D508B4C8A4D894E3D
:102066008B518A528953AF0153070F7E00C3E49FF9
:10207600FFE49EFEEF2553F553EE3552F5527BFFF6
:102086007A2179BF12078EAB51AA52A953121F07A4
:1020960074102553F553E43552F552E54E2550F9A3
:1020A600E54D354FFA8A838982C3E5539582E55219
:0420B600958340D3FB
:0120BA002203
:0823F40025322E326258200050
:10159900758E0CD294E4F53B7B007A0079357FFF98
:1015A90012233E053BE53BC3940A40EC7B007A00DD
:1015B90079351222398F3AE4F53B7435253BF8E643
:1015C900F53C7BFF7A2379F4F55C12078E053BE540
:1015D9003BC3940540E47F0A1222D07F0D1222D02A
:1015E9007F647E001222A7E53A700AFB7A007935FA
:1015F9001221F88F3AE4F53B7435253BF8E6F53CC2
:101609007BFF7A2379F4F55C12078E053BE53BC332
:10161900940540E47F0A1222D07F0D1222D07F6404
:101629007E001222A7E53A7015FB7A00793512225D
:10163900F78F3AE53564016005753A05C2A5E4F509
:101649003B7435253BF8E6F53C7BFF7A2379F4F5C5
:101659005C12078E053BE53BC3940540E47F0A1203
:1016690022D07F0D1222D07F647E001222A7E53A94
:10167900700AFB7A007935121E8A8F3AE4F53B74B9
:1016890035253BF8E6F53C7BFF7A2379F4F55C12C6
:10169900078E053BE53BC3940540E47F0A1222D03F
:1016A9007F0D1222D07F647E001222A7E53A701DB9
:1016B900FB7A0079351222F78F3AE53654C0700D5E
:1016C900E53630E705753A078003753A05E4F53BD9
:1016D9007435253BF8E6F53C7BFF7A2379F4F55C14
:1016E90012078E053BE53BC3940540E47F0A1222AD
:1016F900D07F0D1222D07F647E001222A7E53A60C6
:0717090002C2A7D294AF3A1F
:0117100022B6
:062239008B3D8A3E893F47
:10223F00C294E4F569F568F567F566FF121CEBEFDC
:10224F00700BAB3DAA3EA93F7F01121C55EF700FDB
:10225F00AB3DAA3EA93F120A88640160027F05D2F6
:01226F0094DA
:01227000224B
:0621F8008B3D8A3E893F89
:1021FE00C294E47569AA756801F567F5667F0812E1
:10220E001CEBEF700BAB3DAA3EA93F7F05121C5590
:10221E00AB3DAA3EA93F120A88FEB405047F098091
:0A222E0007EE640160027F06D294FF
:012238002283
:0622F7008B3D8A3E893F89
:1022FD00C294E4F569F568F567F5667F3A121CEB53
:0E230D00EF700BAB3DAA3EA93F7F05121C5599
:01231B00229F
:061E8A008B3D8A3E893FFA
:101E9000E4F544F543F542754140C294F5400540F0
:101EA000E4F569F568F567F5667F37121CEBEF70AE
:101EB00003121C4DAB3DAA3EA93F120A88FE6006E4
:101EC000640160027F02EF70118544698543688573
:101ED00042678541667F29121CEBEF7003121C4D8F
:101EE000AB3DAA3EA93F120A88FE6006640160026B
:101EF0007F020540EE6007E5406003EF60A0E5402B
:061F000070027F01D29483
:011F060022B8
:021CEB008F6503
:101CED00E565C394404003021D7AE5654440F56BFC
:101CFD007B007A00796CFF12233E8F6A756D18E5B3
:101D0D006A70047F0180027F00E56DC39419500451
:101D1D007E0180027E00EE5F6024AF69AE68AD6724
:101D2D00AC66A96DA801120C978F6B7B007A0079B8
:101D3D006C12233E8F6A74F8256DF56D80C1E565D3
:101D4D007005756B95800DE565B40805756B87801D
:101D5D0003756B01E56A700CFB7A00796CAF6B1241
:101D6D00233E8F6AE56A6008756A028003756A030F
:021D7D00AF6A4B
:011D7F002241
:081C4D00AB3DAA3EA93F7F0157
:081C55008F458B468A47894840
:101C5D00E4F549F54A7B007A00794B7FFF12233E6C
:101C6D008F4A0549E5496009E54A7005E54BF46081
:101C7D00E4AB46AA47A948E54B120ACEE5497005E3
:101C8D00754A018046E54A6002800AE54B640160B1
:101C9D0009E54B6005754A028031E545D394014055
:101CAD002A754C01E54CC3954550207B007A00798F
:101CBD004B7FFF12233EAB46AA47A948854C827540
:101CCD008300E54B120AE0054C80D9E54A700CFB08
:0D1CDD007A00794B7FFF12233E8F4AAF4AF9
:011CEA0022D7
:082164007F01FB7A007960FEA7
:0A216C008E658F668B678A688969AB
:10217600E4F56AF56BF56DF56EC3E56E9566E56D8E
:10218600956550267B007A00796C7FFF12233EAB63
:1021960067AA68A969856E82856D83E56C120AE077
:0C21A600056EE56E70D3056D80CFAF6B49
:0121B200220A
:0E1F7F008F5B8E5A8D598C588B5C8A5D895E03
:101F8D00C294E4F55F8F698E688D678C667F111240
:101F9D001CEB055FEF7003122164E5606004E55FE3
:101FAD0070F0E55F70027F01E4F55F055FEF700390
:101FBD00122164E56064FE6007E55F6003EF60EB8E
:101FCD00E55F70027F01E56054F070027F08EF70ED
:101FDD000CAB5CAA5DA95EFF7E0212216CEF700551
:071FED007F03122166D2946C
:011FF40022CA
:101FF500E4F535AB07AA06A905A804FF7EA07D8CEC
:10200500FC120BF4EFD39402500575C3708045EFB5
:10201500D39404500575C371803AEFD394085005E5
:1020250075C372802FEFD39410500575C373802448
:10203500EFD39420500575C3F08019EFD394405029
:102045000575C3F1800EEFD39480500575C3F280FA
:0620550003753504AF35F0
:01205B002262
:10233E00E4FE8FC5AFC40EEF20E703EE70F6EE603D
:10234E000BE5C5120ACEEF5470FE80027E01AF0679
:01235E00225C
:10238000759AE285878753877F759850E4F59B752A
:0C2390009AE2759B1ED299C2ACFEFF229F
:081D80008F568E558D548C53D3
:101D8800C294E4F55C8F698E688D678C667F11124A
:101D98001CEB055CEF700BFB7A00795D7F01FE128E
:101DA800216CE55D6004E55C70E8E55C70027F012C
:101DB800E4F55C055CEF700BFB7A00795D7F01FE52
:101DC80012216CE55D64FE6007E55C6003EF60E38B
:101DD800E55C70027F01E55D54F070027F08EF70EA
:101DE8000DAB59AA5AA95BAF58AE5712216CEF70C8
:0E1DF8000BFB7A00795D7F03FE12216CD29402
:011E060022B9
:1013E500252D333573004D42525F52656C5365634D
:1013F500202000256C7500252D32307300425042A7
:101405005F42797465735065725365630025750095
:101415004250425F536563506572436C7573002596
:101425006275004250425F52737664536563436E42
:1014350074004250425F4E756D46415473004250F0
:10144500425F526F6F74456E74436E740042504232
:101455005F546F745365633136004250425F4641B5
:1014650054537A3136004250425F48696464656E70
:10147500536563004250425F546F74536563333262
:10148500004250425F464154537A33320042504243
:101495005F526F6F745F436C7500526F6F74446970
:1014A50072536563004641542073697A653332008F
:1014B5006572726F722077726F6E672066617474E1
:1014C5007970652000546F745365633332006E750F
:1014D5006D6F66464154536563746F727300446162
:1014E500746153656300636F756E746F66436C75E5
:1014F50073746572730046697273744461746153E1
:101505006563004669727374526F6F7444697253F0
:101515006563004641542073697A6520313200467F
:1015250041542073697A6520313600464154207351
:10153500697A652033320066697273745F73656317
:10154500746F720025382E386C5800636C7573748F
:1015550065725F6E756D0025382E386258006E65B0
:1015650078745F736563746F7200436F6E74696E30
:1015750075653F202820793D202731272C206E3D99
:10158500202732272029002535642E20005B444979
:04159500525D0A0099
:081E07007B017A0279007E00E4
:101E0F008E588F598B5A8A5B895CC3E55894025060
:011E1F00635F
:101E2000E4F560F55FF55EF55DF562AB5AE55C25BE
:101E300059F9E55B3558FAC374039562FFE49400E1
:101E4000FEE92FF9EA3EFA120A88F561AF60AE5F4B
:101E5000AD5EAC5D7808120CAA8F608E5F8D5E8CD3
:101E60005DE5604561F560E55FF55FE55EF55EE5C2
:101E70005DF55D0562E562B404B1AF60AE5FAD5E75
:031E8000AC5D2234
:071E8300E47F0CFEFDFC22D0
:0820BB007B017A0279007E002E
:0A20C3008E4C8F4D8B4E8A4F8950D2
:1020CD00E4F551F552C3E54C94025036E4FDAB4EA8
:1020DD00E550254DF9E54F354CFAEDFFC374019FE1
:1020ED00FFE49400FEE92FF9EA3EFA120A88FCE5B6
:1020FD0052755200F551EC42520DBD02D1AE51AFA9
:06210D0052227E007F0C4F
:0121130022A9
:0F235F00E54A240BFFE43549FEAB50AA51A952C1
:10236E00C3EE940250098F828E83120AA1FF227F40
:01237E000C52
:01237F00223B
:10000300E4F535755702F558755901755A02755B54
:1000130000FFFEFDFC121D807B017A0279007D004A
:100023007C0212205C7B017A027900E4FFFE12233A
:100033006EEF64EB6055E4FF12236EEF64E9604BEF
:100043007FC60E121E0F786F120CD6786F120CBD7E
:100053008F3B8E3A8D398C38755CFF755D13755EF9
:10006300EB7BFF7A1379E512078E7BFF7A1379F81E
:10007300853B5F853A5E85395D85385C12078E7FE7
:100083000A1222D07F0D1222D0800375350AE5357E
:100093006003020729AF3BAE3AAD39AC387557025E
:1000A300F558755901755A02755B00121D807B0165
:1000B3007A0279007D007C0212205C755CFF755D1D
:1000C30014755E027BFF7A1379FC12078E7F0B1285
:1000D30020BB7873A60608A6077BFF7A147912184B
:1000E300E6F55C08E6F55D12078E7F0A1222D07FE3
:1000F3000D1222D0755CFF755D14755E157BFF7A5A
:100103001379FC12078E7B017A0279007F0D7E0042
:1001130012236E7875A6077BFF7A147924E6F55CC3
:1001230012078E7F0A1222D07F0D1222D0755CFF38
:10013300755D14755E287BFF7A1379FC12078E7F39
:100143000E1220BB7876A60608A6077BFF7A1479E1
:100153001218E6F55C08E6F55D12078E7F0A122297
:10016300D07F0D1222D0755CFF755D14755E377BF1
:10017300FF7A1379FC12078E7B017A0279007F10D4
:100183007E0012236E7883A6077BFF7A147924E618
:10019300F55C12078E7F0A1222D07F0D1222D075D2
:1001A3005CFF755D14755E437BFF7A1379FC120760
:1001B3008E7B017A0279007F117E001220C3788141
:1001C300A60608A6077BFF7A14791218E6F55C08E1
:1001D300E6F55D12078E7F0A1222D07F0D1222D020
:1001E300755CFF755D14755E527BFF7A1379FC12A3
:1001F300078E7B017A0279007F137E001220C37879
:100203009EA60608A6077BFF7A14791218E6F55C0A
:1002130008E6F55D12078E7F0A1222D07F0D1222A7
:10022300D0755CFF755D14755E5F7BFF7A1379FC97
:1002330012078E7B017A0279007F167E001220C39B
:10024300788CA60608A6077BFF7A14791218E6F5C0
:100253005C08E6F55D12078E7F0A1222D07F0D122D
:1002630022D0755CFF755D14755E6B7BFF7A137925
:10027300FC12078E7F1C121E077879120CD67BFFA7
:100283007A1379F87879120CBD8F5F8E5E8D5D8C51
:100293005C12078E7F0A1222D07F0D1222D0755C6A
:1002A300FF755D14755E797BFF7A1379FC12078EF7
:1002B3007F20121E07789A120CD67BFF7A1379F8E7
:1002C300789A120CBD8F5F8E5E8D5D8C5C12078EEB
:1002D3007F0A1222D07F0D1222D0755CFF755D1448
:1002E300755E867BFF7A1379FC12078E7B017A0297
:1002F30079007F247E00121E0F7888120CD67BFFB4
:100303007A1379F87888120CBD8F5F8E5E8D5D8CC1
:100313005C12078E7F0A1222D07F0D1222D0755CE9
:10032300FF755D14755E927BFF7A1379FC12078E5D
:100333007B017A0279007F2C7E00121E0F788E12C9
:100343000CD67BFF7A1379F8788E120CBD8F5F8EF3
:100353005E8D5D8C5C12078E7F0A1222D07F0D1298
:1003630022D0755CFF755D14755E9F7BFF7A1379F0
:10037300FC12078E7881E6FE08E67805C333CE3398
:10038300CED8F9FF7873E6FC08E6FD24FFFBEC34D6
:10039300FFCB2FFFEB3EFE120B14E4FCFD78921211
:1003A3000CD67BFF7A1379F87892120CBD8F5F8E8F
:1003B3005E8D5D8C5C12078E7F0A1222D07F0D1238
:1003C30022D0788DE6184670337888120CBD8F3FA3
:1003D3008E3E8D3D8C3C755CFF755D14755EAA7B0E
:1003E300FF7A1379FC12078E7BFF7A1379F8853F26
:1003F3005F853E5E853D5D853C5C8022788CE6FEB4
:1004030008E6FFE48F3F8E3EF53DF53C75350B75F1
:100413005CFF755D14755EB57BFF7A1379F812077F
:100423008E7F0A1222D07F0D1222D0789FE61846C3
:100433007040789A120CBD8F438E428D418C40756B
:100443005CFF755D14755ECA7BFF7A1379FC120736
:100453008E7BFF7A1379F885435F85425E85415D24
:1004630085405C12078E7F0A1222D07F0D1222D0A4
:100473008013789EE6FE08E6FFE48F438E42F54143
:10048300F54075350B7883E6FFE4FCFDFEAB3FAA30
:100493003EA93DA83C120B698E368F37755CFF75FC
:1004A3005D14755ED37BFF7A1379FC12078E7BFF95
:1004B3007A1379F885365C85375D12078E7F0A12C9
:1004C30022D07F0D1222D07883E6FFE4FCFDFEAB41
:1004D3003FAA3EA93DA83C120B69C004A905AA0680
:1004E300AB077876E6FE08E6FFE4FCFDD000EB2FD1
:1004F300FFEA3EFEED39FDEC38FC7892120CC9EFB1
:100503002BFBEE3AFAED39F9EC38F8C3E5439BF5EA
:100513004BE5429AF54AE54199F549E54098F54896
:10052300755CFF755D14755EE37BFF7A1379FC12CE
:10053300078E7BFF7A1379F8854B5F854A5E854981
:100543005D85485C12078E7F0A1222D07F0D12222E
:10055300D07875E6FBE4FAF9F8AF4BAE4AAD49AC97
:1005630048120BF48F478E468D458C44755CFF759E
:100573005D14755EEB7BFF7A1379FC12078E7BFFAC
:100583007A1379F885475F85465E85455D85445CCA
:1005930012078E7F0A1222D07F0D1222D07883E6B3
:1005A300FFE4FCFDFEAB3FAA3EA93DA83C120B694C
:1005B300C004A905AA06AB077876E6FE08E6FFE4C1
:1005C300FCFDD000EB2FFFEA3EFEED39FDEC38FCDD
:1005D3007892120CC9EF2BFFEE3AFEED39FDEC38A1
:1005E300FC786F120CC9EF2BFFEE3AFEED39FDECF0
:1005F30038FC787D120CD6755CFF755D14755EFB57
:100603007BFF7A1379FC12078E7BFF7A1379F878D4
:100613007D120CBD8F5F8E5E8D5D8C5C12078E7FAD
:100623000A1222D07F0D1222D0788E120CBDEF2435
:10063300FEFFEE34FFFEED34FFFDEC34FFFCC0049F
:10064300A905AA06AB077875E6FFE4FCFDFED0001A
:10065300120B69787D120CC9EF2BFFEE3AFEED39D0
:10066300FDEC38FC7896120CD6755CFF755D15753C
:100673005E087BFF7A1379FC12078E7BFF7A13796E
:10068300F87896120CBD8F5F8E5E8D5D8C5C1207C1
:100693008E7F0A1222D07F0D1222D0E47FF57E0FC7
:1006A300FDFCAB47AA46A945A844C3120C86501DBE
:1006B3007878760C75350B760275350B755CFF759E
:1006C3005D15755E187BFF7A1379FC804CE47FF52A
:1006D3007EFFFDFCAB47AA46A945A844C3120C867E
:1006E30078785024760275350B755CFF755D15754A
:1006F3005E247BFF7A1379FC12078E7BFF7A1379D2
:10070300F87878E6F55C80117604755CFF755D1505
:10071300755E307BFF7A1379FC12078E7F0A1222F3
:08072300D07F0D1222D0AF358A
:01072B0022AB
:081711008F418E408D3F8C3E9C
:081719008F498E488D478C4674
:10172100E4FFFEFDFCAB49AA48A947A846C3120C39
:101731008670057896020CBDE54924FEFFE5483424
:10174100FFFEE54734FFFDE54634FFFCC004A90573
:10175100AA06AB077875E6FFE4FCFDFED000120B8C
:1017610069787D120CC9EF2BF54DEE3AF54CED3948
:10177100F54BEC38F54A755CFF755D15755E3C7B84
:10178100FF7A1379FC12078E7BFF7A157949854D13
:101791005F854C5E854B5D854A5C12078E7F0A1220
:1017A10022D07F0D1222D0755CFF755D15755E50DC
:1017B1007BFF7A1379FC12078E7BFF7A15794985B5
:1017C100495F85485E85475D85465C12078E7F0AC5
:1017D1001222D07F0D1222D0755CFF755D14755EEB
:1017E100157BFF7A1379FC12078E7BFF7A15795CE2
:1017F1007875E6F55C12078E7F0A1222D07F0D12F2
:1018010022D0755CFF755D14755EFB7BFF7A1379E1
:10181100FC12078E7BFF7A157949787D120CBD8FFA
:101821005F8E5E8D5D8C5C12078E7F0A1222D07FE7
:0C1831000D1222D0AF4DAE4CAD4BAC4AB6
:01183D002288
:081AEA008F498E488D478C46A0
:101AF2007876E6FE08E6FFE4FCFD786F120CC9EF8B
:101B02002BFFEE3AFEED39FDEC38FC7884120CD650
:101B1200E47F04FEFDFCAB49AA48A947A846120B84
:101B2200698F4F8E4E8D4D8C4C7873E6FE08E6FB26
:101B3200AA06E4F9F8AF4FAE4E120BF47884120CF9
:101B4200C9EF2BF557EE3AF556ED39F555EC38F568
:101B520054C294855769855668855567F5667F1125
:101B6200121CEBAA4AA94B7B017F007E027D007CFE
:101B720000121F7FD2947873E6FE08E6FBAA06E401
:101B8200F9F8AF4FAE4EAD4DAC4C120BF4AC00AD0C
:101B920001AE02AF038F538E528D518C50AA4AA9C7
:0A1BA2004B7B01121E0FEC540FFCE8
:011BAC002216
:08183E008F388E378D368C3592
:10184600E4F53C1217118F458E448D438C42755C2E
:10185600FF755D15755E637BFF7A1379FC12078E43
:101866007BFF7A15794985455F85445E85435D85AD
:10187600425C12078E7F0A1222D07F0D1222D0AF51
:1018860045AE44AD43AC427873E6F55708E6F558E5
:1018960075590185395A853A5B121D808F3BE53BA8
:1018A6006003021943806CE53D640160030219433D
:1018B600E53B6003021943053CE53CD37875964049
:1018C6001FE4F53CAF41AE40AD3FAC3E85394A859D
:1018D6003A4B121AEA1217118F458E448D438C42E9
:1018E600AF3C7E007873E6FA08E6FBFDAC02120B0D
:1018F60002EF2545FFEE3544FEE43543FDE435426F
:10190600FC8A578B5875590185395A853A5B121DE1
:10191600808F3BAA39A93A7B017873E6FC08E6FD7D
:1019260012205C755CFF755D15755E6F7BFF7A1323
:0F19360079E512078E121A248F3D0218ADAF3BD0
:01194500227F
:0811F0008F388E378D368C35E7
:1011F800754C0185394D853A4EE4F545F546F5437C
:10120800F544787D120CBDAB38AA37A936A835C38A
:10121800120C86500F7892120CBD8F428E418D4071
:101228008C3F800D7875E6FFE48F42F541F540F577
:101238003F85383E85373D85363C85353BAF3EAEEC
:101248003DAD3CAC3B7873E6F55708E6F558854C60
:1012580059854D5A854E5B121D808F4BE54B6003B7
:101268000213DBAB4CAA4DA94EAF44AE4312236E1A
:101278008F47E54764E5700302134DE547700302A5
:10128800134DE544240BFFE43543FEAB4CAA4DA9AE
:101298004E12236E8F49D2A5E549540E60030213FE
:1012A8004D0546E546700205457BFF7A15798C8524
:1012B800455CF55D12078EE4F5487E00E544254857
:1012C800FFEE3543FEAB4CAA4DA94E12236E8F4A52
:1012D8001222D00548E548C3940840DEE54930E4C9
:1012E800307548087E00E5442548FFEE3543FEABDF
:1012F8004CAA4DA94E12236E8F4A1222D00548E5FA
:1013080048C3940B40DE7BFF7A15799212078E80D2
:10131800347F2E1222D07548087E00E5442548FF08
:10132800EE3543FEAB4CAA4DA94E12236E8F4A12DE
:1013380022D00548E548C3940B40DE7F0D1222D029
:101348007F0A1222D074202544F544E43543F5433E
:10135800D3E54494FEE5439401406FE53E2401F54E
:101368003EE4353DF53DE4353CF53CE4353BF53BA5
:10137800C3E53E9538FFE53D9537FEE53C9536FDDE
:10138800E53B9535FCAB42AA41A940A83FD3120CD6
:10139800864031AF3EAE3DAD3CAC3B7873E6F55789
:1013A80008E6F558854C59854D5A854E5B121D80C7
:1013B8008F4BE54B6007E4F545F546F547E4F54303
:1013C800F5448006434580E4F547E547600302128B
:0C13D8006B8005E4F545F546AE45AF46D8
:0113E40022E6
:080FA4008F388E378D368C3535
:100FAC00755001853B51853C52E4F54BF54CF549A8
:100FBC00F54AF548F547F546F545787D120CBDAB7D
:100FCC0038AA37A936A835C3120C86500F7892125E
:100FDC000CBD8F448E438D428C41800D7875E6FF9D
:100FEC00E48F44F543F542F54185384085373F851C
:100FFC00363E85353DAF40AE3FAD3EAC3D7873E6F9
:10100C00F55708E6F55885505985515A85525B12AB
:10101C001D808F4FE54F60030211C1AB50AA51A93F
:10102C0052AF4AAE4912236E8F4DE54D64E5700305
:10103C00021131E54D700302113112235F8F4EE521
:10104C004E540E6003021131054CE54C7002054BF9
:10105C00653A7004E54B653960030211317878E626
:10106C006404705EE54A2415122363E48F48F54747
:10107C00F546F545E548540FF548E4F547F546F5D2
:10108C0045AF48AE47AD46AC457808120CAA8F4820
:10109C008E478D468C45E54A2414122363E5484F50
:1010AC00F548E547F547E546F546E545F545AF48CE
:1010BC00AE47AD46FC7808120CAA8F488E478D4679
:1010CC008C45E54A241B122363E5484FF548E54758
:1010DC00F547E546F546E545F545AF48AE47AD461F
:1010EC00FC7808120CAA8F488E478D468C45E54A31
:1010FC00241A122363E5484FF548E547F547E546C2
:10110C00F546E545F54512235F8F4EE54E30E4126A
:10111C00E548F548E547F547E546F546E54544100D
:10112C00F545E4F54D7420254AF54AE43549F54971
:10113C00D3E54A94FEE54994014071E5402401F55C
:10114C0040E4353FF53FE4353EF53EE4353DF53DB5
:10115C00C3E5409538FFE53F9537FEE53E9536FDF6
:10116C00E53D9535FCAB44AA43A942A841D3120CEA
:10117C00864036AF40AE3FAD3EAC3D7873E6F5579A
:10118C0008E6F55885505985515A85525B121D80D9
:10119C008F4FE54F600CE4F548F547F546754580F3
:1011AC00F54DE4F549F54A8003E4F54DE54D600352
:1011BC00021027800AE4F548F547F546754580E4AA
:1011CC00FFFEFDFCAB48AA47A946A845C3120C86F6
:1011DC007009F548F547F546754580AF48AE47AD03
:0311EC0046AC45C9
:0111EF0022DD
:030000000223DEFA
:0C23DE00787FE4F6D8FD75819F020D2683
:100A8800BB010689828A83E0225002E722BBFE026C
:090A9800E32289828A83E493229F
:100AA100BB010CE58229F582E5833AF583E022500A
:100AB10006E92582F8E622BBFE06E92582F8E22254
:0D0AC100E58229F582E5833AF583E493226E
:100ACE00BB010689828A83F0225002F722BBFE0107
:020ADE00F32201
:100AE000F8BB010DE58229F582E5833AF583E8F04C
:100AF000225006E92582C8F622BBFE05E92582C8F8
:020B0000F222DF
:100B0200EF8DF0A4A8F0CF8CF0A428CE8DF0A42E07
:020B1200FE22C1
:100B1400BC000BBE0029EF8DF084FFADF022E4CCC5
:100B2400F875F008EF2FFFEE33FEEC33FCEE9DEC8E
:100B3400984005FCEE9DFE0FD5F0E9E4CEFD22EDD4
:100B4400F8F5F0EE8420D21CFEADF075F008EF2F1E
:100B5400FFED33FD4007985006D5F0F222C398FD0F
:050B64000FD5F0EA22AC
:100B6900E88FF0A4CC8BF0A42CFCE98EF0A42CFC2B
:100B79008AF0EDA42CFCEA8EF0A4CDA8F08BF0A4A9
:100B89002DCC3825F0FDE98FF0A42CCD35F0FCEB08
:100B99008EF0A4FEA9F0EB8FF0A4CFC5F02ECD39CD
:0F0BA900FEE43CFCEAA42DCE35F0FDE43CFC223A
:100BB80075F008758200EF2FFFEE33FECD33CDCCF4
:100BC80033CCC58233C5829BED9AEC99E582984077
:100BD8000CF582EE9BFEED9AFDEC99FC0FD5F0D654
:100BE800E4CEFBE4CDFAE4CCF9A88222B800C1B97E
:100BF8000059BA002DEC8BF084CFCECDFCE5F0CBBC
:100C0800F97818EF2FFFEE33FEED33FDEC33FCEBF4
:100C180033FB10D703994004EB99FB0FD8E5E4F9AF
:100C2800FA227818EF2FFFEE33FEED33FDEC33FC9C
:100C3800C933C910D7059BE99A4007EC9BFCE99A90
:100C4800F90FD8E0E4C9FAE4CCFB2275F010EF2FD5
:100C5800FFEE33FEED33FDCC33CCC833C810D707D5
:100C68009BEC9AE899400AED9BFDEC9AFCE899F810
:0E0C78000FD5F0DAE4CDFBE4CCFAE4C8F922A3
:100C8600EB9FF5F0EA9E42F0E99D42F0E89C45F0C4
:010C9600223B
:100C9700E8600FECC313FCED13FDEE13FEEF13FF3B
:030CA700D8F1225F
:100CAA00E8600FEFC333FFEE33FEED33FDEC33FCA8
:030CBA00D8F1224C
:0C0CBD00E6FC08E6FD08E6FE08E6FF2263
:0D0CC900E6FB08E6F908E6FA08E6CBF8229B
:0C0CD600ECF608EDF608EEF608EFF6224A
:1022D000EFB40A07740D1222DB740A309811A89922
:1022E000B8130CC2983098FDA899C298B811F6306E
:0722F00099FDC299F5992246
:10072C00E568245CF8E60568227859300702785CA5
:10073C00E475F001120CF0020A882000EB7F2ED237
:10074C00008018EF540F2490D43440D4FF30040BA5
:10075C00EF24BFB41A0050032461FFE56960021551
:10076C0069056CE56C7002056B30070D7859E47502
:10077C00F001120CF0EF020ACE0222D07403D20761
:10078C008003E4C207F5688B598A5A895BE4F569E2
:10079C00F56BF56CE56960077F2012076780F575CE
:1007AC006AFFC201C200C202C203C205C206C2086D
:1007BC00120735FF700D3007057F00120778AF6CFC
:1007CC00AE6B22B4255FC2D5C204120735FF24D00C
:1007DC00B40A00501A75F00A786930D50508B6FFCE
:1007EC000106C6A426F620D5047002D20380D924B3
:1007FC00CFB41A00EF5004C2E5D204020978D2013A
:10080C0080C6D20080C0D20280BCD2D580BAD205BC
:10081C0080B47F201207672002077401B56900407D
:10082C00F112072CFF1207670207A0D208D206802C
:10083C009512072CFB12072CFA12072CF94A4B7055
:10084C000679497A0A7BFF20022EE569602A7E0030
:10085C008E82758300120AA160060EEE656A70F036
:10086C00C2D5EBC0E0EAC0E0E9C0E0EE1209BFD0AF
:10087C00E0F9D0E0FAD0E0FB120A88FF60AAEBC0E6
:10088C00E0EAC0E0E9C0E0120767D0E02401F9D04B
:10089C00E03400FAD0E0FBE56A0460DCD56AD9806C
:1008AC00877BFF7A0979BBD202809C791080027910
:1008BC0008C206C2088008D2D5790A8004790AC217
:1008CC00D5E56A047002F56AE4FAFDFEFF12072C06
:1008DC00FC7B0820011312072CFD7B1030000A1240
:1008EC00072CFE12072CFF7B20EC3382D592D550BF
:1008FC0013C3E43000069FFFE49EFEE42001039D39
:10090C00FDE49CFCE4CBF8C201EC700CCFCECDCC5A
:10091C00E824F8F870F38017C3EF33FFEE33FEEDE5
:10092C0033FDEC33FCEB33FB994002FB0FD8E9EBC6
:10093C00300105F8D0E0C448B201C0E00AEC4D4EDD
:10094C004F78207B0070C2EAB56A0040BCC0E01250
:10095C0009C1D0F0D0E0200104C4C0E0C4B201C091
:10096C00F0120750D0F0D5F0EB0207A0120D0008E2
:10097C003D5308B758080E4C080A4208BB4F08C331
:0F098C004408C34908234308C95508AD4608ADC0
:10099B004508AD470A695008122D08162E08392B49
:1009AB00081A230837200A522A07D24800000831B8
:1009BB003F3F3F00790AA2D5200314300509B91037
:1009CB00020404B9080104A2D52006025001042038
:1009DB0002689202B569005034C0E07F20300319E1
:1009EB007F30A20272067205500F120A18C202C2A1
:1009FB0006C205C2087F30800F300503E9C0E01244
:100A0B000767300503D0E0F9D0E0B569CC300517A6
:100A1B007F30B9100C1207677F583004077F78803E
:100A2B0003B908031207673002057F2D0207677FA2
:100A3B00202008F87F2B2006F322920280CF286E0D
:100A4B00756C6C2900D20112072C3001F8C20178A9
:100A5B006930D50108F60207D22D504349581207C9
:100A6B002C2403B405004001E4900A649312075848
:0D0A7B00743A120758D2037569040208B7D7
:1023AF0010090B1223EABF0D027F0A0222D0AF08D9
:0123BF0022FB
:101946008B578A588959AB57AA58A959120A88FF42
:1019560012239C500D74012559F559E43558F55854
:1019660080E4D200AB57AA58A959120A88FF642B03
:101976006004EFB42D1BAB570559E559AA58700200
:10198600055814F9120A88642D6003D38001C392A6
:1019960000E4F55DF55CF55BF55AAB57AA58A95915
:1019A600120A88FF1223CF505CE47F0AFEFDFCABCF
:1019B6005DAA5CA95BA85A120B69C8ECC8EDC0E029
:1019C600EEC0E0EFC0E0AB57AA58A959120A88FF4B
:1019D6003395E0FEEF24D0FFEE34FFFEE4FCFDD0AD
:1019E600E0FBD0E0FAD0E0F9EB2FF55DEA3EF55CDE
:1019F600ED39F55BEC38F55A74012559F559E4359E
:101A060058F558809530000AAF5DAE5CAD5BAC5AB8
:0E1A1600800BAF5DAE5CAD5BAC5A120CE222F1
:0E0CE200C3E49FFFE49EFEE49DFDE49CFC2223
:100CF000FAE6FB0808E6F925F0F618E6CA3AF62205
:100D0000D083D082F8E4937012740193700DA3A382
:100D100093F8740193F5828883E473740293686096
:060D2000EFA3A3A380DF96
:0A23EA003098FDAF99C2987E0022E2
:0F23CF00EFC394304007EF943A50028001C322CD
:10239C00EFC394094005EF940E4003BF2003D38094
:0323AC0001C32248
:00000001FF
