:1022B6005389F0438901C2A9E4FDFCC3ED9FEC9E5E
:1022C6005016758CFA758A1FC28DD28C308DFDC260
:0822D6008C0DBD00010C80E33A
:0122DE0022DD
:05232B00C200753A3804
:10233000A20092B6D2B77F0A7E001222B6853A80FA
:0D234000C2B77F017E001222B67580FF2219
:082123008F358B368A378938AD
:10212B00E535701FF539AB36AA37A9388539827575
:10213B008300120AA1FF602FD200F53A122330055B
:10214B003980E3E4F539E539C39535501AD200AB44
:10215B0036AA37A938853982758300120AA1F53A58
:07216B00122330053980DF6B
:01217200224A
:102280007F1E7E001222B612232B7F057E001222B3
:10229000B612232B12232BC200753A0F122330C221
:1022A00000753A011223307F027E001222B6C2006E
:0622B000753A060223301E
:0F23CF00C200753A011223307F027E000222B64F
:101A3300E4F54674482546F8E4F60546E546B40B56
:101A4300F274FFF556F555F554F553E4F5461223B4
:101A5300BE8F47E547C394304012E547D3943950CE
:101A63000B74482546F8A6470546804AE5476408AF
:101A73006005E547B47F0B154674482546F8E4F640
:101A8300802AE547640D6005E547B40A1A7B007AAE
:101A93000079481219558F568E558D548C537F0DEE
:101AA3001222DF7F0A800C7F081222DF7F2012229E
:101AB300DF7F081222DFE546B40A1B7B007A007938
:101AC300481219558F568E558D548C537F0D122203
:101AD300DF7F0A1222DF74FFFFFEFDFCAB56AA551F
:101AE300A954A853C3120C867003021A51AF56AE01
:051AF30055AD54AC5399
:011AF80022CB
:101BBC00252D323073004D6F756E74696E6720443D
:101BCC007269766500696E697420646F6E650025B4
:101BDC002D33357300456E746572206120426C6F35
:101BEC00636B204E756D6265723A20004E756D62A6
:101BFC00657220746F6F206C617267652E0A0D0020
:101C0C0072657475726E5F656E7472790025382E0C
:101C1C00386C580077617320612064697265637455
:101C2C006F7279006E6578745F736563746F7200A0
:101C3C0077617320612066696C6500252D313073E6
:101C4C00004552524F5221200025322E326258004C
:100D2600C2A612238F1222807F807E1A7D067C0047
:100D36001220041215A88F22755CFF755D1B755E67
:100D4600C27BFF7A1B79BC12078E7F0A1222DF7FD5
:100D56000D1222DF1200038F227896120CBD753910
:100D660000753A001211FF8E338F347896120CBD3F
:100D76008F328E318D308C2F1223CFC200753A8080
:100D86001223307BFF7A1B79D17F091221237896B3
:100D9600120CBD78A0120CD6E5226003020F7875FE
:100DA6005CFF755D1B755EE17BFF7A1B79DB1207C5
:100DB6008E121A338F268E258D248C23AE33AF34B4
:100DC600E4FCFDAB26AA25A924A823D3120C865041
:100DD6000DE4FFFEFDFCA823C3120C867012755CA1
:100DE600FF755D1B755EF87BFF7A1B79DB12078E3C
:100DF600AE33AF34E4FCFDAB26AA25A924A823D341
:100E0600120C86509AE4FFFEFDFCA823C3120C8642
:100E1600608DAF32AE31AD30AC2F8A398B3A753B2F
:100E260000753C00120FB38F2A8E298D288C2775EA
:100E36005CFF755D1C755E0C7BFF7A1B79BC120727
:100E46008E7BFF7A1C7919852A5F85295E85285D48
:100E560085275C12078E7F0A1222DF7F0D1222DFA2
:100E6600E52AF52EE529F52DE528F52CE527540F7D
:100E7600F52BE4FFFEFDE5275410FC607A755CFF58
:100E8600755D1C755E207BFF7A1B79BC12078E7F11
:100E96000A1222DF7F0D1222DFAF2EAE2DAD2CAC53
:100EA6002B1217288F328E318D308C2F78A0120C92
:100EB600D6755CFF755D1C755E307BFF7A1B79BC51
:100EC60012078E7BFF7A1C791985325F85315E8524
:100ED600305D852F5C12078E7F0A1222DF7F0D128E
:100EE60022DFAF32AE31AD30AC2F753900753A0026
:100EF6001211FF8E338F34E4FFFEFDE5275410FCFC
:100F0600E4FBFAF9F8C3120C867054FFFEFDFCAB45
:100F160026AA25A924A823C3120C866042755CFF65
:100F2600755D1C755E3C7BFF7A1B79BC12078EAF24
:100F36002EAE2DAD2CAC2B753900753A0012184D1E
:100F460078A0120CBD753900753A001211FF8E3368
:100F56008F3478A0120CBD8F328E318D308C2FE4F9
:100F6600FEFDE5275480FC7003020D9E75220D02DE
:100F76000D9EE5227003020D947F0A1222DF7F0D7B
:100F86001222DF755CFF755D1C755E4D7BFF7A1C5A
:100F9600794712078E7BFF7A1C795585225C1207EA
:0D0FA6008E7F0A1222DF7F0D1222DF80FEF7
:1021C2002570200025322E3262582000416464724C
:1021D2002E202020302020312020322020332020A9
:1021E2003420203520203620203720203820203966
:1021F200202041202042202043202044202045202E
:0522020020460A0D005A
:101F16008B548A5589568B5C8A5D895E7BFF7A2154
:101F260079C212078EE4F557AB54AA55A9568557C0
:101F360082758300120AA1F5587BFF7A2179C6F5CE
:101F46005C12078E0557E557C3941040DBE4F5573E
:101F5600AB54AA55A956855782758300120AA1F576
:101F660058C394204007E558D3947F400375582EF4
:101F7600AF581222DF0557E557C3941040D27F0DA4
:081F86001222DF7F0A0222DFB4
:0A206B008C4F8D508B4C8A4D894E2E
:102075008B518A528953AF0153070F7E00C3E49FEA
:10208500FFE49EFEEF2553F553EE3552F5527BFFE7
:102095007A2179CE12078EAB51AA52A953121F1677
:1020A50074102553F553E43552F552E54E2550F994
:1020B500E54D354FFA8A838982C3E5539582E5520A
:0420C500958340D3EC
:0120C90022F4
:0824030025322E326258200040
:1015A800758E0CD294E4F53B7B007A0079357FFF89
:1015B80012234D053BE53BC3940A40EC7B007A00BF
:1015C80079351222488F3AE4F53B7435253BF8E625
:1015D800F53C7BFF7A247903F55C12078E053BE521
:1015E8003BC3940540E47F0A1222DF7F0D1222DFFD
:1015F8007F647E001222B6E53A700AFB7A007935DC
:101608001222078F3AE4F53B7435253BF8E6F53CA2
:101618007BFF7A247903F55C12078E053BE53BC313
:10162800940540E47F0A1222DF7F0D1222DF7F64D7
:101638007E001222B6E53A7015FB7A00793512233E
:10164800068F3AE53564016005753A05C2A5E4F5EB
:101658003B7435253BF8E6F53C7BFF7A247903F5A6
:101668005C12078E053BE53BC3940540E47F0A12F4
:1016780022DF7F0D1222DF7F647E001222B6E53A58
:10168800700AFB7A007935121E998F3AE4F53B749B
:1016980035253BF8E6F53C7BFF7A247903F55C12A7
:1016A800078E053BE53BC3940540E47F0A1222DF21
:1016B8007F0D1222DF7F647E001222B6E53A701D8C
:1016C800FB7A0079351223068F3AE53654C0700D3F
:1016D800E53630E705753A078003753A05E4F53BCA
:1016E8007435253BF8E6F53C7BFF7A247903F55CF5
:1016F80012078E053BE53BC3940540E47F0A12229E
:10170800DF7F0D1222DF7F647E001222B6E53A6089
:0717180002C2A7D294AF3A10
:01171F0022A7
:062248008B3D8A3E893F38
:10224E00C294E4F569F568F567F566FF121CFAEFBE
:10225E00700BAB3DAA3EA93F7F01121C64EF700FBD
:10226E00AB3DAA3EA93F120A88640160027F05D2E7
:01227E0094CB
:01227F00223C
:062207008B3D8A3E893F79
:10220D00C294E47569AA756801F567F5667F0812D1
:10221D001CFAEF700BAB3DAA3EA93F7F05121C6463
:10222D00AB3DAA3EA93F120A88FEB405047F098082
:0A223D0007EE640160027F06D294F0
:012247002274
:062306008B3D8A3E893F79
:10230C00C294E4F569F568F567F5667F3A121CFA34
:0E231C00EF700BAB3DAA3EA93F7F05121C647B
:01232A002290
:061E99008B3D8A3E893FEB
:101E9F00E4F544F543F542754140C294F5400540E1
:101EAF00E4F569F568F567F5667F37121CFAEF7090
:101EBF0003121C5CAB3DAA3EA93F120A88FE6006C6
:101ECF00640160027F02EF70118544698543688564
:101EDF0042678541667F29121CFAEF7003121C5C62
:101EEF00AB3DAA3EA93F120A88FE6006640160025C
:101EFF007F020540EE6007E5406003EF60A0E5401C
:061F0F0070027F01D29474
:011F150022A9
:021CFA008F65F4
:101CFC00E565C394404003021D89E5654440F56BDE
:101D0C007B007A00796CFF12234D8F6A756D18E594
:101D1C006A70047F0180027F00E56DC39419500442
:101D2C007E0180027E00EE5F6024AF69AE68AD6715
:101D3C00AC66A96DA801120C978F6B7B007A0079A9
:101D4C006C12234D8F6A74F8256DF56D80C1E565B5
:101D5C007005756B95800DE565B40805756B87800E
:101D6C0003756B01E56A700CFB7A00796CAF6B1232
:101D7C00234D8F6AE56A6008756A028003756A03F1
:021D8C00AF6A3C
:011D8E002232
:081C5C00AB3DAA3EA93F7F0148
:081C64008F458B468A47894831
:101C6C00E4F549F54A7B007A00794B7FFF12234D4E
:101C7C008F4A0549E5496009E54A7005E54BF46072
:101C8C00E4AB46AA47A948E54B120ACEE5497005D4
:101C9C00754A018046E54A6002800AE54B640160A2
:101CAC0009E54B6005754A028031E545D394014046
:101CBC002A754C01E54CC3954550207B007A007980
:101CCC004B7FFF12234DAB46AA47A948854C827522
:101CDC008300E54B120AE0054C80D9E54A700CFBF9
:0D1CEC007A00794B7FFF12234D8F4AAF4ADB
:011CF90022C8
:082173007F01FB7A007960FE98
:0A217B008E658F668B678A6889699C
:10218500E4F56AF56BF56DF56EC3E56E9566E56D7F
:10219500956550267B007A00796C7FFF12234DAB45
:1021A50067AA68A969856E82856D83E56C120AE068
:0C21B500056EE56E70D3056D80CFAF6B3A
:0121C10022FB
:0E1F8E008F5B8E5A8D598C588B5C8A5D895EF4
:101F9C00C294E4F55F8F698E688D678C667F111231
:101FAC001CFA055FEF7003122173E5606004E55FB6
:101FBC0070F0E55F70027F01E4F55F055FEF700381
:101FCC00122173E56064FE6007E55F6003EF60EB70
:101FDC00E55F70027F01E56054F070027F08EF70DE
:101FEC000CAB5CAA5DA95EFF7E0212217BEF700533
:071FFC007F03122175D2944E
:0120030022BA
:10200400E4F535AB07AA06A905A804FF7EA07D8CDC
:10201400FC120BF4EFD39402500575C3708045EFA6
:10202400D39404500575C371803AEFD394085005D6
:1020340075C372802FEFD39410500575C373802439
:10204400EFD39420500575C3F08019EFD39440501A
:102054000575C3F1800EEFD39480500575C3F280EB
:0620640003753504AF35E1
:01206A002253
:10234D00E4FE8FC5AFC40EEF20E703EE70F6EE602E
:10235D000BE5C5120ACEEF5470FE80027E01AF066A
:01236D00224D
:10238F00759AE285878753877F759850E4F59B751B
:0C239F009AE2759B1ED299C2ACFEFF2290
:081D8F008F568E558D548C53C4
:101D9700C294E4F55C8F698E688D678C667F11123B
:101DA7001CFA055CEF700BFB7A00795D7F01FE1270
:101DB700217BE55D6004E55C70E8E55C70027F010E
:101DC700E4F55C055CEF700BFB7A00795D7F01FE43
:101DD70012217BE55D64FE6007E55C6003EF60E36D
:101DE700E55C70027F01E55D54F070027F08EF70DB
:101DF7000DAB59AA5AA95BAF58AE5712217BEF70AA
:0E1E07000BFB7A00795D7F03FE12217BD294E3
:011E150022AA
:1013F400252D333573004D42525F52656C5365633E
:10140400202000256C7500252D3230730042504297
:101414005F42797465735065725365630025750086
:101424004250425F536563506572436C7573002587
:101434006275004250425F52737664536563436E33
:1014440074004250425F4E756D46415473004250E1
:10145400425F526F6F74456E74436E740042504223
:101464005F546F745365633136004250425F4641A6
:1014740054537A3136004250425F48696464656E61
:10148400536563004250425F546F74536563333253
:10149400004250425F464154537A33320042504234
:1014A4005F526F6F745F436C7500526F6F74446961
:1014B40072536563004641542073697A6533320080
:1014C4006572726F722077726F6E672066617474D2
:1014D4007970652000546F745365633332006E7500
:1014E4006D6F66464154536563746F727300446153
:1014F400746153656300636F756E746F66436C75D6
:1015040073746572730046697273744461746153D1
:101514006563004669727374526F6F7444697253E1
:101524006563004641542073697A65203132004670
:1015340041542073697A6520313600464154207342
:10154400697A652033320066697273745F73656308
:10155400746F720025382E386C5800636C75737480
:1015640065725F6E756D0025382E386258006E65A1
:1015740078745F736563746F7200436F6E74696E21
:1015840075653F202820793D202731272C206E3D8A
:10159400202732272029002535642E20005B44496A
:0415A400525D0A008A
:081E16007B017A0279007E00D5
:101E1E008E588F598B5A8A5B895CC3E55894025051
:011E2E006350
:101E2F00E4F560F55FF55EF55DF562AB5AE55C25AF
:101E3F0059F9E55B3558FAC374039562FFE49400D2
:101E4F00FEE92FF9EA3EFA120A88F561AF60AE5F3C
:101E5F00AD5EAC5D7808120CAA8F608E5F8D5E8CC4
:101E6F005DE5604561F560E55FF55FE55EF55EE5B3
:101E7F005DF55D0562E562B404B1AF60AE5FAD5E66
:031E8F00AC5D2225
:071E9200E47F0CFEFDFC22C1
:0820CA007B017A0279007E001F
:0A20D2008E4C8F4D8B4E8A4F8950C3
:1020DC00E4F551F552C3E54C94025036E4FDAB4E99
:1020EC00E550254DF9E54F354CFAEDFFC374019FD2
:1020FC00FFE49400FEE92FF9EA3EFA120A88FCE5A7
:10210C0052755200F551EC42520DBD02D1AE51AF99
:06211C0052227E007F0C40
:01212200229A
:0F236E00E54A240BFFE43549FEAB50AA51A952B2
:10237D00C3EE940250098F828E83120AA1FF227F31
:01238D000C43
:01238E00222C
:10000300E4F535755702F558755901755A02755B54
:1000130000FFFEFDFC121D8F7B017A0279007D003B
:100023007C0212206B7B017A027900E4FFFE12232B
:100033007DEF64EB6055E4FF12237DEF64E9604BD1
:100043007FC60E121E1E786F120CD6786F120CBD6F
:100053008F3B8E3A8D398C38755CFF755D13755EF9
:10006300FA7BFF7A1379F412078E7BFF7A147907F0
:10007300853B5F853A5E85395D85385C12078E7FE7
:100083000A1222DF7F0D1222DF800375350AE53560
:100093006003020729AF3BAE3AAD39AC387557025E
:1000A300F558755901755A02755B00121D8F7B0156
:1000B3007A0279007D007C0212206B755CFF755D0E
:1000C30014755E117BFF7A14790B12078E7F0B1266
:1000D30020CA7873A60608A6077BFF7A147921182D
:1000E300E6F55C08E6F55D12078E7F0A1222DF7FD4
:1000F3000D1222DF755CFF755D14755E247BFF7A3C
:1001030014790B12078E7B017A0279007F0D7E0032
:1001130012237D7875A6077BFF7A147933E6F55CA5
:1001230012078E7F0A1222DF7F0D1222DF755CFF1A
:10013300755D14755E377BFF7A14790B12078E7F1A
:100143000E1220CA7876A60608A6077BFF7A1479D2
:100153002118E6F55C08E6F55D12078E7F0A122288
:10016300DF7F0D1222DF755CFF755D14755E467BC4
:10017300FF7A14790B12078E7B017A0279007F10C4
:100183007E0012237D7883A6077BFF7A147933E6FA
:10019300F55C12078E7F0A1222DF7F0D1222DF75B4
:1001A3005CFF755D14755E527BFF7A14790B120741
:1001B3008E7B017A0279007F117E001220D2788132
:1001C300A60608A6077BFF7A14792118E6F55C08D2
:1001D300E6F55D12078E7F0A1222DF7F0D1222DF02
:1001E300755CFF755D14755E617BFF7A14790B1284
:1001F300078E7B017A0279007F137E001220D2786A
:100203009EA60608A6077BFF7A14792118E6F55CFB
:1002130008E6F55D12078E7F0A1222DF7F0D122298
:10022300DF755CFF755D14755E6E7BFF7A14790B69
:1002330012078E7B017A0279007F167E001220D28C
:10024300788CA60608A6077BFF7A14792118E6F5B1
:100253005C08E6F55D12078E7F0A1222DF7F0D121E
:1002630022DF755CFF755D14755E7A7BFF7A147906
:100273000B12078E7F1C121E167879120CD67BFF89
:100283007A1479077879120CBD8F5F8E5E8D5D8C41
:100293005C12078E7F0A1222DF7F0D1222DF755C4C
:1002A300FF755D14755E887BFF7A14790B12078ED8
:1002B3007F20121E16789A120CD67BFF7A147907C8
:1002C300789A120CBD8F5F8E5E8D5D8C5C12078EEB
:1002D3007F0A1222DF7F0D1222DF755CFF755D142A
:1002E300755E957BFF7A14790B12078E7B017A0278
:1002F30079007F247E00121E1E7888120CD67BFFA5
:100303007A1479077888120CBD8F5F8E5E8D5D8CB1
:100313005C12078E7F0A1222DF7F0D1222DF755CCB
:10032300FF755D14755EA17BFF7A14790B12078E3E
:100333007B017A0279007F2C7E00121E1E788E12BA
:100343000CD67BFF7A147907788E120CBD8F5F8EE3
:100353005E8D5D8C5C12078E7F0A1222DF7F0D1289
:1003630022DF755CFF755D14755EAE7BFF7A1479D1
:100373000B12078E7881E6FE08E67805C333CE3389
:10038300CED8F9FF7873E6FC08E6FD24FFFBEC34D6
:10039300FFCB2FFFEB3EFE120B14E4FCFD78921211
:1003A3000CD67BFF7A1479077892120CBD8F5F8E7F
:1003B3005E8D5D8C5C12078E7F0A1222DF7F0D1229
:1003C30022DF788DE6184670337888120CBD8F3F94
:1003D3008E3E8D3D8C3C755CFF755D14755EB97BFF
:1003E300FF7A14790B12078E7BFF7A147907853F06
:1003F3005F853E5E853D5D853C5C8022788CE6FEB4
:1004030008E6FFE48F3F8E3EF53DF53C75350B75F1
:100413005CFF755D14755EC47BFF7A147907120760
:100423008E7F0A1222DF7F0D1222DF789FE61846A5
:100433007040789A120CBD8F438E428D418C40756B
:100443005CFF755D14755ED97BFF7A14790B120717
:100453008E7BFF7A14790785435F85425E85415D14
:1004630085405C12078E7F0A1222DF7F0D1222DF86
:100473008013789EE6FE08E6FFE48F438E42F54143
:10048300F54075350B7883E6FFE4FCFDFEAB3FAA30
:100493003EA93DA83C120B698E368F37755CFF75FC
:1004A3005D14755EE27BFF7A14790B12078E7BFF76
:1004B3007A14790785365C85375D12078E7F0A12B9
:1004C30022DF7F0D1222DF7883E6FFE4FCFDFEAB23
:1004D3003FAA3EA93DA83C120B69C004A905AA0680
:1004E300AB077876E6FE08E6FFE4FCFDD000EB2FD1
:1004F300FFEA3EFEED39FDEC38FC7892120CC9EFB1
:100503002BFBEE3AFAED39F9EC38F8C3E5439BF5EA
:100513004BE5429AF54AE54199F549E54098F54896
:10052300755CFF755D14755EF27BFF7A14790B12AF
:10053300078E7BFF7A147907854B5F854A5E854971
:100543005D85485C12078E7F0A1222DF7F0D12221F
:10055300DF7875E6FBE4FAF9F8AF4BAE4AAD49AC88
:1005630048120BF48F478E468D458C44755CFF759E
:100573005D14755EFA7BFF7A14790B12078E7BFF8D
:100583007A14790785475F85465E85455D85445CBA
:1005930012078E7F0A1222DF7F0D1222DF7883E695
:1005A300FFE4FCFDFEAB3FAA3EA93DA83C120B694C
:1005B300C004A905AA06AB077876E6FE08E6FFE4C1
:1005C300FCFDD000EB2FFFEA3EFEED39FDEC38FCDD
:1005D3007892120CC9EF2BFFEE3AFEED39FDEC38A1
:1005E300FC786F120CC9EF2BFFEE3AFEED39FDECF0
:1005F30038FC787D120CD6755CFF755D15755E0A47
:100603007BFF7A14790B12078E7BFF7A14790778B4
:100613007D120CBD8F5F8E5E8D5D8C5C12078E7FAD
:100623000A1222DF7F0D1222DF788E120CBDEF2417
:10063300FEFFEE34FFFEED34FFFDEC34FFFCC0049F
:10064300A905AA06AB077875E6FFE4FCFDFED0001A
:10065300120B69787D120CC9EF2BFFEE3AFEED39D0
:10066300FDEC38FC7896120CD6755CFF755D15753C
:100673005E177BFF7A14790B12078E7BFF7A14794E
:10068300077896120CBD8F5F8E5E8D5D8C5C1207B2
:100693008E7F0A1222DF7F0D1222DFE47FF57E0FA9
:1006A300FDFCAB47AA46A945A844C3120C86501DBE
:1006B3007878760C75350B760275350B755CFF759E
:1006C3005D15755E277BFF7A14790B804CE47FF50B
:1006D3007EFFFDFCAB47AA46A945A844C3120C867E
:1006E30078785024760275350B755CFF755D15754A
:1006F3005E337BFF7A14790B12078E7BFF7A1479B2
:10070300077878E6F55C80117604755CFF755D15F6
:10071300755E3F7BFF7A14790B12078E7F0A1222D4
:08072300DF7F0D1222DFAF356C
:01072B0022AB
:081720008F418E408D3F8C3E8D
:081728008F498E488D478C4665
:10173000E4FFFEFDFCAB49AA48A947A846C3120C2A
:101740008670057896020CBDE54924FEFFE5483415
:10175000FFFEE54734FFFDE54634FFFCC004A90564
:10176000AA06AB077875E6FFE4FCFDFED000120B7D
:1017700069787D120CC9EF2BF54DEE3AF54CED3939
:10178000F54BEC38F54A755CFF755D15755E4B7B66
:10179000FF7A14790B12078E7BFF7A157958854DE5
:1017A0005F854C5E854B5D854A5C12078E7F0A1211
:1017B00022DF7F0D1222DF755CFF755D15755E5FA0
:1017C0007BFF7A14790B12078E7BFF7A1579588587
:1017D000495F85485E85475D85465C12078E7F0AB6
:1017E0001222DF7F0D1222DF755CFF755D14755EBE
:1017F000247BFF7A14790B12078E7BFF7A15796BA5
:101800007875E6F55C12078E7F0A1222DF7F0D12D3
:1018100022DF755CFF755D15755E0A7BFF7A1479B2
:101820000B12078E7BFF7A157958787D120CBD8FCD
:101830005F8E5E8D5D8C5C12078E7F0A1222DF7FC9
:0C1840000D1222DFAF4DAE4CAD4BAC4A98
:01184C002279
:081AF9008F498E488D478C4691
:101B01007876E6FE08E6FFE4FCFD786F120CC9EF7B
:101B11002BFFEE3AFEED39FDEC38FC7884120CD641
:101B2100E47F04FEFDFCAB49AA48A947A846120B75
:101B3100698F4F8E4E8D4D8C4C7873E6FE08E6FB17
:101B4100AA06E4F9F8AF4FAE4E120BF47884120CEA
:101B5100C9EF2BF557EE3AF556ED39F555EC38F559
:101B610054C294855769855668855567F5667F1116
:101B7100121CFAAA4AA94B7B017F007E027D007CE0
:101B810000121F8ED2947873E6FE08E6FBAA06E4E3
:101B9100F9F8AF4FAE4EAD4DAC4C120BF4AC00ADFD
:101BA10001AE02AF038F538E528D518C50AA4AA9B8
:0A1BB1004B7B01121E1EEC540FFCCA
:011BBB002207
:08184D008F388E378D368C3583
:10185500E4F53C1217208F458E448D438C42755C10
:10186500FF755D15755E727BFF7A14790B12078E15
:101875007BFF7A15795885455F85445E85435D858F
:10188500425C12078E7F0A1222DF7F0D1222DFAF24
:1018950045AE44AD43AC427873E6F55708E6F558D6
:1018A50075590185395A853A5B121D8F8F3BE53B8A
:1018B5006003021952806CE53D6401600302195210
:1018C500E53B6003021952053CE53CD3787596402B
:1018D5001FE4F53CAF41AE40AD3FAC3E85394A858E
:1018E5003A4B121AF91217208F458E448D438C42BC
:1018F500AF3C7E007873E6FA08E6FBFDAC02120BFE
:1019050002EF2545FFEE3544FEE43543FDE435425F
:10191500FC8A578B5875590185395A853A5B121DD2
:101925008F8F3BAA39A93A7B017873E6FC08E6FD5F
:1019350012206B755CFF755D15755E7E7BFF7A13F6
:0F19450079F412078E121A338F3D0218BCAF3B94
:011954002270
:0811FF008F388E378D368C35D8
:10120700754C0185394D853A4EE4F545F546F5436C
:10121700F544787D120CBDAB38AA37A936A835C37B
:10122700120C86500F7892120CBD8F428E418D4062
:101237008C3F800D7875E6FFE48F42F541F540F568
:101247003F85383E85373D85363C85353BAF3EAEDD
:101257003DAD3CAC3B7873E6F55708E6F558854C51
:1012670059854D5A854E5B121D8F8F4BE54B600399
:101277000213EAAB4CAA4DA94EAF44AE4312237DED
:101287008F47E54764E5700302135CE54770030287
:10129700135CE544240BFFE43543FEAB4CAA4DA990
:1012A7004E12237D8F49D2A5E549540E60030213E0
:1012B7005C0546E546700205457BFF7A15799B85F7
:1012C700455CF55D12078EE4F5487E00E544254848
:1012D700FFEE3543FEAB4CAA4DA94E12237D8F4A34
:1012E7001222DF0548E548C3940840DEE54930E4AB
:1012F700307548087E00E5442548FFEE3543FEABD0
:101307004CAA4DA94E12237D8F4A1222DF0548E5CC
:1013170048C3940B40DE7BFF7A1579A112078E80B4
:10132700347F2E1222DF7548087E00E5442548FFEA
:10133700EE3543FEAB4CAA4DA94E12237D8F4A12C0
:1013470022DF0548E548C3940B40DE7F0D1222DFFC
:101357007F0A1222DF74202544F544E43543F54320
:10136700D3E54494FEE5439401406FE53E2401F53F
:101377003EE4353DF53DE4353CF53CE4353BF53B96
:10138700C3E53E9538FFE53D9537FEE53C9536FDCF
:10139700E53B9535FCAB42AA41A940A83FD3120CC7
:1013A700864031AF3EAE3DAD3CAC3B7873E6F5577A
:1013B70008E6F558854C59854D5A854E5B121D8FA9
:1013C7008F4BE54B6007E4F545F546F547E4F543F4
:1013D700F5448006434580E4F547E547600302127C
:0C13E7007A8005E4F545F546AE45AF46BA
:0113F30022D7
:080FB3008F388E378D368C3526
:100FBB00755001853B51853C52E4F54BF54CF54999
:100FCB00F54AF548F547F546F545787D120CBDAB6E
:100FDB0038AA37A936A835C3120C86500F7892124F
:100FEB000CBD8F448E438D428C41800D7875E6FF8E
:100FFB00E48F44F543F542F54185384085373F850D
:10100B00363E85353DAF40AE3FAD3EAC3D7873E6E9
:10101B00F55708E6F55885505985515A85525B129C
:10102B001D8F8F4FE54F60030211D0AB50AA51A912
:10103B0052AF4AAE4912237D8F4DE54D64E57003E7
:10104B00021140E54D700302114012236E8F4EE5E5
:10105B004E540E6003021140054CE54C7002054BDB
:10106B00653A7004E54B653960030211407878E608
:10107B006404705EE54A2415122372E48F48F54729
:10108B00F546F545E548540FF548E4F547F546F5C3
:10109B0045AF48AE47AD46AC457808120CAA8F4811
:1010AB008E478D468C45E54A2414122372E5484F32
:1010BB00F548E547F547E546F546E545F545AF48BF
:1010CB00AE47AD46FC7808120CAA8F488E478D466A
:1010DB008C45E54A241B122372E5484FF548E5473A
:1010EB00F547E546F546E545F545AF48AE47AD4610
:1010FB00FC7808120CAA8F488E478D468C45E54A22
:10110B00241A122372E5484FF548E547F547E546A3
:10111B00F546E545F54512236E8F4EE54E30E4124C
:10112B00E548F548E547F547E546F546E5454410FE
:10113B00F545E4F54D7420254AF54AE43549F54962
:10114B00D3E54A94FEE54994014071E5402401F54D
:10115B0040E4353FF53FE4353EF53EE4353DF53DA6
:10116B00C3E5409538FFE53F9537FEE53E9536FDE7
:10117B00E53D9535FCAB44AA43A942A841D3120CDB
:10118B00864036AF40AE3FAD3EAC3D7873E6F5578B
:10119B0008E6F55885505985515A85525B121D8FBB
:1011AB008F4FE54F600CE4F548F547F546754580E4
:1011BB00F54DE4F549F54A8003E4F54DE54D600343
:1011CB00021036800AE4F548F547F546754580E48C
:1011DB00FFFEFDFCAB48AA47A946A845C3120C86E7
:1011EB007009F548F547F546754580AF48AE47ADF4
:0311FB0046AC45BA
:0111FE0022CE
:030000000223EDEB
:0C23ED00787FE4F6D8FD7581A3020D2670
:100A8800BB010689828A83E0225002E722BBFE026C
:090A9800E32289828A83E493229F
:100AA100BB010CE58229F582E5833AF583E022500A
:100AB10006E92582F8E622BBFE06E92582F8E22254
:0D0AC100E58229F582E5833AF583E493226E
:100ACE00BB010689828A83F0225002F722BBFE0107
:020ADE00F32201
:100AE000F8BB010DE58229F582E5833AF583E8F04C
:100AF000225006E92582C8F622BBFE05E92582C8F8
:020B0000F222DF
:100B0200EF8DF0A4A8F0CF8CF0A428CE8DF0A42E07
:020B1200FE22C1
:100B1400BC000BBE0029EF8DF084FFADF022E4CCC5
:100B2400F875F008EF2FFFEE33FEEC33FCEE9DEC8E
:100B3400984005FCEE9DFE0FD5F0E9E4CEFD22EDD4
:100B4400F8F5F0EE8420D21CFEADF075F008EF2F1E
:100B5400FFED33FD4007985006D5F0F222C398FD0F
:050B64000FD5F0EA22AC
:100B6900E88FF0A4CC8BF0A42CFCE98EF0A42CFC2B
:100B79008AF0EDA42CFCEA8EF0A4CDA8F08BF0A4A9
:100B89002DCC3825F0FDE98FF0A42CCD35F0FCEB08
:100B99008EF0A4FEA9F0EB8FF0A4CFC5F02ECD39CD
:0F0BA900FEE43CFCEAA42DCE35F0FDE43CFC223A
:100BB80075F008758200EF2FFFEE33FECD33CDCCF4
:100BC80033CCC58233C5829BED9AEC99E582984077
:100BD8000CF582EE9BFEED9AFDEC99FC0FD5F0D654
:100BE800E4CEFBE4CDFAE4CCF9A88222B800C1B97E
:100BF8000059BA002DEC8BF084CFCECDFCE5F0CBBC
:100C0800F97818EF2FFFEE33FEED33FDEC33FCEBF4
:100C180033FB10D703994004EB99FB0FD8E5E4F9AF
:100C2800FA227818EF2FFFEE33FEED33FDEC33FC9C
:100C3800C933C910D7059BE99A4007EC9BFCE99A90
:100C4800F90FD8E0E4C9FAE4CCFB2275F010EF2FD5
:100C5800FFEE33FEED33FDCC33CCC833C810D707D5
:100C68009BEC9AE899400AED9BFDEC9AFCE899F810
:0E0C78000FD5F0DAE4CDFBE4CCFAE4C8F922A3
:100C8600EB9FF5F0EA9E42F0E99D42F0E89C45F0C4
:010C9600223B
:100C9700E8600FECC313FCED13FDEE13FEEF13FF3B
:030CA700D8F1225F
:100CAA00E8600FEFC333FFEE33FEED33FDEC33FCA8
:030CBA00D8F1224C
:0C0CBD00E6FC08E6FD08E6FE08E6FF2263
:0D0CC900E6FB08E6F908E6FA08E6CBF8229B
:0C0CD600ECF608EDF608EEF608EFF6224A
:1022DF00EFB40A07740D1222EA740A309811A89904
:1022EF00B8130CC2983098FDA899C298B811F6305F
:0722FF0099FDC299F5992237
:10072C00E568245CF8E60568227859300702785CA5
:10073C00E475F001120CF0020A882000EB7F2ED237
:10074C00008018EF540F2490D43440D4FF30040BA5
:10075C00EF24BFB41A0050032461FFE56960021551
:10076C0069056CE56C7002056B30070D7859E47502
:10077C00F001120CF0EF020ACE0222DF7403D20752
:10078C008003E4C207F5688B598A5A895BE4F569E2
:10079C00F56BF56CE56960077F2012076780F575CE
:1007AC006AFFC201C200C202C203C205C206C2086D
:1007BC00120735FF700D3007057F00120778AF6CFC
:1007CC00AE6B22B4255FC2D5C204120735FF24D00C
:1007DC00B40A00501A75F00A786930D50508B6FFCE
:1007EC000106C6A426F620D5047002D20380D924B3
:1007FC00CFB41A00EF5004C2E5D204020978D2013A
:10080C0080C6D20080C0D20280BCD2D580BAD205BC
:10081C0080B47F201207672002077401B56900407D
:10082C00F112072CFF1207670207A0D208D206802C
:10083C009512072CFB12072CFA12072CF94A4B7055
:10084C000679497A0A7BFF20022EE569602A7E0030
:10085C008E82758300120AA160060EEE656A70F036
:10086C00C2D5EBC0E0EAC0E0E9C0E0EE1209BFD0AF
:10087C00E0F9D0E0FAD0E0FB120A88FF60AAEBC0E6
:10088C00E0EAC0E0E9C0E0120767D0E02401F9D04B
:10089C00E03400FAD0E0FBE56A0460DCD56AD9806C
:1008AC00877BFF7A0979BBD202809C791080027910
:1008BC0008C206C2088008D2D5790A8004790AC217
:1008CC00D5E56A047002F56AE4FAFDFEFF12072C06
:1008DC00FC7B0820011312072CFD7B1030000A1240
:1008EC00072CFE12072CFF7B20EC3382D592D550BF
:1008FC0013C3E43000069FFFE49EFEE42001039D39
:10090C00FDE49CFCE4CBF8C201EC700CCFCECDCC5A
:10091C00E824F8F870F38017C3EF33FFEE33FEEDE5
:10092C0033FDEC33FCEB33FB994002FB0FD8E9EBC6
:10093C00300105F8D0E0C448B201C0E00AEC4D4EDD
:10094C004F78207B0070C2EAB56A0040BCC0E01250
:10095C0009C1D0F0D0E0200104C4C0E0C4B201C091
:10096C00F0120750D0F0D5F0EB0207A0120D0008E2
:10097C003D5308B758080E4C080A4208BB4F08C331
:0F098C004408C34908234308C95508AD4608ADC0
:10099B004508AD470A695008122D08162E08392B49
:1009AB00081A230837200A522A07D24800000831B8
:1009BB003F3F3F00790AA2D5200314300509B91037
:1009CB00020404B9080104A2D52006025001042038
:1009DB0002689202B569005034C0E07F20300319E1
:1009EB007F30A20272067205500F120A18C202C2A1
:1009FB0006C205C2087F30800F300503E9C0E01244
:100A0B000767300503D0E0F9D0E0B569CC300517A6
:100A1B007F30B9100C1207677F583004077F78803E
:100A2B0003B908031207673002057F2D0207677FA2
:100A3B00202008F87F2B2006F322920280CF286E0D
:100A4B00756C6C2900D20112072C3001F8C20178A9
:100A5B006930D50108F60207D22D504349581207C9
:100A6B002C2403B405004001E4900A649312075848
:0D0A7B00743A120758D2037569040208B7D7
:1023BE0010090B1223F9BF0D027F0A0222DFAF08AC
:0123CE0022EC
:101955008B578A588959AB57AA58A959120A88FF33
:101965001223AB500D74012559F559E43558F55836
:1019750080E4D200AB57AA58A959120A88FF642BF4
:101985006004EFB42D1BAB570559E559AA587002F1
:10199500055814F9120A88642D6003D38001C39297
:1019A50000E4F55DF55CF55BF55AAB57AA58A95906
:1019B500120A88FF1223DE505CE47F0AFEFDFCABB1
:1019C5005DAA5CA95BA85A120B69C8ECC8EDC0E01A
:1019D500EEC0E0EFC0E0AB57AA58A959120A88FF3C
:1019E5003395E0FEEF24D0FFEE34FFFEE4FCFDD09E
:1019F500E0FBD0E0FAD0E0F9EB2FF55DEA3EF55CCF
:101A0500ED39F55BEC38F55A74012559F559E4358E
:101A150058F558809530000AAF5DAE5CAD5BAC5AA9
:0E1A2500800BAF5DAE5CAD5BAC5A120CE222E2
:0E0CE200C3E49FFFE49EFEE49DFDE49CFC2223
:100CF000FAE6FB0808E6F925F0F618E6CA3AF62205
:100D0000D083D082F8E4937012740193700DA3A382
:100D100093F8740193F5828883E473740293686096
:060D2000EFA3A3A380DF96
:0A23F9003098FDAF99C2987E0022D3
:0F23DE00EFC394304007EF943A50028001C322BE
:1023AB00EFC394094005EF940E4003BF2003D38085
:0323BB0001C32239
:00000001FF
