:100F6F005389F0438901C2A9E4FDFCC3ED9FEC9EB8
:100F7F005016758CFA758A1FC28DD28C308DFDC2BA
:080F8F008C0DBD00010C80E394
:010F97002237
:050FE800C20075343861
:100FED00A20092B6D2B77F0A7E00120F6F853480B1
:0D0FFD00C2B77F017E00120F6F7580FF22CA
:080D67008F2F8B308A31893295
:100D6F00E52F701FF533AB30AA31A9328533827569
:100D7F008300120378FF602FD200F534120FED05B8
:100D8F003380E3E4F533E533C3952F501AD200AB2C
:100D9F0030AA31A932853382758300120378F53476
:070DAF00120FED053380DF98
:010DB600221A
:100F0D007F1E7E00120F6F120FE87F057E00120FFD
:100F1D006F120FE8120FE8C20075340F120FEDC2F9
:100F2D0000753401120FED7F027E00120F6FC200AB
:060F3D00753406020FED01
:0F104A00C200753401120FED7F027E00020F6F9E
:1008FA00E4F52774292527F8E4F60527E527B40B3C
:10090A00F274FFF537F536F535F534E4F5271210AC
:10091A00398F28E528C394304012E528D3943950FA
:10092A000B74292527F8A62805278057E528640887
:10093A006005E528B47F15152774292527F8E4F6FC
:10094A007F20120FC17F08120FC18037E528640D7E
:10095A006005E528B40A1D7B007A0079291207444C
:10096A008F378E368D358C347F0D120FC17F0A1268
:10097A000FC1800F7F08120FC17F20120FC17F089D
:10098A00120FC1E527B40A1B7B007A0079291207E6
:10099A00448F378E368D358C347F0D120FC17F0A06
:1009AA00120FC174FFFFFEFDFCAB37AA36A935A8AA
:1009BA0034C31204A77003020918AF37AE36AD3537
:0209CA00AC344B
:0109CC002208
:100E010025322E3262582000456E746572206120B1
:100E1100426C6F636B004E756D6265723A200025FE
:100E21002D33357300456E746572206120426C6FFD
:100E3100636B204E756D626572005265616420536B
:080E4100756363657373210002
:10082200C2A612100A120F0D7F807E1A7D067C006E
:10083200120CA112055E8F22E522603EC2A71210A1
:100842004AC200753480120FED7B007A0079227F54
:1008520001120D677FE87E03120F6F7BFF7A0E791C
:10086200018522381200657F0A120FC17F0D120F17
:10087200C17FE87E03120F6F80BE7FE87E03120FF6
:100882006F12104AC200753480120FED7BFF7A0E90
:1008920079097F0D120D67C2007534C0120FED7B0E
:1008A200FF7A0E79177F08120D677538FF75390EBA
:1008B200753A267BFF7A0E79201200651208FA8FAC
:1008C200268E258D248C2312104AAF26AE25AD2408
:1008D200AC237B017A0079001209CD8F227BFF7A4B
:1008E2000E793B7F0D120D677B017A0079007D0046
:0808F2007C02120D0802083A15
:100E49002570200025322E326258200041646472D8
:100E59002E20202030202031202032202033202035
:100E690034202035202036202037202038202039F2
:100E790020204120204220204320204420204520BA
:050E890020460A0D00E7
:100BB5008B2F8A3089318B388A39893A7BFF7A0EB7
:100BC5007949120065E4F532AB2FAA30A931853297
:100BD50082758300120378F5337BFF7A0E794DF524
:100BE500381200650532E532C3941040DBE4F53276
:100BF500AB2FAA30A931853282758300120378F5AF
:100C050033C394204007E533D3947F400375332ED7
:100C1500AF33120FC10532E532C3941040D27F0DB8
:080C2500120FC17F0A020FC18A
:0A0D08008B278A2889298C2A8D2B5D
:100D12008B2C8A2D892EAE02AF0153070F7E00C3A2
:100D2200E99FF9EA9E8B2CF52D892E7BFF7A0E79AD
:100D320055120065AB2CAA2DA92E120BB5741025E5
:100D42002EF52EE4352DF52DAB27E529252BF9E5DA
:100D520028352AFAEB8A838982C3E52E9582E52D0E
:040D6200958340D065
:010D6600226A
:0D10680025322E3262582000256C752000C4
:10055E00758E0CD294E4F52D7B007A0079277FFFFF
:10056E00120FA0052DE52DC3940A40EC7B007A00F6
:10057E007927120E8E8F2C12104AC20075348012FB
:10058E000FED7B007A0079277F05120D67E4F52DBC
:10059E007427252DF8E6F52E7BFF7A107968F5384D
:1005AE00120065052DE52DC3940540E47F0A120F58
:1005BE00C17F0D120FC17F647E00120F6FE52C708C
:1005CE000AFB7A007927120DB78F2C12104AC2003F
:1005DE00753480120FED7B007A0079277F05120D9E
:1005EE0067E4F52D7427252DF8E6F52E7BFF7A109E
:1005FE007968F538120065052DE52DC3940540E4A4
:10060E007F0A120FC17F0D120FC17F647E00120F81
:10061E006FE52C7015FB7A007927120F438F2CE5AE
:10062E002764016005752C05C2A512104AC200751B
:10063E003480120FED7B007A0079277F05120D674B
:10064E00E4F52D7427252DF8E6F52E7BFF7A10792B
:10065E0068F538120065052DE52DC3940540E47F3D
:10066E000A120FC17F0D120FC17F647E00120F6F31
:10067E00E52C700AFB7A007927120A828F2C121051
:10068E004AC200753480120FED7B007A0079277F05
:10069E0005120D67E4F52D7427252DF8E6F52E7B52
:1006AE00FF7A107968F538120065052DE52DC39493
:1006BE000540E47F0A120FC17F0D120FC17F647EC9
:1006CE0000120F6FE52C701DFB7A007927120F4375
:1006DE008F2CE52854C0700DE52830E705752C07E2
:1006EE008003752C0512104AC200753480120FED6E
:1006FE007B007A0079277F05120D67E4F52D7427AC
:10070E00252DF8E6F52E7BFF7A107968F538120064
:10071E0065052DE52DC3940540E47F0A120FC17FB8
:10072E000D120FC17F647E00120F6FE52C6002C2A6
:05073E00A7D294AF2CCE
:010743002293
:060E8E008B2F8A30893130
:100E9400C294E4F53CF53BF53AF539FF120B208F8B
:100EA40032E532700DAB2FAA30A9317F01120C2D1F
:100EB4008F32E5327010AB2FAA30A93112035F6470
:0A0EC400016003753205D294AF32CD
:010ECE002201
:060DB7008B2F8A30893108
:100DBD00C294E4753CAA753B01F53AF5397F0812EA
:100DCD000B208F32E532700DAB2FAA30A9317F0584
:100DDD00120C2D8F32AB2FAA30A93112035FFFB445
:100DED0005057532098008EF64016003753206D27E
:030DFD0094AF327E
:010E000022CF
:060F43008B2F8A3089317A
:100F4900C294E4F53CF53BF53AF5397F3A120B20AA
:100F59008F32E532700DAB2FAA30A9317F05120C03
:050F69002D8F32AF32B4
:010F6E002260
:060A82008B2F8A30893140
:100A8800E4F537F536F535753440C294F53305335A
:100A9800E4F53CF53BF53AF5397F37120B208F32F8
:100AA800E532700DAB2FAA30A9317F01120C2D8FC2
:100AB80032AB2FAA30A93112035FFF6007640160CF
:100AC80003753202E532701385373C85363B853530
:100AD8003A8534397F29120B208F32E532700DABFD
:100AE8002FAA30A9317F01120C2D8F32AB2FAA30DB
:100AF800A93112035FFF60076401600375320205C4
:100B080033EF6008E5336004E5326082E533700353
:070B1800753201D294AF32E7
:010B1F0022B3
:0E09CD008F2A8E298D288C278B2B8A2C892D22
:1009DB00C294E4F52F7BFF7A1079708F3B8E3A8DA2
:1009EB00398C38120065852A3C85293B85283A8548
:1009FB0027397F11120B208F2E052FE52E700DFB43
:100A0B007A0079307F01FE120ECF8F2EE530600415
:100A1B00E52F70E5E52F7003752E01E4F52F052FFB
:100A2B00E52E700DFB7A0079307F01FE120ECF8F11
:100A3B002EE53064FE6008E52F6004E52E60DFE5EF
:100A4B002F7003752E01E53054F07003752E08E5F9
:100A5B002E700EAB2BAA2CA92DFF7E02120ECF8F60
:100A6B002EE52E700DFB7A0079307F03FE120ECF30
:060A7B008F2ED294AF2E75
:010A81002252
:100CA100E4F527AB07AA06A905A804FF7EA07D8C61
:100CB100FC120415EFD39402500575C3708045EF03
:100CC100D39404500575C371803AEFD3940850054D
:100CD10075C372802FEFD39410500575C3738024B0
:100CE100EFD39420500575C3F08019EFD394405091
:100CF1000575C3F1800EEFD39480500575C3F28062
:060D010003752704AF2773
:010D070022C9
:080F98007B007A00793C7FFF29
:100FA000E4FE8FC5AFC40EEF20E703EE70F6EE60EF
:100FB0000BE5C51203A5EF5470FE80027E01AF065B
:010FC000220E
:020B20008F380C
:100B2200E538C394404003020BAFE5384440F53E3C
:100B32007B007A00793FFF120FA08F3D754018E5C8
:100B42003D70047F0180027F00E540C39419500488
:100B52007E0180027E00EE5F6024AF3CAE3BAD3A88
:100B6200AC39A940A8011204B88F3E7B007A007903
:100B72003F120FA08F3D74F82540F54080C1E53843
:100B82007005753E95800DE538B40805753E878081
:100B920003753E01E53D700CFB7A00793FAF3E12D2
:100BA2000FA08F3DE53D6008753D028003753D0352
:020BB200AF3D55
:010BB400221E
:080C2D008F388B398A3A893BAC
:100C3500E4FDFC120F98AC070DED6008EC7005E5BE
:100C45003CF460EFAB39AA3AA93BE53C1203A5EDAC
:100C550070047C01803AEC60047C028033E53C64DE
:100C6500016008E53C60047C028025E538D39401E9
:100C7500401E7D01EDC395385016120F98AB39AA69
:100C85003AA93B8D82758300E53C1203B70D80E4DC
:0B0C9500EC7006FB120F9AAC07AF04D6
:010CA0002231
:0A0ECF008E358F368B378A3889394B
:100ED900E4F53AF53BFDFCC3ED9536EC953550212B
:100EE9007B007A00793C7FFF120FA0AB37AA38A9A3
:100EF900398D828C83E53C1203B70DBD00010C804E
:030F0900D6AF3B25
:010F0C0022C2
:10100A00759AE285878753877F759850E4F59B75B3
:0C101A009AE2759B1ED299C2ACFEFF2228
:0300000002107576
:0C107500787FE4F6D8FD7581480208225F
:10035F00BB010689828A83E0225002E722BBFE029C
:09036F00E32289828A83E49322CF
:10037800BB010CE58229F582E5833AF583E022503A
:1003880006E92582F8E622BBFE06E92582F8E22284
:0D039800E58229F582E5833AF583E493229E
:1003A500BB010689828A83F0225002F722BBFE0137
:0203B500F32231
:1003B700F8BB010DE58229F582E5833AF583E8F07C
:1003C700225006E92582C8F622BBFE05E92582C828
:0203D700F22210
:1003D90075F008758200EF2FFFEE33FECD33CDCCDB
:1003E90033CCC58233C5829BED9AEC99E58298405E
:1003F9000CF582EE9BFEED9AFDEC99FC0FD5F0D63B
:10040900E4CEFBE4CDFAE4CCF9A88222B800C1B964
:100419000059BA002DEC8BF084CFCECDFCE5F0CBA2
:10042900F97818EF2FFFEE33FEED33FDEC33FCEBDB
:1004390033FB10D703994004EB99FB0FD8E5E4F996
:10044900FA227818EF2FFFEE33FEED33FDEC33FC83
:10045900C933C910D7059BE99A4007EC9BFCE99A77
:10046900F90FD8E0E4C9FAE4CCFB2275F010EF2FBC
:10047900FFEE33FEED33FDCC33CCC833C810D707BC
:100489009BEC9AE899400AED9BFDEC9AFCE899F8F7
:0E0499000FD5F0DAE4CDFBE4CCFAE4C8F9228A
:1004A700EB9FF5F0EA9E42F0E99D42F0E89C45F0AB
:0104B7002222
:1004B800E8600FECC313FCED13FDEE13FEEF13FF22
:0304C800D8F12246
:100FC100EFB40A07740D120FCC740A309811A89966
:100FD100B8130CC2983098FDA899C298B811F63090
:070FE10099FDC299F5992268
:10000300E5442438F8E60544227835300702783889
:10001300E475F00112052802035F2000EB7F2ED266
:10002300008018EF540F2490D43440D4FF30040BD5
:10003300EF24BFB41A0050032461FFE545600215A5
:10004300450548E5487002054730070D7835E475E6
:10005300F001120528EF0203A5020FC17403D207B2
:100063008003E4C207F5448B358A368937E4F545C6
:10007300F547F548E54560077F2012003E80F5759A
:1000830046FFC201C200C202C203C205C206C208C1
:1000930012000CFF700D3007057F0012004FAF48B0
:1000A300AE4722B4255FC2D5C20412000CFF24D090
:1000B300B40A00501A75F00A784530D50508B6FF22
:1000C3000106C6A426F620D5047002D20380D924E3
:1000D300CFB41A00EF5004C2E5D20402024FD2019A
:1000E30080C6D20080C0D20280BCD2D580BAD205ED
:1000F30080B47F2012003E2002077401B545004002
:10010300F1120003FF12003E020077D208D20680EC
:1001130095120003FB120003FA120003F94A4B7015
:100123000679207A037BFF20022EE545602A7E00B4
:100133008E8275830012037860060EEE654670F0BA
:10014300C2D5EBC0E0EAC0E0E9C0E0EE120296D00F
:10015300E0F9D0E0FAD0E0FB12035FFF60AAEBC046
:10016300E0EAC0E0E9C0E012003ED0E02401F9D0AB
:10017300E03400FAD0E0FBE5460460DCD546D980E4
:10018300877BFF7A027992D202809C791080027970
:1001930008C206C2088008D2D5790A8004790AC247
:1001A300D5E546047002F546E4FAFDFEFF120003AE
:1001B300FC7B08200113120003FD7B1030000A12A0
:1001C3000003FE120003FF7B20EC3382D592D5504F
:1001D30013C3E43000069FFFE49EFEE42001039D69
:1001E300FDE49CFCE4CBF8C201EC700CCFCECDCC8B
:1001F300E824F8F870F38017C3EF33FFEE33FEED16
:1002030033FDEC33FCEB33FB994002FB0FD8E9EBF6
:10021300300105F8D0E0C448B201C0E00AEC4D4E0D
:100223004F78207B0070C2EAB5460040BCC0E012A4
:100233000298D0F0D0E0200104C4C0E0C4B201C0F1
:10024300F0120027D0F0D5F0EB0200771205380149
:100253001453018E5800E54C00E14201924F019A7C
:1002630044019A4900FA4301A0550184460184459B
:1002730001844703405000E92D00ED2E01102B00AF
:10028300F123010E20032E2A00A948000001083F94
:100293003F3F00790AA2D5200314300509B91002A3
:1002A3000404B9080104A2D5200602500104200267
:0502B300689202B54550
:1002B800005034C0E07F203003197F30A20272065C
:1002C8007205500F1202EFC202C206C205C2087FB1
:1002D80030800F300503E9C0E012003E300503D03E
:1002E800E0F9D0E0B545CC3005177F30B9100C12D5
:1002F800003E7F583004077F788003B90803120056
:100308003E3002057F2D02003E7F202008F87F2B1B
:100318002006F322920280CF286E756C6C29002D7E
:1003280050434958D2011200033001F8C201784500
:1003380030D50108F60200A91200032403B4050011
:100348004001E49003279312002F743A12002FD231
:070358000375450402018E4C
:1010390010090B121081BF0D027F0A020FC1AF0800
:011049002284
:100744008B388A39893AAB38AA39A93A12035FFF40
:10075400121026500D7401253AF53AE43539F5396D
:1007640080E4D200AB38AA39A93A12035FFF642BA4
:100774006004EFB42D1BAB38053AE53AAA39700290
:10078400053914F912035F642D6003D38001C39209
:1007940000E4F53EF53DF53CF53BAB38AA39A93A02
:1007A40012035FFF121059505CE47F0AFEFDFCAB9C
:1007B4003EAA3DA93CA83B1204CBC8ECC8EDC0E05E
:1007C400EEC0E0EFC0E0AB38AA39A93A12035FFFEC
:1007D4003395E0FEEF24D0FFEE34FFFEE4FCFDD0C1
:1007E400E0FBD0E0FAD0E0F9EB2FF53EEA3EF53D30
:1007F400ED39F53CEC38F53B7401253AF53AE4352E
:1008040039F539809530000AAF3EAE3DAD3CAC3B86
:0E081400800BAF3EAE3DAD3CAC3B12051A2250
:1004CB00E88FF0A4CC8BF0A42CFCE98EF0A42CFCD0
:1004DB008AF0EDA42CFCEA8EF0A4CDA8F08BF0A44E
:1004EB002DCC3825F0FDE98FF0A42CCD35F0FCEBAD
:1004FB008EF0A4FEA9F0EB8FF0A4CFC5F02ECD3972
:0F050B00FEE43CFCEAA42DCE35F0FDE43CFC22DE
:0E051A00C3E49FFFE49EFEE49DFDE49CFC22F2
:10052800FAE6FB0808E6F925F0F618E6CA3AF622D4
:10053800D083D082F8E4937012740193700DA3A352
:1005480093F8740193F5828883E473740293686066
:06055800EFA3A3A380DF66
:0A1081003098FDAF99C2987E00225E
:0F105900EFC394304007EF943A50028001C32256
:10102600EFC394094005EF940E4003BF2003D3801D
:0310360001C322D1
:00000001FF
