:10451C005389F0438901C2A9E4FDFCC3ED9FEC9ED5
:10452C005016758CFA758A1FC28DD28C308DFDC2D7
:08453C008C0DBD00010C80E3B1
:014544002254
:05456A00C200754A3893
:10456F00A20092B6D2B77F0A7E0012451C854A8000
:0D457F00C2B77F017E0012451C7580FF222F
:084389008F458B468A478948E5
:10439100E545701FF549AB46AA47A948854982758D
:1043A1008300122917FF602FD200F54A12456F05CD
:1043B1004980E3E4F549E549C39545501AD200AB7C
:1043C10046AA47A948854982758300122917F54AEB
:0743D10012456F054980DF72
:0143D80022C2
:1044E6007F1E7E0012451C12456A7F057E0012451E
:1044F6001C12456A12456AC200754A0F12456FC200
:1045060000754A0112456F7F027E0012451CC200EB
:06451600754A0602456F24
:0F465E00C200754A0112456F7F027E0002451CA3
:1037E400E4F55674582556F8E4F60556E556B40B38
:1037F400F274FFF566F565F564F563E4F556124673
:103804004D8F57E557C394304012E557D394395040
:103814000B74582556F8A6570556804AE557640890
:103824006005E557B47F0B155674582556F8E4F631
:10383400802AE557640D6005E557B40A1A7B007ABF
:103844000079581237068F668E658D648C637F0D00
:103854001200037F0A800C7F081200037F201200ED
:10386400037F08120003E556B40A1B7B007A007933
:10387400581237068F668E658D648C637F0D120037
:10388400037F0A12000374FFFFFEFDFCAB66AA650A
:10389400A964A863C3122AFC7003023802AF66AE9F
:0538A40065AD64AC639A
:0138A90022FC
:1038AA00252D323073004D6F756E74696E67204432
:1038BA007269766500696E697420646F6E650025A9
:1038CA002D313073004552524F523121200025329A
:1038DA002E32625800636F6E6669672065727220C5
:1038EA0000746573745F6932632065727220002503
:1038FA002D33357300456E746572206120426C6FFA
:10390A00636B204E756D6265723A20004E756D626A
:10391A00657220746F6F206C617267652E0A0D00E4
:10392A0072657475726E5F656E7472790025382ED1
:10393A00386C58007761732061206469726563741A
:10394A006F727900736563746F725F626173655F2A
:10395A00670077617320612066696C650045525281
:05396A004F5221200076
:03002B00021B179E
:101B1700C0E0C0F0C083C082C0D075D000C000C094
:101B270001C002C003C004C005C006C007D2A4D2CA
:101B3700A5D2A6D2A7C2CFC28C758C00758A00C267
:101B47008DD28CE47F01FEFDFC78D0122B3FC312AF
:101B57002AFC70197F40FEFDFC78B0122B3FC312A0
:101B67002AFC400978D0122B5800000003E47F02BA
:101B7700FEFDFC78D0122B3FC3122AFC70197F4060
:101B8700FEFDFC78B0122B3FC3122AFC400978D027
:101B9700122B580000000478D0122B33122B711C23
:101BA7008F000000011E0D000000021CE500000070
:101BB700031E67000000041BDA000000051D590022
:101BC7000000061D3F000000071EC00000000800BF
:101BD700001ED4C2A4D2A5D2A6D2A7D291209071BA
:101BE700208D6E78B8E6FE08E62400F58274003E84
:101BF700F583E0FF7B007A0079D41245AD78B9060A
:101C0700E618700106D378B9E694FF18E694014008
:101C1700CCD378BBE694FF18E694014027E47F0312
:101C2700FEFDFC78C0122B3FC3122AFC700B78C054
:101C3700122B5800000000801478D0122B58000097
:101C47000002800978D0122B5800000006D28D8040
:101C57008C30902FE47F05FEFDFC78D0122B3FC31C
:101C6700122AFC701ED378BBE694FF18E69401781D
:101C7700D04009122B58000000028007122B580091
:101C8700000007C291021ED4D2A4C2A5D2A6D2A731
:101C970078B0122B3378CC122B3FEB2FFFEA3EFEA6
:101CA700E93DFDE83CFC78B4122B4C78B4122B3399
:101CB7007B017A007900123D7E78B0122B33EF2436
:101CC70001FFE43EFEE43DFDE43CFC78B0122B4C02
:101CD70078D0122B580000000878B8021E60C2A402
:101CE700C2A5D2A6D2A778C4122B337526007527B2
:101CF70000123A3278C4122B4C74FFFFFEFD7C0FA2
:101D070078C4122B3FC3122AFC700B78C0122B58D1
:101D170000000003801678C4122B3312427B78CC64
:101D2700122B4C78B0122B580000000078D0122BE1
:101D37005800000008021ED4D2A4D2A5C2A6D2A77A
:101D4700309003021ED478D0122B580000000502F1
:101D57001ED4C2A4D2A5C2A6D2A7D2912090702029
:101D67008D6D78BAE6FE08E62400F58274003EF52C
:101D770083E0FF7B007A0079D41245AD78BB06E695
:101D870018700106D378BBE694FF18E6940140CC9F
:101D9700D318E694FF18E694014027E47F03FEFD7D
:101DA700FC78C0122B3FC3122AFC700B78C0122B91
:101DB7005800000000801478D0122B580000000152
:101DC700800978D0122B5800000005D28D808D3005
:101DD700902FE47F06FEFDFC78D0122B3FC3122A1A
:101DE700FC701ED378B9E694FF18E6940178D040CA
:101DF70009122B58000000018007122B5800000021
:101E070008C291021ED4D2A4C2A5C2A6D2A778B096
:101E1700122B3378CC122B3FEB2FFFEA3EFEE93D26
:101E2700FDE83CFC78B4122B4C78B4122B337B01C1
:101E37007A027900123D7E78B0122B33EF2401FF2E
:101E4700E43EFEE43DFDE43CFC78B0122B4C78D038
:101E5700122B580000000778BA7600087600806DCC
:101E6700C2A4C2A5C2A6D2A778C4122B3375260274
:101E7700752700123A3278C4122B4C74FFFFFEFD0F
:101E87007C0F78C4122B3FC3122AFC700B78C01248
:101E97002B5800000003801678C4122B3312427BA4
:101EA70078CC122B4C78B0122B580000000078D059
:101EB700122B58000000078014D2A4D2A5D2A6C2C4
:101EC700A720900978D0122B5800000006D007D021
:101ED70006D005D004D003D002D001D000D0D0D096
:081EE70082D083D0F0D0E0327C
:10172300D2B3C2A41245EF1244E67F807E1A7D062F
:101733007C001241541233728F40756EFF756F38FF
:101743007570B07BFF7A3879AA1222B67F0A12002D
:10175300037F0D1200037E007F00120FFE8F40787F
:10176300A6122B33754900754A00122E238E438F20
:101773004412465EC200754A8012456F7BFF7A3879
:1017830079BF7F09124389C2A57541017542AC7BBC
:10179300007A0079411241BB8F40E540602AC2A71D
:1017A300756EFF756F387570CF7BFF7A3879C91204
:1017B30022B67BFF7A3879D885406E1222B67F0A2B
:1017C3001200037F0D1200031225B08F40E5406025
:1017D3002AC2A7756EFF756F387570DF7BFF7A3885
:1017E30079C91222B67BFF7A3879D885406E1222E6
:1017F300B67F0A1200037F0D120003C2A6E5406004
:101803002AC2A7756EFF756F387570EB7BFF7A3848
:1018130079C91222B67BFF7A3879D885406E1222B5
:10182300B67F0A1200037F0D12000375CDB275CC8B
:101833006A75C880C28CE4F58CF58AC28D43890130
:10184300D2ADD2AF78A6122B3378CC122B4CE54015
:101853006003021ADA756EFF756F387570FF7BFFD0
:101863007A3879F91222B61237E478D5122B4CAEB6
:1018730043AF44E4FCFD78D5122B3FD3122AFC502E
:1018830010E4FFFEFDFC78D5122B3FC3122AFC7037
:1018930012756EFF756F397570167BFF7A3879F99B
:1018A3001222B6AE43AF44E4FCFD78D5122B3FD3EE
:1018B300122AFC50A0E4FFFEFDFC78D5122B3FC397
:1018C300122AFC609078D5122B338E498F4A754BC0
:1018D30000754C0078CC122B33122BEF78BC122BF3
:1018E3004C756EFF756F3975702A7BFF7A3879AA4C
:1018F3001222B67BFF7A39793778BC122B338F717A
:101903008E708D6F8C6E1222B67F0A1200037F0DCC
:1019130012000378BC122B33EC540FFC78C8122B43
:101923004C78BC122B33E4FFFEFDEC5410FC606DCD
:10193300756EFF756F3975703E7BFF7A3879AA1221
:1019430022B67F0A1200037F0D12000378C8122B00
:10195300331234F278CC122B4C756EFF756F3975D8
:10196300704E7BFF7A3879AA1222B67BFF7A3979D7
:101973003778CC122B338F718E708D6F8C6E122251
:10198300B67F0A1200037F0D12000378CC122B33AB
:10199300754900754A00122E238E438F4478BC127A
:1019A3002B33E4FFFEFDEC5410FCE4FBFAF9F8C31F
:1019B300122AFC6003021AC3FFFEFDFC78D5122B2A
:1019C3003FC3122AFC7003021AC3756EFF756F3989
:1019D30075705C7BFF7A3879AA1222B678C8122B0D
:1019E30033754900754A0012361778C8122B331223
:1019F30034F278CC122B4C78B0122B3378CC122BD8
:101A03003FEB2FFFEA3EFEE93DFDE83CFC78B412D4
:101A13002B4C78B4122B337B017A007900123E8D64
:101A230078B0122B33EF2401FFE43EFEE43DFDE4E6
:101A33003CFC78B0122B4C78B0122B3378CC122BA1
:101A43003FEB2FFFEA3EFEE93DFDE83CFC78B41294
:101A53002B4C78B4122B337B017A027900123E8D22
:101A630078B0122B33EF2401FFE43EFEE43DFDE4A6
:101A73003CFC78B0122B4C78D0122B580000000598
:101A830078C0122B5800000001C2CFD2CAE478B844
:101A9300F608F608F608F6E4FFFEFDFC78C0122B04
:101AA3003FC3122AFC600575870180EBC2CA78CC5C
:101AB300122B33754900754A00122E238E438F442F
:101AC30078BC122B33E4FEFDEC5480FC7003021847
:101AD3005175400D021851E5407003021847C2A723
:101AE3007F0A1200037F0D120003756EFF756F39B5
:101AF3007570677BFF7A3879C91222B67BFF7A3813
:101B030079D885406E1222B67F0A1200037F0D1228
:041B1300000380FE4D
:104428002570200025322E326258200041646472C3
:104438002E20202030202031202032202033202020
:1044480034202035202036202037202038202039DD
:1044580020204120204220204320204420204520A5
:0544680020460A0D00D2
:104007008B668A6789688B6E8A6F89707BFF7A44B3
:1040170079281222B6E4F569AB66AA67A9688569AB
:1040270082758300122917F56A7BFF7A44792CF58C
:104037006E1222B60569E569C3941040DBE4F569A1
:10404700AB66AA67A968856982758300122917F587
:104057006AC394204007E56AD3947F4003756A2EAC
:10406700AF6A1200030569E569C3941040D27F0D5A
:084077001200037F0A0200039E
:0A421C008C618D628B5E8A5F896001
:104226008B638A648965AF0153070F7E00C3E49FE1
:10423600FFE49EFEEF2565F565EE3564F5647BFFCC
:104246007A4479341222B6AB63AA64A96512400790
:1042560074102565F565E43564F564E5602562F955
:10426600E55F3561FA8A838982C3E5659582E564EF
:04427600958340D319
:01427A002221
:0846920025322E32625820008F
:10337200758E0CD294E4F54B7B007A0079457FFF81
:1033820012458C054BE54BC3940A40EC7B007A0056
:1033920079451244AE8F4AE4F54B7445254BF8E665
:1033A200F54C7BFF7A467992F56E1222B6054BE513
:1033B2004BC3940540E47F0A1200037F0D12000301
:1033C2007F647E0012451CE54A700AFB7A0079454B
:1033D20012446D8F4AE4F54B7445254BF8E6F54CE3
:1033E2007BFF7A467992F56E1222B6054BE54BC306
:1033F200940540E47F0A1200037F0D1200037F64EC
:103402007E0012451CE54A7015FB7A00794512458B
:10341200458F4AE54564016005754A05C2A5E4F594
:103422004B7445254BF8E6F54C7BFF7A467992F5CD
:103432006E1222B6054BE54BC3940540E47F0A1297
:1034420000037F0D1200037F647E0012451CE54AD3
:10345200700AFB7A007945123F0F8F4AE4F54B74EC
:1034620045254BF8E6F54C7BFF7A467992F56E12CC
:1034720022B6054BE54BC3940540E47F0A120003D4
:103482007F0D1200037F647E0012451CE54A701D09
:10349200FB7A0079451245458F4AE54654C0700DC6
:1034A200E54630E705754A078003754A05E4F54BA2
:1034B2007445254BF8E6F54C7BFF7A467992F56E1A
:1034C2001222B6054BE54BC3940540E47F0A120075
:1034D200037F0D1200037F647E0012451CE54A60E3
:0734E20002C2A7D294AF4A19
:0134E90022C0
:0644AE008B4D8A4E894F80
:1044B400C294E4F579F578F577F576FF123C4BEF85
:1044C400700BAB4DAA4EA94F7F01123CE8EF700F61
:1044D400AB4DAA4EA94F1228FE640160027F05D29B
:0144E4009443
:0144E50022B4
:06446D008B4D8A4E894FC1
:10447300C294E47579AA757801F577F5767F081209
:104483003C4BEF700BAB4DAA4EA94F7F05123CE896
:10449300AB4DAA4EA94F1228FEFEB405047F098036
:0A44A30007EE640160027F06D29468
:0144AD0022EC
:064545008B4D8A4E894FE8
:10454B00C294E4F579F578F577F5767F3A123C4B22
:0E455B00EF700BAB4DAA4EA94F7F05123CE846
:01456900222F
:063F0F008B4D8A4E894F24
:103F1500E4F554F553F552755140C294F5500550EA
:103F2500E4F579F578F577F5767F37123C4BEF7048
:103F350003123CE0AB4DAA4EA94F1228FEFE6006C7
:103F4500640160027F02EF7011855479855378858D
:103F550052778551767F29123C4BEF7003123CE076
:103F6500AB4DAA4EA94F1228FEFE60066401600201
:103F75007F020550EE6007E5506003EF60A0E55055
:063F850070027F01D294DE
:013F8B002213
:0A3C41008F798E788D778C767F11D5
:023C4B008F7573
:103C4D00E575C394404003023CDAE5754440F57BCD
:103C5D007B007A00797CFF12458C8F7A757D18E593
:103C6D007A70047F0180027F00E57DC394195004B2
:103C7D007E0180027E00EE5F6024AF79AE78AD7775
:103C8D00AC76A97DA801122B0D8F7B7B007A007974
:103C9D007C12458C8F7A74F8257DF57D80C1E57594
:103CAD007005757B95800DE575B40805757B87806E
:103CBD0003757B01E57A700CFB7A00797CAF7B1282
:103CCD00458C8F7AE57A6008757A028003757A03E0
:023CDD00AF7ABC
:013CDF0022C2
:023AF5008F3B05
:103AF700E53BC394404003023B93E53B4440FF78DA
:103B070011F67B007A0079121245AD7810A6077876
:103B17001376187810E670047F0180027F0078130F
:103B2700E6F9C3941950047E0180027E00EE5F60BF
:103B370026AF3FAE3EAD3DAC3CA801122B0D781130
:103B4700EFF67B007A0079121245AD7810A6077858
:103B57001374F826F680BCE53B70067811769580DD
:103B67000DE53B7811B4080476878002760178105A
:103B7700E6701008E6FF7B007A0079121245AD78EF
:103B870010A6077810E6600876028004781076039E
:043B97007810E6FFBD
:013B9B002207
:083CE000AB4DAA4EA94F7F0174
:083CE8008F558B568A5789584D
:103CF000E4F559F55A7B007A00795B7FFF12458C19
:103D00008F5A0559E5596009E55A7005E55BF4607D
:103D1000E4AB56AA57A958E55B122944E55970054A
:103D2000755A018046E55A6002800AE55B640160CD
:103D300009E55B6005755A028031E555D394014071
:103D40002A755C01E55CC3955550207B007A0079AB
:103D50005B7FFF12458CAB56AA57A958855C8275CC
:103D60008300E55B122956055C80D9E55A700CFB8F
:0D3D70007A00795B7FFF12458C8F5AAF5AA5
:013D7D002223
:0843D9007F01FB7A007970FE00
:0A43E1008E758F768B778A788979C4
:1043EB00E4F57AF57BF57DF57EC3E57E9576E57D87
:1043FB00957550267B007A00797C7FFF12458CAB3C
:10440B0077AA78A979857E82857D83E57C122956EA
:0C441B00057EE57E70D3057D80CFAF7B71
:014427002272
:0842D6007F01FB7A00790BFE69
:0A42DE008E3B8F3C8B3D8A3E893FEA
:1042E800E47810F608F67813F608F6C37814E6951D
:1042F8003C18E6953B502C7B007A0079127FFF1220
:1043080045AD7812E6FFAB3DAA3EA93F08E6FC089A
:10431800E6F5828C83EF122956781406E61870CBDE
:074328000680C87811E6FFD2
:01432F00226B
:0E407F008F6B8E6A8D698C688B6C8A6D896E72
:10408D00C294E4F56F123C41056FEF70031243D9F2
:10409D00E5706004E56F70F0E56F70027F01E4F587
:1040AD006F056FEF70031243D9E57064FE6007E58D
:1040BD006F6003EF60EBE56F70027F01E57054F008
:1040CD0070027F08EF700CAB6CAA6DA96EFF7E02BB
:0D40DD001243E1EF70057F031243DBD29424
:0140EA0022B3
:0E3B9C008F378E368D358C348B388A39893AC6
:103BAA00C294E4780AF685373F85363E85353D85E9
:103BBA00343C7F11123AF57809A607780A0618E606
:103BCA0070071242D67809A607780BE6600418E651
:103BDA0070E9780AE67003187601E4780AF6780A3A
:103BEA000618E670071242D67809A607780BE6FF90
:103BFA0064FE600818E6600418E660E2780AE67077
:103C0A0003187601EF54F07004780976087809E60B
:103C1A007010AB38AA39A93AFF7E021242DE78093F
:103C2A00A6077809E670097F031242D87809A60721
:063C3A00D2947809E6FFB8
:013C40002261
:0E3E8D008F488E478D468C458B498A4A894B5B
:103E9B00C294E4F54C123C41054CEF700BFB7A00DD
:103EAB00794D7F01FE1243E1E54D6004E54C70E86E
:103EBB00E54C70027F01E4F54C054CEF700BFB7A7F
:103ECB0000794D7F01FE1243E1E54D64FE6007E58D
:103EDB004C6003EF60E3E54C70027F01E54D54F05D
:103EEB0070027F08EF700CAB49AA4AA94BFF7E0208
:103EFB001243E1EF700BFB7A00794D7F03FE124307
:033F0B00E1D2946C
:013F0E002290
:0E3D7E008F258E248D238C228B268A27892860
:103D8C00C294E4F5298F3F8E3E8D3D8C3C7F111201
:103D9C003AF50529EF700BFB7A00792A7F01FE12A8
:103DAC0042DEE52A6004E52970E8E52970027F010E
:103DBC00E4F5290529EF700BFB7A00792A7F01FEC7
:103DCC001242DEE52A64FE6007E5296003EF60E33A
:103DDC00E52970027F01E52A54F070027F08EF702C
:103DEC000CAB26AA27A928FF7E021242DEEF700B2D
:0D3DFC00FB7A00792A7F03FE1242DED2948A
:013E09002296
:10415400E4F545AB07AA06A905A804FF7EA07D8C5B
:10416400FC122A6AEFD39402500575C3708045EFA0
:10417400D39404500575C371803AEFD39408500565
:1041840075C372802FEFD39410500575C3738024C8
:10419400EFD39420500575C3F08019EFD3944050A9
:1041A4000575C3F1800EEFD39480500575C3F2807A
:0641B40003754504AF4550
:0141BA0022E2
:10458C00E4FE8FC5AFC40EEF20E703EE70F6EE60CD
:10459C000BE5C5122944EF5470FE80027E01AF0674
:0145AC0022EC
:1045AD00E4FE8FC5AFC40EEF20E703EE70F6EE60AC
:1045BD000BE5C5122944EF5470FE80027E01AF0653
:0145CD0022CB
:1045EF00759AE285878753877F759850E4F59B7599
:0C45FF009AE2759B1ED299C2ACFEFF220E
:1031BE00252D333573004D42525F52656C53656356
:1031CE00202000256C7500252D32307300425042B0
:1031DE005F4279746573506572536563002575009F
:1031EE004250425F536563506572436C75730025A0
:1031FE006275004250425F52737664536563436E4C
:10320E0074004250425F4E756D46415473004250F9
:10321E00425F526F6F74456E74436E74004250423B
:10322E005F546F745365633136004250425F4641BE
:10323E0054537A3136004250425F48696464656E79
:10324E00536563004250425F546F7453656333326B
:10325E00004250425F464154537A3332004250424C
:10326E005F526F6F745F436C7500526F6F74446979
:10327E0072536563004641542073697A6533320098
:10328E006572726F722077726F6E672066617474EA
:10329E007970652000546F745365633332006E7518
:1032AE006D6F66464154536563746F72730044616B
:1032BE00746153656300636F756E746F66436C75EE
:1032CE0073746572730046697273744461746153EA
:1032DE006563004669727374526F6F7444697253FA
:1032EE006563004641542073697A65203132004689
:1032FE0041542073697A652031360046415420735B
:10330E00697A652033320066697273745F73656320
:10331E00746F720025382E386C5800636C75737498
:10332E0065725F6E756D0025382E386258006E65B9
:10333E0078745F736563746F7200436F6E74696E39
:10334E0075653F202820793D202731272C206E3DA2
:10335E00202732272029002535642E20005B444982
:04336E00525D0A00A2
:083E0A00AA45A9467B017E00D8
:103E12008E688F698B6A8A6B896CC3E568940250DD
:013E2200633C
:103E2300E4F570F56FF56EF56DF572AB6AE56C252B
:103E330069F9E56B3568FAC374039572FFE494007E
:103E4300FEE92FF9EA3EFA1228FEF571AF70AE6F64
:103E5300AD6EAC6D7808122B208F708E6F8D6E8CCB
:103E63006DE5704571F570E56FF56FE56EF56EE51F
:103E73006DF56D0572E572B404B1AF70AE6FAD6EE2
:033E8300AC6D2201
:073E8600E47F0CFEFDFC22AD
:103F8C008E348F358B368A378938C3E5349402509A
:013F9C0063C1
:103F9D00E4F53CF53BF53AF539F53EAB36E538251C
:103FAD0035F9E5373534FAC37403953EFFE49400D3
:103FBD00FEE92FF9EA3EFA1228FEF53DAF3CAE3B85
:103FCD00AD3AAC397808122B208F3C8E3B8D3A8C54
:103FDD0039E53C453DF53CE53BF53BE53AF53AE544
:103FED0039F539053EE53EB404B1AF3CAE3BAD3AD3
:033FFD00AC3922BA
:07400000E47F0CFEFDFC2231
:08433000AA45A9467B017E00AD
:0A4338008E5E8F5F8B608A618962E0
:10434200E4F563F564C3E55E94025036E4FDAB60C8
:10435200E562255FF9E561355EFAEDFFC374019F01
:10436200FFE49400FEE92FF9EA3EFA1228FEFCE58A
:1043720064756400F563EC42640DBD02D1AE63AFB7
:0643820064227E007F0CA6
:014388002212
:0F45CE00E55A240BFFE43559FEAB60AA61A962E0
:1045DD00C3EE940250098F828E83122917FF227F1A
:0145ED000CC1
:0145EE0022AA
:040FFE008E458F4647
:10100200E4F547AA06A9077B01FFFEFDFC12407F1B
:10101200AA45A9467B017D007C0212421CAA45A971
:10102200467B01E4FFFE1245DDEF64EB605DAA45FD
:10103200A946E4FF1245DDEF64E9604FAA45A946DF
:101042007FC60E123E12787F122B4C787F122B3302
:101052008F4D8E4C8D4B8C4A756EFF756F3175704E
:10106200C47BFF7A3179BE1222B67BFF7A3179D105
:10107200854D71854C70854B6F854A6E1222B67F05
:101082000A1200037F0D120003800375470AE54729
:101092006003021720AF4DAE4CAD4BAC4AAA45A936
:1010A200467B0112407FAA45A9467B017D007C0256
:1010B20012421C756EFF756F317570DB7BFF7A31E2
:1010C20079D51222B67F0B1243307883A60608A682
:1010D200077BFF7A3179EB18E6F56E08E6F56F12B9
:1010E20022B67F0A1200037F0D120003756EFF7590
:1010F2006F317570EE7BFF7A3179D51222B6AA452F
:10110200A9467B017F0D7E001245DD7885A6077B0F
:10111200FF7A3179FDE6F56E1222B67F0A120003DC
:101122007F0D120003756EFF756F327570017BFFC4
:101132007A3179D51222B67F0E1243307886A6060E
:1011420008A6077BFF7A3179EB18E6F56E08E6F51B
:101152006F1222B67F0A1200037F0D120003756E12
:10116200FF756F327570107BFF7A3179D51222B616
:10117200AA45A9467B017F107E001245DD7893A621
:10118200077BFF7A3179FDE6F56E1222B67F0A12ED
:1011920000037F0D120003756EFF756F3275701CB0
:1011A2007BFF7A3179D51222B6AA45A9467B017F07
:1011B200117E001243387891A60608A6077BFF7AB3
:1011C2003179EB18E6F56E08E6F56F1222B67F0A62
:1011D2001200037F0D120003756EFF756F3275707A
:1011E2002B7BFF7A3179D51222B6AA45A9467B011B
:1011F2007F137E0012433878AEA60608A6077BFF4F
:101202007A3179EB18E6F56E08E6F56F1222B67FB1
:101212000A1200037F0D120003756EFF756F32759F
:1012220070387BFF7A3179D51222B6AA45A9467B5E
:10123200017F167E00124338789CA60608A6077B1B
:10124200FF7A3179EB18E6F56E08E6F56F1222B6F1
:101252007F0A1200037F0D120003756EFF756F3255
:101262007570447BFF7A3179D51222B67F1C123E0B
:101272000A7889122B4C7BFF7A3179D17889122B2B
:10128200338F718E708D6F8C6E1222B67F0A1200B0
:10129200037F0D120003756EFF756F327570527BFE
:1012A200FF7A3179D51222B67F20123E0A78AA122D
:1012B2002B4C7BFF7A3179D178AA122B338F718E26
:1012C200708D6F8C6E1222B67F0A1200037F0D1290
:1012D2000003756EFF756F3275705F7BFF7A31792F
:1012E200D51222B6AA45A9467B017F247E00123E72
:1012F200127898122B4C7BFF7A3179D17898122B85
:10130200338F718E708D6F8C6E1222B67F0A12002F
:10131200037F0D120003756EFF756F3275706B7B64
:10132200FF7A3179D51222B6AA45A9467B017F2CD4
:101332007E00123E12789E122B4C7BFF7A3179D1BD
:10134200789E122B338F718E708D6F8C6E1222B637
:101352007F0A1200037F0D120003756EFF756F3254
:101362007570787BFF7A3179D51222B67891E6FED4
:1013720008E67805C333CE33CED8F9FF7883E6FC8E
:1013820008E6FD24FFFBEC34FFCB2FFFEB3EFE1201
:10139200298AE4FCFD78A2122B4C7BFF7A3179D1A9
:1013A20078A2122B338F718E708D6F8C6E1222B6D3
:1013B2007F0A1200037F0D120003789DE618467023
:1013C200337898122B338F518E508D4F8C4E756E11
:1013D200FF756F327570837BFF7A3179D51222B631
:1013E2007BFF7A3179D1855171855070854F6F8538
:1013F2004E6E8022789CE6FE08E6FFE48F518E5006
:10140200F54FF54E75470B756EFF756F3275708E21
:101412007BFF7A3179D11222B67F0A1200037F0D47
:1014220012000378AFE61846704078AA122B338F69
:10143200558E548D538C52756EFF756F327570A335
:101442007BFF7A3179D51222B67BFF7A3179D18549
:10145200557185547085536F85526E1222B67F0A7C
:101462001200037F0D120003801378AEE6FE08E639
:10147200FFE48F558E54F553F55275470B7893E67A
:10148200FFE4FCFDFEAB51AA50A94FA84E1229DF82
:101492008E488F49756EFF756F327570AC7BFF7A1F
:1014A2003179D51222B67BFF7A3179D185486E85A2
:1014B200496F1222B67F0A1200037F0D12000378D1
:1014C20093E6FFE4FCFDFEAB51AA50A94FA84E12D1
:1014D20029DFC004A905AA06AB077886E6FE08E65E
:1014E200FFE4FCFDD000EB2FFFEA3EFEED39FDEC00
:1014F20038FC78A2122B3FEF2BFBEE3AFAED39F9CA
:10150200EC38F8C3E5559BF55DE5549AF55CE55377
:1015120099F55BE55298F55A756EFF756F327570E5
:10152200BC7BFF7A3179D51222B67BFF7A3179D131
:10153200855D71855C70855B6F855A6E1222B67F00
:101542000A1200037F0D1200037885E6FBE4FAF924
:10155200F8AF5DAE5CAD5BAC5A122A6A8F598E58F9
:101562008D578C56756EFF756F327570C47BFF7A1E
:101572003179D51222B67BFF7A3179D185597185BD
:10158200587085576F85566E1222B67F0A12000375
:101592007F0D1200037893E6FFE4FCFDFEAB51AA37
:1015A20050A94FA84E1229DFC004A905AA06AB070D
:1015B2007886E6FE08E6FFE4FCFDD000EB2FFFEAAA
:1015C2003EFEED39FDEC38FC78A2122B3FEF2BFFEB
:1015D200EE3AFEED39FDEC38FC787F122B3FEF2B13
:1015E200FFEE3AFEED39FDEC38FC788D122B4C758E
:1015F2006EFF756F327570D47BFF7A3179D5122206
:10160200B67BFF7A3179D1788D122B338F718E7040
:101612008D6F8C6E1222B67F0A1200037F0D1200AC
:1016220003789E122B33EF24FEFFEE34FFFEED34DF
:10163200FFFDEC34FFFCC004A905AA06AB077885C0
:10164200E6FFE4FCFDFED0001229DF788D122B3F6D
:10165200EF2BFFEE3AFEED39FDEC38FC78A6122BAB
:101662004C756EFF756F327570E17BFF7A3179D5FB
:101672001222B67BFF7A3179D178A6122B338F7181
:101682008E708D6F8C6E1222B67F0A1200037F0D50
:10169200120003E47FF57E0FFDFCAB59AA58A9574F
:1016A200A856C3122AFC501D7888760C75470B7613
:1016B2000275470B756EFF756F327570F17BFF7A9D
:1016C2003179D5804CE47FF57EFFFDFCAB59AA58F9
:1016D200A957A856C3122AFC788850247602754767
:1016E2000B756EFF756F327570FD7BFF7A3179D5A0
:1016F2001222B67BFF7A3179D17888E6F56E8011B5
:101702007604756EFF756F337570097BFF7A3179D8
:10171200D51222B67F0A1200037F0D120003AF47D3
:0117220022A4
:0834EA008F518E508D4F8C4E66
:0834F2008F598E588D578C563E
:1034FA00E4FFFEFDFCAB59AA58A957A856C3122AE5
:10350A00FC700578A6022B33E55924FEFFE55834F2
:10351A00FFFEE55734FFFDE55634FFFCC004A9055C
:10352A00AA06AB077885E6FFE4FCFDFED000122967
:10353A00DF788D122B3FEF2BF55DEE3AF55CED3916
:10354A00F55BEC38F55A756EFF756F337570157B40
:10355A00FF7A3179D51222B67BFF7A337922855DDB
:10356A0071855C70855B6F855A6E1222B67F0A126E
:10357A0000037F0D120003756EFF756F3375702996
:10358A007BFF7A3179D51222B67BFF7A337922858D
:10359A00597185587085576F85566E1222B67F0A03
:1035AA001200037F0D120003756EFF756F3175707F
:1035BA00EE7BFF7A3179D51222B67BFF7A337935E1
:1035CA007885E6F56E1222B67F0A1200037F0D1285
:1035DA000003756EFF756F327570D47BFF7A31798F
:1035EA00D51222B67BFF7A337922788D122B338F4C
:1035FA00718E708D6F8C6E1222B67F0A1200037F55
:0C360A000D120003AF5DAE5CAD5BAC5A6E
:013616002291
:08427B008F258E248D238C2277
:10428300E4FFFEFDFCAB25AA24A923A822C3122A1E
:10429300FC700578A6022B33E52524FEFFE52434C4
:1042A300FFFEE52334FFFDE52234FFFCC004A9052E
:1042B300AA06AB077885E6FFE4FCFDFED0001229D1
:1042C300DF788D122B3FEF2BFFEE3AFEED39FDEC3D
:0242D30038FCB5
:0142D50022C6
:08396F008F598E588D578C56BC
:103977007886E6FE08E6FFE4FCFD787F122B3FEF32
:103987002BFFEE3AFEED39FDEC38FC7894122B4C08
:10399700E47F04FEFDFCAB59AA58A957A856122983
:1039A700DF8F5F8E5E8D5D8C5C7883E6FE08E6FBBD
:1039B700AA06E4F9F8AF5FAE5E122A6A7894122B72
:1039C7003FEF2BF567EE3AF566ED39F565EC38F51F
:1039D70064C294856779856678856577F5767F1102
:1039E700123C4BAA5AA95B7B017F007E027D007CBB
:1039F7000012407FD2947883E6FE08E6FBAA06E42D
:103A0700F9F8AF5FAE5EAD5DAC5C122A6AAC00AD93
:103A170001AE02AF038F638E628D618C60AA5AA9D3
:0A3A27005B7B01123E12EC540FFC11
:013A31002272
:083A32008F258E248D238C22C8
:103A3A007886E6FE08E6FFE4FCFD787F122B3FEF6E
:103A4A002BFFEE3AFEED39FDEC38FC7894122B4C44
:103A5A00E47F04FEFDFCAB25AA24A923A82212298F
:103A6A00DF8F2B8E2A8D298C287883E6FE08E6FBC9
:103A7A00AA06E4F9F8AF2BAE2A122A6A7894122B16
:103A8A003FEF2BF533EE3AF532ED39F531EC38F5F7
:103A9A0030C29485333F85323E85313DF53C7F11F6
:103AAA00123AF5AA26A9277B017F007E027D007CB7
:103ABA0000123B9CD2947883E6FE08E6FBAA06E451
:103ACA00F9F8AF2BAE2AAD29AC28122A6AAC00ADA0
:103ADA0001AE02AF038F2F8E2E8D2D8C2CAA26A914
:0A3AEA00277B01123F8CEC540FFC07
:013AF40022AF
:083617008F488E478D468C455B
:10361F00E4F54C1234EA8F558E548D538C52756EDF
:10362F00FF756F3375703C7BFF7A3179D51222B6F7
:10363F007BFF7A33792285557185547085536F8559
:10364F00526E1222B67F0A1200037F0D120003AFD3
:10365F0055AE54AD53AC52AA49A94A7B0112407FD3
:10366F008F4BE54B6003023703805FE54D640160CC
:10367F0003023703E54B707C054CE54CD3788596F8
:10368F00401FE4F54CAF51AE50AD4FAC4E85495A8B
:10369F00854A5B12396F1234EA8F558E548D538CD5
:1036AF0052AF4C7E007883E6FC08E6FD122978EFD6
:1036BF002555FFEE3554FEE43553FDE43552FCAA93
:1036CF0049A94A7B0112407F8F4BAA49A94A7B0126
:1036DF007883E6FC08E6FD12421C756EFF756F33AA
:1036EF007570487BFF7A3179BE1222B61237E48F9C
:0636FF004D02367AAF4BCC
:0137050022A1
:082E23008F488E478D468C4557
:102E2B00755C0185495D854A5EE4F555F556F553AC
:102E3B00F554788D122B33AB48AA47A946A845C346
:102E4B00122AFC500F78A2122B338F528E518D50B9
:102E5B008C4F800D7885E6FFE48F52F551F550F5D8
:102E6B004F85484E85474D85464C85454BAF4EAEFD
:102E7B004DAD4CAC4BAB5CAA5DA95E12407F8F5B3A
:102E8B00E55B6003022FF6AB5CAA5DA95EAF54AEA7
:102E9B00531245DD8F57E55764E57003022F74E538
:102EAB00577003022F74E554240BFFE43553FEAB2C
:102EBB005CAA5DA95E1245DD8F59D2A5E559540E6A
:102ECB006003022F740556E556700205557BFF7A99
:102EDB0033796585556EF56F1222B6E4F5587E0091
:102EEB00E5542558FFEE3553FEAB5CAA5DA95E1287
:102EFB0045DD8F5A1200030558E558C3940840DE90
:102F0B00E55930E4307558087E00E5542558FFEE3E
:102F1B003553FEAB5CAA5DA95E1245DD8F5A1200DC
:102F2B00030558E558C3940B40DE7BFF7A33796B6E
:102F3B001222B680347F2E1200037558087E00E5EE
:102F4B00542558FFEE3553FEAB5CAA5DA95E1245C6
:102F5B00DD8F5A1200030558E558C3940B40DE7FF2
:102F6B000D1200037F0A12000374202554F554E45C
:102F7B003553F553D3E55494FEE55394014063E583
:102F8B004E2401F54EE4354DF54DE4354CF54CE44E
:102F9B00354BF54BC3E54E9548FFE54D9547FEE5A3
:102FAB004C9546FDE54B9545FCAB52AA51A950A853
:102FBB004FD3122AFC4025AF4EAE4DAD4CAC4BABB4
:102FCB005CAA5DA95E12407F8F5BE55B6007E4F551
:102FDB0055F556F557E4F553F5548006435580E403
:102FEB00F557E5576003022E928005E4F555F5562B
:042FFB00AE55AF56CA
:012FFF0022AF
:082BEF008F488E478D468C458E
:102BF700756001854B61854C62E4F55BF55CF559C1
:102C0700F55AF558F557F556F555788D122B33AB20
:102C170048AA47A946A845C3122AFC500F78A21212
:102C27002B338F548E538D528C51800D7885E6FF50
:102C3700E48F54F553F552F55185485085474F8534
:102C4700464E85454DAF50AE4FAD4EAC4DAB60AA2D
:102C570061A96212407F8F5FE55F6003022DF4ABCD
:102C670060AA61A962AF5AAE591245DD8F5DE55D75
:102C770064E57003022D70E55D7003022D70124547
:102C8700CE8F5EE55E540E6003022D70055CE55C39
:102C97007002055B654A7004E55B65496003022DB8
:102CA700707888E66404705EE55A24151245D2E40C
:102CB7008F58F557F556F555E558540FF558E4F57F
:102CC70057F556F555AF58AE57AD56AC557808126F
:102CD7002B208F588E578D568C55E55A2414124544
:102CE700D2E5584FF558E557F557E556F556E555EA
:102CF700F555AF58AE57AD56FC7808122B208F58B4
:102D07008E578D568C55E55A241B1245D2E5584FE0
:102D1700F558E557F557E556F556E555F555AF58C6
:102D2700AE57AD56FC7808122B208F588E578D560C
:102D37008C55E55A241A1245D2E5584FF558E557F0
:102D4700F557E556F556E555F5551245CE8F5EE52F
:102D57005E30E412E558F558E557F557E556F55650
:102D6700E5554410F555E4F55D7420255AF55AE408
:102D77003559F559D3E55A94FEE55994014065E56F
:102D8700502401F550E4354FF54FE4354EF54EE448
:102D9700354DF54DC3E5509548FFE54F9547FEE5A1
:102DA7004E9546FDE54D9545FCAB54AA53A952A84F
:102DB70051D3122AFC402AAF50AE4FAD4EAC4DABAB
:102DC70060AA61A96212407F8F5FE55F600CE4F53E
:102DD70058F557F556755580F55DE4F559F55A8060
:102DE70003E4F55DE55D6003022C66800AE4F558AF
:102DF700F557F556755580E4FFFEFDFCAB58AA570D
:102E0700A956A855C3122AFC7009F558F557F55667
:0B2E1700755580AF58AE57AD56AC5556
:012E2200228D
:0A3000008F508D518B528A53895472
:10300A00E4F55930920320930375590F124627E5C8
:10301A005025E054FEF558D293C292755507E555EE
:10302A00C394085057E55970537F04124611C2934E
:10303A0074017E00A855088005C333CE33CED8F973
:10304A00FFE4FEEF5558A855088006CEA2E713CE36
:10305A0013D8F8FF139292EF5401F55A7F041246DF
:10306A0011D293755701209308E5576004055780DC
:10307A00F5E557700375590E155580A2E559700A82
:10308A00A29233655A600375590FE559701F7F0480
:10309A0012461112460BD293755701209308E55731
:1030AA006004055780F5E557700375590EE55970A8
:1030BA0006309203755910E4F556E556D3955140FA
:1030CA0003023183E5596003023183755507E555DB
:1030DA00C3940850727F04124611C293AB52AA538A
:1030EA00A954855682758300122917FD74017E0042
:1030FA00A855088005C333CE33CED8F9FFEDFBE4DB
:10310A00FEEF5BA855088006CEA2E713CE13D8F8C7
:10311A00FF139292EF5401F55A7F04124611D2938B
:10312A00755701209308E5576004055780F5E55760
:10313A00700375590EE559700AA29233655A6003F5
:10314A0075590F15558087E559701F7F041246116E
:10315A0012460BD293755701209308E55760040570
:10316A005780F5E557700375590EE5597006309288
:10317A000375591005560230C47F04124611C293D2
:10318A00C292E4F55A7F07124611D293755701206D
:10319A009308E5576004055780F5E557700375599C
:1031AA000EE559700AA29233655A600375590FD217
:0331BA0092AF5978
:0131BD0022EF
:0A1EEF008F508D518B528A53895495
:101EF900E4F55930920320930375590F124627E5EB
:101F09005025E054FEF558D293C292755507E55510
:101F1900C394085065E55970617F04124611C29354
:101F290074017E00A855088005C333CE33CED8F995
:101F3900FFE4FEEF5558A855088006CEA2E713CE58
:101F490013D8F8FF139292EF5401F55A7F04124601
:101F590011D293755701209308E5576004055780FE
:101F6900F5E557700375590EE559700AA292336564
:101F79005A600375590F15558094E559701F7F04F0
:101F890012461112460BD293755701209308E55753
:101F99006004055780F5E557700375590EE55970CA
:101FA90006309203755910E4F556E559600302208D
:101FB90075755507E555C3940850787F0412461185
:101FC900C293AB52AA53A95485568275830012292C
:101FD90017FD74017E00A855088005C333CE33CEA2
:101FE900D8F9FFEDFBE4FEEF5BA855088006CEA209
:101FF900E713CE13D8F8FF139292EF5401F55A7FE5
:1020090004124611D293755701209308E5576004CD
:10201900055780F5E557700375590EE5597010A2FB
:102029009233F557A292E433655A600375590F1537
:10203900558081E559701F7F0412461112460BD253
:1020490093755701209308E5576004055780F5E516
:1020590057700375590EE55970063092037559107A
:102069000556E556D394005003021FB37F04124668
:1020790011C293C292E4F55A7F07124611D29375A1
:102089005701209308E5576004055780F5E5577017
:102099000375590EE559700AA29233655A600375A2
:1020A900590FD29230920320930375590F12462784
:1020B900E55025E04401F558D293C292755507E5DC
:1020C90055C394085065E55970617F04124611C2E1
:1020D9009374017E00A855088005C333CE33CED84A
:1020E900F9FFE4FEEF5558A855088006CEA2E7137C
:1020F900CE13D8F8FF139292EF5401F55A7F0412C8
:102109004611D293755701209308E5576004055786
:1021190080F5E557700375590EE559700AA2923397
:10212900655A600375590F15558094E559701F7FDD
:102139000412461112460BD293755701209308E5F4
:10214900576004055780F5E557700375590EE55931
:102159007006309203755910E4F556E556C395514A
:102169004003022219E5596003022219AB52E554D2
:102179002556F9E43553FA1228FEE4122944755517
:1021890007E555C3940850507F04124611C2937F46
:1021990004124611D293755701209308E55760043C
:1021A900055780F5E557700375590EE5597025A255
:1021B9009233F55AAB52E5542556F9E43553FA12E0
:1021C90028FEFFAE55E55AA806088002C333D8FC9D
:1021D9004F122944155580A9E559702F7F041246DD
:1021E90011C293E55114B55604D2928002C2927F6E
:1021F90004124611D293755701209308E5576004DC
:10220900055780F5E557700375590E055602216487
:102219007F04124611C293C292E4F55A7F0712460F
:1022290011D293755701209308E55760040557802B
:10223900F5E557700375590EE559700AA292336591
:0A2249005A600375590FD292AF5985
:012253002268
:06460B00C293D2927F046D
:10461100308E03308FFDC28EBF040A758DFF758BFE
:06462100EFC28FD28E22D1
:1046270053890F438910C2AB758DFF758BEFC28F0E
:03463700D28E22FE
:1040EB00252D31307300636F206572726F72312032
:1040FB000025342E346C5800636F206572726F721A
:10410B00200073656E6431200025322E3262580018
:10411B0067657431200073656E64322000676574C7
:10412B00322000746573745F6572726F7220005277
:10413B00656365697665642056616C7565203D2005
:09414B0025322E3262580A0D00E3
:1025B000D2B27545FF75460075472EE4F54FF54ECE
:1025C000F54DF54CAB45AA46A947854F82854E830C
:1025D000122917F548E54F2401F54FE4354EF54E25
:1025E000E4354DF54DE4354CF54C854F82854E83F1
:1025F000122917F549E54F2401F54FE4354EF54E04
:10260000E4354DF54DE4354CF54CE548F460117B6F
:10261000007A0079487D017F431230008F4BC2A7BA
:10262000E548F46004E54B609BE54B6012756EFF76
:10263000756F407570F17BFF7A4079EB1222B67BA3
:10264000FF7A4079FC854F71854E70854D6F854CC2
:102650006E1222B67F0A1200037F0D120003754529
:10266000FF75460F7547CCE4F54FF54EF54DF54C2B
:10267000AB45AA46A947854F82854E83122917F597
:1026800048E54F2401F54FE4354EF54EE4354DF560
:102690004DE4354CF54C854F82854E83122917F554
:1026A00049E54F2401F54FE4354EF54EE4354DF53F
:1026B0004DE4354CF54CE548F460117B007A007927
:1026C000487D017F431230008F4BC2A7E548F4607C
:1026D00004E54B609BE54B6012756EFF756F4175AD
:1026E00070037BFF7A4079EB1222B67BFF7A407948
:1026F000FC854F71854E70854D6F854C6E1222B6EC
:102700007F0A1200037F0D120003C2B2D2B27548D5
:102710005475490785484A7B007A0079487D017FD6
:10272000431230007B007A00794A7D017F43121EFC
:10273000EF8F4B756EFF756F4175700D7BFF7A40A3
:1027400079EB1222B67BFF7A41791485496E122209
:10275000B6756EFF756F4175701B7BFF7A4079EB24
:102760001222B67BFF7A417914854A6E1222B67F17
:102770000A1200037F0D1200037548557549108534
:10278000484A7B007A0079487D017F431230007B04
:10279000007A00794A7D017F43121EEF756EFF7546
:1027A0006F417570217BFF7A4079EB1222B67BFF77
:1027B0007A41791485496E1222B6756EFF756F41A4
:1027C0007570287BFF7A4079EB1222B67BFF7A4145
:1027D0007914854A6E1222B67F0A1200037F0D1209
:1027E00000037548067549097B007A0079487D0128
:1027F0007F4312300075480B7549027B007A0079DF
:10280000487D017F431230007548617549057B00A2
:102810007A0079487D017F43123000754850754930
:10282000067B007A0079487D017F431230007548AD
:1028300065E4F549FB7A0079487D017F4312300059
:102840007548527549B87B007A0079487D017F430D
:10285000123000754864E4F549FB7A0079487D013F
:102860007F43123000754851E4F549FB7A007948FE
:102870007D017F431230007548057549A17B007AC0
:102880000079487D017F43123000754803E4F54923
:10289000FB7A0079487D017F431230007548187536
:1028A00049047B007A0079487D017F43123000752E
:1028B000480C7549057B007A0079487D017F4312F9
:1028C00030007548467549087B007A0079487D01DB
:1028D0007F431230007548487549087B007A0079BB
:1028E000487D017F431230007548727549017B00B5
:0D28F0007A0079487D017F43123000AF4B24
:0128FD0022B8
:0641BB008B458A4689478E
:1041C100E4F549F548C2B3F548AB45AA46A9477D90
:1041D100017F43121EEF8F491548E5496004E54808
:1041E10070E7E549601C756EFF756F4175702E7B38
:1041F100FF7A4079EB1222B67F0A1200037F0D127B
:104201000003AB45AA46A9471228FEF56E7BFF7A4B
:0A42110041793A1222B6D2B3AF4948
:01421B002280
:10002E003A012A0428002900200021002200230082
:10003E00240025002600270028012802218F2803EE
:10004E002100280428052806280728082809280A38
:10005E00280B280C20802190280D20002100280E2E
:10006E0020812191280F2000219228102100281193
:10007E0021932812210028132814281520822816CF
:10008E0020002817281828192194281A2195281B92
:10009E002196281C2100281D2083281E2000281FA1
:1000AE0021972820210028212822282328242825AA
:1000BE002826282728282829282A2084282B20008B
:1000CE00282C282D282E282F28302831283220851C
:1000DE002833200028342835283628372198283808
:1000EE0021002839283A283B283C283D283E283F25
:1000FE002840284128422843284428452846284796
:10010E0028482849284A284B284C284D284E284F45
:10011E0028502851285228532854285528562857F5
:10012E0028582859285A285B285C285D285E285FA5
:10013E002860286128622199286321002864286597
:10014E002866286728682869286A286B286C286D15
:10015E00286E286F287028712872287328742875C5
:10016E002876287728782879287A287B287C287D75
:10017E00287E287F28802881288228832884288525
:10018E002886288728882889288A288B288C288DD5
:10019E00288E288F289028912086289220872893B1
:1001AE002000289428952896289728982899289AE8
:1001BE00289B289C289D289E289F219A28A02100B4
:1001CE0028A128A228A328A428A528A628A728A8BD
:1001DE0028A928AA28AB28AC28AD28AE28AF28B06D
:1001EE0028B128B228B328B428B528B628B728B81D
:1001FE0028B9208828BA200028BB208928BC2000D6
:10020E0028BD28BE28BF28C028C128C228C3219BCC
:10021E0028C4210028C528C628C728C828C928CA26
:10022E0028CB28CC28CD28CE28CF28D028D128D20C
:10023E0028D328D428D528D628D728D828D928DABC
:10024E0028DB28DC28DD28DE28DF28E028E1208ACC
:10025E0028E2208B28E3200028E428E528E628E77A
:10026E0028E828E928EA28EB28EC28ED28EE28EFE4
:10027E0028F028F128F228F328F428F528F628F794
:10028E0028F8208C28F92000219C28FA219D28FB93
:10029E00208D219E28FC208E219F28FD20002100EC
:1002AE0028FE28FF2A0128002201239524892507EC
:1002BE0026A42707280121C72200238026C4270C45
:1002CE0028022009211C220426AA270A280320001E
:1002DE002100220023A626A0270728042805200592
:1002EE00238426B427092806200022032300248114
:1002FE0025C026AB270A280721AE22002395248984
:10030E00250726A42700280821482201238026C479
:10031E00270C280920092104220426AA270A280AC4
:10032E0020002100220023A826A42707280B280C32
:10033E0021402220238026C4270C280D222426C6E5
:10034E00280E219E220026C8280F200921022214E1
:10035E0026AA270A2810200521002200238426B46D
:10036E0027092811200021012300240125C026ABD6
:10037E00270A281221C32395248925072620270022
:10038E002813200321C223832626270D281421B3E8
:0D039E0022082815200021C62200239526E4
:1003AB000027082816210023002496250326AA27B8
:1003BB000A2817204221B6238024892507281820D4
:1003CB000021002394260E2819200F238426B427FE
:1003DB0009281A2000239326A82703281B26282741
:1003EB0000281C21012300240125C026AB270A2845
:1003FB001D21C523952489250726202700281E218A
:10040B000023942600270A281F260E2820200321CC
:10041B0079220123832626270D2821213228222009
:10042B0000210422002380240025FC26AA270A2869
:10043B0023210023002500282421A3220D2380241F
:10044B009E253B2825204221572201248925072858
:10045B002620002143220D2400253828272108229D
:10046B009823952489250726242700282820422114
:10047B00932201238026AA270A28292003217E22E2
:10048B000423832626270D282A200021B0220023AF
:10049B009526A02707282B21002300240C250426B2
:1004AB00AA270A282C21022380248625C326AB28C1
:1004BB002D2042219722012489250726AA282E20A8
:1004CB000021002200241F2504282F21B22395246C
:1004DB008925072620270428302042218B2204233C
:1004EB008026AA270A2831200021B1220023952635
:1004FB00A0270728322003217522042383262627D1
:10050B000D2833200521002200238426B427092837
:10051B0034200021602300240125C026AB270A28A4
:10052B00352108229823952489250726242700287E
:10053B003621BC2200283721A3220D2300240125BC
:10054B00C026AB270A2838216022002380240025EF
:10055B003826AA283921062298239524892507268F
:10056B00242700283A21BE2200283B200521002306
:10057B008426B42709283C20002160230024012570
:10058B00C026AB270A283D21422201239524892529
:10059B000726242700283E210C229826A42707286B
:1005AB003F21082840216022002300240125C0267A
:1005BB00AB270A2841210C2298239524892507264D
:1005CB002427002842200521002200238426B4275B
:1005DB00092843200023802400251026AB270A2856
:1005EB00442122220123952489250726242700282C
:1005FB00452100220023002404251226AA270A28BD
:10060B0046200321D4220523832489250726262768
:10061B000D28472000216022002300240125C0263D
:10062B00AB270A284821B3239524892507260027C1
:10063B00082849210023002409250026AA270A2877
:10064B004A210223802486253B284B204221DD2290
:10065B000524892507284C200021002200241F2572
:10066B0000284D21B3239524892507262027002810
:10067B004E210023002497250326AA270A284F2062
:10068B004221E222052380248925072850200021BE
:10069B001022002300248025CC26AB2851210022D8
:1006AB004023B42489250726AA2704285222002395
:1006BB00B0269227092853211422012395260027BF
:1006CB00082854214823A4262A2700285521002234
:1006DB000023002409250026AA270A2856210823CF
:1006EB00802486253B285720422111220724892567
:1006FB00072858200021002200241F2500285921FB
:10070B0014220123952489250726202700285A2106
:0D071B001626022709285B2100220023007A
:100728002480254826AA270A285C23A0248925078F
:1007380026142709285D2480255026A42704285E2E
:10074800211622012395248925072700285F2104E3
:1007580022002300249C257826AA270A2860214302
:10076800220D240125C426AB28612103220024156B
:10077800286221002400250026AA2863215E2395EB
:100788002489250726102709286421032300241516
:1007980025C426AB270A28652100238024002506C6
:1007A80026AA2866248F25E326AB2867204221CD78
:1007B80022072489250726AA28682000216022000C
:1007C8002300240125C026AB286921002380248F1B
:1007D800250326AA286A204221DD22072489250725
:1007E800286B20002143220D2300240125C026ABBD
:1007F800286C210022002400250426AA286D200345
:10080800217F22012383248925072626270D286E88
:100818002162286F200521002200238426B427099D
:100828002870200021062395260027082871210119
:1008380023002497253B26AA270A28722042210E46
:10084800220823802489250728732003213C220BB2
:1008580023832626270D28742000210322002395B0
:1008680026022708287521272300248125C426ABC2
:10087800270A2876210023802409254826AA2877D4
:100888002158223423A324892507262A27002878DB
:100898002100220023A02600270928792107238088
:1008A8002403253926AA270A287A21042300241C90
:1008B8002538287B2107238024832539287C210398
:1008C80023952489250726022708287D2127230028
:1008D800248125C426AB270A287E210023802409E9
:1008E800254826AA287F2158223423A324892507AE
:1008F800262A27002880210622002300248125C0DB
:10090800269327012881210023802489254826AAA7
:10091800270A28822002216622082300240025664F
:1009280028832000210022002380241F25022884F8
:1009380021062489250726DC270C2885210023AADF
:1009480026AA270A288623B6260027082887238070
:100958002486253B26AA270A2888210524892507D5
:1009680026DC270C2889210023AA26AA270A288AF8
:1009780023B626002708288B23802486253B26AA11
:10098800270A288C2042217B220824892507288DC4
:10099800200021002200230024012582288E210521
:1009A800248125C226AB288F200321932208238384
:1009B800248925072626270D2890200021052200B6
:1009C8002300248125C02613270128912100238094
:1009D8002489254826AA270A28922002217E22084F
:1009E800230024002566289320002100220023806C
:1009F800241F2502289421052489250726DC270C95
:100A08002895210023AA26AA270A289623B6260075
:100A18002708289723802486253B26AA270A289872
:100A280021052489250726DC270C2899210023AADB
:100A380026AA270A289A2380241F2502289B2101F9
:100A48002300248125C226AB289C20032193220859
:100A58002383248925072626270D289D2000210485
:100A68002200239526122708289E216023C426AA3F
:100A78002704289F210023C02600270928A02042F8
:100A880021CB2208238026AA270A28A120702154D6
:0D0A980022B823952612270828A22002214B
:100AA500CC2208238026AA270A28A3200321CA22AC
:100AB5000F23832626270D28A420002100220023AA
:100AC50000248C250C26AA270A28A5210424822582
:100AD5007828A62100238024892548261227042862
:100AE500A7200321DE220F238325072626270D288D
:100AF500A82000210122002300249C257826AA276E
:100B05000A28A9210023802481254028AA20032121
:100B1500CF220F2383248925072626270D28AB20DE
:100B250070210822B8239526A0270428AC2003218C
:100B3500D4220F23832626270D28AD2127220B2813
:100B4500AE2070216322B823952612270828AF20EE
:100B550000210122002380248625CB26AB270A28E5
:100B6500B0204221DD22082489250726AA28B120A4
:100B75000021182280239526A4270028B2200321CE
:100B8500D9220F23832626270D28B32070210A2278
:100B9500B8239526A0270028B4200221E0220823A7
:100BA5008026AA270A28B52070210A22B82395266F
:100BB500A0270028B621542602270828B72000219F
:100BC50018228026A4270028B8210022002380248B
:100BD50080254826AA270A28B92070215E22B82335
:100BE50095248925072612270828BA2000210022E6
:100BF5000023802409254B26AA270A28BB2070211B
:100C05005F22B82395248925072610270828BC20AC
:100C150000210022002300241C258326AB270A2857
:100C2500BD2003213222092383248925072626276F
:100C35000D28BE20002100220023002482258C26B9
:100C4500AB270A28BF2003212522092383248925D0
:100C5500072626270D28C0204221BC238026AA2747
:100C65000A28C12000210122002300240125C026D5
:100C7500AB28C22070210F22B82395248925072689
:100C850020270028C3200321E3220F2383262627BC
:100C95000D28C4200521002200238426B427092815
:100CA500C52000210323952614270828C621A6233D
:100CB500A4262A270528C7210023A026442709287A
:100CC500C82118226D2380249E257B26AA270A2861
:100CD500C920422113220B2489250728CA20002177
:100CE500AE220023952624270028CB2100220323AA
:100CF500802487257B26AA270A28CC204221162274
:100D05000B2489250728CD200021AE220023952616
:100D150024270028CE20052100238426B42709286E
:100D2500CF2003210D220B23832626270D28D02033
:100D35000021002200230024802602270028D12339
:100D45008024092548261E28D221582234233324FD
:100D5500802507262A28D321002200230026802764
:100D65001028D421102363262A270028D521002303
:100D75006026A8271228D621AF224C230026C82793
:100D85000C28D7210022002680270528D823802477
:100D950086253B261E270028D92042211C220E230A
:100DA500002480250728DA20002135222926C4279A
:100DB5000C28DB2002211D220E261E270028DC2000
:100DC50000217F223426C4270C28DD2100220023A0
:100DD50090249F25042610270A28DE230024842535
:100DE500002680271028DF21062363248025072677
:100DF5002A270028E021002380248926AA270A28FB
:100E0500E12005238426B4270928E22070216122E8
:0D0E1500B823952612270828E320002101AC
:100E220022002380248625C326AB270A28E42042F9
:100E320021CE220F2489250726AA28E520702150D9
:100E420022B823952612270828E620052100220031
:100E5200238426B4270928E72070216422B8239529
:100E62002612270828E82000210122002380248658
:100E720025C326AB270A28E9204221D3220F248941
:100E8200250726AA28EA2070215122B82395261286
:100E9200270828EB200521002200238426B42709F5
:100EA20028EC2070216522B823952612270828ED08
:100EB2002000210122002380248625C326AB270A95
:100EC20028EE204221D8220F2489250726AA28EFBE
:100ED2002070215222B823952612270828F02005D7
:100EE20021002200238426B4270928F120702161E1
:100EF20022B823952602270828F220002101220089
:100F02002380248625C326AB270A28F3204221DD2D
:100F1200220F2489250726AA28F42070215022B8FE
:100F220023952602270828F5200521002200238484
:100F320026B4270928F6200021012380248625CB08
:100F420026AB270A28F7204221E1220F2489250710
:100F520026AA28F82000210222002300248125C489
:100F620026AB28F9210023802489254826AA28FABD
:100F720020052384250726B4270928FB2070214E4B
:100F820022B823952610270828FC200021002200E1
:100F92002380248625C326AB270A28FD204221E789
:100FA200220F2489250726AA28FE200021BB220021
:100FB20023952620270028FF20052100238426B41C
:100FC20027092A081001FFFFFFFF3A00643A65BBB8
:100FD200083A09BB50105267517705A11804540111
:100FE20055210700060C0B03501051005204610FEB
:0C0FF2006455655505A11804FFFFFFFFC2
:0300000002467C39
:0C467C00787FE4F6D8FD7581D802172382
:1028FE00BB010689828A83E0225002E722BBFE02D8
:09290E00E32289828A83E493220A
:10291700BB010CE58229F582E5833AF583E0225075
:1029270006E92582F8E622BBFE06E92582F8E222BF
:0D293700E58229F582E5833AF583E49322D9
:10294400BB010689828A83F0225002F722BBFE0172
:02295400F3226C
:10295600F8BB010DE58229F582E5833AF583E8F0B7
:10296600225006E92582C8F622BBFE05E92582C863
:02297600F2224B
:10297800EF8DF0A4A8F0CF8CF0A428CE8DF0A42E73
:02298800FE222D
:10298A00BC000BBE0029EF8DF084FFADF022E4CC31
:10299A00F875F008EF2FFFEE33FEEC33FCEE9DECFA
:1029AA00984005FCEE9DFE0FD5F0E9E4CEFD22ED40
:1029BA00F8F5F0EE8420D21CFEADF075F008EF2F8A
:1029CA00FFED33FD4007985006D5F0F222C398FD7B
:0529DA000FD5F0EA2218
:1029DF00E88FF0A4CC8BF0A42CFCE98EF0A42CFC97
:1029EF008AF0EDA42CFCEA8EF0A4CDA8F08BF0A415
:1029FF002DCC3825F0FDE98FF0A42CCD35F0FCEB74
:102A0F008EF0A4FEA9F0EB8FF0A4CFC5F02ECD3938
:0F2A1F00FEE43CFCEAA42DCE35F0FDE43CFC22A5
:102A2E0075F008758200EF2FFFEE33FECD33CDCC5F
:102A3E0033CCC58233C5829BED9AEC99E5829840E2
:102A4E000CF582EE9BFEED9AFDEC99FC0FD5F0D6BF
:102A5E00E4CEFBE4CDFAE4CCF9A88222B800C1B9E9
:102A6E000059BA002DEC8BF084CFCECDFCE5F0CB27
:102A7E00F97818EF2FFFEE33FEED33FDEC33FCEB60
:102A8E0033FB10D703994004EB99FB0FD8E5E4F91B
:102A9E00FA227818EF2FFFEE33FEED33FDEC33FC08
:102AAE00C933C910D7059BE99A4007EC9BFCE99AFC
:102ABE00F90FD8E0E4C9FAE4CCFB2275F010EF2F41
:102ACE00FFEE33FEED33FDCC33CCC833C810D70741
:102ADE009BEC9AE899400AED9BFDEC9AFCE899F87C
:0E2AEE000FD5F0DAE4CDFBE4CCFAE4C8F9220F
:102AFC00EB9FF5F0EA9E42F0E99D42F0E89C45F030
:012B0C0022A6
:102B0D00E8600FECC313FCED13FDEE13FEEF13FFA6
:032B1D00D8F122CA
:102B2000E8600FEFC333FFEE33FEED33FDEC33FC13
:032B3000D8F122B7
:0C2B3300E6FC08E6FD08E6FE08E6FF22CE
:0D2B3F00E6FB08E6F908E6FA08E6CBF82206
:0C2B4C00ECF608EDF608EEF608EFF622B5
:102B5800D083D082E493F608740193F60874029344
:092B6800F608740393F67404737B
:102B7100D083D082E4937012740193700DA3A39358
:102B8100F8740193F5828883E4737402936C701274
:102B91007403936D700C7404936E70067405936FD7
:0A2BA10060DDA3A3A3A3A3A380CAD1
:10000300EFB40A07740D12000E740A309811A89900
:10001300B8130CC2983098FDA899C298B811F6305D
:0700230099FDC299F5992235
:10225400E57A246EF8E6057A22786B300702786E08
:10226400E475F001122BB90228FE2000EB7F2ED278
:10227400008018EF540F2490D43440D4FF30040B62
:10228400EF24BFB41A0050032461FFE57B600215FC
:102294007B057EE57E7002057D30070D786BE47565
:1022A400F001122BB9EF0229440200037403D20790
:1022B4008003E4C207F57A8B6B8A6C896DE4F57B45
:1022C400F57DF57EE57B60077F2012228F80F57512
:1022D4007CFFC201C200C202C203C205C206C20818
:1022E40012225DFF700D3007057F001222A0AF7E21
:1022F400AE7D22B4255FC2D5C20412225DFF24D074
:10230400B40A00501A75F00A787B30D50508B6FF78
:102314000106C6A426F620D5047002D20380D9246F
:10232400CFB41A00EF5004C2E5D2040224A0D201B3
:1023340080C6D20080C0D20280BCD2D580BAD20579
:1023440080B47F2012228F2002077401B57B0040E5
:10235400F1122254FF12228F0222C8D208D2068020
:1023640095122254FB122254FA122254F94A4B7049
:102374000679717A257BFF20022EE57B602A7E0098
:102384008E8275830012291760060EEE657C70F04C
:10239400C2D5EBC0E0EAC0E0E9C0E0EE1224E7D029
:1023A400E0F9D0E0FAD0E0FB1228FEFF60AAEBC00F
:1023B400E0EAC0E0E9C0E012228FD0E02401F9D0C5
:1023C400E03400FAD0E0FBE57C0460DCD57CD98005
:1023D400877BFF7A2479E3D202809C79108002798A
:1023E40008C206C2088008D2D5790A8004790AC2D4
:1023F400D5E57C047002F57CE4FAFDFEFF1222545C
:10240400FC7B08200113122254FD7B1030000A12B9
:102414002254FE122254FF7B20EC3382D592D550F5
:1024240013C3E43000069FFFE49EFEE42001039DF5
:10243400FDE49CFCE4CBF8C201EC700CCFCECDCC17
:10244400E824F8F870F38017C3EF33FFEE33FEEDA2
:1024540033FDEC33FCEB33FB994002FB0FD8E9EB83
:10246400300105F8D0E0C448B201C0E00AEC4D4E9A
:102474004F78207B0070C2EAB57C0040BCC0E012FB
:1024840024E9D0F0D0E0200104C4C0E0C4B201C00B
:10249400F0122278D0F0D5F0EB0222C8122BC92317
:1024A400655323DF5823364C23324223E34F23EB77
:0F24B4004423EB49234B4323F15523D54623D52E
:1024C3004523D547259150233A2D233E2E23612BB7
:1024D300234223235F20257A2A22FA480000235926
:1024E3003F3F3F00790AA2D5200314300509B910F4
:1024F300020404B9080104A2D520060250010420F5
:1025030002689202B57B005034C0E07F203003198B
:102513007F30A20272067205500F122540C202C21A
:1025230006C205C2087F30800F300503E9C0E01200
:10253300228F300503D0E0F9D0E0B57BCC3005170E
:102543007F30B9100C12228F7F583004077F7880B8
:1025530003B9080312228F3002057F2D02228F7FD9
:10256300202008F87F2B2006F322920280CF286ECA
:10257300756C6C2900D2011222543001F8C2017823
:102583007B30D50108F60222FA2D50434958122216
:10259300542403B405004001E490258C9312228057
:0D25A300743A122280D203757B040223DFFC
:10464D0010090B124688BF0D027F0A020003AF0846
:01465D00223A
:103706008B678A688969AB67AA68A9691228FEFF70
:1037160012463A500D74012569F569E43568F56875
:1037260080E4D200AB67AA68A9691228FEFF642B61
:103736006004EFB42D1BAB670569E569AA687002E2
:10374600056814F91228FE642D6003D38001C39224
:1037560000E4F56DF56CF56BF56AAB67AA68A969C7
:103766001228FEFF12466D505CE47F0AFEFDFCAB9C
:103776006DAA6CA96BA86A1229DFC8ECC8EDC0E077
:10378600EEC0E0EFC0E0AB67AA68A9691228FEFFA9
:103796003395E0FEEF24D0FFEE34FFFEE4FCFDD0CF
:1037A600E0FBD0E0FAD0E0F9EB2FF56DEA3EF56CE0
:1037B600ED39F56BEC38F56A74012569F569E43580
:1037C60068F568809530000AAF6DAE6CAD6BAC6A7B
:0E37D600800BAF6DAE6CAD6BAC6A122BAB22EC
:0E2BAB00C3E49FFFE49EFEE49DFDE49CFC223B
:102BB900FAE6FB0808E6F925F0F618E6CA3AF6221D
:102BC900D083D082F8E4937012740193700DA3A39B
:102BD90093F8740193F5828883E4737402936860AF
:062BE900EFA3A3A380DFAF
:0A4688003098FDAF99C2987E002221
:0F466D00EFC394304007EF943A50028001C3220C
:10463A00EFC394094005EF940E4003BF2003D380D3
:03464A0001C32287
:00000001FF
