:102526005389F0438901C2A9E4FDFCC3ED9FEC9EEB
:102536005016758CFA758A1FC28DD28C308DFDC2ED
:082546008C0DBD00010C80E3C7
:01254E00226A
:05259B00C200753A3892
:1025A000A20092B6D2B77F0A7E00122526853A8015
:0D25B000C2B77F017E001225267580FF2234
:082393008F358B368A3789383B
:10239B00E535701FF539AB36AA37A9388539827503
:1023AB008300120A9DFF602FD200F53A1225A0057B
:1023BB003980E3E4F539E539C39535501AD200ABD2
:1023CB0036AA37A938853982758300120A9DF53AEA
:0723DB001225A0053980DF87
:0123E20022D8
:1024F0007F1E7E0012252612259B7F057E00122559
:102500002612259B12259BC200753A0F1225A0C2E8
:1025100000753A011225A07F027E00122526C20016
:06252000753A060225A039
:0F266C00C200753A011225A07F027E00022526CA
:101D2700E4F54674482546F8E4F60546E546B40B5F
:101D3700F274FFF556F555F554F553E4F5461226BA
:101D47005B8F47E547C394304012E547D39439503A
:101D57000B74482546F8A6470546804AE5476408B8
:101D67006005E547B47F0B154674482546F8E4F649
:101D7700802AE547640D6005E547B40A1A7B007AB7
:101D8700007948121C498F568E558D548C537F0D00
:101D970012254F7F0A800C7F0812254F7F201225BE
:101DA7004F7F0812254FE546B40A1B7B007A00795E
:101DB70048121C498F568E558D548C537F0D122512
:101DC7004F7F0A12254F74FFFFFEFDFCAB56AA5545
:101DD700A954A853C3120C827003021D45AF56AE17
:051DE70055AD54AC53A2
:011DEC0022D4
:101EB000252D323073004D6F756E74696E67204446
:101EC0007269766500696E697420646F6E650025BD
:101ED0002D33357300456E746572206120426C6F3E
:101EE000636B204E756D6265723A20004E756D62AF
:101EF000657220746F6F206C617267652E0A0D0029
:101F000072657475726E5F656E7472790025382E15
:101F1000386C58007761732061206469726563745E
:101F20006F72790063757272656E745F7365637446
:101F30006F720077617320612066696C6500252DE2
:101F4000313073004552524F5221200025322E323B
:031F5000625800D4
:100D2200C2A61225FF1224F07F807E1A7D067C0067
:100D32001222741218B58F22755EFF755F1E7560E0
:100D4200B67BFF7A1E79B012078A7F0A12254F7F7F
:100D52000D12254F7E007F001200038F227896121B
:100D62000CB9753900753A001211D08E338F3412D6
:100D7200266CC200753A801225A07BFF7A1E79C5C7
:100D82007F091223937896120CB98F328E318D30EF
:100D92008C2FE5226003020F5F755EFF755F1E7583
:100DA20060D57BFF7A1E79CF12078A121D278F2604
:100DB2008E258D248C23AE33AF34E4FCFDAB26AA02
:100DC20025A924A823D3120C82500DE4FFFEFDFCBA
:100DD200A823C3120C827012755EFF755F1E7560C8
:100DE200EC7BFF7A1E79CF12078AAE33AF34E4FC74
:100DF200FDAB26AA25A924A823D3120C82509AE47B
:100E0200FFFEFDFCA823C3120C82608DAF32AE310F
:100E1200AD30AC2F8A398B3A753B00753C00120F0E
:100E22009C8F2A8E298D288C27755EFF755F1F7512
:100E320060007BFF7A1E79B012078A7BFF7A1F79E6
:100E42000D852A6185296085285F85275E12078ABC
:100E52007F0A12254F7F0D12254FE52AF52EE5292F
:100E6200F52DE528F52CE527540FF52BE4FFFEFDC3
:100E7200E5275410FC6075755EFF755F1F75601481
:100E82007BFF7A1E79B012078A7F0A12254F7F0DE7
:100E920012254FAF2EAE2DAD2CAC2B121A358F3240
:100EA2008E318D308C2F755EFF755F1F7560247BD0
:100EB200FF7A1E79B012078A7BFF7A1F790D85327D
:100EC2006185316085305F852F5E12078A7F0A1245
:100ED200254F7F0D12254FAF32AE31AD30AC2F759D
:100EE2003900753A001211D08E338F34E4FFFEFDC3
:100EF200E5275410FCE4FBFAF9F8C3120C82704A9D
:100F0200FFFEFDFCAB26AA25A924A823C3120C824E
:100F12006038755EFF755F1F7560337BFF7A1E79DF
:100F2200B012078AAF2EAE2DAD2CAC2B75390075E1
:100F32003A00121B5AAF32AE31AD30AC2F753900C8
:100F4200753A001211D08E338F34E4FEFDE527543A
:100F520080FC7003020D9475220D020D94E522703F
:100F620003020D87C2A77F0A12254F7F0D12254F5C
:100F7200755EFF755F1F7560447BFF7A1F793E12B5
:100F8200078A7BFF7A1F794C85225E12078A7F0AC5
:0A0F920012254F7F0D12254F80FE3F
:102432002570200025322E326258200041646472D9
:102442002E20202030202031202032202033202036
:1024520034202035202036202037202038202039F3
:1024620020204120204220204320204420204520BB
:0524720020460A0D00E8
:102186008B568A5789588B5E8A5F89607BFF7A24D3
:10219600793212078AE4F559AB56AA57A9588559D8
:1021A60082758300120A9DF55A7BFF7A247936F5EB
:1021B6005E12078A0559E559C3941040DBE4F559C8
:1021C600AB56AA57A958855982758300120A9DF500
:1021D6005AC394204007E55AD3947F4003755A2E7C
:1021E600AF5A12254F0559E559C3941040D27F0DB9
:0821F60012254F7F0A02254F5C
:0A22DB008C518D528B4E8A4F8950B2
:1022E5008B538A548955AF0153070F7E00C3E49F72
:1022F500FFE49EFEEF2555F555EE3554F5547BFF6D
:102305007A24793E12078AAB53AA54A9551221861D
:1023150074102555F555E43554F554E5502552F915
:10232500E54F3551FA8A838982C3E5559582E5548F
:04233500958340D379
:012339002281
:0826A00025322E3262582000A1
:1018B500758E0CD294E4F53B7B007A0079357FFF79
:1018C5001225BD053BE53BC3940A40EC7B007A003D
:1018D50079351224B88F3AE4F53B7435253BF8E6A3
:1018E500F53C7BFF7A2679A0F55E12078A053BE574
:1018F5003BC3940540E47F0A12254F7F0D12254F07
:101905007F647E00122526E53A700AFB7A00793558
:101915001224778F3AE4F53B7435253BF8E6F53C20
:101925007BFF7A2679A0F55E12078A053BE53BC366
:10193500940540E47F0A12254F7F0D12254F7F64E1
:101945007E00122526E53A7015FB7A0079351225B9
:10195500768F3AE53564016005753A05C2A5E4F56B
:101965003B7435253BF8E6F53C7BFF7A2679A0F5F7
:101975005E12078A053BE53BC3940540E47F0A12E6
:10198500254F7F0D12254F7F647E00122526E53AEF
:10199500700AFB7A0079351221098F3AE4F53B7418
:1019A50035253BF8E6F53C7BFF7A2679A0F55E12F6
:1019B500078A053BE53BC3940540E47F0A12254FA2
:1019C5007F0D12254F7F647E00122526E53A701D96
:1019D500FB7A0079351225768F3AE53654C0700DBD
:1019E500E53630E705753A078003753A05E4F53BBA
:1019F5007435253BF8E6F53C7BFF7A2679A0F55E44
:101A050012078A053BE53BC3940540E47F0A12258E
:101A15004F7F0D12254F7F647E00122526E53A6023
:071A250002C2A7D294AF3A00
:011A2C002297
:0624B8008B3D8A3E893FC6
:1024BE00C294E4F569F568F567F566FF121FF1EF52
:1024CE00700BAB3DAA3EA93F7F01121F5BEF700F51
:1024DE00AB3DAA3EA93F120A84640160027F05D279
:0124EE009459
:0124EF0022CA
:062477008B3D8A3E893F07
:10247D00C294E47569AA756801F567F5667F08125F
:10248D001FF1EF700BAB3DAA3EA93F7F05121F5BFD
:10249D00AB3DAA3EA93F120A84FEB405047F098014
:0A24AD0007EE640160027F06D2947E
:0124B7002202
:062576008B3D8A3E893F07
:10257C00C294E4F569F568F567F5667F3A121FF1C8
:0E258C00EF700BAB3DAA3EA93F7F05121F5B0F
:01259A00221E
:062109008B3D8A3E893F78
:10210F00E4F544F543F542754140C294F54005406E
:10211F00E4F569F568F567F5667F37121FF1EF7023
:10212F0003121F53AB3DAA3EA93F120A84FE60065D
:10213F00640160027F02EF701185446985436885F1
:10214F0042678541667F29121FF1EF7003121F53FB
:10215F00AB3DAA3EA93F120A84FE600664016002ED
:10216F007F020540EE6007E5406003EF60A0E540A9
:06217F0070027F01D29402
:012185002237
:021FF1008F65FA
:101FF300E565C394404003022080E5654440F56BEA
:102003007B007A00796CFF1225BD8F6A756D18E528
:102013006A70047F0180027F00E56DC39419500448
:102023007E0180027E00EE5F6024AF69AE68AD671B
:10203300AC66A96DA801120C938F6B7B007A0079B3
:102043006C1225BD8F6A74F8256DF56D80C1E56549
:102053007005756B95800DE565B40805756B878014
:1020630003756B01E56A700CFB7A00796CAF6B1238
:1020730025BD8F6AE56A6008756A028003756A0385
:02208300AF6A42
:012085002238
:081F5300AB3DAA3EA93F7F014E
:081F5B008F458B468A47894837
:101F6300E4F549F54A7B007A00794B7FFF1225BDE2
:101F73008F4A0549E5496009E54A7005E54BF46078
:101F8300E4AB46AA47A948E54B120ACAE5497005DE
:101F9300754A018046E54A6002800AE54B640160A8
:101FA30009E54B6005754A028031E545D39401404C
:101FB3002A754C01E54CC3954550207B007A007986
:101FC3004B7FFF1225BDAB46AA47A948854C8275B6
:101FD3008300E54B120ADC054C80D9E54A700CFB03
:0D1FE3007A00794B7FFF1225BD8F4AAF4A6F
:011FF00022CE
:0823E3007F01FB7A007960FE26
:0A23EB008E658F668B678A6889692A
:1023F500E4F56AF56BF56DF56EC3E56E9566E56D0D
:10240500956550267B007A00796C7FFF1225BDAB60
:1024150067AA68A969856E82856D83E56C120ADCF9
:0C242500056EE56E70D3056D80CFAF6BC7
:012431002288
:0E21FE008F5B8E5A8D598C588B5C8A5D895E82
:10220C00C294E4F55F8F698E688D678C667F1112BE
:10221C001FF1055FEF70031223E3E5606004E55FD7
:10222C0070F0E55F70027F01E4F55F055FEF70030E
:10223C001223E3E56064FE6007E55F6003EF60EB8B
:10224C00E55F70027F01E56054F070027F08EF706B
:10225C000CAB5CAA5DA95EFF7E021223EBEF70054E
:07226C007F031223E5D29469
:012273002248
:10227400E4F535AB07AA06A905A804FF7EA07D8C6A
:10228400FC120BF0EFD39402500575C3708045EF38
:10229400D39404500575C371803AEFD39408500564
:1022A40075C372802FEFD39410500575C3738024C7
:1022B400EFD39420500575C3F08019EFD3944050A8
:1022C4000575C3F1800EEFD39480500575C3F28079
:0622D40003753504AF356F
:0122DA0022E1
:1025BD00E4FE8FC5AFC40EEF20E703EE70F6EE60BC
:1025CD000BE5C5120ACAEF5470FE80027E01AF06FC
:0125DD0022DB
:1025FF00759AE285878753877F759850E4F59B75A9
:0C260F009AE2759B1ED299C2ACFEFF221D
:1013AD00252D333573004D42525F52656C53656385
:1013BD00202000256C7500252D32307300425042DF
:1013CD005F427974657350657253656300257500CE
:1013DD004250425F536563506572436C75730025CF
:1013ED006275004250425F52737664536563436E7B
:1013FD0074004250425F4E756D4641547300425029
:10140D00425F526F6F74456E74436E74004250426A
:10141D005F546F745365633136004250425F4641ED
:10142D0054537A3136004250425F48696464656EA8
:10143D00536563004250425F546F7453656333329A
:10144D00004250425F464154537A3332004250427B
:10145D005F526F6F745F436C7500526F6F744469A8
:10146D0072536563004641542073697A65333200C7
:10147D006572726F722077726F6E67206661747419
:10148D007970652000546F745365633332006E7547
:10149D006D6F66464154536563746F72730044619A
:1014AD00746153656300636F756E746F66436C751D
:1014BD007374657273004669727374446174615319
:1014CD006563004669727374526F6F744469725329
:1014DD006563004641542073697A652031320046B8
:1014ED0041542073697A652031360046415420738A
:1014FD00697A652033320066697273745F73656350
:10150D00746F720025382E386C5800636C757374C7
:10151D0065725F6E756D0025382E386258006E65E8
:10152D0078745F736563746F7200436F6E74696E68
:10153D0075653F202820793D202731272C206E3DD1
:10154D00202732272029002535642E20005B4449B1
:04155D00525D0A00D1
:08208600AA35A9367B017E009A
:10208E008E588F598B5A8A5B895CC3E558940250DF
:01209E0063DE
:10209F00E4F560F55FF55EF55DF562AB5AE55C253D
:1020AF0059F9E55B3558FAC374039562FFE4940060
:1020BF00FEE92FF9EA3EFA120A84F561AF60AE5FCE
:1020CF00AD5EAC5D7808120CA68F608E5F8D5E8C56
:1020DF005DE5604561F560E55FF55FE55EF55EE541
:1020EF005DF55D0562E562B404B1AF60AE5FAD5EF4
:0320FF00AC5D22B3
:07210200E47F0CFEFDFC224E
:08233A00AA35A9367B017E00E3
:0A2342008E4E8F4F8B508A51895246
:10234C00E4F553F554C3E54E94025036E4FDAB501E
:10235C00E552254FF9E551354EFAEDFFC374019F57
:10236C00FFE49400FEE92FF9EA3EFA120A84FCE538
:10237C0054755400F553EC42540DBD02D1AE53AF1D
:06238C0054227E007F0CCC
:012392002228
:0F25DE00E54A240BFFE43549FEAB50AA51A95240
:1025ED00C3EE940250098F828E83120A9DFF227FC3
:0125FD000CD1
:0125FE0022BA
:040003008E358F3671
:10000700E4F537AA06A9077B01FFFEFDFC1221FED6
:10001700AA35A9367B017D007C021222DBAA35A90D
:10002700367B01E4FFFE1225EDEF64EB605DAA3538
:10003700A936E4FF1225EDEF64E9604FAA35A9362A
:100047007FC60E12208E786F120CD2786F120CB901
:100057008F3D8E3C8D3B8C3A755EFF755F137560E7
:10006700B37BFF7A1379AD12078A7BFF7A1379C0C6
:10007700853D61853C60853B5F853A5E12078A7FD7
:100087000A12254F7F0D12254F800375370AE53772
:100097006003020725AF3DAE3CAD3BAC3AAA35A99C
:1000A700367B011221FEAA35A9367B017D007C0231
:1000B7001222DB755EFF755F137560CA7BFF7A13CB
:1000C70079C412078A7F0B12233A7873A60608A60B
:1000D700077BFF7A1379DA18E6F55E08E6F55F1213
:1000E700078A7F0A12254F7F0D12254F755EFF7510
:1000F7005F137560DD7BFF7A1379C412078AAA350F
:10010700A9367B017F0D7E001225ED7875A6077B4A
:10011700FF7A1379ECE6F55E12078A7F0A12254FFC
:100127007F0D12254F755EFF755F137560F07BFFBE
:100137007A1379C412078A7F0E12233A7876A606B5
:1001470008A6077BFF7A1379DA18E6F55E08E6F565
:100157005F12078A7F0A12254F7F0D12254F755EA2
:10016700FF755F137560FF7BFF7A1379C412078AE7
:10017700AA35A9367B017F107E001225ED7883A66C
:10018700077BFF7A1379ECE6F55E12078A7F0A127E
:10019700254F7F0D12254F755EFF755F1475600B38
:1001A7007BFF7A1379C412078AAA35A9367B017FA8
:1001B700117E001223427881A60608A6077BFF7AE4
:1001C7001379DA18E6F55E08E6F55F12078A7F0A03
:1001D70012254F7F0D12254F755EFF755F147560F1
:1001E7001A7BFF7A1379C412078AAA35A9367B01CD
:1001F7007F137E00122342789EA60608A6077BFF80
:100207007A1379DA18E6F55E08E6F55F12078A7F52
:100217000A12254F7F0D12254F755EFF755F147506
:1002270060277BFF7A1379C412078AAA35A9367B20
:10023700017F167E00122342788CA60608A6077B4C
:10024700FF7A1379DA18E6F55E08E6F55F12078A92
:100257007F0A12254F7F0D12254F755EFF755F14BC
:100267007560337BFF7A1379C412078A7F1C1220CB
:10027700867879120CD27BFF7A1379C07879120CC1
:10028700B98F618E608D5F8C5E12078A7F0A122597
:100297004F7F0D12254F755EFF755F147560417BAB
:1002A700FF7A1379C412078A7F20122086789A1260
:1002B7000CD27BFF7A1379C0789A120CB98F618EB2
:1002C700608D5F8C5E12078A7F0A12254F7F0D12A1
:1002D700254F755EFF755F1475604E7BFF7A137946
:1002E700C412078AAA35A9367B017F247E00122013
:1002F7008E7888120CD27BFF7A1379C07888120C1B
:10030700B98F618E608D5F8C5E12078A7F0A122516
:100317004F7F0D12254F755EFF755F1475605A7B11
:10032700FF7A1379C412078AAA35A9367B017F2C75
:100337007E0012208E788E120CD27BFF7A1379C042
:10034700788E120CB98F618E608D5F8C5E12078A72
:100357007F0A12254F7F0D12254F755EFF755F14BB
:100367007560677BFF7A1379C412078A7881E6FE86
:1003770008E67805C333CE33CED8F9FF7873E6FCA9
:1003870008E6FD24FFFBEC34FFCB2FFFEB3EFE120C
:100397000B10E4FCFD7892120CD27BFF7A1379C024
:1003A7007892120CB98F618E608D5F8C5E12078A0E
:1003B7007F0A12254F7F0D12254F788DE61846705C
:1003C700337888120CB98F418E408D3F8C3E755E15
:1003D700FF755F147560727BFF7A1379C412078A01
:1003E7007BFF7A1379C0854161854060853F5F85D2
:1003F7003E5E8022788CE6FE08E6FFE48F418E4061
:10040700F53FF53E75370B755EFF755F1475607DBB
:100417007BFF7A1379C012078A7F0A12254F7F0D57
:1004270012254F789FE618467040789A120CB98FBC
:10043700458E448D438C42755EFF755F14756092DF
:100447007BFF7A1379C412078A7BFF7A1379C085F9
:10045700456185446085435F85425E12078A7F0A4E
:1004670012254F7F0D12254F8013789EE6FE08E672
:10047700FFE48F458E44F543F54275370B7883E6E5
:10048700FFE4FCFDFEAB41AA40A93FA83E120B6565
:100497008E388F39755EFF755F1475609B7BFF7AA9
:1004A7001379C412078A7BFF7A1379C085385E8572
:1004B700395F12078A7F0A12254F7F0D12254F7861
:1004C70083E6FFE4FCFDFEAB41AA40A93FA83E122C
:1004D7000B65C004A905AA06AB077876E6FE08E611
:1004E700FFE4FCFDD000EB2FFFEA3EFEED39FDEC0B
:1004F70038FC7892120CC5EF2BFBEE3AFAED39F97E
:10050700EC38F8C3E5459BF54DE5449AF54CE543D2
:1005170099F54BE54298F54A755EFF755F1475606E
:10052700AB7BFF7A1379C412078A7BFF7A1379C0F2
:10053700854D61854C60854B5F854A5E12078A7FD2
:100547000A12254F7F0D12254F7875E6FBE4FAF95D
:10055700F8AF4DAE4CAD4BAC4A120BF08F498E48FD
:100567008D478C46755EFF755F147560B37BFF7AA8
:100577001379C412078A7BFF7A1379C0854961858D
:10058700486085475F85465E12078A7F0A12254FB6
:100597007F0D12254F7883E6FFE4FCFDFEAB41AAF1
:1005A70040A93FA83E120B65C004A905AA06AB07E0
:1005B7007876E6FE08E6FFE4FCFDD000EB2FFFEAC5
:1005C7003EFEED39FDEC38FC7892120CC5EF2BFF9F
:1005D700EE3AFEED39FDEC38FC786F120CC5EF2BC7
:1005E700FFEE3AFEED39FDEC38FC787D120CD27542
:1005F7005EFF755F147560C37BFF7A1379C41207BA
:100607008A7BFF7A1379C0787D120CB98F618E606F
:100617008D5F8C5E12078A7F0A12254F7F0D122588
:100627004F788E120CB9EF24FEFFEE34FFFEED3447
:10063700FFFDEC34FFFCC004A905AA06AB077875DB
:10064700E6FFE4FCFDFED000120B65787D120CC5B9
:10065700EF2BFFEE3AFEED39FDEC38FC7896120CE5
:10066700D2755EFF755F147560D07BFF7A1379C40E
:1006770012078A7BFF7A1379C07896120CB98F61BB
:100687008E608D5F8C5E12078A7F0A12254F7F0D61
:1006970012254FE47FF57E0FFDFCAB49AA48A94719
:1006A700A846C3120C82501D7878760C75370B76E6
:1006B7000275370B755EFF755F147560E07BFF7A17
:1006C7001379C4804CE47FF57EFFFDFCAB49AA4853
:1006D700A947A846C3120C8278785024760275374A
:1006E7000B755EFF755F147560EC7BFF7A1379C439
:1006F70012078A7BFF7A1379C07878E6F55E801156
:100707007604755EFF755F147560F87BFF7A137961
:10071700C412078A7F0A12254F7F0D12254FAF3764
:0107270022AF
:081A2D008F418E408D3F8C3E7D
:081A35008F498E488D478C4655
:101A3D00E4FFFEFDFCAB49AA48A947A846C3120C1A
:101A4D008270057896020CB9E54924FEFFE548340D
:101A5D00FFFEE54734FFFDE54634FFFCC004A90554
:101A6D00AA06AB077875E6FFE4FCFDFED000120B6D
:101A7D0065787D120CC5EF2BF54DEE3AF54CED3931
:101A8D00F54BEC38F54A755EFF755F157560047B97
:101A9D00FF7A1379C412078A7BFF7A157911854D68
:101AAD0061854C60854B5F854A5E12078A7F0A12FD
:101ABD00254F7F0D12254F755EFF755F15756018EB
:101ACD007BFF7A1379C412078A7BFF7A157911850A
:101ADD00496185486085475F85465E12078A7F0AA2
:101AED0012254F7F0D12254F755EFF755F137560C3
:101AFD00DD7BFF7A1379C412078A7BFF7A1579246F
:101B0D007875E6F55E12078A7F0A12254F7F0D1252
:101B1D00254F755EFF755F147560C37BFF7A137972
:101B2D00C412078A7BFF7A157911787D120CB98F53
:101B3D00618E608D5F8C5E12078A7F0A12254F7F42
:0C1B4D000D12254FAF4DAE4CAD4BAC4A15
:011B59002269
:081DED008F498E488D478C469A
:101DF5007876E6FE08E6FFE4FCFD786F120CC5EF89
:101E05002BFFEE3AFEED39FDEC38FC7884120CD24E
:101E1500E47F04FEFDFCAB49AA48A947A846120B7E
:101E2500658F4F8E4E8D4D8C4C7873E6FE08E6FB24
:101E3500AA06E4F9F8AF4FAE4E120BF07884120CF7
:101E4500C5EF2BF557EE3AF556ED39F555EC38F566
:101E550054C294855769855668855567F5667F111F
:101E6500121FF1AA4AA94B7B017F007E027D007CEF
:101E7500001221FED2947873E6FE08E6FBAA06E47A
:101E8500F9F8AF4FAE4EAD4DAC4C120BF0AC00AD0A
:101E950001AE02AF038F538E528D518C50AA4AA9C1
:0A1EA5004B7B0112208EEC540FFC61
:011EAF002210
:081B5A008F388E378D368C3573
:101B6200E4F53C121A2D8F458E448D438C42755EEE
:101B7200FF755F1575602B7BFF7A1379C412078A94
:101B82007BFF7A15791185456185446085435F85C0
:101B9200425E12078A7F0A12254F7F0D12254FAF30
:101BA20045AE44AD43AC42AA39A93A7B011221FEAB
:101BB2008F3BE53B6003021C46805FE53D640160AC
:101BC20003021C46E53B707C053CE53CD3787596E8
:101BD200401FE4F53CAF41AE40AD3FAC3E85394AD3
:101BE200853A4B121DED121A2D8F458E448D438C72
:101BF20042AF3C7E007873E6FC08E6FD120AFEEF77
:101C02002545FFEE3544FEE43543FDE43542FCAAAA
:101C120039A93A7B011221FE8F3BAA39A93A7B01ED
:101C22007873E6FC08E6FD1222DB755EFF755F1530
:101C32007560377BFF7A1379AD12078A121D278FE1
:061C42003D021BBDAF3B9B
:011C48002279
:0811D0008F388E378D368C3507
:1011D800754C0185394D853A4EE4F545F546F5439C
:1011E800F544787D120CB9AB38AA37A936A835C3AF
:1011F800120C82500F7892120CB98F428E418D409A
:101208008C3F800D7875E6FFE48F42F541F540F597
:101218003F85383E85373D85363C85353BAF3EAE0C
:101228003DAD3CAC3BAB4CAA4DA94E1221FE8F4BB9
:10123800E54B60030213A3AB4CAA4DA94EAF44AED5
:10124800431225ED8F47E54764E57003021321E556
:10125800477003021321E544240BFFE43543FEAB3A
:101268004CAA4DA94E1225ED8F49D2A5E549540E39
:1012780060030213210546E546700205457BFF7AA7
:1012880015795485455EF55F12078AE4F5487E00B6
:10129800E5442548FFEE3543FEAB4CAA4DA94E1256
:1012A80025ED8F4A12254F0548E548C3940840DECE
:1012B800E54930E4307548087E00E5442548FFEEEE
:1012C8003543FEAB4CAA4DA94E1225ED8F4A122587
:1012D8004F0548E548C3940B40DE7BFF7A15795AE1
:1012E80012078A80347F2E12254F7548087E00E544
:1012F800442548FFEE3543FEAB4CAA4DA94E1225B6
:10130800ED8F4A12254F0548E548C3940B40DE7F10
:101318000D12254F7F0A12254F74202544F544E409
:101328003543F543D3E54494FEE54394014063E532
:101338003E2401F53EE4353DF53DE4353CF53CE41D
:10134800353BF53BC3E53E9538FFE53D9537FEE572
:101358003C9536FDE53B9535FCAB42AA41A940A832
:101368003FD3120C824025AF3EAE3DAD3CAC3BAB0B
:101378004CAA4DA94E1221FE8F4BE54B6007E4F5B0
:1013880045F546F547E4F543F5448006434580E4D2
:10139800F547E547600302123F8005E4F545F54649
:0413A800AE45AF4659
:0113AC00221E
:080F9C008F388E378D368C353D
:100FA400755001853B51853C52E4F54BF54CF549B0
:100FB400F54AF548F547F546F545787D120CB9AB89
:100FC40038AA37A936A835C3120C82500F7892126A
:100FD4000CB98F448E438D428C41800D7875E6FFA9
:100FE400E48F44F543F542F54185384085373F8524
:100FF400363E85353DAF40AE3FAD3EAC3DAB50AA2D
:1010040051A9521221FE8F4FE54F60030211A1AB8B
:1010140050AA51A952AF4AAE491225ED8F4DE54D64
:1010240064E5700302111DE54D700302111D1225C4
:10103400DE8F4EE54E540E600302111D054CE54C47
:101044007002054B653A7004E54B65396003021183
:101054001D7878E66404705EE54A24151225E2E4FE
:101064008F48F547F546F545E548540FF548E4F54E
:1010740047F546F545AF48AE47AD46AC457808124E
:101084000CA68F488E478D468C45E54A24141225BC
:10109400E2E5484FF548E547F547E546F546E545B9
:1010A400F545AF48AE47AD46FC7808120CA68F480C
:1010B4008E478D468C45E54A241B1225E2E5484FB0
:1010C400F548E547F547E546F546E545F545AF48B6
:1010D400AE47AD46FC7808120CA68F488E478D4665
:1010E4008C45E54A241A1225E2E5484FF548E547C0
:1010F400F547E546F546E545F5451225DE8F4EE50F
:101104004E30E412E548F548E547F547E546F5462F
:10111400E5454410F545E4F54D7420254AF54AE4C7
:101124003549F549D3E54A94FEE54994014065E51E
:10113400402401F540E4353FF53FE4353EF53EE417
:10114400353DF53DC3E5409538FFE53F9537FEE570
:101154003E9536FDE53D9535FCAB44AA43A942A82E
:1011640041D3120C82402AAF40AE3FAD3EAC3DAB02
:1011740050AA51A9521221FE8F4FE54F600CE4F59D
:1011840048F547F546754580F54DE4F549F54A803F
:1011940003E4F54DE54D6003021013800AE4F548BD
:1011A400F547F546754580E4FFFEFDFCAB48AA47CC
:1011B400A946A845C3120C827009F548F547F546BF
:0B11C400754580AF48AE47AD46AC4516
:0111CF0022FD
:0A1561008F088D098B0A8A0B890C94
:10156B00122649E50825E054FEF510D293C2927578
:10157B000D07E50DD3940A4065E51170617F0412E8
:10158B002621C29374017E00A80D088005C333CEBB
:10159B0033CED8F9FFE4FEEF5510A80D088006CE28
:1015AB00A2E713CE13D8F8FF139292EF5401F51262
:1015BB007F04122621D293750F01209308E50F604B
:1015CB0004050F80F5E50F700375110EE511700A18
:1015DB00A292336512600375110F150D8094E511FE
:1015EB00701F7F0412262112261BD293750F012028
:1015FB009308E50F6004050F80F5E50F7003751177
:10160B000EE5117006309203751110E4F50EE50E20
:10161B00C3950940030216D8E51160030216D8756D
:10162B000D07E50DD3940840727F04122621C29357
:10163B00AB0AAA0BA90C850E82758300120A9DFDBD
:10164B0074017E00A80D088005C333CE33CED8F9C4
:10165B00FFEDFBE4FEEF5BA80D088006CEA2E713BF
:10166B00CE13D8F8FF139292EF5401F5127F0412A8
:10167B002621D293750F01209308E50F6004050F07
:10168B0080F5E50F700375110EE511700AA2923308
:10169B006512600375110F150D8087E511701F7FA3
:1016AB000412262112261BD293750F01209308E5F5
:1016BB000F6004050F80F5E50F700375110EE51132
:1016CB007006309203751110050E0216197F041265
:1016DB002621C293C2927F07122621D293750F0146
:1016EB00209308E50F6004050F80F5E50F70037577
:1016FB00110EE511700AA292336512600375110F7A
:04170B00D292AF11B6
:01170F0022B7
:0A1710008F138D148B158A168917AC
:10171A00122649E51325E04401F51BD293C29275BE
:10172A001807E518D3940A4065E51C70617F041216
:10173A002621C29374017E00A818088005C333CEFF
:10174A0033CED8F9FFE4FEEF551BA818088006CE61
:10175A00A2E713CE13D8F8FF139292EF5401F51DA6
:10176A007F04122621D293751A01209308E51A6084
:10177A0004051A80F5E51A7003751C0EE51C700A3B
:10178A00A29233651D6003751C0F15188094E51C21
:10179A00701F7F0412262112261BD293751A01206C
:1017AA009308E51A6004051A80F5E51A7003751C9A
:1017BA000EE51C7006309203751C10E4F519E51944
:1017CA00C39514400302187DE51C600302187DAB23
:1017DA0015E5172519F9E43516FA120A84E4120AEE
:1017EA00CA751807E518D3940840507F04122621B9
:1017FA00C2937F04122621D293751A01209308E519
:10180A001A6004051A80F5E51A7003751C0EE51CAA
:10181A007025A29233F51DAB15E5172519F9E435A4
:10182A0016FA120A84FFAE18E51DA806088002C33C
:10183A0033D8FC4F120ACA151880A9E51C702F7FED
:10184A0004122621C293E51414B51904D292800217
:10185A00C2927F04122621D293751A01209308E5B9
:10186A001A6004051A80F5E51A7003751C0E05192D
:10187A000217C87F04122621C293C2927F0712263A
:10188A0021D293751A01209308E51A6004051A807B
:10189A00F5E51A7003751C0EE51C700AA2923365F1
:0A18AA001D6003751C0FD292AF1CE5
:0118B4002211
:06261B00C293D2927F047D
:10262100308E03308FFDC28EBF0409E4F58DF58B2A
:05263100C28FD28E22D1
:1026490053890F438910C2ABE4F58DF58BC28FD244
:022659008E22CF
:0300000002268A4B
:0C268A00787FE4F6D8FD75819F020D22D8
:100A8400BB010689828A83E0225002E722BBFE0270
:090A9400E32289828A83E49322A3
:100A9D00BB010CE58229F582E5833AF583E022500E
:100AAD0006E92582F8E622BBFE06E92582F8E22258
:0D0ABD00E58229F582E5833AF583E4932272
:100ACA00BB010689828A83F0225002F722BBFE010B
:020ADA00F32205
:100ADC00F8BB010DE58229F582E5833AF583E8F050
:100AEC00225006E92582C8F622BBFE05E92582C8FC
:020AFC00F222E4
:100AFE00EF8DF0A4A8F0CF8CF0A428CE8DF0A42E0C
:020B0E00FE22C5
:100B1000BC000BBE0029EF8DF084FFADF022E4CCC9
:100B2000F875F008EF2FFFEE33FEEC33FCEE9DEC92
:100B3000984005FCEE9DFE0FD5F0E9E4CEFD22EDD8
:100B4000F8F5F0EE8420D21CFEADF075F008EF2F22
:100B5000FFED33FD4007985006D5F0F222C398FD13
:050B60000FD5F0EA22B0
:100B6500E88FF0A4CC8BF0A42CFCE98EF0A42CFC2F
:100B75008AF0EDA42CFCEA8EF0A4CDA8F08BF0A4AD
:100B85002DCC3825F0FDE98FF0A42CCD35F0FCEB0C
:100B95008EF0A4FEA9F0EB8FF0A4CFC5F02ECD39D1
:0F0BA500FEE43CFCEAA42DCE35F0FDE43CFC223E
:100BB40075F008758200EF2FFFEE33FECD33CDCCF8
:100BC40033CCC58233C5829BED9AEC99E58298407B
:100BD4000CF582EE9BFEED9AFDEC99FC0FD5F0D658
:100BE400E4CEFBE4CDFAE4CCF9A88222B800C1B982
:100BF4000059BA002DEC8BF084CFCECDFCE5F0CBC0
:100C0400F97818EF2FFFEE33FEED33FDEC33FCEBF8
:100C140033FB10D703994004EB99FB0FD8E5E4F9B3
:100C2400FA227818EF2FFFEE33FEED33FDEC33FCA0
:100C3400C933C910D7059BE99A4007EC9BFCE99A94
:100C4400F90FD8E0E4C9FAE4CCFB2275F010EF2FD9
:100C5400FFEE33FEED33FDCC33CCC833C810D707D9
:100C64009BEC9AE899400AED9BFDEC9AFCE899F814
:0E0C74000FD5F0DAE4CDFBE4CCFAE4C8F922A7
:100C8200EB9FF5F0EA9E42F0E99D42F0E89C45F0C8
:010C9200223F
:100C9300E8600FECC313FCED13FDEE13FEEF13FF3F
:030CA300D8F12263
:100CA600E8600FEFC333FFEE33FEED33FDEC33FCAC
:030CB600D8F12250
:0C0CB900E6FC08E6FD08E6FE08E6FF2267
:0D0CC500E6FB08E6F908E6FA08E6CBF8229F
:0C0CD200ECF608EDF608EEF608EFF6224E
:10254F00EFB40A07740D12255A740A309811A8991E
:10255F00B8130CC2983098FDA899C298B811F630EC
:07256F0099FDC299F59922C4
:10072800E56A245EF8E6056A22785B300702785E9F
:10073800E475F001120CEC020A842000EB7F2ED243
:10074800008018EF540F2490D43440D4FF30040BA9
:10075800EF24BFB41A0050032461FFE56B60021553
:100768006B056EE56E7002056D30070D785BE475FC
:10077800F001120CECEF020ACA02254F7403D207EB
:100788008003E4C207F56A8B5B8A5C895DE4F56BDC
:10079800F56DF56EE56B60077F2012076380F575D0
:1007A8006CFFC201C200C202C203C205C206C2086F
:1007B800120731FF700D3007057F00120774AF6E06
:1007C800AE6D22B4255FC2D5C204120731FF24D012
:1007D800B40A00501A75F00A786B30D50508B6FFD0
:1007E8000106C6A426F620D5047002D20380D924B7
:1007F800CFB41A00EF5004C2E5D204020974D20142
:1008080080C6D20080C0D20280BCD2D580BAD205C0
:1008180080B47F201207632002077401B56B004083
:10082800F1120728FF12076302079CD208D206803C
:1008380095120728FB120728FA120728F94A4B7065
:100848000679457A0A7BFF20022EE56B602A7E0036
:100858008E82758300120A9D60060EEE656C70F03C
:10086800C2D5EBC0E0EAC0E0E9C0E0EE1209BBD0B7
:10087800E0F9D0E0FAD0E0FB120A84FF60AAEBC0EE
:10088800E0EAC0E0E9C0E0120763D0E02401F9D053
:10089800E03400FAD0E0FBE56C0460DCD56CD9806C
:1008A800877BFF7A0979B7D202809C791080027918
:1008B80008C206C2088008D2D5790A8004790AC21B
:1008C800D5E56C047002F56CE4FAFDFEFF1207280A
:1008D800FC7B08200113120728FD7B1030000A1248
:1008E8000728FE120728FF7B20EC3382D592D550CB
:1008F80013C3E43000069FFFE49EFEE42001039D3D
:10090800FDE49CFCE4CBF8C201EC700CCFCECDCC5E
:10091800E824F8F870F38017C3EF33FFEE33FEEDE9
:1009280033FDEC33FCEB33FB994002FB0FD8E9EBCA
:10093800300105F8D0E0C448B201C0E00AEC4D4EE1
:100948004F78207B0070C2EAB56C0040BCC0E01252
:1009580009BDD0F0D0E0200104C4C0E0C4B201C099
:10096800F012074CD0F0D5F0EB02079C120CFC08F3
:10097800395308B358080A4C08064208B74F08BF4D
:0F0988004408BF49081F4308C55508A94608A9D8
:100997004508A9470A6550080E2D08122E08352B61
:1009A7000816230833200A4E2A07CE480000082DD0
:1009B7003F3F3F00790AA2D5200314300509B9103B
:1009C700020404B9080104A2D5200602500104203C
:1009D70002689202B56B005034C0E07F20300319E3
:1009E7007F30A20272067205500F120A14C202C2A9
:1009F70006C205C2087F30800F300503E9C0E01248
:100A07000763300503D0E0F9D0E0B56BCC300517AC
:100A17007F30B9100C1207637F583004077F788046
:100A270003B908031207633002057F2D0207637FAE
:100A3700202008F87F2B2006F322920280CF286E11
:100A4700756C6C2900D2011207283001F8C20178B1
:100A57006B30D50108F60207CE2D504349581207CF
:100A6700282403B405004001E4900A609312075458
:0D0A7700743A120754D203756B040208B3E1
:10265B0010090B122696BF0D027F0A02254FAF1EE3
:01266B00224C
:101C49008B578A588959AB57AA58A959120A84FF40
:101C5900122636500D74012559F559E43558F558B1
:101C690080E4D200AB57AA58A959120A84FF642B01
:101C79006004EFB42D1BAB570559E559AA587002FA
:101C8900055814F9120A84642D6003D38001C392A4
:101C990000E4F55DF55CF55BF55AAB57AA58A9590F
:101CA900120A84FF12267B505CE47F0AFEFDFCAB1E
:101CB9005DAA5CA95BA85A120B65C8ECC8EDC0E027
:101CC900EEC0E0EFC0E0AB57AA58A959120A84FF49
:101CD9003395E0FEEF24D0FFEE34FFFEE4FCFDD0A7
:101CE900E0FBD0E0FAD0E0F9EB2FF55DEA3EF55CD8
:101CF900ED39F55BEC38F55A74012559F559E43598
:101D090058F558809530000AAF5DAE5CAD5BAC5AB2
:0E1D1900800BAF5DAE5CAD5BAC5A120CDE22EF
:0E0CDE00C3E49FFFE49EFEE49DFDE49CFC2227
:100CEC00FAE6FB0808E6F925F0F618E6CA3AF62209
:100CFC00D083D082F8E4937012740193700DA3A387
:100D0C0093F8740193F5828883E47374029368609A
:060D1C00EFA3A3A380DF9A
:0A2696003098FDAF99C2987E002233
:0F267B00EFC394304007EF943A50028001C3221E
:10263600EFC394094005EF940E4003BF2003D380F7
:0326460001C322AB
:00000001FF
