:1045BC005389F0438901C2A9E4FDFCC3ED9FEC9E35
:1045CC005016758CFA758A1FC28DD28C308DFDC237
:0845DC008C0DBD00010C80E311
:0145E40022B4
:05460A00C209754B38E8
:10460F00A20992B6D2B77F0A7E001245BC854B80B5
:0D461F00C2B77F017E001245BC7580FF22EE
:084429008F468B478A48894940
:10443100E546701FF54AAB47AA48A949854A8275E6
:10444100830012293BFF602FD209F54B12460F055D
:104451004A80E3E4F54AE54AC39546501AD209ABCE
:1044610047AA48A949854A8275830012293BF54B21
:0744710012460F054A80DF2F
:014478002221
:104586007F1E7E001245BC12460A7F057E0012453C
:10459600BC12460A12460AC209754B0F12460FC2D2
:1045A60009754B0112460F7F027E001245BCC209F7
:0645B600754B0602460FE2
:0F46FE00C209754B0112460F7F027E000245BCB8
:103A2600E4F55774592557F8E4F60557E557B40BEE
:103A3600F274FFF567F566F565F564E4F557124629
:103A4600ED8F58E558C394304012E558D394395059
:103A56000B74592557F8A6580557804AE558640847
:103A66006005E558B47F0B155774592557F8E4F6E9
:103A7600802AE558640D6005E558B40A1A7B007A79
:103A86000079591239488F678E668D658C647F0D73
:103A96001200037F0A800C7F081200037F201200A9
:103AA600037F08120003E557B40A1B7B007A0079EE
:103AB600591239488F678E668D658C647F0D1200AA
:103AC600037F0A12000374FFFFFEFDFCAB67AA66C4
:103AD600A965A864C3122B207003023A44AF67AEEF
:053AE60066AD65AC6453
:013AEB0022B8
:10376000494E4143544956450A0D0046494E445F6F
:10377000434C55535445525F310A0D00444F4E455A
:103780000A0D0046494E445F434C55535445525F21
:10379000320A0D00252D323073004D6F756E74693D
:1037A0006E6720447269766500696E697420646F83
:1037B0006E6500252D313073004552524F52312134
:1037C000200025322E32625800636F6E66696720D2
:1037D0006572722000746573745F6932632065726C
:1037E000722000252D33357300456E74657220619B
:1037F00020426C6F636B204E756D6265723A2000DB
:103800004E756D62657220746F6F206C61726765B2
:103810002E0A0D0072657475726E5F656E74727932
:103820000025382E386C5800776173206120646958
:10383000726563746F727900736563746F725F622F
:103840006173655F670077617320612066696C65ED
:09385000004552524F52212000A4
:03002B0002172396
:10172300C0E0C0F0C083C082C0D075D000C000C08C
:1017330001C002C003C004C005C006C007D2A4D2C2
:10174300A5D2A6D2A7C2CFC28C758C00758A00C25F
:101753008DD28CE47F01FEFDFC78D1122B63C31282
:101763002B2070197F40FEFDFC78B1122B63C3124E
:101773002B20400978D1122B7C00000003E47F0268
:10178300FEFDFC78D1122B63C3122B2070197F400E
:10179300FEFDFC78B1122B63C3122B20400978D1D4
:1017A300122B7C0000000478D1122B57122B9518B2
:1017B300A4000000011A340000000218FA0000001F
:1017C300031A8E0000000417E600000005198000CC
:1017D3000000061966000000071AF0000000080068
:1017E300001B04C2A4D2A5D2A6D2A7D29120907185
:1017F300208D6E78B9E6FE08E62400F58274003E7B
:10180300F583E0FF7B007A0079D512464D78BA065E
:10181300E618700106D378BAE694FF18E6940140FF
:10182300CCD378BCE694FF18E694014027E47F0309
:10183300FEFDFC78C1122B63C3122B20700B78C101
:10184300122B7C00000000801478D1122B7C000046
:101853000002800978D1122B7C00000006D28D8013
:101863008C309038E47F05FEFDFC78D1122B63C3E6
:10187300122B2070277BFF7A3779601222DAD37814
:10188300BCE694FF18E6940178D14009122B7C0042
:101893000000028007122B7C00000007C291021B8C
:1018A30004D2A4C2A5D2A6D2A778B1122B5778CD61
:1018B300122B63EB2FFFEA3EFEE93DFDE83CFC788B
:1018C300B5122B7078B5122B577B017A0079001271
:1018D3003EF178B1122B57EF2401FFE43EFEE43DC5
:1018E300FDE43CFC78B1122B7078D1122B7C000004
:1018F300000878B9021A87C2A4C2A5D2A6D2A77BD0
:10190300FF7A37796B1222DA78C5122B57752700C5
:10191300752800123BAF78C5122B7074FFFFFEFDD4
:101923007C0F78C5122B63C3122B2070147BFF7AB4
:1019330037797C1222DA78C1122B7C0000000380F5
:101943001678C5122B5712363B78CD122B7078B10F
:10195300122B7C0000000078D1122B7C00000008C1
:10196300021B04D2A4D2A5C2A6D2A7309003021BA5
:101973000478D1122B7C00000005021B04C2A4D200
:10198300A5C2A6D2A7D291209070208D6D78BBE618
:10199300FE08E62400F58274003EF583E0FF7B0039
:1019A3007A0079D512464D78BC06E618700106D345
:1019B30078BCE694FF18E6940140CCD318E694FF74
:1019C30018E694014027E47F03FEFDFC78C1122B47
:1019D30063C3122B20700B78C1122B7C0000000014
:1019E300801478D1122B7C00000001800978D11279
:1019F3002B7C00000005D28D808D30902FE47F0674
:101A0300FEFDFC78D1122B63C3122B20701ED378FA
:101A1300BAE694FF18E6940178D14009122B7C00B2
:101A23000000018007122B7C00000008C291021BFA
:101A330004D2A4C2A5C2A6D2A778B1122B5778CDDF
:101A4300122B63EB2FFFEA3EFEE93DFDE83CFC78F9
:101A5300B5122B7078B5122B577B017A02790012DD
:101A63003EF178B1122B57EF2401FFE43EFEE43D33
:101A7300FDE43CFC78B1122B7078D1122B7C000072
:101A8300000778BB76000876008076C2A4C2A5C2A0
:101A9300A6D2A77BFF7A3779831222DA78C5122B75
:101AA30057752702752800123BAF78C5122B707447
:101AB300FFFFFEFD7C0F78C5122B63C3122B207032
:101AC3000B78C1122B7C00000003801678C5122B03
:101AD3005712363B78CD122B7078B1122B7C000055
:101AE300000078D1122B7C000000078014D2A4D20E
:101AF300A5D2A6C2A720900978D1122B7C000000A2
:101B030006D007D006D005D004D003D002D001D030
:0C1B130000D0D0D082D083D0F0D0E032DF
:101B1F00D2B3C2A412468F1245867F807E1A7D06ED
:101B2F007C0012424F1233968F41756FFF757037DD
:101B3F0075719A7BFF7A3779941222DA7F0A120035
:101B4F00037F0D1200037E007F00120FFE8F41787E
:101B5F00A7122B57754A00754B00122E478E448FD4
:101B6F00451246FEC209754B8012460F7BFF7A372E
:101B7F0079A97F09124429C2A57542017543AC7B2F
:101B8F00007A0079421242B68F41E541602AC2A71E
:101B9F00756FFF7570377571B97BFF7A3779B3122F
:101BAF0022DA7BFF7A3779C285416F1222DA7F0AF8
:101BBF001200037F0D1200031225D48F41E54160FF
:101BCF002AC2A7756FFF7570377571C97BFF7A379A
:101BDF0079B31222DA7BFF7A3779C285416F1222ED
:101BEF00DA7F0A1200037F0D120003C2A6E54160DF
:101BFF002AC2A7756FFF7570377571D57BFF7A375E
:101C0F0079B31222DA7BFF7A3779C285416F1222BC
:101C1F00DA7F0A1200037F0D12000375CDB275CC67
:101C2F006A75C880C28CE4F58CF58AC28D43890130
:101C3F00D2ADD2AF78A7122B5778CD122B70E541CA
:101C4F006003021ED6756FFF7570377571E97BFFE4
:101C5F007A3779E31222DA123A2678D6122B70AE3F
:101C6F0044AF45E4FCFD78D6122B63D3122B2050E2
:101C7F0010E4FFFEFDFC78D6122B63C3122B2070ED
:101C8F0012756FFF7570387571007BFF7A3779E3C6
:101C9F001222DAAE44AF45E4FCFD78D6122B63D3A3
:101CAF00122B2050A0E4FFFEFDFC78D6122B63C34D
:101CBF00122B20609078D6122B578E4A8F4B754C73
:101CCF0000754D0078CD122B57122C1378BD122BA7
:101CDF0070756FFF7570387571147BFF7A37799453
:101CEF001222DA7BFF7A38792178BD122B578F7247
:101CFF008E718D708C6F1222DA7F0A1200037F0DA6
:101D0F0012000378BD122B57EC540FFC78C9122B1D
:101D1F007078BD122B57E4FFFEFDEC5410FC606D84
:101D2F00756FFF7570387571287BFF7A377994124C
:101D3F0022DA7F0A1200037F0D12000378C9122BDB
:101D4F005712351678CD122B70756FFF7570387569
:101D5F0071387BFF7A3779941222DA7BFF7A3879E0
:101D6F002178CD122B578F728E718D708C6F12223E
:101D7F00DA7F0A1200037F0D12000378CD122B5762
:101D8F00754A00754B00122E478E448F4578BD1251
:101D9F002B57E4FFFEFDEC5410FCE4FBFAF9F8C3FB
:101DAF00122B206003021EBFFFFEFDFC78D6122B04
:101DBF0063C3122B207003021EBF756FFF7570383F
:101DCF007571467BFF7A3779941222DA78C9122B14
:101DDF0057754A00754B0012385978C9122B571294
:101DEF00351678CD122B7078B1122B5778CD122B68
:101DFF0063EB2FFFEA3EFEE93DFDE83CFC78B512B0
:101E0F002B7078B5122B577B017A007900123EF1B7
:101E1F0078B1122B57EF2401FFE43EFEE43DFDE4C1
:101E2F003CFC78B1122B7078B1122B5778CD122B56
:101E3F0063EB2FFFEA3EFEE93DFDE83CFC78B5126F
:101E4F002B7078B5122B577B017A027900123EF175
:101E5F0078B1122B57EF2401FFE43EFEE43DFDE481
:101E6F003CFC78B1122B7078D1122B7C000000054E
:101E7F0078C1122B7C00000001C2CFD2CAE478B91E
:101E8F00F608F608F608F6E4FFFEFDFC78C1122B03
:101E9F0063C3122B20600575870180EBC2CA78CD12
:101EAF00122B57754A00754B00122E478E448F45E3
:101EBF0078BD122B57E4FEFDEC5480FC7003021C1E
:101ECF004D75410D021C4DE5417003021C43C2A725
:101EDF007F0A1200037F0D120003756FFF757038B4
:101EEF007571517BFF7A3779B31222DA7BFF7A371C
:101EFF0079C285416F1222DA7F0A1200037F0D1219
:041F0F00000380FE4D
:1044C8002570200025322E32625820004164647223
:1044D8002E20202030202031202032202033202080
:1044E800342020352020362020372020382020393D
:1044F8002020412020422020432020442020452005
:0545080020460A0D0031
:1040F8008B678A6889698B6F8A7089717BFF7A44BC
:1041080079C81222DAE4F56AAB67AA68A969856AF0
:104118008275830012293BF56B7BFF7A4479CCF5D5
:104128006F1222DA056AE56AC3941040DBE4F56A87
:10413800AB67AA68A969856A8275830012293BF56D
:104148006BC394204007E56BD3947F4003756B2EB7
:10415800AF6B120003056AE56AC3941040D27F0D65
:084168001200037F0A020003AC
:0A4317008C628D638B5F8A60896100
:104321008B648A658966AF0153070F7E00C3E49FE2
:10433100FFE49EFEEF2566F566EE3565F5657BFFCC
:104341007A4479D41222DAAB64AA65A9661240F8DC
:1043510074102566F566E43565F565E5612563F953
:10436100E5603562FA8A838982C3E5669582E565EF
:04437100958340D31D
:014375002225
:0847320025322E3262582000EE
:10339600758E0CD294E4F54C7B007A0079467FFF5B
:1033A60012462C054CE54CC3940A40EC7B007A008F
:1033B600794612454E8F4BE4F54C7446254CF8E69B
:1033C600F54D7BFF7A477932F56F1222DA054CE527
:1033D6004CC3940540E47F0A1200037F0D120003DC
:1033E6007F647E001245BCE54B700AFB7A00794685
:1033F60012450D8F4BE4F54C7446254CF8E6F54D19
:103406007BFF7A477932F56F1222DA054CE54CC319
:10341600940540E47F0A1200037F0D1200037F64C7
:103426007E001245BCE54B7015FB7A0079461245C5
:10343600E58F4BE54664016005754B05C2A5E4F5CD
:103446004C7446254CF8E6F54D7BFF7A477932F504
:103456006F1222DA054CE54CC3940540E47F0A124C
:1034660000037F0D1200037F647E001245BCE54B0E
:10347600700AFB7A0079461240008F4BE4F54C74D3
:1034860046254CF8E6F54D7BFF7A477932F56F1203
:1034960022DA054CE54CC3940540E47F0A1200038A
:1034A6007F0D1200037F647E001245BCE54B701D44
:1034B600FB7A0079461245E58F4BE54754C0700DFF
:1034C600E54730E705754B078003754B05E4F54C7A
:1034D6007446254CF8E6F54D7BFF7A477932F56F51
:1034E6001222DA054CE54CC3940540E47F0A12002B
:1034F600037F0D1200037F647E001245BCE54B601E
:0735060002C2A7D294AF4BF3
:01350D00229B
:06454E008B4E8A4F8950DC
:10455400C294E4F57AF579F578F577FF123E5CEFCD
:10456400700BAB4EAA4FA9507F01123DC6EF700FDE
:10457400AB4EAA4FA950122922640160027F05D2D2
:0145840094A2
:014585002213
:06450D008B4E8A4F89501D
:10451300C294E4757AAA757901F578F5777F081264
:104523003E5CEF700BAB4EAA4FA9507F05123DC600
:10453300AB4EAA4FA950122922FEB405047F09806D
:0A45430007EE640160027F06D294C7
:01454D00224B
:0645E5008B4E8A4F895045
:1045EB00C294E4F57AF579F578F5777F3A123E5C6B
:0E45FB00EF700BAB4EAA4FA9507F05123DC6C4
:01460900228E
:064000008B4E8A4F89502F
:10400600E4F555F554F553755240C294F5510551F2
:10401600E4F57AF579F578F5777F37123E5CEF703F
:1040260003123DBEAB4EAA4FA950122922FE6006CE
:10403600640160027F02EF701185557A8554798597
:1040460053788552777F29123E5CEF7003123DBE8E
:10405600AB4EAA4FA950122922FE600664016002E7
:104066007F020551EE6007E5516003EF60A0E55160
:0640760070027F01D294EC
:01407C002221
:023E5C008F765F
:103E5E00E576C394404003023EEBE5764440F57CA4
:103E6E007B007A00797DFF12462C8F7B757E18E5DC
:103E7E007B70047F0180027F00E57EC3941950049D
:103E8E007E0180027E00EE5F6024AF7AAE79AD785F
:103E9E00AC77A97EA801122B318F7C7B007A00793A
:103EAE007D12462C8F7B74F8257EF57E80C1E576DB
:103EBE007005757C95800DE576B40805757C878058
:103ECE0003757C01E57B700CFB7A00797DAF7C126B
:103EDE00462C8F7BE57B6008757B028003757B0328
:023EEE00AF7BA8
:013EF00022AF
:023C72008F536E
:103C7400E553C394404003023D10E5534440FF78AC
:103C840016F67B007A00791712462C7815A6077869
:103C94001876187815E670047F0180027F00781882
:103CA400E6F9C3941950047E0180027E00EE5F6041
:103CB40026AF57AE56AD55AC54A801122B31781629
:103CC400EFF67B007A00791712462C7815A6077850
:103CD4001874F826F680BCE553700678167695803D
:103CE4000DE5537816B408047687800276017815BA
:103CF400E6701008E6FF7B007A00791712462C78EC
:103D040015A6077815E66008760280047815760310
:043D14007815E6FF39
:013D18002288
:083DBE00AB4EAA4FA9507F0192
:083DC6008F568B578A5889596A
:103DCE00E4F55AF55B7B007A00795C7FFF12462C96
:103DDE008F5B055AE55A6009E55B7005E55CF4609A
:103DEE00E4AB57AA58A959E55C122968E55A700543
:103DFE00755B018046E55B6002800AE55C640160EC
:103E0E0009E55C6005755B028031E556D39401408F
:103E1E002A755D01E55DC3955650207B007A0079C9
:103E2E005C7FFF12462CAB57AA58A959855D827547
:103E3E008300E55C12297A055D80D9E55B700CFB89
:0D3E4E007A00795C7FFF12462C8F5BAF5B22
:013E5B002244
:084479007F01FB7A007971FE5E
:0A4481008E768F778B788A79897A1E
:10448B00E4F57BF57CF57EF57FC3E57F9577E57EDF
:10449B00957650267B007A00797D7FFF12462CABF8
:1044AB0078AA79A97A857F82857E83E57D12297A20
:0C44BB00057FE57F70D3057E80CFAF7CCD
:0144C70022D2
:084376007F01FB7A00790BFEC8
:0A437E008E538F548B558A568957D1
:10438800E47815F608F67818F608F6C37819E6956D
:104398005418E69553502C7B007A0079177FFF124A
:1043A800462C7817E6FFAB55AA56A95708E6FC082D
:1043B800E6F5828C83EF12297A781906E61870CB15
:0743C8000680C87816E6FF2D
:0143CF0022CB
:0E4170008F6C8E6B8D6A8C698B6D8A6E896F79
:10417E00C294E4F5708F7A8E798D788C777F1112D8
:10418E003E5C0570EF7003124479E5716004E570D2
:10419E0070F0E57070027F01E4F5700570EF70034A
:1041AE00124479E57164FE6007E5706003EF60EB21
:1041BE00E57070027F01E57154F070027F08EF70B8
:1041CE000CAB6DAA6EA96FFF7E02124481EF7005D3
:0741DE007F0312447BD29421
:0141E50022B7
:0E3D19008F388E378D368C358B398A3A893B40
:103D2700C294E4780AF6853857853756853655851F
:103D370035547F11123C727809A607780A0618E6EF
:103D470070071243767809A607780BE6600418E631
:103D570070E9780AE67003187601E4780AF6780ABB
:103D67000618E670071243767809A607780BE6FF70
:103D770064FE600818E6600418E660E2780AE670F8
:103D870003187601EF54F07004780976087809E68D
:103D97007010AB39AA3AA93BFF7E0212437E78091D
:103DA700A6077809E670097F031243787809A60702
:063DB700D2947809E6FF3A
:013DBD0022E3
:0E3EF1008F498E488D478C468B4A8A4B894CF0
:103EFF00C294E4F54D8F578E568D558C547F111209
:103F0F003C72054DEF700BFB7A00794E7F01FE126C
:103F1F00437EE54E6004E54D70E8E54D70027F018C
:103F2F00E4F54D054DEF700BFB7A00794E7F01FEE6
:103F3F0012437EE54E64FE6007E54D6003EF60E3DC
:103F4F00E54D70027F01E54E54F070027F08EF706F
:103F5F000CAB4AAA4BA94CFF7E0212437EEF700BAB
:0D3F6F00FB7A00794E7F03FE12437ED29450
:013F7C002222
:10424F00E4F546AB07AA06A905A804FF7EA07D8C5E
:10425F00FC122A8EEFD39402500575C3708045EF80
:10426F00D39404500575C371803AEFD39408500569
:10427F0075C372802FEFD39410500575C3738024CC
:10428F00EFD39420500575C3F08019EFD3944050AD
:10429F000575C3F1800EEFD39480500575C3F2807E
:0642AF0003754604AF4652
:0142B50022E6
:10462C00E4FE8FC5AFC40EEF20E703EE70F6EE602C
:10463C000BE5C5122968EF5470FE80027E01AF06AF
:01464C00224B
:10464D00E4FE8FC5AFC40EEF20E703EE70F6EE600B
:10465D000BE5C5122968EF5470FE80027E01AF068E
:01466D00222A
:10468F00759AE285878753877F759850E4F59B75F8
:0C469F009AE2759B1ED299C2ACFEFF226D
:1031E200252D333573004D42525F52656C53656332
:1031F200202000256C7500252D323073004250428C
:103202005F4279746573506572536563002575007A
:103212004250425F536563506572436C757300257B
:103222006275004250425F52737664536563436E27
:1032320074004250425F4E756D46415473004250D5
:10324200425F526F6F74456E74436E740042504217
:103252005F546F745365633136004250425F46419A
:1032620054537A3136004250425F48696464656E55
:10327200536563004250425F546F74536563333247
:10328200004250425F464154537A33320042504228
:103292005F526F6F745F436C7500526F6F74446955
:1032A20072536563004641542073697A6533320074
:1032B2006572726F722077726F6E672066617474C6
:1032C2007970652000546F745365633332006E75F4
:1032D2006D6F66464154536563746F727300446147
:1032E200746153656300636F756E746F66436C75CA
:1032F20073746572730046697273744461746153C6
:103302006563004669727374526F6F7444697253D5
:103312006563004641542073697A65203132004664
:1033220041542073697A6520313600464154207336
:10333200697A652033320066697273745F736563FC
:10334200746F720025382E386C5800636C75737474
:1033520065725F6E756D0025382E386258006E6595
:1033620078745F736563746F7200436F6E74696E15
:1033720075653F202820793D202731272C206E3D7E
:10338200202732272029002535642E20005B44495E
:04339200525D0A007E
:083F7D00AA46A9477B017E0062
:103F85008E698F6A8B6B8A6C896DC3E56994025063
:013F950063C8
:103F9600E4F571F570F56FF56EF573AB6BE56D25B0
:103FA6006AF9E56C3569FAC374039573FFE4940006
:103FB600FEE92FF9EA3EFA122922F572AF71AE70C8
:103FC600AD6FAC6E7808122B448F718E708D6F8C2E
:103FD6006EE5714572F571E570F570E56FF56FE5A3
:103FE6006EF56E0573E573B404B1AF71AE70AD6F67
:033FF600AC6E228C
:073FF900E47F0CFEFDFC2239
:10407D008E358F368B378A388939C3E535940250A2
:01408D0063CF
:10408E00E4F53DF53CF53BF53AF53FAB37E5392523
:10409E0036F9E5383535FAC37403953FFFE49400DD
:1040AE00FEE92FF9EA3EFA122922F53EAF3DAE3C6B
:1040BE00AD3BAC3A7808122B448F3D8E3C8D3B8C39
:1040CE003AE53D453EF53DE53CF53CE53BF53BE54A
:1040DE003AF53A053FE53FB404B1AF3DAE3CAD3BDA
:0340EE00AC3A22C7
:0740F100E47F0CFEFDFC2240
:0843D000AA46A9477B017E000B
:0A43D8008E5F8F608B618A6289633B
:1043E200E4F564F565C3E55F94025036E4FDAB6124
:1043F200E5632560F9E562355FFAEDFFC374019F5D
:10440200FFE49400FEE92FF9EA3EFA122922FCE5C4
:1044120065756500F564EC42650DBD02D1AE64AF11
:0644220065227E007F0C04
:014428002271
:0F466E00E55B240BFFE4355AFEAB61AA62A9633A
:10467D00C3EE940250098F828E8312293BFF227F55
:01468D000C20
:01468E002209
:040FFE008E468F4745
:10100200E4F548AA06A9077B01FFFEFDFC12417028
:10101200AA46A9477B017D007C02124317AA46A972
:10102200477B01E4FFFE12467DEF64EB605DAA465A
:10103200A947E4FF12467DEF64E9604FAA46A9473B
:101042007FC60E123F857880122B707880122B5744
:101052008F4E8E4D8D4C8C4B756FFF757031757147
:10106200E87BFF7A3179E21222DA7BFF7A3179F575
:10107200854E72854D71854C70854B6F1222DA7FD9
:101082000A1200037F0D120003800375480AE54827
:101092006003021720AF4EAE4DAD4CAC4BAA46A931
:1010A200477B01124170AA46A9477B017D007C0261
:1010B200124317756FFF7570317571FF7BFF7A31BF
:1010C20079F91222DA7F0B1243D07884A60608A699
:1010D200077BFF7A32790F18E6F56F08E6F5701292
:1010E20022DA7F0A1200037F0D120003756FFF756B
:1010F20070327571127BFF7A3179F91222DAAA46BF
:10110200A9477B017F0D7E0012467D7886A6077B6C
:10111200FF7A327921E6F56F1222DA7F0A12000392
:101122007F0D120003756FFF7570327571257BFF9D
:101132007A3179F91222DA7F0E1243D07887A60625
:1011420008A6077BFF7A32790F18E6F56F08E6F5F5
:10115200701222DA7F0A1200037F0D120003756FEC
:10116200FF7570327571347BFF7A3179F91222DAA8
:10117200AA46A9477B017F107E0012467D7894A67D
:10118200077BFF7A327921E6F56F1222DA7F0A12A3
:1011920000037F0D120003756FFF75703275714089
:1011A2007BFF7A3179F91222DAAA46A9477B017FBD
:1011B200117E001243D87892A60608A6077BFF7A12
:1011C20032790F18E6F56F08E6F5701222DA7F0A17
:1011D2001200037F0D120003756FFF757032757177
:1011E2004F7BFF7A3179F91222DAAA46A9477B01AD
:1011F2007F137E001243D878AFA60608A6077BFFAE
:101202007A32790F18E6F56F08E6F5701222DA7F66
:101212000A1200037F0D120003756FFF757032759D
:10122200715C7BFF7A3179F91222DAAA46A9477BEF
:10123200017F167E001243D8789DA60608A6077B7A
:10124200FF7A32790F18E6F56F08E6F5701222DAA6
:101252007F0A1200037F0D120003756FFF75703253
:101262007571687BFF7A3179F91222DA7F1C123F9D
:101272007D788A122B707BFF7A3179F5788A122B6E
:10128200578F728E718D708C6F1222DA7F0A120064
:10129200037F0D120003756FFF7570327571767BD7
:1012A200FF7A3179F91222DA7F20123F7D78AB1270
:1012B2002B707BFF7A3179F578AB122B578F728EB8
:1012C200718D708C6F1222DA7F0A1200037F0D1269
:1012D2000003756FFF7570327571837BFF7A317908
:1012E200F91222DAAA46A9477B017F247E00123F27
:1012F200857899122B707BFF7A3179F57899122BC8
:10130200578F728E718D708C6F1222DA7F0A1200E3
:10131200037F0D120003756FFF75703275718F7B3D
:10132200FF7A3179F91222DAAA46A9477B017F2C8A
:101332007E00123F85789F122B707BFF7A3179F500
:10134200789F122B578F728E718D708C6F1222DAEA
:101352007F0A1200037F0D120003756FFF75703252
:1013620075719C7BFF7A3179F91222DA7892E6FE66
:1013720008E67805C333CE33CED8F9FF7884E6FC8D
:1013820008E6FD24FFFBEC34FFCB2FFFEB3EFE1201
:1013920029AEE4FCFD78A3122B707BFF7A3179F53C
:1013A20078A3122B578F728E718D708C6F1222DA86
:1013B2007F0A1200037F0D120003789EE618467022
:1013C200337899122B578F528E518D508C4F756FE7
:1013D200FF7570327571A77BFF7A3179F91222DAC3
:1013E2007BFF7A3179F5855272855171855070850E
:1013F2004F6F8022789DE6FE08E6FFE48F528E5101
:10140200F550F54F75480B756FFF7570327571B2F7
:101412007BFF7A3179F51222DA7F0A1200037F0DFF
:1014220012000378B0E61846704078AB122B578F43
:10143200568E558D548C53756FFF7570327571C70A
:101442007BFF7A3179F91222DA7BFF7A3179F585DD
:10145200567285557185547085536F1222DA7F0A50
:101462001200037F0D120003801378AFE6FE08E638
:10147200FFE48F568E55F554F55375480B7894E674
:10148200FFE4FCFDFEAB52AA51A950A84F122A0359
:101492008E498F4A756FFF7570327571D07BFF7AF6
:1014A2003179F91222DA7BFF7A3179F585496F8534
:1014B2004A701222DA7F0A1200037F0D12000378AB
:1014C20094E6FFE4FCFDFEAB52AA51A950A84F12CC
:1014D2002A03C004A905AA06AB077887E6FE08E638
:1014E200FFE4FCFDD000EB2FFFEA3EFEED39FDEC00
:1014F20038FC78A3122B63EF2BFBEE3AFAED39F9A5
:10150200EC38F8C3E5569BF55EE5559AF55DE55472
:1015120099F55CE55398F55B756FFF7570327571DF
:10152200E07BFF7A3179F91222DA7BFF7A3179F5A1
:10153200855E72855D71855C70855B6F1222DA7FD4
:101542000A1200037F0D1200037886E6FBE4FAF923
:10155200F8AF5EAE5DAD5CAC5B122A8E8F5A8E59CF
:101562008D588C57756FFF7570327571E87BFF7AF5
:101572003179F91222DA7BFF7A3179F5855A72854F
:10158200597185587085576F1222DA7F0A1200034B
:101592007F0D1200037894E6FFE4FCFDFEAB52AA35
:1015A20051A950A84F122A03C004A905AA06AB07E5
:1015B2007887E6FE08E6FFE4FCFDD000EB2FFFEAA9
:1015C2003EFEED39FDEC38FC78A3122B63EF2BFFC6
:1015D200EE3AFEED39FDEC38FC7880122B63EF2BEE
:1015E200FFEE3AFEED39FDEC38FC788E122B707569
:1015F2006FFF7570327571F87BFF7A3179F91222BB
:10160200DA7BFF7A3179F5788E122B578F728E71D1
:101612008D708C6F1222DA7F0A1200037F0D120086
:1016220003789F122B57EF24FEFFEE34FFFEED34BA
:10163200FFFDEC34FFFCC004A905AA06AB077886BF
:10164200E6FFE4FCFDFED000122A03788E122B6323
:10165200EF2BFFEE3AFEED39FDEC38FC78A7122BAA
:1016620070756FFF7570337571057BFF7A3179F98B
:101672001222DA7BFF7A3179F578A7122B578F7213
:101682008E718D708C6F1222DA7F0A1200037F0D29
:10169200120003E47FF57E0FFDFCAB5AAA59A9584C
:1016A200A857C3122B20501D7889760C75480B76EB
:1016B2000275480B756FFF7570337571157BFF7A74
:1016C2003179F9804CE47FF57EFFFDFCAB5AAA59D3
:1016D200A958A857C3122B2078895024760275483E
:1016E2000B756FFF7570337571217BFF7A3179F954
:1016F2001222DA7BFF7A3179F57889E6F56F80116B
:101702007604756FFF75703375712D7BFF7A3179B1
:10171200F91222DA7F0A1200037F0D120003AF488A
:0117220022A4
:08350E008F528E518D508C4F3D
:083516008F5A8E598D588C5715
:10351E00E4FFFEFDFCAB5AAA59A958A857C3122BBB
:10352E0020700578A7022B57E55A24FEFFE5593483
:10353E00FFFEE55834FFFDE55734FFFCC004A90536
:10354E00AA06AB077886E6FFE4FCFDFED000122A41
:10355E0003788E122B63EF2BF55EEE3AF55DED39A7
:10356E00F55CEC38F55B756FFF7570337571397BF3
:10357E00FF7A3179F91222DA7BFF7A337946855E4A
:10358E0072855D71855C70855B6F1222DA7F0A121F
:10359E0000037F0D120003756FFF75703375714D4B
:1035AE007BFF7A3179F91222DA7BFF7A33794685FD
:1035BE005A7285597185587085576F1222DA7F0AB3
:1035CE001200037F0D120003756FFF757032757157
:1035DE00127BFF7A3179F91222DA7BFF7A3379592D
:1035EE007886E6F56F1222DA7F0A1200037F0D123B
:1035FE000003756FFF7570327571F87BFF7A317944
:10360E00F91222DA7BFF7A337946788E122B578F96
:10361E00728E718D708C6F1222DA7F0A1200037F08
:0C362E000D120003AF5EAE5DAD5CAC5B46
:01363A00226D
:08363B008F268E258D248C23BF
:10364300E4FFFEFDFCAB26AA25A924A823C3122B65
:1036530020700578A7022B57E52624FEFFE52534C5
:10366300FFFEE52434FFFDE52334FFFCC004A90578
:10367300AA06AB077886E6FFE4FCFDFED000122A1B
:1036830003788E122B63EF2BF52AEE3AF529ED39E9
:10369300F528EC38F527756FFF7570337571397B35
:1036A300FF7A3179F91222DA7BFF7A337946852A58
:1036B3007285297185287085276F1222DA7F0A1295
:1036C30000037F0D120003756FFF75703375714D25
:1036D3007BFF7A3179F91222DA7BFF7A33794685D7
:1036E300267285257185247085236F1222DA7F0A5D
:1036F3001200037F0D120003756FFF757032757131
:10370300127BFF7A3179F91222DA7BFF7A33795906
:103713007886E6F56F1222DA7F0A1200037F0D1214
:103723000003756FFF7570327571F87BFF7A31791D
:10373300F91222DA7BFF7A337946788E122B578F70
:10374300728E718D708C6F1222DA7F0A1200037FE2
:0C3753000D120003AF2AAE29AD28AC27F0
:01375F002247
:083AEC008F5A8E598D588C573A
:103AF4007887E6FE08E6FFE4FCFD7880122B63EF8E
:103B04002BFFEE3AFEED39FDEC38FC7895122B7064
:103B1400E47F04FEFDFCAB5AAA59A958A857122AFF
:103B2400038F608E5F8D5E8C5D7884E6FE08E6FB15
:103B3400AA06E4F9F8AF60AE5F122A8E7895122BCC
:103B440063EF2BF568EE3AF567ED39F566EC38F579
:103B540065C29485687A856779856678F5777F117B
:103B6400123E5CAA5BA95C7B017F007E027D007C27
:103B740000124170D2947884E6FE08E6FBAA06E4BB
:103B8400F9F8AF60AE5FAD5EAC5D122A8EAC00ADED
:103B940001AE02AF038F648E638D628C61AA5BA950
:0A3BA4005C7B01123F85EC540FFC1E
:013BAE0022F4
:083BAF008F268E258D248C2346
:103BB7007887E6FE08E6FFE4FCFD7880122B63EFCA
:103BC7002BFFEE3AFEED39FDEC38FC7895122B70A1
:103BD700E47F04FEFDFCAB26AA25A924A823122A0C
:103BE700038F2C8E2B8D2A8C297884E6FE08E6FB22
:103BF700AA06E4F9F8AF2CAE2B122A8E7895122B71
:103C070063EF2BF534EE3AF533ED39F532EC38F551
:103C170031C294853457853356853255F5547F1113
:103C2700123C72AA27A9287B017F007E027D007CB7
:103C370000123D19D2947884E6FE08E6FBAA06E452
:103C4700F9F8AF2CAE2BAD2AAC29122A8EAC00ADF9
:103C570001AE02AF038F308E2F8D2E8C2DAA27A990
:0A3C6700287B0112407DEC540FFC95
:013C71002230
:083859008F498E488D478C4613
:10386100E4F54D12350E8F568E558D548C53756F70
:10387100FF7570337571607BFF7A3179F91222DA45
:103881007BFF7A33794685567285557185547085EB
:10389100536F1222DA7F0A1200037F0D120003AF69
:1038A10056AE55AD54AC53AA4AA94B7B0112417097
:1038B1008F4CE54C6003023945805FE54E64016041
:1038C10003023945E54C707C054DE54DD37886966C
:1038D100401FE4F54DAF52AE51AD50AC4F854A5B40
:1038E100854B5C123AEC12350E8F568E558D548CE9
:1038F10053AF4D7E007884E6FC08E6FD12299CEF6B
:103901002556FFEE3555FEE43554FDE43553FCAA4A
:103911004AA94B7B011241708F4CAA4AA94B7B01EA
:103921007884E6FC08E6FD124317756FFF75703366
:1039310075716C7BFF7A3179E21222DA123A268FA5
:063941004E0238BCAF4C41
:01394700225D
:082E47008F498E488D478C462F
:102E4F00755D01854A5E854B5FE4F556F557F55480
:102E5F00F555788E122B57AB49AA48A947A846C3F8
:102E6F00122B20500F78A3122B578F538E528D5148
:102E7F008C50800D7886E6FFE48F53F552F551F5AF
:102E8F005085494F85484E85474D85464CAF4FAECF
:102E9F004EAD4DAC4CAB5DAA5EA95F1241708F5C1D
:102EAF00E55C600302301AAB5DAA5EA95FAF55AE59
:102EBF005412467D8F58E55864E57003022F98E54C
:102ECF00587003022F98E555240BFFE43554FEABE1
:102EDF005DAA5EA95F12467D8F5AD2A5E55A540EA0
:102EEF006003022F980557E557700205567BFF7A4E
:102EFF0033798985566FF5701222DAE4F5597E0021
:102F0F00E5552559FFEE3554FEAB5DAA5EA95F125C
:102F1F00467D8F5B1200030559E559C3940840DEC7
:102F2F00E55A30E4307559087E00E5552559FFEE16
:102F3F003554FEAB5DAA5EA95F12467D8F5B120012
:102F4F00030559E559C3940B40DE7BFF7A33798F24
:102F5F001222DA80347F2E1200037559087E00E5A5
:102F6F00552559FFEE3554FEAB5DAA5EA95F12469B
:102F7F007D8F5B1200030559E559C3940B40DE7F2B
:102F8F000D1200037F0A12000374202555F555E436
:102F9F003554F554D3E55594FEE55494014063E55B
:102FAF004F2401F54FE4354EF54EE4354DF54DE424
:102FBF00354CF54CC3E54F9549FFE54E9548FEE579
:102FCF004D9547FDE54C9546FCAB53AA52A951A828
:102FDF0050D3122B204025AF4FAE4EAD4DAC4CAB66
:102FEF005DAA5EA95F1241708F5CE55C6007E4F536
:102FFF0056F557F558E4F554F5558006435680E4D9
:10300F00F558E5586003022EB68005E4F556F557DE
:04301F00AE56AF57A3
:01302300228A
:082C13008F498E488D478C4665
:102C1B00756101854C62854D63E4F55CF55DF55A94
:102C2B00F55BF559F558F557F556788E122B57ABD2
:102C3B0049AA48A947A846C3122B20500F78A312C4
:102C4B002B578F558E548D538C52800D7886E6FF03
:102C5B00E48F55F554F553F5528549518548508508
:102C6B00474F85464EAF51AE50AD4FAC4EAB61AA00
:102C7B0062A9631241708F60E5606003022E18AB8E
:102C8B0061AA62A963AF5BAE5A12467D8F5EE55EA9
:102C9B0064E57003022D94E55E7003022D941246D9
:102CAB006E8F5FE55F540E6003022D94055DE55D4D
:102CBB007002055C654B7004E55C654A6003022D90
:102CCB00947889E66404705EE55B2415124672E421
:102CDB008F59F558F557F556E559540FF559E4F555
:102CEB0058F557F556AF59AE58AD57AC5678081244
:102CFB002B448F598E588D578C56E55B24141246F6
:102D0B0072E5594FF559E558F558E557F557E5561E
:102D1B00F556AF59AE58AD57FC7808122B448F5966
:102D2B008E588D578C56E55B241B124672E5594F16
:102D3B00F559E558F558E557F557E556F556AF599A
:102D4B00AE58AD57FC7808122B448F598E588D57BF
:102D5B008C56E55B241A124672E5594FF559E55826
:102D6B00F558E557F557E556F55612466E8F5FE564
:102D7B005F30E412E559F559E558F558E557F55725
:102D8B00E5564410F556E4F55E7420255BF55BE4DF
:102D9B00355AF55AD3E55B94FEE55A94014065E547
:102DAB00512401F551E43550F550E4354FF54FE41E
:102DBB00354EF54EC3E5519549FFE5509548FEE577
:102DCB004F9547FDE54E9546FCAB55AA54A953A824
:102DDB0052D3122B20402AAF51AE50AD4FAC4EAB5D
:102DEB0061AA62A9631241708F60E560600CE4F523
:102DFB0059F558F557755680F55EE4F55AF55B8035
:102E0B0003E4F55EE55E6003022C8A800AE4F55963
:102E1B00F558F557755680E4FFFEFDFCAB59AA58E3
:102E2B00A957A856C3122B207009F559F558F55719
:0B2E3B00755680AF59AE58AD57AC562D
:012E46002269
:0A3024008F518D528B538A54895549
:10302E00E4F55A309203209303755A0F1246C7E502
:10303E005125E054FEF559D293C292755607E556C6
:10304E00C394085057E55A70537F041246B1C29389
:10305E0074017E00A856088005C333CE33CED8F94E
:10306E00FFE4FEEF5559A856088006CEA2E713CE10
:10307E0013D8F8FF139292EF5401F55B7F041246BA
:10308E00B1D293755801209308E558600405588015
:10309E00F5E5587003755A0E155680A2E55A700A5A
:1030AE00A29233655B6003755A0FE55A701F7F0459
:1030BE001246B11246ABD293755801209308E558CB
:1030CE006004055880F5E5587003755A0EE55A7080
:1030DE0006309203755A10E4F557E557D3955240D2
:1030EE00030231A7E55A60030231A7755607E5566C
:1030FE00C3940850727F041246B1C293AB53AA54C4
:10310E00A95585578275830012293BFD74017E00F7
:10311E00A856088005C333CE33CED8F9FFEDFBE4B5
:10312E00FEEF5BA856088006CEA2E713CE13D8F8A2
:10313E00FF139292EF5401F55B7F041246B1D293C6
:10314E00755801209308E5586004055880F5E55838
:10315E007003755A0EE55A700AA29233655B6003CE
:10316E00755A0F15568087E55A701F7F041246B1A7
:10317E001246ABD293755801209308E558600405AA
:10318E005880F5E5587003755A0EE55A7006309260
:10319E0003755A1005570230E87F041246B1C293E8
:1031AE00C292E4F55B7F071246B1D29375580120A7
:1031BE009308E5586004055880F5E5587003755A74
:1031CE000EE55A700AA29233655B6003755A0FD2F0
:0331DE0092AF5A53
:0131E10022CB
:0A1F13008F518D528B538A5489556B
:101F1D00E4F55A309203209303755A0F1246C7E524
:101F2D005125E054FEF559D293C292755607E556E8
:101F3D00C394085065E55A70617F041246B1C2938F
:101F4D0074017E00A856088005C333CE33CED8F970
:101F5D00FFE4FEEF5559A856088006CEA2E713CE32
:101F6D0013D8F8FF139292EF5401F55B7F041246DC
:101F7D00B1D293755801209308E558600405588037
:101F8D00F5E5587003755A0EE55A700AA29233653D
:101F9D005B6003755A0F15568094E55A701F7F04C8
:101FAD001246B11246ABD293755801209308E558ED
:101FBD006004055880F5E5587003755A0EE55A70A2
:101FCD0006309203755A10E4F557E55A6003022066
:101FDD0099755607E556C3940850787F041246B19B
:101FED00C293AB53AA54A955855782758300122904
:101FFD003BFD74017E00A856088005C333CE33CE59
:10200D00D8F9FFEDFBE4FEEF5BA856088006CEA2E3
:10201D00E713CE13D8F8FF139292EF5401F55B7FBF
:10202D00041246B1D293755801209308E558600407
:10203D00055880F5E5587003755A0EE55A7010A2D3
:10204D009233F558A292E433655B6003755A0F1510
:10205D00568081E55A701F7F041246B11246ABD2ED
:10206D0093755801209308E5586004055880F5E5EF
:10207D00587003755A0EE55A7006309203755A1052
:10208D000557E557D394005003021FD77F0412461E
:10209D00B1C293C292E4F55B7F071246B1D293753C
:1020AD005801209308E5586004055880F5E55870EF
:1020BD0003755A0EE55A700AA29233655B6003757B
:1020CD005A0FD292309203209303755A0F1246C7BE
:1020DD00E55125E04401F559D293C292755607E5B5
:1020ED0056C394085065E55A70617F041246B1C21B
:1020FD009374017E00A856088005C333CE33CED825
:10210D00F9FFE4FEEF5559A856088006CEA2E71355
:10211D00CE13D8F8FF139292EF5401F55B7F0412A2
:10212D0046B1D293755801209308E55860040558BF
:10213D0080F5E5587003755A0EE55A700AA2923370
:10214D00655B6003755A0F15568094E55A701F7FB5
:10215D00041246B11246ABD293755801209308E58F
:10216D00586004055880F5E5587003755A0EE55A08
:10217D007006309203755A10E4F557E557C3955222
:10218D00400302223DE55A600302223DAB53E55563
:10219D002557F9E43554FA122922E41229687556A7
:1021AD0007E556C3940850507F041246B1C2937F81
:1021BD00041246B1D293755801209308E558600476
:1021CD00055880F5E5587003755A0EE55A7025A22D
:1021DD009233F55BAB53E5552557F9E43554FA12B7
:1021ED002922FFAE56E55BA806088002C333D8FC52
:1021FD004F122968155680A9E55A702F7F04124693
:10220D00B1C293E55214B55704D2928002C2927FA7
:10221D00041246B1D293755801209308E558600415
:10222D00055880F5E5587003755A0E05570221883B
:10223D007F041246B1C293C292E4F55B7F0712464A
:10224D00B1D293755801209308E558600405588064
:10225D00F5E5587003755A0EE55A700AA29233656A
:0A226D005B6003755A0FD292AF5A5E
:012277002244
:0646AB00C293D2927F04CD
:1046B100308E03308FFDC28EBF040A758DFF758B5E
:0646C100EFC28FD28E2231
:1046C70053890F438910C2AB758DFF758BEFC28F6E
:0346D700D28E225E
:1041E600252D31307300636F206572726F72312036
:1041F6000025342E346C5800636F206572726F721E
:10420600200073656E6431200025322E326258001C
:1042160067657431200073656E64322000676574CB
:10422600322000746573745F6572726F722000527B
:10423600656365697665642056616C7565203D2009
:0942460025322E3262580A0D00E7
:1025D400D2B27546FF75470075482EE4F550F54FA5
:1025E400F54EF54DAB46AA47A948855082854F83E1
:1025F40012293BF549E5502401F550E4354FF54FD8
:10260400E4354EF54EE4354DF54D855082854F83C6
:1026140012293BF54AE5502401F550E4354FF54FB6
:10262400E4354EF54EE4354DF54DE549F460117B46
:10263400007A0079497D017F431230248F4CC2A770
:10264400E549F46004E54C609BE54C6012756FFF4E
:102654007570417571EC7BFF7A4179E61222DA7B61
:10266400FF7A4179F7855072854F71854E70854D9B
:102674006F1222DA7F0A1200037F0D1200037546DF
:10268400FF75470F7548CCE4F550F54FF54EF54D01
:10269400AB46AA47A948855082854F8312293BF54A
:1026A40049E5502401F550E4354FF54FE4354EF536
:1026B4004EE4354DF54D855082854F8312293BF507
:1026C4004AE5502401F550E4354FF54FE4354EF515
:1026D4004EE4354DF54DE549F460117B007A0079FF
:1026E400497D017F431230248F4CC2A7E549F46031
:1026F40004E54C609BE54C6012756FFF7570417585
:1027040071FE7BFF7A4179E61222DA7BFF7A417906
:10271400F7855072854F71854E70854D6F1222DAA0
:102724007F0A1200037F0D120003C2B2D2B27549B0
:1027340054754A0785494B7B007A0079497D017FAE
:10274400431230247B007A00794B7D017F43121FB2
:10275400138F4C756FFF7570427571087BFF7A415A
:1027640079E61222DA7BFF7A42790F854A6F1222C8
:10277400DA756FFF7570427571167BFF7A4179E6E1
:102784001222DA7BFF7A42790F854B6F1222DA7FAD
:102794000A1200037F0D120003754955754A10850E
:1027A400494B7B007A0079497D017F431230247BB9
:1027B400007A00794B7D017F43121F13756FFF75FB
:1027C400704275711C7BFF7A4179E61222DA7BFF35
:1027D4007A42790F854A6F1222DA756FFF7570425B
:1027E4007571237BFF7A4179E61222DA7BFF7A4204
:1027F400790F854B6F1222DA7F0A1200037F0D12C4
:102804000003754906754A097B007A0079497D0100
:102814007F4312302475490B754A027B007A007994
:10282400497D017F43123024754961754A057B0057
:102834007A0079497D017F43123024754950754AE5
:10284400067B007A0079497D017F43123024754963
:1028540065E4F54AFB7A0079497D017F431230240F
:10286400754952754AB87B007A0079497D017F43E6
:10287400123024754964E4F54AFB7A0079497D01F4
:102884007F43123024754951E4F54AFB7A007949B3
:102894007D017F43123024754905754AA17B007A76
:1028A4000079497D017F43123024754903E4F54AD8
:1028B400FB7A0079497D017F4312302475491875EC
:1028C4004A047B007A0079497D017F4312302475E4
:1028D400490C754A057B007A0079497D017F4312D2
:1028E4003024754946754A087B007A0079497D0190
:1028F4007F43123024754948754A087B007A007971
:10290400497D017F43123024754972754A017B0069
:0D2914007A0079497D017F43123024AF4CD9
:012921002293
:0642B6008B468A4789488F
:1042BC00E4F54AF549C2B3F549AB46AA47A9487D8E
:1042CC00017F43121F138F4A1549E54A6004E549E3
:1042DC0070E7E54A601C756FFF7570427571297B3C
:1042EC00FF7A4179E61222DA7F0A1200037F0D125F
:1042FC000003AB46AA47A948122922F56F7BFF7A27
:0A430C004279351222DAD2B3AF4A2B
:014316002284
:10002E003A012A0428002900200021002200230082
:10003E00240025002600270028012802218F2803EE
:10004E002100280428052806280728082809280A38
:10005E00280B280C20802190280D20002100280E2E
:10006E0020812191280F2000219228102100281193
:10007E0021932812210028132814281520822816CF
:10008E0020002817281828192194281A2195281B92
:10009E002196281C2100281D2083281E2000281FA1
:1000AE0021972820210028212822282328242825AA
:1000BE002826282728282829282A2084282B20008B
:1000CE00282C282D282E282F28302831283220851C
:1000DE002833200028342835283628372198283808
:1000EE0021002839283A283B283C283D283E283F25
:1000FE002840284128422843284428452846284796
:10010E0028482849284A284B284C284D284E284F45
:10011E0028502851285228532854285528562857F5
:10012E0028582859285A285B285C285D285E285FA5
:10013E002860286128622199286321002864286597
:10014E002866286728682869286A286B286C286D15
:10015E00286E286F287028712872287328742875C5
:10016E002876287728782879287A287B287C287D75
:10017E00287E287F28802881288228832884288525
:10018E002886288728882889288A288B288C288DD5
:10019E00288E288F289028912086289220872893B1
:1001AE002000289428952896289728982899289AE8
:1001BE00289B289C289D289E289F219A28A02100B4
:1001CE0028A128A228A328A428A528A628A728A8BD
:1001DE0028A928AA28AB28AC28AD28AE28AF28B06D
:1001EE0028B128B228B328B428B528B628B728B81D
:1001FE0028B9208828BA200028BB208928BC2000D6
:10020E0028BD28BE28BF28C028C128C228C3219BCC
:10021E0028C4210028C528C628C728C828C928CA26
:10022E0028CB28CC28CD28CE28CF28D028D128D20C
:10023E0028D328D428D528D628D728D828D928DABC
:10024E0028DB28DC28DD28DE28DF28E028E1208ACC
:10025E0028E2208B28E3200028E428E528E628E77A
:10026E0028E828E928EA28EB28EC28ED28EE28EFE4
:10027E0028F028F128F228F328F428F528F628F794
:10028E0028F8208C28F92000219C28FA219D28FB93
:10029E00208D219E28FC208E219F28FD20002100EC
:1002AE0028FE28FF2A0128002201239524892507EC
:1002BE0026A42707280121C72200238026C4270C45
:1002CE0028022009211C220426AA270A280320001E
:1002DE002100220023A626A0270728042805200592
:1002EE00238426B427092806200022032300248114
:1002FE0025C026AB270A280721AE22002395248984
:10030E00250726A42700280821482201238026C479
:10031E00270C280920092104220426AA270A280AC4
:10032E0020002100220023A826A42707280B280C32
:10033E0021402220238026C4270C280D222426C6E5
:10034E00280E219E220026C8280F200921022214E1
:10035E0026AA270A2810200521002200238426B46D
:10036E0027092811200021012300240125C026ABD6
:10037E00270A281221C32395248925072620270022
:10038E002813200321C223832626270D281421B3E8
:0D039E0022082815200021C62200239526E4
:1003AB000027082816210023002496250326AA27B8
:1003BB000A2817204221B6238024892507281820D4
:1003CB000021002394260E2819200F238426B427FE
:1003DB0009281A2000239326A82703281B26282741
:1003EB0000281C21012300240125C026AB270A2845
:1003FB001D21C523952489250726202700281E218A
:10040B000023942600270A281F260E2820200321CC
:10041B0079220123832626270D2821213228222009
:10042B0000210422002380240025FC26AA270A2869
:10043B0023210023002500282421A3220D2380241F
:10044B009E253B2825204221572201248925072858
:10045B002620002143220D2400253828272108229D
:10046B009823952489250726242700282820422114
:10047B00932201238026AA270A28292003217E22E2
:10048B000423832626270D282A200021B0220023AF
:10049B009526A02707282B21002300240C250426B2
:1004AB00AA270A282C21022380248625C326AB28C1
:1004BB002D2042219722012489250726AA282E20A8
:1004CB000021002200241F2504282F21B22395246C
:1004DB008925072620270428302042218B2204233C
:1004EB008026AA270A2831200021B1220023952635
:1004FB00A0270728322003217522042383262627D1
:10050B000D2833200521002200238426B427092837
:10051B0034200021602300240125C026AB270A28A4
:10052B00352108229823952489250726242700287E
:10053B003621BC2200283721A3220D2300240125BC
:10054B00C026AB270A2838216022002380240025EF
:10055B003826AA283921062298239524892507268F
:10056B00242700283A21BE2200283B200521002306
:10057B008426B42709283C20002160230024012570
:10058B00C026AB270A283D21422201239524892529
:10059B000726242700283E210C229826A42707286B
:1005AB003F21082840216022002300240125C0267A
:1005BB00AB270A2841210C2298239524892507264D
:1005CB002427002842200521002200238426B4275B
:1005DB00092843200023802400251026AB270A2856
:1005EB00442122220123952489250726242700282C
:1005FB00452100220023002404251226AA270A28BD
:10060B0046200321D4220523832489250726262768
:10061B000D28472000216022002300240125C0263D
:10062B00AB270A284821B3239524892507260027C1
:10063B00082849210023002409250026AA270A2877
:10064B004A210223802486253B284B204221DD2290
:10065B000524892507284C200021002200241F2572
:10066B0000284D21B3239524892507262027002810
:10067B004E210023002497250326AA270A284F2062
:10068B004221E222052380248925072850200021BE
:10069B001022002300248025CC26AB2851210022D8
:1006AB004023B42489250726AA2704285222002395
:1006BB00B0269227092853211422012395260027BF
:1006CB00082854214823A4262A2700285521002234
:1006DB000023002409250026AA270A2856210823CF
:1006EB00802486253B285720422111220724892567
:1006FB00072858200021002200241F2500285921FB
:10070B0014220123952489250726202700285A2106
:0D071B001626022709285B2100220023007A
:100728002480254826AA270A285C23A0248925078F
:1007380026142709285D2480255026A42704285E2E
:10074800211622012395248925072700285F2104E3
:1007580022002300249C257826AA270A2860214302
:10076800220D240125C426AB28612103220024156B
:10077800286221002400250026AA2863215E2395EB
:100788002489250726102709286421032300241516
:1007980025C426AB270A28652100238024002506C6
:1007A80026AA2866248F25E326AB2867204221CD78
:1007B80022072489250726AA28682000216022000C
:1007C8002300240125C026AB286921002380248F1B
:1007D800250326AA286A204221DD22072489250725
:1007E800286B20002143220D2300240125C026ABBD
:1007F800286C210022002400250426AA286D200345
:10080800217F22012383248925072626270D286E88
:100818002162286F200521002200238426B427099D
:100828002870200021062395260027082871210119
:1008380023002497253B26AA270A28722042210E46
:10084800220823802489250728732003213C220BB2
:1008580023832626270D28742000210322002395B0
:1008680026022708287521272300248125C426ABC2
:10087800270A2876210023802409254826AA2877D4
:100888002158223423A324892507262A27002878DB
:100898002100220023A02600270928792107238088
:1008A8002403253926AA270A287A21042300241C90
:1008B8002538287B2107238024832539287C210398
:1008C80023952489250726022708287D2127230028
:1008D800248125C426AB270A287E210023802409E9
:1008E800254826AA287F2158223423A324892507AE
:1008F800262A27002880210622002300248125C0DB
:10090800269327012881210023802489254826AAA7
:10091800270A28822002216622082300240025664F
:1009280028832000210022002380241F25022884F8
:1009380021062489250726DC270C2885210023AADF
:1009480026AA270A288623B6260027082887238070
:100958002486253B26AA270A2888210524892507D5
:1009680026DC270C2889210023AA26AA270A288AF8
:1009780023B626002708288B23802486253B26AA11
:10098800270A288C2042217B220824892507288DC4
:10099800200021002200230024012582288E210521
:1009A800248125C226AB288F200321932208238384
:1009B800248925072626270D2890200021052200B6
:1009C8002300248125C02613270128912100238094
:1009D8002489254826AA270A28922002217E22084F
:1009E800230024002566289320002100220023806C
:1009F800241F2502289421052489250726DC270C95
:100A08002895210023AA26AA270A289623B6260075
:100A18002708289723802486253B26AA270A289872
:100A280021052489250726DC270C2899210023AADB
:100A380026AA270A289A2380241F2502289B2101F9
:100A48002300248125C226AB289C20032193220859
:100A58002383248925072626270D289D2000210485
:100A68002200239526122708289E216023C426AA3F
:100A78002704289F210023C02600270928A02042F8
:100A880021CB2208238026AA270A28A120702154D6
:0D0A980022B823952612270828A22002214B
:100AA500CC2208238026AA270A28A3200321CA22AC
:100AB5000F23832626270D28A420002100220023AA
:100AC50000248C250C26AA270A28A5210424822582
:100AD5007828A62100238024892548261227042862
:100AE500A7200321DE220F238325072626270D288D
:100AF500A82000210122002300249C257826AA276E
:100B05000A28A9210023802481254028AA20032121
:100B1500CF220F2383248925072626270D28AB20DE
:100B250070210822B8239526A0270428AC2003218C
:100B3500D4220F23832626270D28AD2127220B2813
:100B4500AE2070216322B823952612270828AF20EE
:100B550000210122002380248625CB26AB270A28E5
:100B6500B0204221DD22082489250726AA28B120A4
:100B75000021182280239526A4270028B2200321CE
:100B8500D9220F23832626270D28B32070210A2278
:100B9500B8239526A0270028B4200221E0220823A7
:100BA5008026AA270A28B52070210A22B82395266F
:100BB500A0270028B621542602270828B72000219F
:100BC50018228026A4270028B8210022002380248B
:100BD50080254826AA270A28B92070215E22B82335
:100BE50095248925072612270828BA2000210022E6
:100BF5000023802409254B26AA270A28BB2070211B
:100C05005F22B82395248925072610270828BC20AC
:100C150000210022002300241C258326AB270A2857
:100C2500BD2003213222092383248925072626276F
:100C35000D28BE20002100220023002482258C26B9
:100C4500AB270A28BF2003212522092383248925D0
:100C5500072626270D28C0204221BC238026AA2747
:100C65000A28C12000210122002300240125C026D5
:100C7500AB28C22070210F22B82395248925072689
:100C850020270028C3200321E3220F2383262627BC
:100C95000D28C4200521002200238426B427092815
:100CA500C52000210323952614270828C621A6233D
:100CB500A4262A270528C7210023A026442709287A
:100CC500C82118226D2380249E257B26AA270A2861
:100CD500C920422113220B2489250728CA20002177
:100CE500AE220023952624270028CB2100220323AA
:100CF500802487257B26AA270A28CC204221162274
:100D05000B2489250728CD200021AE220023952616
:100D150024270028CE20052100238426B42709286E
:100D2500CF2003210D220B23832626270D28D02033
:100D35000021002200230024802602270028D12339
:100D45008024092548261E28D221582234233324FD
:100D5500802507262A28D321002200230026802764
:100D65001028D421102363262A270028D521002303
:100D75006026A8271228D621AF224C230026C82793
:100D85000C28D7210022002680270528D823802477
:100D950086253B261E270028D92042211C220E230A
:100DA500002480250728DA20002135222926C4279A
:100DB5000C28DB2002211D220E261E270028DC2000
:100DC50000217F223426C4270C28DD2100220023A0
:100DD50090249F25042610270A28DE230024842535
:100DE500002680271028DF21062363248025072677
:100DF5002A270028E021002380248926AA270A28FB
:100E0500E12005238426B4270928E22070216122E8
:0D0E1500B823952612270828E320002101AC
:100E220022002380248625C326AB270A28E42042F9
:100E320021CE220F2489250726AA28E520702150D9
:100E420022B823952612270828E620052100220031
:100E5200238426B4270928E72070216422B8239529
:100E62002612270828E82000210122002380248658
:100E720025C326AB270A28E9204221D3220F248941
:100E8200250726AA28EA2070215122B82395261286
:100E9200270828EB200521002200238426B42709F5
:100EA20028EC2070216522B823952612270828ED08
:100EB2002000210122002380248625C326AB270A95
:100EC20028EE204221D8220F2489250726AA28EFBE
:100ED2002070215222B823952612270828F02005D7
:100EE20021002200238426B4270928F120702161E1
:100EF20022B823952602270828F220002101220089
:100F02002380248625C326AB270A28F3204221DD2D
:100F1200220F2489250726AA28F42070215022B8FE
:100F220023952602270828F5200521002200238484
:100F320026B4270928F6200021012380248625CB08
:100F420026AB270A28F7204221E1220F2489250710
:100F520026AA28F82000210222002300248125C489
:100F620026AB28F9210023802489254826AA28FABD
:100F720020052384250726B4270928FB2070214E4B
:100F820022B823952610270828FC200021002200E1
:100F92002380248625C326AB270A28FD204221E789
:100FA200220F2489250726AA28FE200021BB220021
:100FB20023952620270028FF20052100238426B41C
:100FC20027092A081001FFFFFFFF3A00643A65BBB8
:100FD200083A09BB50105267517705A11804540111
:100FE20055210700060C0B03501051005204610FEB
:0C0FF2006455655505A11804FFFFFFFFC2
:0300000002471C98
:0C471C00787FE4F6D8FD7581D9021B1FE0
:10292200BB010689828A83E0225002E722BBFE02B3
:09293200E32289828A83E49322E6
:10293B00BB010CE58229F582E5833AF583E0225051
:10294B0006E92582F8E622BBFE06E92582F8E2229B
:0D295B00E58229F582E5833AF583E49322B5
:10296800BB010689828A83F0225002F722BBFE014E
:02297800F32248
:10297A00F8BB010DE58229F582E5833AF583E8F093
:10298A00225006E92582C8F622BBFE05E92582C83F
:02299A00F22227
:10299C00EF8DF0A4A8F0CF8CF0A428CE8DF0A42E4F
:0229AC00FE2209
:1029AE00BC000BBE0029EF8DF084FFADF022E4CC0D
:1029BE00F875F008EF2FFFEE33FEEC33FCEE9DECD6
:1029CE00984005FCEE9DFE0FD5F0E9E4CEFD22ED1C
:1029DE00F8F5F0EE8420D21CFEADF075F008EF2F66
:1029EE00FFED33FD4007985006D5F0F222C398FD57
:0529FE000FD5F0EA22F4
:102A0300E88FF0A4CC8BF0A42CFCE98EF0A42CFC72
:102A13008AF0EDA42CFCEA8EF0A4CDA8F08BF0A4F0
:102A23002DCC3825F0FDE98FF0A42CCD35F0FCEB4F
:102A33008EF0A4FEA9F0EB8FF0A4CFC5F02ECD3914
:0F2A4300FEE43CFCEAA42DCE35F0FDE43CFC2281
:102A520075F008758200EF2FFFEE33FECD33CDCC3B
:102A620033CCC58233C5829BED9AEC99E5829840BE
:102A72000CF582EE9BFEED9AFDEC99FC0FD5F0D69B
:102A8200E4CEFBE4CDFAE4CCF9A88222B800C1B9C5
:102A92000059BA002DEC8BF084CFCECDFCE5F0CB03
:102AA200F97818EF2FFFEE33FEED33FDEC33FCEB3C
:102AB20033FB10D703994004EB99FB0FD8E5E4F9F7
:102AC200FA227818EF2FFFEE33FEED33FDEC33FCE4
:102AD200C933C910D7059BE99A4007EC9BFCE99AD8
:102AE200F90FD8E0E4C9FAE4CCFB2275F010EF2F1D
:102AF200FFEE33FEED33FDCC33CCC833C810D7071D
:102B02009BEC9AE899400AED9BFDEC9AFCE899F857
:0E2B12000FD5F0DAE4CDFBE4CCFAE4C8F922EA
:102B2000EB9FF5F0EA9E42F0E99D42F0E89C45F00B
:012B30002282
:102B3100E8600FECC313FCED13FDEE13FEEF13FF82
:032B4100D8F122A6
:102B4400E8600FEFC333FFEE33FEED33FDEC33FCEF
:032B5400D8F12293
:0C2B5700E6FC08E6FD08E6FE08E6FF22AA
:0D2B6300E6FB08E6F908E6FA08E6CBF822E2
:0C2B7000ECF608EDF608EEF608EFF62291
:102B7C00D083D082E493F608740193F60874029320
:092B8C00F608740393F674047357
:102B9500D083D082E4937012740193700DA3A39334
:102BA500F8740193F5828883E4737402936C701250
:102BB5007403936D700C7404936E70067405936FB3
:0A2BC50060DDA3A3A3A3A3A380CAAD
:10000300EFB40A07740D12000E740A309811A89900
:10001300B8130CC2983098FDA899C298B811F6305D
:0700230099FDC299F5992235
:10227800E57B246FF8E6057B22786C301002786FD6
:10228800E475F001122BDD0229222009EB7F2ED202
:10229800098018EF540F2490D43440D4FF300D0B2C
:1022A800EF24BFB41A0050032461FFE57C600215D7
:1022B8007C057FE57F7002057E30100D786CE47533
:1022C800F001122BDDEF0229680200037403D2101B
:1022D8008003E4C210F57B8B6C8A6D896EE4F57C13
:1022E800F57EF57FE57C60077F201222B380F575C7
:1022F8007DFFC20AC209C20BC20CC20EC20FC211B4
:10230800122281FF700D3010057F001222C4AF7FAA
:10231800AE7E22B4255FC2D5C20D122281FF24D021
:10232800B40A00501A75F00A787C30D50508B6FF53
:102338000106C6A426F620D5047002D20C80D92442
:10234800CFB41A00EF5004C2E5D20D0224C4D20A59
:1023580080C6D20980C0D20B80BCD2D580BAD20E3A
:1023680080B47F201222B3200B077401B57C004093
:10237800F1122278FF1222B30222ECD211D20F807E
:1023880095122278FB122278FA122278F94A4B70B9
:102398000679957A257BFF200B2EE57C602A7E0046
:1023A8008E8275830012293B60060EEE657D70F003
:1023B800C2D5EBC0E0EAC0E0E9C0E0EE12250BD0E0
:1023C800E0F9D0E0FAD0E0FB122922FF60AAEBC0C6
:1023D800E0EAC0E0E9C0E01222B3D0E02401F9D07D
:1023E800E03400FAD0E0FBE57D0460DCD57DD980DF
:1023F800877BFF7A257907D20B809C791080027938
:1024080008C20FC2118008D2D5790A8004790AC29D
:10241800D5E57D047002F57DE4FAFDFEFF12227811
:10242800FC7B08200A13122278FD7B1030090A125F
:102438002278FE122278FF7B20EC3382D592D55089
:1024480013C3E43009069FFFE49EFEE4200A039DBF
:10245800FDE49CFCE4CBF8C20AEC700CCFCECDCCEA
:10246800E824F8F870F38017C3EF33FFEE33FEED7E
:1024780033FDEC33FCEB33FB994002FB0FD8E9EB5F
:10248800300A05F8D0E0C448B20AC0E00AEC4D4E64
:102498004F78207B0070C2EAB57D0040BCC0E012D6
:1024A800250DD0F0D0E0200A04C4C0E0C4B20AC0B0
:1024B800F012229CD0F0D5F0EB0222EC122BED2387
:1024C8008953240358235A4C23564224074F240F78
:0F24D80044240F49236F4324155523F94623F954
:1024E7004523F94725B550235E2D23622E23852BDF
:1024F700236623238320259E2A231E480000237D4D
:102507003F3F3F00790AA2D5200C14300E09B910BD
:10251700020404B9080104A2D5200F0250010420C7
:102527000B68920BB57C005034C0E07F20300C194B
:102537007F30A20B720F720E500F122564C20BC2AE
:102547000FC20EC2117F30800F300E03E9C0E012B8
:1025570022B3300E03D0E0F9D0E0B57CCC300E17B3
:102567007F30B9100C1222B37F58300D077F788067
:1025770003B908031222B3300B057F2D0222B37F64
:10258700202011F87F2B200FF322920B80CF286E8B
:10259700756C6C2900D20A122278300AF8C20A78C0
:1025A7007C30D50108F602231E2D504349581222CC
:1025B700782403B405004001E49025B0931222A4C7
:0D25C700743A1222A4D20C757C0402240385
:1046ED0010120B124728BF0D027F0A020003AF08FC
:0146FD00229A
:103948008B688A69896AAB68AA69A96A122922FF01
:103958001246DA500D7401256AF56AE43569F5698D
:1039680080E4D209AB68AA69A96A122922FF642BEC
:103978006004EFB42D1BAB68056AE56AAA6970029A
:10398800056914F9122922642D6003D38001C392BA
:1039980009E4F56EF56DF56CF56BAB68AA69A96A73
:1039A800122922FF12470D505CE47F0AFEFDFCAB92
:1039B8006EAA6DA96CA86B122A03C8ECC8EDC0E00A
:1039C800EEC0E0EFC0E0AB68AA69A96A122922FF3D
:1039D8003395E0FEEF24D0FFEE34FFFEE4FCFDD08B
:1039E800E0FBD0E0FAD0E0F9EB2FF56EEA3EF56D9A
:1039F800ED39F56CEC38F56B7401256AF56AE43538
:103A080069F569809530090AAF6EAE6DAD6CAC6B27
:0E3A1800800BAF6EAE6DAD6CAC6B122BCF227F
:0E2BCF00C3E49FFFE49EFEE49DFDE49CFC2217
:102BDD00FAE6FB0808E6F925F0F618E6CA3AF622F9
:102BED00D083D082F8E4937012740193700DA3A377
:102BFD0093F8740193F5828883E47374029368608B
:062C0D00EFA3A3A380DF8A
:0A4728003098FDAF99C2987E002280
:0F470D00EFC394304007EF943A50028001C3226B
:1046DA00EFC394094005EF940E4003BF2003D38033
:0346EA0001C322E7
:00000001FF
