:101BB0005389F0438901C2A9E4FDFCC3ED9FEC9E6B
:101BC0005016758CFA758A1FC28DD28C308DFDC26D
:081BD0008C0DBD00010C80E347
:011BD80022EA
:051C2500C200753E380D
:101C2A00A20092B6D2B77F0A7E00121BB0853E8010
:0D1C3A00C2B77F017E00121BB07580FF2233
:0819BD008F398B3A8A3B893C0B
:1019C500E539701FF53DAB3AAA3BA93C853D8275CB
:1019D50083001206CAFF602FD200F53E121C2A05AD
:1019E5003D80E3E4F53DE53DC39539501AD200ABA2
:1019F5003AAA3BA93C853D827583001206CAF53E8D
:071A0500121C2A053D80DFE1
:011A0C0022B7
:101B1A007F1E7E00121BB0121C257F057E00121B41
:101B2A00B0121C25121C25C200753E0F121C2AC2B7
:101B3A0000753E01121C2A7F027E00121BB0C200F1
:061B4A00753E06021C2A94
:0F1CC300C200753E01121C2A7F027E00021BB078
:1011FB00E4F53F7441253FF8E4F6053FE53FB40BBA
:10120B00F274FFF54FF54EF54DF54CE4F53F121C1E
:10121B00B28F40E540C394304012E540D39439502F
:10122B000B7441253FF8A640053F804AE540640812
:10123B006005E540B47F0B153F7441253FF8E4F69C
:10124B00802AE540640D6005E540B40A1A7B007AFC
:10125B0000794112111D8F4F8E4E8D4D8C4C7F0D91
:10126B00121BD97F0A800C7F08121BD97F20121BFF
:10127B00D97F08121BD9E53FB40A1B7B007A007992
:10128B004112111D8F4F8E4E8D4D8C4C7F0D121BAD
:10129B00D97F0A121BD974FFFFFEFDFCAB4FAA4E80
:1012AB00A94DA84CC31208AF7003021219AF4FAE71
:0512BB004EAD4DAC4CEE
:0112C000220B
:101C8400252D33357300456E746572206120426CD6
:0B1C94006F636B204E756D626572007F
:100F7600C2A6121C68121B1A7F807E1A7D067C0090
:100F8600121894120D908F2212035F8F22789312FB
:100F960008E6753500753600120B9B8E2F8F30E5EF
:100FA6002270FC755FFF75601C75618A7BFF7A1C79
:100FB60079841200651211FB8F268E258D248C23D1
:100FC600AE2FAF30E4FCFDAB26AA25A924A823D377
:100FD6001208AF50CEAF26AE25AD24AC2375350230
:100FE60075360075370075380012094F8F2A8E291D
:100FF6008D288C2774FFF52EF52DF52CE527440F4B
:10100600F52BE52744104D4E4F70030210B8E52A24
:10101600FFE529FEE528FDE52744104D4E4F601BF0
:10102600E52744804D4E4F7012FFFEFDFCAB26AA0D
:1010360025A924A823C31208AF70D3AF2EAE2DADB9
:101046002CAC2B121903753500753600120B9B8ECE
:101056002F8F30755FFF75601C75618A7BFF7A1C68
:1010660079841200651211FB8F268E258D248C2320
:10107600AE2FAF30E4FCFDAB26AA25A924A823D3C6
:101086001208AF50CEAF26AE25AD24AC237535027F
:1010960075360075370075380012094F8F2A8E296C
:1010A6008D288C2774FFF52EF52DF52CE527440F9A
:1010B600F52BE52AFFE529FEE528FDE5274410FC8A
:1010C600E4FBFAF9F8C31208AF7031FFFEFDFCAB82
:1010D60026AA25A924A823C31208AF601FAF2EAEE7
:1010E6002DAD2CAC2B75350075360012138474FFAC
:1010F600F52EF52DF52CE527440FF52BE52AFFE512
:1011060029FEE528FDE52744804D4E4F7003020F6A
:07111600A575220D020FA5D3
:101A5C002570200025322E326258200041646472B9
:101A6C002E20202030202031202032202033202016
:101A7C0034202035202036202037202038202039D3
:101A8C00202041202042202043202044202045209B
:051A9C0020460A0D00C8
:10173D008B478A4889498B5F8A6089617BFF7A1A5A
:10174D00795C120065E4F54AAB47AA48A949854A78
:10175D00827583001206CAF54B7BFF7A1A7960F504
:10176D005F120065054AE54AC3941040DBE4F54A73
:10177D00AB47AA48A949854A827583001206CAF566
:10178D004BC394204007E54BD3947F4003754B2EFC
:10179D00AF4B121BD9054AE54AC3941040D27F0DB9
:0817AD00121BD97F0A021BD9AF
:0A195E008C428D438B3F8A40894183
:101968008B448A458946AF0153070F7E00C3E49F25
:10197800FFE49EFEEF2546F546EE3545F5457BFF2F
:101988007A1A7968120065AB44AA45A94612173D30
:1019980074102546F546E43545F545E5412543F9F6
:1019A800E5403542FA8A838982C3E5469582E54552
:0419B800958340D300
:0119BC002208
:081CF70025322E326258200054
:100D9000758E0CD294E4F5377B007A0079317FFFB1
:100DA000121C470537E537C3940A40EC7B007A00F4
:100DB0007931121AE28F36121CC3C200753E8012BE
:100DC0001C2A7B007A0079317F051219BDE4F537C2
:100DD00074312537F8E6F5387BFF7A1C79F7F55F33
:100DE0001200650537E537C3940540E47F0A121BFE
:100DF000D97F0D121BD97F647E00121BB0E53670BF
:100E00000AFB7A007931121AA18F36121CC3C20074
:100E1000753E80121C2A7B007A0079317F051219F9
:100E2000BDE4F53774312537F8E6F5387BFF7A1CD9
:100E300079F7F55F1200650537E537C3940540E49F
:100E40007F0A121BD97F0D121BD97F647E00121BF3
:100E5000B0E5367015FB7A007931121C008F36E54B
:100E60003164016005753605C2A5121CC3C2007548
:100E70003E80121C2A7B007A0079317F051219BD51
:100E8000E4F53774312537F8E6F5387BFF7A1C79BD
:100E9000F7F55F1200650537E537C3940540E47F39
:100EA0000A121BD97F0D121BD97F647E00121BB062
:100EB000E536700AFB7A0079311216C08F36121CA3
:100EC000C3C200753E80121C2A7B007A0079317FF4
:100ED000051219BDE4F53774312537F8E6F5387B8E
:100EE000FF7A1C79F7F55F1200650537E537C39483
:100EF0000540E47F0A121BD97F0D121BD97F647E47
:100F000000121BB0E536701DFB7A007931121C000F
:100F10008F36E53254C0700DE53230E7057536077F
:100F20008003753605121CC3C200753E80121C2A50
:100F30007B007A0079317F051219BDE4F5377431F1
:100F40002537F8E6F5387BFF7A1C79F7F55F120054
:100F5000650537E537C3940540E47F0A121BD97F46
:100F60000D121BD97F647E00121BB0E5366002C2F1
:050F7000A7D294AF368A
:010F75002259
:061AE2008B398A3A893BB2
:101AE800C294E4F569F568F567F566FF12162BEF01
:101AF800700BAB39AA3AA93B7F011214FDEF700FA6
:101B0800AB39AA3AA93B1206B1640160027F05D23B
:011B18009438
:011B190022A9
:061AA1008B398A3A893BF3
:101AA700C294E47569AA756801F567F5667F08123F
:101AB700162BEF700BAB39AA3AA93B7F051214FD21
:101AC700AB39AA3AA93B1206B1FEB405047F0980D7
:0A1AD70007EE640160027F06D2945E
:011AE10022E2
:061C00008B398A3A893B92
:101C0600C294E4F569F568F567F5667F3A12162B16
:0E1C1600EF700BAB39AA3AA93B7F051214FD03
:011C2400229D
:0616C0008B398A3A893BD8
:1016C600E4F540F53FF53E753D40C294F53C053CDA
:1016D600E4F569F568F567F5667F3712162BEF7046
:1016E600031214F5AB39AA3AA93B1206B1FE6006FD
:1016F600640160027F02EF7011854069853F68854D
:101706003E67853D667F2912162BEF70031214F58E
:10171600AB39AA3AA93B1206B1FE60066401600223
:101726007F02053CEE6007E53C6003EF60A0E53C08
:0617360070027F01D29455
:01173C00228A
:02162B008F65C9
:10162D00E565C3944040030216BAE5654440F56B89
:10163D007B007A00796CFF121C478F6A756D18E577
:10164D006A70047F0180027F00E56DC39419500418
:10165D007E0180027E00EE5F6024AF69AE68AD67EB
:10166D00AC66A96DA8011208C08F6B7B007A00795A
:10167D006C121C478F6A74F8256DF56D80C1E56598
:10168D007005756B95800DE565B40805756B8780E4
:10169D0003756B01E56A700CFB7A00796CAF6B1208
:1016AD001C478F6AE56A6008756A028003756A03D4
:0216BD00AF6A12
:0116BF002208
:0814F500AB39AA3AA93B7F01C3
:0814FD008F418B428A438944B0
:10150500E4F545F5467B007A0079477FFF121C47D5
:101515008F460545E5456009E5467005E547F460F4
:10152500E4AB42AA43A944E5471206F7E545700531
:101535007546018046E5466002800AE5476401601C
:1015450009E54760057546028031E541D3940140C0
:101555002A754801E548C3954150207B007A0079FA
:10156500477FFF121C47AB42AA43A94485488275B1
:101575008300E547120709054880D9E546700CFB4D
:0D1585007A0079477FFF121C478F46AF4662
:011592002236
:081A0D007F01FB7A007960FE05
:0A1A15008E658F668B678A68896909
:101A1F00E4F56AF56BF56DF56EC3E56E9566E56DEC
:101A2F00956550267B007A00796C7FFF121C47ABBF
:101A3F0067AA68A969856E82856D83E56C120709AF
:0C1A4F00056EE56E70D3056D80CFAF6BA7
:011A5B002268
:0E17B5008F5B8E5A8D598C588B5C8A5D895ED5
:1017C300C294E4F55F8F698E688D678C667F111212
:1017D300162B055FEF7003121A0DE5606004E55FD9
:1017E30070F0E55F70027F01E4F55F055FEF700362
:1017F300121A0DE56064FE6007E55F6003EF60EBBE
:10180300E55F70027F01E56054F070027F08EF70BE
:101813000CAB5CAA5DA95EFF7E02121A15EF700580
:071823007F03121A0FD2949B
:01182A00229B
:10189400E4F531AB07AA06A905A804FF7EA07D8C58
:1018A400FC12081DEFD39402500575C3708045EFF8
:1018B400D39404500575C371803AEFD3940850054E
:1018C40075C372802FEFD39410500575C3738024B1
:1018D400EFD39420500575C3F08019EFD394405092
:1018E4000575C3F1800EEFD39480500575C3F28063
:0618F40003753104AF3161
:0118FA0022CB
:101C4700E4FE8FC5AFC40EEF20E703EE70F6EE603B
:101C57000BE5C51206F7EF5470FE80027E01AF0652
:011C6700225A
:101C6800759AE285878753877F759850E4F59B7549
:0C1C78009AE2759B1ED299C2ACFEFF22BE
:081B86008F528E518D508C4FDF
:101B8E00C2948F698E688D678C667F1112162BAE8C
:101B9E0053AF54E4FCFDAB55AA56A9571217B5D254
:011BAE0094A2
:011BAF002213
:10144100256C750025750025627500252D323073D8
:10145100004641542073697A653332206973200054
:1014610025382E38625800546F7453656333322027
:10147100697320006E756D6F6646415453656374E0
:101481006F727320697320004669727374446174CA
:10149100615365632069732000636F756E746F66B5
:1014A100436C7573746572732069732000252D3147
:1014B1003273004641542073697A652069732000B4
:1014C10025326400252D33357300436F6E74696EC8
:1014D10075653F202820793D202731272C206E3D3E
:1014E100202732272029002535642E20005B44491E
:0414F100525D0A003E
:081593007B017A0279007E0061
:10159B008E518F528B538A548955C3E55194025007
:0115AB0078C7
:1015AC00E4F559F558F557F556F55BAB53E555256C
:1015BC0052F9E5543551FAC37403955BFFE494007A
:1015CC00FEE92FF9EA3EFA1206B1F55AAF59AE58B8
:1015DC00AD57AC5678081208D38F598E588D578C4E
:1015EC0056E559455AF559E558F558E557F557E577
:1015FC0056F556055BE55BB404B17BFF7A14794173
:10160C0085596285586185576085565F120065AFB4
:08161C0059AE58AD57AC56223F
:07162400E47F0CFEFDFC2237
:08182B007B017A0279007E00C6
:0A1833008E488F498B4A8A4B894C7E
:10183D00E4F54DF54EC3E54894025046E4FDAB4A40
:10184D00E54C2549F9E54B3548FAEDFFC374019F89
:10185D00FFE49400FEE92FF9EA3EFA1206B1FCE529
:10186D004E754E00F54DEC424EE40DBD02D07BFFA2
:10187D007A147945854D5F854E60120065AE4DAF8A
:06188D004E227E007F0CDC
:011893002232
:0F1B5000E546240BFFE43545FEAB4CAA4DA94EEC
:101B5F00E4F54FC3EE9402501B8F828E831206CA98
:101B6F00754F00424F7BFF7A147948854F5F120003
:061B7F0065AF4F227F0C50
:011B8500223D
:10035F00E4F531755302F55475550175560275570D
:10036F0000FFFEFDFC121B867B017A027900E4FF81
:10037F00FE121B5FEF64EB60327B017A027900E4BF
:10038F00FFFE121B5FEF64E960217B017A027900A7
:10039F007FC67E0112159B78701208FF78701208C5
:1003AF00E68F378E368D358C34800375310AE53103
:1003BF0060030206AEAF37AE36AD35AC34755302BF
:1003CF00F554755501755602755700121B867F0B34
:1003DF0012182B7874A60608A6077B017A027900FB
:1003EF007F0D7E00121B5F7876A6077F0E12182BEB
:1003FF007877A60608A6077B017A0279007F107E20
:10040F0000121B5F7884A6077B017A0279007F11A7
:10041F007E001218337882A60608A6077B017A029F
:10042F0079007F137E00121833789BA60608A60763
:10043F007B017A0279007F167E00121833788DA621
:10044F000608A6077F1C121593787A1208FF7F20E3
:10045F0012159378971208FF7B017A0279007F2497
:10046F007E0012159B78891208FF7B017A027900B2
:10047F007F2C7E0012159B788F1208FF7882E6FE84
:10048F0008E67805C333CE33CED8F9FF7874E6FC8F
:10049F0008E6FD24FFFBEC34FFCB2FFFEB3EFE12F3
:1004AF00073DE4FCFD78931208FF788EE61846703E
:1004BF003678891208E68F3B8E3A8D398C38755F06
:1004CF00FF7560147561527BFF7A14794C120065C9
:1004DF007BFF7A147961853B62853A618539608546
:1004EF00385F1200658013788DE6FE08E6FFE48F13
:1004FF003B8E3AF539F53875310B789CE618467016
:10050F003678971208E68F3F8E3E8D3D8C3C755F97
:10051F00FF7560147561687BFF7A14794C12006562
:10052F007BFF7A147961853F62853E61853D6085E9
:10053F003C5F1200658013789BE6FE08E6FFE48FB0
:10054F003F8E3EF53DF53C75310B7884E6FFE4FCBC
:10055F00FDFEAB3BAA3AA939A8381207928E328F0B
:10056F0033755FFF7560147561757BFF7A14794C75
:10057F001200657BFF7A14796185325F85336012D3
:10058F0000657884E6FFE4FCFDFEAB3BAA3AA9398F
:10059F00A838120792C004A905AA06AB077877E618
:1005AF00FE08E6FFE4FCFDD000EB2FFFEA3EFEED78
:1005BF0039FDEC38FC78931208F2EF2BFBEE3AFA88
:1005CF00ED39F9EC38F8C3E53F9BF547E53E9AF571
:1005DF0046E53D99F545E53C98F544755FFF756037
:1005EF00147561897BFF7A14794C1200657BFF7A51
:1005FF0014796185476285466185456085445F1240
:10060F0000657876E6FBE4FAF9F8AF47AE46AD45FC
:10061F00AC4412081D8F438E428D418C40755FFF95
:10062F0075601475619A7BFF7A14794C1200657BA3
:10063F00FF7A147961854362854261854160854007
:10064F005F120065E47FF57E0FFDFCAB43AA42A964
:10065F0041A840C31208AF50067879760C8019E490
:10066F007FF57EFFFDFCAB43AA42A941A840C31210
:10067F0008AF78795007760275310B8002760475D2
:10068F005FFF7560147561B47BFF7A1479AE120049
:10069F00657BFF7A1479C17879E6F55F120065AF53
:0106AF003119
:0106B0002227
:0818FB008F3E8E3D8D3C8C3BBD
:081903008F428E418D408C3FA4
:10190B00E4FFFEFDFCAB42AA41A940A83FC312086D
:10191B00AF700578930208E6E54224FEFFE54134FB
:10192B00FFFEE54034FFFDE53F34FFFCC004A90595
:10193B00AA06AB077876E6FFE4FCFDFED0001207A3
:10194B0092787E1208F2EF2BFFEE3AFEED39FDECAA
:02195B0038FC56
:01195D002267
:0812C1008F428E418D408C3FED
:1012C9007877E6FE08E6FFE4FCFD78701208F2EF95
:1012D9002BFFEE3AFEED39FDEC38FC78851208FF5C
:1012E900E47F04FEFDFCAB42AA41A940A83F1207D6
:1012F900928F488E478D468C457874E6FE08E6FB4A
:10130900AA06E4F9F8AF48AE4712081D7885120815
:10131900F2EF2BF550EE3AF54FED39F54EEC38F585
:101329004DC294855069854F68854E67F5667F1172
:1013390012162BAA43A9447B017F007E027D007C03
:10134900001217B5D2947874E6FE08E6FBAA06E403
:10135900F9F8AF48AE47AD46AC4512081DAC00AD33
:1013690001AE02AF038F4C8E4B8D4A8C49AA43A91B
:0A137900447B0112159BEC540FFC9D
:011383002247
:081384008F348E338D328C3161
:10138C00E4F5391218FB8F37E4FCFDFE7874E6F5B2
:10139C005308E6F554755501853556853657121B9D
:1013AC00868F38E538600302143E805CE53A6401B0
:1013BC00600302143EE5387079E539D378769640AF
:1013CC0019E4F539AF3EAE3DAD3CAC3B85354385BC
:1013DC0036441212C11218FB8F37AF397E00787465
:1013EC00E6FA08E6FBFDAC0212072B7C00EF253772
:1013FC00FFEC3EFEE4FD8A538B5475550185355642
:10140C00853657121B868F38AA35A9367B0178741E
:10141C00E6FC08E6FD12195E755FFF7560147561D8
:10142C00CB7BFF7A1479C51200651211FB8F3A023F
:04143C0013B8AF38FA
:011440002289
:080B9B008F348E338D328C3152
:100BA30075480185354985364AE4F541F542F53FF7
:100BB300F540787E1208E6AB34AA33A932A831C3D4
:100BC3001208AF500F78931208E68F3E8E3D8D3C8E
:100BD3008C3B800D7876E6FFE48F3EF53DF53CF5E2
:100BE3003B85343A853339853238853137AF3AAE70
:100BF30039AD38AC377874E6F55308E6F5548548D3
:100C030055854956854A57121B868F47E54760032A
:100C1300020D86AB48AA49A94AAF40AE3F121B5FFB
:100C23008F43E54364E57003020CF8E54370030268
:100C33000CF8E540240BFFE4353FFEAB48AA49A975
:100C43004A121B5F8F45D2A5E545540E6003020C83
:100C5300F80542E542700205417BFF7A1479E88585
:100C6300415FF560120065E4F5447E00E5402544EC
:100C7300FFEE353FFEAB48AA49A94A121B5F8F46D8
:100C8300121BD90544E544C3940840DEE54530E42E
:100C9300307544087E00E5402544FFEE353FFEAB4A
:100CA30048AA49A94A121B5F8F46121BD90544E57E
:100CB30044C3940B40DE7BFF7A1479EE1200658007
:100CC300347F2E121BD97544087E00E5402544FF6E
:100CD300EE353FFEAB48AA49A94A121B5F8F461265
:100CE3001BD90544E544C3940B40DE7F0D121BD989
:100CF3007F0A121BD974202540F540E4353FF53FA8
:100D0300D3E54094FEE53F9401406FE53A2401F5B5
:100D13003AE43539F539E43538F538E43537F5371C
:100D2300C3E53A9534FFE5399533FEE5389532FD51
:100D3300E5379531FCAB3EAA3DA93CA83BD312084D
:100D4300AF4031AF3AAE39AD38AC377874E6F553CE
:100D530008E6F554854855854956854A57121B863A
:100D63008F47E5476007E4F541F542F543E4F53F76
:100D7300F5408006434180E4F543E5436003020CFC
:0C0D8300168005E4F541F542AE41AF4298
:010D8F002241
:08094F008F348E338D328C31A0
:10095700754C0185374D85384EE4F547F548F54523
:10096700F546F544F543F542F541787E1208E6ABC6
:1009770034AA33A932A831C31208AF500F789312A3
:1009870008E68F408E3F8D3E8C3D800D7876E6FFE2
:10099700E48F40F53FF53EF53D85343C85333B8597
:1009A700323A853139AF3CAE3BAD3AAC397874E673
:1009B700F55308E6F554854C55854D56854E571227
:1009C7001B868F4BE54B6003020B6CAB4CAA4DA902
:1009D7004EAF46AE45121B5F8F49E54964E570038C
:1009E700020ADCE5497003020ADC121B508F4AE554
:1009F7004A540E6003020ADC0548E54870020547C1
:100A070065367004E54765356003020ADC7879E6E8
:100A17006404705EE5462415121B54E48F44F543C5
:100A2700F542F541E544540FF544E4F543F542F545
:100A370041AF44AE43AD42AC4178081208D38F446E
:100A47008E438D428C41E5462414121B54E5444FD6
:100A5700F544E543F543E542F542E541F541AF4449
:100A6700AE43AD42FC78081208D38F448E438D42C3
:100A77008C41E546241B121B54E5444FF544E543DE
:100A8700F543E542F542E541F541AF44AE43AD429A
:100A9700FC78081208D38F448E438D428C41E5467B
:100AA700241A121B54E5444FF544E543F543E54248
:100AB700F542E541F541121B508F4AE54A30E412F1
:100AC700E544F544E543F543E542F542E541441085
:100AD700F541E4F54974202546F546E43545F545E5
:100AE700D3E54694FEE54594014071E53C2401F5C4
:100AF7003CE4353BF53BE4353AF53AE43539F5392D
:100B0700C3E53C9534FFE53B9533FEE53A9532FD69
:100B1700E5399531FCAB40AA3FA93EA83DD3120861
:100B2700AF4036AF3CAE3BAD3AAC397874E6F553DF
:100B370008E6F554854C55854D56854E57121B864C
:100B47008F4BE54B600CE4F544F543F54275418066
:100B5700F549E4F545F5468003E4F549E5496003C1
:100B67000209D2800AE4F544F543F542754180E471
:100B7700FFFEFDFCAB44AA43A942A841C31208AF3C
:100B87007009F544F543F542754180AF44AE43AD76
:030B970042AC412C
:010B9A002238
:03000000021CE1FE
:0C1CE100787FE4F6D8FD75819C020F7638
:1006B100BB010689828A83E0225002E722BBFE0247
:0906C100E32289828A83E493227A
:1006CA00BB010CE58229F582E5833AF583E02250E5
:1006DA0006E92582F8E622BBFE06E92582F8E2222F
:0D06EA00E58229F582E5833AF583E4932249
:1006F700BB010689828A83F0225002F722BBFE01E2
:02070700F322DB
:10070900F8BB010DE58229F582E5833AF583E8F026
:10071900225006E92582C8F622BBFE05E92582C8D2
:02072900F222BA
:10072B00EF8DF0A4A8F0CF8CF0A428CE8DF0A42EE2
:02073B00FE229C
:10073D00BC000BBE0029EF8DF084FFADF022E4CCA0
:10074D00F875F008EF2FFFEE33FEEC33FCEE9DEC69
:10075D00984005FCEE9DFE0FD5F0E9E4CEFD22EDAF
:10076D00F8F5F0EE8420D21CFEADF075F008EF2FF9
:10077D00FFED33FD4007985006D5F0F222C398FDEA
:05078D000FD5F0EA2287
:10079200E88FF0A4CC8BF0A42CFCE98EF0A42CFC06
:1007A2008AF0EDA42CFCEA8EF0A4CDA8F08BF0A484
:1007B2002DCC3825F0FDE98FF0A42CCD35F0FCEBE3
:1007C2008EF0A4FEA9F0EB8FF0A4CFC5F02ECD39A8
:0F07D200FEE43CFCEAA42DCE35F0FDE43CFC2215
:1007E10075F008758200EF2FFFEE33FECD33CDCCCF
:1007F10033CCC58233C5829BED9AEC99E582984052
:100801000CF582EE9BFEED9AFDEC99FC0FD5F0D62E
:10081100E4CEFBE4CDFAE4CCF9A88222B800C1B958
:100821000059BA002DEC8BF084CFCECDFCE5F0CB96
:10083100F97818EF2FFFEE33FEED33FDEC33FCEBCF
:1008410033FB10D703994004EB99FB0FD8E5E4F98A
:10085100FA227818EF2FFFEE33FEED33FDEC33FC77
:10086100C933C910D7059BE99A4007EC9BFCE99A6B
:10087100F90FD8E0E4C9FAE4CCFB2275F010EF2FB0
:10088100FFEE33FEED33FDCC33CCC833C810D707B0
:100891009BEC9AE899400AED9BFDEC9AFCE899F8EB
:0E08A1000FD5F0DAE4CDFBE4CCFAE4C8F9227E
:1008AF00EB9FF5F0EA9E42F0E99D42F0E89C45F09F
:0108BF002216
:1008C000E8600FECC313FCED13FDEE13FEEF13FF16
:0308D000D8F1223A
:1008D300E8600FEFC333FFEE33FEED33FDEC33FC83
:0308E300D8F12227
:0C08E600E6FC08E6FD08E6FE08E6FF223E
:0D08F200E6FB08E6F908E6FA08E6CBF82276
:0C08FF00ECF608EDF608EEF608EFF62225
:101BD900EFB40A07740D121BE4740A309811A8991E
:101BE900B8130CC2983098FDA899C298B811F6306C
:071BF90099FDC299F5992244
:10000300E56B245FF8E6056B22785C300702785FC6
:10001300E475F0011209190206B12000EB7F2ED21C
:10002300008018EF540F2490D43440D4FF30040BD5
:10003300EF24BFB41A0050032461FFE56C6002157E
:100043006C056FE56F7002056E30070D785CE47523
:10005300F001120919EF0206F7021BD97403D20744
:100063008003E4C207F56B8B5C8A5D895EE4F56C03
:10007300F56EF56FE56C60077F2012003E80F57525
:100083006DFFC201C200C202C203C205C206C2089A
:1000930012000CFF700D3007057F0012004FAF6F89
:1000A300AE6E22B4255FC2D5C20412000CFF24D069
:1000B300B40A00501A75F00A786C30D50508B6FFFB
:1000C3000106C6A426F620D5047002D20380D924E3
:1000D300CFB41A00EF5004C2E5D20402024FD2019A
:1000E30080C6D20080C0D20280BCD2D580BAD205ED
:1000F30080B47F2012003E2002077401B56C0040DB
:10010300F1120003FF12003E020077D208D20680EC
:1001130095120003FB120003FA120003F94A4B7015
:100123000679207A037BFF20022EE56C602A7E008D
:100133008E827583001206CA60060EEE656D70F03E
:10014300C2D5EBC0E0EAC0E0E9C0E0EE120296D00F
:10015300E0F9D0E0FAD0E0FB1206B1FF60AAEBC0F1
:10016300E0EAC0E0E9C0E012003ED0E02401F9D0AB
:10017300E03400FAD0E0FBE56D0460DCD56DD98096
:10018300877BFF7A027992D202809C791080027970
:1001930008C206C2088008D2D5790A8004790AC247
:1001A300D5E56D047002F56DE4FAFDFEFF12000360
:1001B300FC7B08200113120003FD7B1030000A12A0
:1001C3000003FE120003FF7B20EC3382D592D5504F
:1001D30013C3E43000069FFFE49EFEE42001039D69
:1001E300FDE49CFCE4CBF8C201EC700CCFCECDCC8B
:1001F300E824F8F870F38017C3EF33FFEE33FEED16
:1002030033FDEC33FCEB33FB994002FB0FD8E9EBF6
:10021300300105F8D0E0C448B201C0E00AEC4D4E0D
:100223004F78207B0070C2EAB56D0040BCC0E0127D
:100233000298D0F0D0E0200104C4C0E0C4B201C0F1
:10024300F0120027D0F0D5F0EB0200771209290154
:100253001453018E5800E54C00E14201924F019A7C
:0F02630044019A4900FA4301A0550184460184E1
:100272004501844703405000E92D00ED2E01102B6B
:1002820000F123010E2003292A00A94800000108D9
:100292003F3F3F00790AA2D5200314300509B91067
:1002A200020404B9080104A2D52006025001042068
:1002B20002689202B56C005034C0E07F203003190E
:1002C2007F30A20272067205500F1202EFC202C202
:1002D20006C205C2087F30800F300503E9C0E01274
:1002E200003E300503D0E0F9D0E0B56CCC30051704
:1002F2007F30B9100C12003E7F583004077F78809F
:1003020003B9080312003E3002057F2D02003E7F32
:10031200202008F87F2B2006F322920280CF286E3D
:10032200756C6C2900D2011200033001F8C2017809
:100332006C30D50108F60200A92D5043495812002D
:10034200032403B405004001E490033B9312002F01
:0D035200743A12002FD203756C0402018E64
:101CB20010090B121CEDBF0D027F0A021BD9AF08DF
:011CC20022FF
:10111D008B508A518952AB50AA51A9521206B1FF78
:10112D00121C9F500D74012552F552E43551F551A5
:10113D0080E4D200AB50AA51A9521206B1FF642B24
:10114D006004EFB42D1BAB500552E552AA5170024D
:10115D00055114F91206B1642D6003D38001C392B9
:10116D0000E4F556F555F554F553AB50AA51A95277
:10117D001206B1FF121CD2505CE47F0AFEFDFCABDF
:10118D0056AA55A954A853120792C8ECC8EDC0E051
:10119D00EEC0E0EFC0E0AB50AA51A9521206B1FF6C
:1011AD003395E0FEEF24D0FFEE34FFFEE4FCFDD0DE
:1011BD00E0FBD0E0FAD0E0F9EB2FF556EA3EF5551D
:1011CD00ED39F554EC38F55374012552F552E435EB
:1011DD0051F551809530000AAF56AE55AD54AC5314
:0E11ED00800BAF56AE55AD54AC5312090B2219
:0E090B00C3E49FFFE49EFEE49DFDE49CFC22FD
:10091900FAE6FB0808E6F925F0F618E6CA3AF622DF
:10092900D083D082F8E4937012740193700DA3A35D
:1009390093F8740193F5828883E473740293686071
:06094900EFA3A3A380DF71
:0A1CED003098FDAF99C2987E0022E6
:0F1CD200EFC394304007EF943A50028001C322D1
:101C9F00EFC394094005EF940E4003BF2003D38098
:031CAF0001C3224C
:00000001FF
