:101C8D005389F0438901C2A9E4FDFCC3ED9FEC9E8D
:101C9D005016758CFA758A1FC28DD28C308DFDC28F
:081CAD008C0DBD00010C80E369
:011CB500220C
:051D2500C200752C381E
:101D2A00A20092B6D2B77F0A7E00121C8D852C8043
:0D1D3A00C2B77F017E00121C8D7580FF2254
:081AFA008F278B288A29892A15
:101B0200E527701FF52BAB28AA29A92A852B8275F8
:101B12008300120A9DFF602FD200F52C121D2A05A8
:101B22002B80E3E4F52BE52BC39527501AD200ABAB
:101B320028AA29A92A852B82758300120A9DF52CD1
:071B4200121D2A052B80DFB4
:011B49002279
:101C57007F1E7E00121C8D121D257F057E00121C23
:101C67008D121D25121D25C200752C0F121D2AC2AB
:101C770000752C01121D2A7F027E00121C8DC200E6
:061C8700752C06021D2A67
:0F1DD000C200752C01121D2A7F027E00021C8D9D
:101D6800252D323073004D6F756E74696E6720448F
:0F1D78007269766500696E697420646F6E65002C
:10196A00C2A6121D87121C577F807E1A7D067C0034
:10197A001219DB12136D8F227550FF75511D7552A6
:10198A006E7BFF7A1D796812078A7F0A121CB67F5E
:10199A000D121CB67E007F001200038F2278881277
:1019AA000CA7752B00752C001211CF8E258F2612CD
:1019BA001DD0C200752C80121D2A7BFF7A1D797DED
:1019CA007F09121AFA7B007A0079231200000200BA
:0119DA00000C
:101B99002570200025322E3262582000416464727B
:101BA9002E202020302020312020322020332020D8
:101BB9003420203520203620203720203820203995
:101BC900202041202042202043202044202045205D
:051BD90020460A0D008A
:10187C008B488A49894A8B508A5189527BFF7A1B43
:10188C00799912078AE4F54BAB48AA49A94A854BCA
:10189C0082758300120A9DF54C7BFF7A1B799DF5AE
:1018AC005012078A054BE54BC3941040DBE4F54B13
:1018BC00AB48AA49A94A854B82758300120A9DF54B
:1018CC004CC394204007E54CD3947F4003754C2EB9
:1018DC00AF4C121CB6054BE54BC3941040D27F0D98
:0818EC00121CB67F0A021CB6B3
:0A1A42008C438D448B408A41894299
:101A4C008B458A468947AF0153070F7E00C3E49F3D
:101A5C00FFE49EFEEF2547F547EE3546F5467BFF46
:101A6C007A1B79A512078AAB45AA46A94712187C9E
:101A7C0074102547F547E43546F546E5422544F90B
:101A8C00E5413543FA8A838982C3E5479582E54669
:041A9C00958340D31B
:011AA0002223
:081DEB0025322E32625820005F
:10136D00758E0CD294E4F52D7B007A0079277FFFE2
:10137D00121D47052DE52DC3940A40EC7B007A0024
:10138D007927121C1F8F2CE4F52D7427252DF8E6D7
:10139D00F52E7BFF7A1D79EBF55012078A052DE5A9
:1013AD002DC3940540E47F0A121CB67F0D121CB6A6
:1013BD007F647E00121C8DE52C700AFB7A00792764
:1013CD00121BDE8F2CE4F52D7427252DF8E6F52E56
:1013DD007BFF7A1D79EBF55012078A052DE52DC39C
:1013ED00940540E47F0A121CB67F0D121CB67F6473
:1013FD007E00121C8DE52C7015FB7A007927121CCE
:10140D00DD8F2CE52764016005752C05C2A5E4F57B
:10141D002D7427252DF8E6F52E7BFF7A1D79EBF53A
:10142D005012078A052DE52DC3940540E47F0A125D
:10143D001CB67F0D121CB67F647E00121C8DE52C30
:10144D00700AFB7A0079271217FF8F2CE4F52D74A3
:10145D0027252DF8E6F52E7BFF7A1D79EBF5501239
:10146D00078A052DE52DC3940540E47F0A121CB6AD
:10147D007F0D121CB67F647E00121C8DE52C701D35
:10148D00FB7A007927121CDD8F2CE52854C0700DD6
:10149D00E52830E705752C078003752C05E4F52D3F
:1014AD007427252DF8E6F52E7BFF7A1D79EBF55087
:1014BD0012078A052DE52DC3940540E47F0A121C01
:1014CD00B67F0D121CB67F647E00121C8DE52C605C
:0714DD0002C2A7D294AF2C5C
:0114E40022E5
:061C1F008B2F8A30893191
:101C2500C294E4F552F551F550F54FFF1216E7EF62
:101C3500700BAB2FAA30A9317F01121651EF700F2F
:101C4500AB2FAA30A931120A84640160027F05D244
:011C550094FA
:011C5600226B
:061BDE008B2F8A308931D3
:101BE400C294E47552AA755101F550F54F7F08125D
:101BF40016E7EF700BAB2FAA30A9317F05121651EF
:101C0400AB2FAA30A931120A84FEB405047F0980DF
:0A1C140007EE640160027F06D2941F
:011C1E0022A3
:061CDD008B2F8A308931D3
:101CE300C294E4F552F551F550F54F7F3A1216E7D9
:0E1CF300EF700BAB2FAA30A9317F05121651EE
:011D010022BF
:0617FF008B2F8A308931B6
:10180500E4F536F535F534753340C294F5320532D5
:10181500E4F552F551F550F54F7F371216E7EF70A5
:1018250003121649AB2FAA30A931120A84FE6006AD
:10183500640160027F02EF7011853652853551854E
:10184500345085334F7F291216E7EF70031216497E
:10185500AB2FAA30A931120A84FE6006640160022A
:101865007F020532EE6007E5326003EF60A0E532E6
:0618750070027F01D29415
:01187B00224A
:0216E7008F4E24
:1016E900E54EC394404003021776E54E4440F55455
:1016F9007B007A007955FF121D478F53755618E5FF
:101709005370047F0180027F00E556C39419500489
:101719007E0180027E00EE5F6024AF52AE51AD5073
:10172900AC4FA956A801120C818F547B007A00791D
:1017390055121D478F5374F82556F55680C1E54E4D
:101749007005755495800DE54EB40805755487806C
:1017590003755401E553700CFB7A007955AF5412A7
:101769001D478F53E5536008755302800375530372
:02177900AF536C
:01177B00224B
:08164900AB2FAA30A9317F018B
:081651008F378B388A39893A82
:10165900E4F53BF53C7B007A00793D7FFF121D479D
:101669008F3C053BE53B6009E53C7005E53DF460D1
:10167900E4AB38AA39A93AE53D120ACAE53B700537
:10168900753C018046E53C6002800AE53D640160E5
:1016990009E53D6005753C028031E537D394014089
:1016A9002A753E01E53EC3953750207B007A0079C3
:1016B9003D7FFF121D47AB38AA39A93A853E82758D
:1016C9008300E53D120ADC053E80D9E53C700CFB40
:0D16D9007A00793D7FFF121D478F3CAF3C2A
:0116E60022E1
:081B4A007F01FB7A007949FEDE
:0A1B52008E4E8F4F8B508A5189523E
:101B5C00E4F553F554F556F557C3E557954FE5564F
:101B6C00954E50267B007A0079557FFF121D47ABAE
:101B7C0050AA51A952855782855683E555120ADC25
:0C1B8C000557E55770D3055680CFAF54C5
:011B9800222A
:0E18F4008F448E438D428C418B458A46894736
:10190200C294E4F5488F528E518D508C4F7F111244
:1019120016E70548EF7003121B4AE5496004E548E3
:1019220070F0E54870027F01E4F5480548EF700366
:10193200121B4AE54964FE6007E5486003EF60EB6D
:10194200E54870027F01E54954F070027F08EF70AC
:101952000CAB45AA46A947FF7E02121B52EF700547
:071962007F03121B4CD2941D
:01196900225B
:1019DB00E4F527AB07AA06A905A804FF7EA07D8C1A
:1019EB00FC120BDEEFD39402500575C3708045EFEC
:1019FB00D39404500575C371803AEFD39408500506
:101A0B0075C372802FEFD39410500575C373802468
:101A1B00EFD39420500575C3F08019EFD394405049
:101A2B000575C3F1800EEFD39480500575C3F2801A
:061A3B0003752704AF272C
:011A41002282
:101D4700E4FE8FC5AFC40EEF20E703EE70F6EE603A
:101D57000BE5C5120ACAEF5470FE80027E01AF067A
:011D67002259
:101D8700759AE285878753877F759850E4F59B7529
:0C1D97009AE2759B1ED299C2ACFEFF229E
:1014E500252D333573004D42525F52656C5365634C
:1014F500202000256C7500252D32307300425042A6
:101505005F42797465735065725365630025750094
:101515004250425F536563506572436C7573002595
:101525006275004250425F52737664536563436E41
:1015350074004250425F4E756D46415473004250EF
:10154500425F526F6F74456E74436E740042504231
:101555005F546F745365633136004250425F4641B4
:1015650054537A3136004250425F48696464656E6F
:10157500536563004250425F546F74536563333261
:10158500004250425F464154537A33320042504242
:101595005F526F6F745F436C7500526F6F7444696F
:1015A50072536563004641542073697A653332008E
:1015B5006572726F722077726F6E672066617474E0
:1015C5007970652000546F745365633332006E750E
:1015D5006D6F66464154536563746F727300446161
:1015E500746153656300636F756E746F66436C75E4
:1015F50073746572730046697273744461746153E0
:101605006563004669727374526F6F7444697253EF
:101615006563004641542073697A6520313200467E
:1016250041542073697A6520313600464154207350
:10163500697A65203332002535642E20005B4449E4
:04164500525D0A00E8
:08177C00AA27A9287B017E00C9
:101784008E408F418B428A438944C3E54094025082
:0117940063F1
:10179500E4F548F547F546F545F54AAB42E54425F8
:1017A50041F9E5433540FAC37403954AFFE49400D3
:1017B500FEE92FF9EA3EFA120A84F549AF48AE4729
:1017C500AD46AC457808120C948F488E478D468CF3
:1017D50045E5484549F548E547F547E546F546E514
:1017E50045F545054AE54AB404B1AF48AE47AD46AF
:0317F500AC4522DE
:0717F800E47F0CFEFDFC2262
:081AA100AA27A9287B017E00A1
:0A1AA9008E408F418B428A4389442E
:101AB300E4F545F546C3E54094025036E4FDAB42F8
:101AC300E5442541F9E5433540FAEDFFC374019F31
:101AD300FFE49400FEE92FF9EA3EFA120A84FCE5DA
:101AE30046754600F545EC42460DBD02D1AE45AF05
:061AF30046227E007F0C7C
:011AF90022CA
:101D02007E00E536253AFFEE3535FEAB3EAA3FA909
:011D12004090
:101D1300C3EE940250098F828E83120A9DFF227FA5
:011D23000CB3
:011D2400229C
:040003008E278F288D
:10000700E4F529AA06A9077B01FFFEFDFC1218F4F7
:10001700AA27A9287B017D007C02121A42AA27A9D8
:10002700287B01E4FFFE121D13EF64EB605DAA2736
:10003700A928E4FF121D13EF64E9604FAA27A92836
:100047007FC60E1217847861120CC07861120CA754
:100057008F2F8E2E8D2D8C2C7550FF755114755248
:10006700EB7BFF7A1479E512078A7BFF7A1479F81C
:10007700852F53852E52852D51852C5012078A7F47
:100087000A121CB67F0D121CB6800375290AE529D2
:100097006003020725AF2FAE2EAD2DAC2CAA27A9E2
:1000A700287B011218F4AA27A9287B017D007C026E
:1000B700121A427550FF7551157552027BFF7A145B
:1000C70079FC12078A7F0B121AA17865A60608A683
:1000D700077BFF7A15791218E6F55008E6F55112F5
:1000E700078A7F0A121CB67F0D121CB67550FF7562
:1000F70051157552157BFF7A1479FC12078AAA27C6
:10010700A9287B017F0D7E00121D137867A6077B48
:10011700FF7A157924E6F55012078A7F0A121CB672
:100127007F0D121CB67550FF7551157552287BFF50
:100137007A1479FC12078A7F0E121AA17868A6062C
:1001470008A6077BFF7A15791218E6F55008E6F539
:100157005112078A7F0A121CB67F0D121CB6755002
:10016700FF7551157552377BFF7A1479FC12078A90
:10017700AA27A9287B017F107E00121D137875A678
:10018700077BFF7A157924E6F55012078A7F0A1252
:100197001CB67F0D121CB67550FF7551157552436D
:1001A7007BFF7A1479FC12078AAA27A9287B017F8B
:1001B700117E00121AA97873A60608A6077BFF7A94
:1001C70015791218E6F55008E6F55112078A7F0AE5
:1001D700121CB67F0D121CB67550FF75511575525E
:1001E700527BFF7A1479FC12078AAA27A9287B0178
:1001F7007F137E00121AA97890A60608A6077BFF30
:100207007A15791218E6F55008E6F55112078A7F34
:100217000A121CB67F0D121CB67550FF7551157565
:10022700525F7BFF7A1479FC12078AAA27A9287BD9
:10023700017F167E00121AA9787EA60608A6077BFC
:10024700FF7A15791218E6F55008E6F55112078A74
:100257007F0A121CB67F0D121CB67550FF7551151B
:1002670075526B7BFF7A1479FC12078A7F1C121771
:100277007C786B120CC07BFF7A1479F8786B120CC0
:10028700A78F538E528D518C5012078A7F0A121CEA
:10029700B67F0D121CB67550FF7551157552797BD7
:1002A700FF7A1479FC12078A7F2012177C788C1248
:1002B7000CC07BFF7A1479F8788C120CA78F538EB9
:1002C700528D518C5012078A7F0A121CB67F0D126D
:1002D7001CB67550FF7551157552867BFF7A1479D8
:1002E700FC12078AAA27A9287B017F247E00121700
:1002F70084787A120CC07BFF7A1479F8787A120C1A
:10030700A78F538E528D518C5012078A7F0A121C69
:10031700B67F0D121CB67550FF7551157552927B3D
:10032700FF7A1479FC12078AAA27A9287B017F2C58
:100337007E001217847880120CC07BFF7A1479F83C
:100347007880120CA78F538E528D518C5012078ACA
:100357007F0A121CB67F0D121CB67550FF7551151A
:1003670075529F7BFF7A1479FC12078A7873E6FE31
:1003770008E67805C333CE33CED8F9FF7865E6FCB7
:1003870008E6FD24FFFBEC34FFCB2FFFEB3EFE120C
:100397000AFEE4FCFD7884120CC07BFF7A1479F81E
:1003A7007884120CA78F538E528D518C5012078A66
:1003B7007F0A121CB67F0D121CB6787FE6184670AE
:1003C70033787A120CA78F338E328D318C3075507B
:1003D700FF7551157552AA7BFF7A1479FC12078AAB
:1003E7007BFF7A1479F885335385325285315185ED
:1003F70030508022787EE6FE08E6FFE48F338E32A7
:10040700F531F53075290B7550FF7551157552B5D6
:100417007BFF7A1479F812078A7F0A121CB67F0DC0
:10042700121CB67891E618467040788C120CA78F8C
:10043700378E368D358C347550FF7551157552CA08
:100447007BFF7A1479FC12078A7BFF7A1479F88587
:10045700375385365285355185345012078A7F0ABE
:10046700121CB67F0D121CB680137890E6FE08E6C4
:10047700FFE48F378E36F535F53475290B7875E639
:10048700FFE4FCFDFEAB33AA32A931A830120B53AF
:100497008E2A8F2B7550FF7551157552D37BFF7AB6
:1004A7001479FC12078A7BFF7A1479F8852A50851C
:1004B7002B5112078A7F0A121CB67F0D121CB678C1
:1004C70075E6FFE4FCFDFEAB33AA32A931A8301272
:1004D7000B53C004A905AA06AB077868E6FE08E631
:1004E700FFE4FCFDD000EB2FFFEA3EFEED39FDEC0B
:1004F70038FC7884120CB3EF2BFBEE3AFAED39F99E
:10050700EC38F8C3E5379BF53FE5369AF53EE53518
:1005170099F53DE53498F53C7550FF7551157552C1
:10052700E37BFF7A1479FC12078A7BFF7A1479F848
:10053700853F53853E52853D51853C5012078A7F42
:100547000A121CB67F0D121CB67867E6FBE4FAF9AF
:10055700F8AF3FAE3EAD3DAC3C120BDE8F3B8E3A63
:100567008D398C387550FF7551157552EB7BFF7AB5
:100577001479FC12078A7BFF7A1479F8853B538537
:100587003A5285395185385012078A7F0A121CB6AC
:100597007F0D121CB67875E6FFE4FCFDFEAB33AAAF
:1005A70032A931A830120B53C004A905AA06AB071C
:1005B7007868E6FE08E6FFE4FCFDD000EB2FFFEAD3
:1005C7003EFEED39FDEC38FC7884120CB3EF2BFFBF
:1005D700EE3AFEED39FDEC38FC7861120CB3EF2BE7
:1005E700FFEE3AFEED39FDEC38FC786F120CC07562
:1005F70050FF7551157552FB7BFF7A1479FC120772
:100607008A7BFF7A1479F8786F120CA78F538E5272
:100617008D518C5012078A7F0A121CB67F0D121C4F
:10062700B67880120CA7EF24FEFFEE34FFFEED3400
:10063700FFFDEC34FFFCC004A905AA06AB077867E9
:10064700E6FFE4FCFDFED000120B53786F120CB3EB
:10065700EF2BFFEE3AFEED39FDEC38FC7888120CF3
:10066700C07550FF7551167552087BFF7A1479FCD7
:1006770012078A7BFF7A1479F87888120CA78F53B0
:100687008E528D518C5012078A7F0A121CB67F0D2D
:10069700121CB6E47FF57E0FFDFCAB3BAA3AA939E5
:1006A700A838C3120C70501D786A760C75290B7622
:1006B7000275290B7550FF7551167552187BFF7A15
:1006C7001479FC804CE47FF57EFFFDFCAB3BAA3A36
:1006D700A939A838C3120C70786A50247602752994
:1006E7000B7550FF7551167552247BFF7A1479FCF0
:1006F70012078A7BFF7A1479F8786AE6F550801139
:1007070076047550FF7551167552307BFF7A147950
:10071700FC12078A7F0A121CB67F0D121CB6AF297E
:0107270022AF
:0811CF008F2A8E298D288C2740
:1011D700753E01852B3F852C40E4F537F538F5350D
:1011E700F536786F120CA7AB2AAA29A928A827C316
:1011F700120C70500F7884120CA78F348E338D32F7
:101207008C31800D7867E6FFE48F34F533F532F5DE
:1012170031852A3085292F85282E85272DAF30AE99
:101227002FAD2EAC2DAB3EAA3FA9401218F48F3D2F
:10123700E53D6003021363AB3EAA3FA940AF36AE5C
:1012470035121D138F39E53964E570030212E1E5A4
:101257003970030212E1E536240BFFE4121D0A8FF1
:101267003BD2A5E53B540E70710538E53870020591
:10127700377BFF7A16793C853750F55112078AE498
:10128700F53A121D028F3C121CB6053AE53AC39493
:101297000840EFE53B30E41F753A08121D028F3C0A
:1012A700121CB6053AE53AC3940B40EF7BFF7A165A
:1012B700794212078A80237F2E121CB6753A0812CC
:1012C7001D028F3C121CB6053AE53AC3940B40EF5A
:1012D7007F0D121CB67F0A121CB674202536F53610
:1012E700E43535F535D3E53694FEE53594014063AD
:1012F700E5302401F530E4352FF52FE4352EF52EB2
:10130700E4352DF52DC3E530952AFFE52F9529FE08
:10131700E52E9528FDE52D9527FCAB34AA33A93298
:10132700A831D3120C704025AF30AE2FAD2EAC2DA7
:10133700AB3EAA3FA9401218F48F3DE53D6007E494
:10134700F537F538F539E4F535F536800643378056
:10135700E4F539E539600302123E8005E4F537F517
:0513670038AE37AF387D
:01136C00225E
:0A0F7D008F088D098B0A8A0B890C7E
:100F8700121DBEE50825E054FEF510D293C292303B
:100F9700920320930375110F750D07E50DD3940A7E
:100FA7004057E51170537F04121DA9C29374017E47
:100FB70000A80D088005C333CE33CED8F9FFE4FE71
:100FC700EF5510A80D088006CEA2E713CE13D8F868
:100FD700FF139292EF5401F5127F04121DA9D293C9
:100FE700750F01209308E50F6004050F80F5E50FE5
:100FF700700375110E150D80A2E511700AA29233C8
:101007006512600375110FE511701F7F04121DA98A
:10101700121DA3D293750F01209308E50F600405F5
:101027000F80F5E50F700375110EE511700630920C
:1010370003751110750D07E50DD3940A4055E51199
:1010470070517F04121DA9C29374017E00A80D0878
:101057008005C333CE33CED8F97E00545AA80D0885
:101067008006CEA2E713CE13D8F8FF139292EF545F
:1010770001F5127F04121DA9D293750F0120930861
:10108700E50F6004050F80F5E50F700375110E1568
:101097000D80A4E511700AA29233651260037511E1
:1010A7000FE511701F7F04121DA9121DA3D293759E
:1010B7000F01209308E50F6004050F80F5E50F7019
:1010C7000375110EE5117006309203751110E4F5E2
:1010D7000EE50EC395094003021197E5116003025F
:1010E7001197750D07E50DD3940840727F04121D03
:1010F700A9C293AB0AAA0BA90C850E8275830012AD
:101107000A9DFD74017E00A80D088005C333CE3308
:10111700CED8F9FFEDFBE4FEEF5BA80D088006CE05
:10112700A2E713CE13D8F8FF139292EF5401F512EA
:101137007F04121DA9D293750F01209308E50F6054
:1011470004050F80F5E50F700375110EE511700AA0
:10115700A292336512600375110F150D8087E51193
:10116700701F7F04121DA9121DA3D293750F0120B2
:101177009308E50F6004050F80F5E50F70037511FF
:101187000EE5117006309203751110050E0210D886
:101197007F04121DA9C293C2927F07121DA9D29381
:1011A700750F01209308E50F6004050F80F5E50F23
:1011B700700375110EE511700AA292336512600370
:0711C70075110FD292AF1168
:0111CE0022FE
:0A0D02008F138D148B158A168917C4
:100D0C00121DBEE51325E04401F51BD293C292756A
:100D1C001807E518D3940A4065E51C70617F04122E
:100D2C001DA9C29374017E00A818088005C333CE98
:100D3C0033CED8F9FFE4FEEF551BA818088006CE79
:100D4C00A2E713CE13D8F8FF139292EF5401F51DBE
:100D5C007F04121DA9D293751A01209308E51A601D
:100D6C0004051A80F5E51A7003751C0EE51C700A53
:100D7C00A29233651D6003751C0F15188094E51C39
:100D8C00701F7F04121DA9121DA3D293751A012086
:100D9C009308E51A6004051A80F5E51A7003751CB2
:100DAC000EE51C7006309203751C10751807E518BB
:100DBC00D3940A4055E51C70517F04121DA9C293AF
:100DCC0074017E00A818088005C333CE33CED8F941
:100DDC007E00545AA818088006CEA2E713CE13D86A
:100DEC00F8FF139292EF5401F51D7F04121DA9D246
:100DFC0093751A01209308E51A6004051A80F5E52D
:100E0C001A7003751C0E151880A4E51C700AA292AA
:100E1C0033651D6003751C0FE51C701F7F04121DCC
:100E2C00A9121DA3D293751A01209308E51A600428
:100E3C00051A80F5E51A7003751C0EE51C7006305A
:100E4C009203751C107F04121DA9C293C2927F07D6
:100E5C00121DA9D293751A01209308E51A60040596
:100E6C001A80F5E51A7003751C0EE51C700AA29227
:100E7C0033651D6003751C0FD292121DBED293C236
:100E8C0092E4F519E519C395144003020F45E51CCE
:100E9C006003020F45AB15E5172519F9E43516FA71
:100EAC00120A84E4120ACA751807E518D39408408C
:100EBC00507F04121DA9C2937F04121DA9D29375F1
:100ECC001A01209308E51A6004051A80F5E51A70DA
:100EDC0003751C0EE51C7025A29233F51DAB15E5B0
:100EEC00172519F9E43516FA120A84FFAE18E51D18
:100EFC00A806088002C333D8FC4F120ACA15188002
:100F0C00A9E51C702F7F04121DA9C293E51414B51A
:100F1C001904D2928002C2927F04121DA9D2937539
:100F2C001A01209308E51A6004051A80F5E51A7079
:100F3C0003751C0E0519020E907F04121DA9C29395
:100F4C00C2927F07121DA9D293751A01209308E54E
:100F5C001A6004051A80F5E51A7003751C0EE51C61
:100F6C00700AA29233651D6003751C0FD292AF1CE0
:010F7C002252
:061DA300C293D2927F04FE
:101DA900308E03308FFDC28EBF0409E4F58DF58BAB
:051DB900C28FD28E2252
:101DBE0053890F438910C2ABE4F58DF58BC28FD2D8
:021DCE008E2263
:03000000021DDFFF
:0C1DDF00787FE4F6D8FD75819102196A46
:100A8400BB010689828A83E0225002E722BBFE0270
:090A9400E32289828A83E49322A3
:100A9D00BB010CE58229F582E5833AF583E022500E
:100AAD0006E92582F8E622BBFE06E92582F8E22258
:0D0ABD00E58229F582E5833AF583E4932272
:100ACA00BB010689828A83F0225002F722BBFE010B
:020ADA00F32205
:100ADC00F8BB010DE58229F582E5833AF583E8F050
:100AEC00225006E92582C8F622BBFE05E92582C8FC
:020AFC00F222E4
:100AFE00BC000BBE0029EF8DF084FFADF022E4CCDC
:100B0E00F875F008EF2FFFEE33FEEC33FCEE9DECA4
:100B1E00984005FCEE9DFE0FD5F0E9E4CEFD22EDEA
:100B2E00F8F5F0EE8420D21CFEADF075F008EF2F34
:100B3E00FFED33FD4007985006D5F0F222C398FD25
:050B4E000FD5F0EA22C2
:100B5300E88FF0A4CC8BF0A42CFCE98EF0A42CFC41
:100B63008AF0EDA42CFCEA8EF0A4CDA8F08BF0A4BF
:100B73002DCC3825F0FDE98FF0A42CCD35F0FCEB1E
:100B83008EF0A4FEA9F0EB8FF0A4CFC5F02ECD39E3
:0F0B9300FEE43CFCEAA42DCE35F0FDE43CFC2250
:100BA20075F008758200EF2FFFEE33FECD33CDCC0A
:100BB20033CCC58233C5829BED9AEC99E58298408D
:100BC2000CF582EE9BFEED9AFDEC99FC0FD5F0D66A
:100BD200E4CEFBE4CDFAE4CCF9A88222B800C1B994
:100BE2000059BA002DEC8BF084CFCECDFCE5F0CBD2
:100BF200F97818EF2FFFEE33FEED33FDEC33FCEB0B
:100C020033FB10D703994004EB99FB0FD8E5E4F9C5
:100C1200FA227818EF2FFFEE33FEED33FDEC33FCB2
:100C2200C933C910D7059BE99A4007EC9BFCE99AA6
:100C3200F90FD8E0E4C9FAE4CCFB2275F010EF2FEB
:100C4200FFEE33FEED33FDCC33CCC833C810D707EB
:100C52009BEC9AE899400AED9BFDEC9AFCE899F826
:0E0C62000FD5F0DAE4CDFBE4CCFAE4C8F922B9
:100C7000EB9FF5F0EA9E42F0E99D42F0E89C45F0DA
:010C80002251
:100C8100E8600FECC313FCED13FDEE13FEEF13FF51
:030C9100D8F12275
:100C9400E8600FEFC333FFEE33FEED33FDEC33FCBE
:030CA400D8F12262
:0C0CA700E6FC08E6FD08E6FE08E6FF2279
:0D0CB300E6FB08E6F908E6FA08E6CBF822B1
:0C0CC000ECF608EDF608EEF608EFF62260
:101CB600EFB40A07740D121CC1740A309811A89962
:101CC600B8130CC2983098FDA899C298B811F6308E
:071CD60099FDC299F5992266
:10072800E55C2450F8E6055C22784D3007027850E5
:10073800E475F001120CCC020A842000EB7F2ED263
:10074800008018EF540F2490D43440D4FF30040BA9
:10075800EF24BFB41A0050032461FFE55D60021561
:100768005D0560E5607002055F30070D784DE47542
:10077800F001120CCCEF020ACA021CB67403D207AD
:100788008003E4C207F55C8B4D8A4E894FE4F55D22
:10079800F55FF560E55D60077F2012076380F575FA
:1007A8005EFFC201C200C202C203C205C206C2087D
:1007B800120731FF700D3007057F00120774AF6014
:1007C800AE5F22B4255FC2D5C204120731FF24D020
:1007D800B40A00501A75F00A785D30D50508B6FFDE
:1007E8000106C6A426F620D5047002D20380D924B7
:1007F800CFB41A00EF5004C2E5D204020974D20142
:1008080080C6D20080C0D20280BCD2D580BAD205C0
:1008180080B47F201207632002077401B55D004091
:10082800F1120728FF12076302079CD208D206803C
:1008380095120728FB120728FA120728F94A4B7065
:100848000679457A0A7BFF20022EE55D602A7E0044
:100858008E82758300120A9D60060EEE655E70F04A
:10086800C2D5EBC0E0EAC0E0E9C0E0EE1209BBD0B7
:10087800E0F9D0E0FAD0E0FB120A84FF60AAEBC0EE
:10088800E0EAC0E0E9C0E0120763D0E02401F9D053
:10089800E03400FAD0E0FBE55E0460DCD55ED98088
:1008A800877BFF7A0979B7D202809C791080027918
:1008B80008C206C2088008D2D5790A8004790AC21B
:1008C800D5E55E047002F55EE4FAFDFEFF12072826
:1008D800FC7B08200113120728FD7B1030000A1248
:1008E8000728FE120728FF7B20EC3382D592D550CB
:1008F80013C3E43000069FFFE49EFEE42001039D3D
:10090800FDE49CFCE4CBF8C201EC700CCFCECDCC5E
:10091800E824F8F870F38017C3EF33FFEE33FEEDE9
:1009280033FDEC33FCEB33FB994002FB0FD8E9EBCA
:10093800300105F8D0E0C448B201C0E00AEC4D4EE1
:100948004F78207B0070C2EAB55E0040BCC0E01260
:1009580009BDD0F0D0E0200104C4C0E0C4B201C099
:10096800F012074CD0F0D5F0EB02079C120CDC0813
:10097800395308B358080A4C08064208B74F08BF4D
:0F0988004408BF49081F4308C55508A94608A9D8
:100997004508A9470A6550080E2D08122E08352B61
:1009A7000816230833200A4E2A07CE480000082DD0
:1009B7003F3F3F00790AA2D5200314300509B9103B
:1009C700020404B9080104A2D5200602500104203C
:1009D70002689202B55D005034C0E07F20300319F1
:1009E7007F30A20272067205500F120A14C202C2A9
:1009F70006C205C2087F30800F300503E9C0E01248
:100A07000763300503D0E0F9D0E0B55DCC300517BA
:100A17007F30B9100C1207637F583004077F788046
:100A270003B908031207633002057F2D0207637FAE
:100A3700202008F87F2B2006F322920280CF286E11
:100A4700756C6C2900D2011207283001F8C20178B1
:100A57005D30D50108F60207CE2D504349581207DD
:100A6700282403B405004001E4900A609312075458
:0D0A7700743A120754D203755D040208B3EF
:100CCC00FAE6FB0808E6F925F0F618E6CA3AF62229
:100CDC00D083D082F8E4937012740193700DA3A3A7
:100CEC0093F8740193F5828883E4737402936860BB
:060CFC00EFA3A3A380DFBB
:00000001FF
