:104473005389F0438901C2A9E4FDFCC3ED9FEC9E7F
:104483005016758CF4758A3DC28DD28C308DFDC269
:084493008C0DBD00010C80E35B
:01449B0022FE
:0544C300C209754B3831
:1044C800A20992B6D2B77F0A7E00124473854B8048
:0D44D800C2B77F017E001244737580FF2281
:0842B5008F468B478A488949B6
:1042BD00E546701FF54AAB47AA48A949854A82755C
:1042CD008300122951FF602FD209F54B1244C80506
:1042DD004A80E3E4F54AE54AC39546501AD209AB44
:1042ED0047AA48A949854A82758300122951F54B81
:0742FD001244C8054A80DFEE
:014304002296
:104412007F1E7E001244731244C37F057E00124445
:10442200731244C31244C3C209754B0F1244C8C26B
:1044320009754B011244C87F027E00124473C209FF
:06444200754B060244C8A0
:0F459600C209754B011244C87F027E00024473B4
:1037D200E4F54674482546F8E4F60546E546B40B9A
:1037E200F274FFF556F555F554F553E4F5461245D6
:1037F200858F47E547C394304012E547D39439504B
:103802000B74482546F8A6470546804AE5476408F2
:103812006005E547B47F0B154674482546F8E4F683
:10382200802AE547640D6005E547B40A1A7B007AF1
:103832000079481236F48F568E558D548C537F0D75
:1038420012449C7F0A800C7F0812449C7F20124401
:103852009C7F0812449CE546B40A1B7B007A0079DF
:10386200481236F48F568E558D548C537F0D124468
:103872009C7F0A12449C74FFFFFEFDFCAB56AA55C6
:10388200A954A853C3122B2470030237F0AF56AECB
:0538920055AD54AC53DC
:01389700220E
:10360E00494E41435449564520310A0D00494E4119
:10361E00435449564520320A0D00444F4E450A0D7B
:10362E0000252D323073004D6F756E74696E6720F4
:10363E00447269766500696E697420646F6E650008
:10364E00252D31307300636F6E6669672065727267
:10365E00200025322E326258004552524F523121EF
:10366E002000746573745F69326320657272200086
:10367E00252D33357300456E746572206120426CC2
:10368E006F636B204E756D6265723A20004E756DDC
:10369E0062657220746F6F206C617267652E0A0D01
:1036AE000072657475726E5F656E7472790025387E
:1036BE002E386C58007761732061206469726563DF
:1036CE00746F727900736563746F725F6261736594
:1036DE005F670077617320612066696C65004552F3
:0636EE00524F52212000A2
:03002B0002172396
:10172300C0E0C0F0C083C082C0D075D000C000C08C
:1017330001C002C003C004C005C006C007C2CFC2B7
:101743008C758C00758A00C28DD28CE47F01FEFDFE
:10175300FC78D1122B67C3122B2470197F40FEFD36
:10176300FC78B1122B67C3122B24400978D1122BBA
:101773008000000003E47F02FEFDFC78D1122B679A
:10178300C3122B2470197F40FEFDFC78B1122B6726
:10179300C3122B24400978D1122B80000000047857
:1017A300D1122B5B122B9918AA000000011A4600D4
:1017B3000000021900000000031AA0000000041733
:1017C300DE00000005197D0000000619630000001B
:1017D300071AF90000000800001B0DC2A4D2A5D20D
:1017E300A6D2A7D291C2B3209071208D6E78B9E6AC
:1017F300FE08E62400F58274003EF583E0FF7B00DB
:101803007A0079D512444878BA06E618700106D3EF
:1018130078BAE694FF18E6940140CCD378BCE694FA
:10182300FF18E694014027E47F03FEFDFC78C11214
:101833002B67C3122B24700B78C1122B800000007E
:1018430000801478D1122B8000000002800978D127
:10185300122B8000000006D28D808C309038E47FFC
:1018630005FEFDFC78D1122B67C3122B2470277B56
:10187300FF7A36790E1222E7D378BCE694FF18E696
:10188300940178D14009122B8000000002800712D6
:101893002B80000000073090097BFF7A36791B12FA
:1018A30022E7C291021B0DD2A4D2A5D2A6D2A77859
:1018B300B1122B5B78CD122B67EB2FFFEA3EFEE9CB
:1018C3003DFDE83CFC78B5122B7478B5122B5B7B9D
:1018D300017A007900123CA778B1122B5BEF240147
:1018E300FFE43EFEE43DFDE43CFC78B1122B74784A
:1018F300D1122B800000000878B9021A99D2A4C231
:10190300A5D2A6D2A778C5122B5B75270075280030
:1019130012395B78C5122B7474FFFFFEFD7C0F78C0
:10192300C5122B67C3122B2470147BFF7A367928D8
:101933001222E778C1122B8000000003801678C5BD
:10194300122B5B12414C78CD122B7478B1122B8081
:101953000000000078D1122B8000000008021B0D4C
:10196300D2A4D2A5D2A6D2A7309003021B0D78D160
:10197300122B8000000005021B0DD2A4D2A5C2A623
:10198300D2A7D291209070208D6D78BBE6FE08E639
:101993002400F58274003EF583E0FF7B007A007932
:1019A300D512444878BC06E618700106D378BCE625
:1019B30094FF18E6940140CCD318E694FF18E694FC
:1019C300014027E47F03FEFDFC78C1122B67C3129D
:1019D3002B24700B78C1122B800000000080147838
:1019E300D1122B8000000001800978D1122B8000D6
:1019F300000005D28D808D309038E47F06FEFDFC1B
:101A030078D1122B67C3122B2470277BFF7A367988
:101A13001B1222E7D378BAE694FF18E6940178D133
:101A23004009122B80000000018007122B80000068
:101A330000083090097BFF7A36791B1222E7C291A6
:101A4300021B0DD2A4D2A5D2A6D2A778B1122B5BCA
:101A530078CD122B67EB2FFFEA3EFEE93DFDE83C14
:101A6300FC78B5122B7478B5122B5B7B017A027963
:101A730000123CA778B1122B5BEF2401FFE43EFE7A
:101A8300E43DFDE43CFC78B1122B7478D1122B8039
:101A93000000000778BB7600087600806DD2A4D2E0
:101AA300A5D2A6C2A778C5122B5B7527027528009D
:101AB30012395B78C5122B7474FFFFFEFD7C0F781F
:101AC300C5122B67C3122B24700B78C1122B800015
:101AD300000003801678C5122B5B12414C78CD129F
:101AE3002B7478B1122B800000000078D1122B8068
:101AF300000000078014D2A4D2A5D2A6D2A72090BA
:101B03000978D1122B8000000006D2B3D007D0068B
:101B1300D005D004D003D002D001D000D0D0D082E1
:071B2300D083D0F0D0E032C6
:101B2A00758F01D2B3C2A41245271244127F807E58
:101B3A001A7D067C001240851233718F41756FFF42
:101B4A007570367571357BFF7A36792F1222E77FE9
:101B5A000A12449C7F0D12449C7E007F00120FFEE5
:101B6A008F41124596C209754B801244C87BFF7A91
:101B7A003679447F091242B5C2A51225E18F41E5A3
:101B8A0041602AC2A7756FFF7570367571547BFF65
:101B9A007A36794E1222E77BFF7A36796085416F71
:101BAA001222E77F0A12449C7F0D12449C7542015F
:101BBA007543AC7B007A0079421241A78F41E54117
:101BCA00602AC2A7756FFF7570367571677BFF7AD9
:101BDA0036794E1222E77BFF7A36796085416F1299
:101BEA0022E77F0A12449C7F0D12449C7FC07EE14B
:101BFA007DE47C00124085C2A6E541602AC2A77531
:101C0A006FFF7570367571707BFF7A36794E1222C6
:101C1A00E77BFF7A36796085416F1222E77F0A12E5
:101C2A00449C7F0D12449C75C801E4F5CDF5CBF5B3
:101C3A00CCF5CAC28DC2CAD2ADD2AF758F0178A710
:101C4A00122B5B754A00754B00122E4B8E448F4542
:101C5A0078A7122B5B78CD122B74E5416003021E24
:101C6A00E3756FFF7570367571847BFF7A36797EFE
:101C7A001222E71237D278D6122B74AE44AF45E45B
:101C8A00FCFD78D6122B67D3122B245010E4FFFEEA
:101C9A00FDFC78D6122B67C3122B247012756FFFC6
:101CAA0075703675719B7BFF7A36797E1222E7AEA4
:101CBA0044AF45E4FCFD78D6122B67D3122B24508F
:101CCA00A0E4FFFEFDFC78D6122B67C3122B24601A
:101CDA009078D6122B5B8E4A8F4B754C00754D004F
:101CEA0078CD122B5B122C1778BD122B74756FFFEF
:101CFA007570367571AF7BFF7A36792F1222E77BC2
:101D0A00FF7A3679BC78BD122B5B8F728E718D701B
:101D1A008C6F1222E77F0A12449C7F0D12449C7832
:101D2A00BD122B5BEC540FFC78C9122B7478BD12D0
:101D3A002B5BE4FFFEFDEC5410FC606D756FFF75C4
:101D4A0070367571C37BFF7A36792F1222E77F0AC4
:101D5A0012449C7F0D12449C78C9122B5B1234E901
:101D6A0078CD122B74756FFF7570367571D37BFF42
:101D7A007A36792F1222E77BFF7A3679BC78CD1230
:101D8A002B5B8F728E718D708C6F1222E77F0A1215
:101D9A00449C7F0D12449C78CD122B5B754A0075CA
:101DAA004B00122E4B8E448F4578BD122B5BE4FFFD
:101DBA00FEFDEC5410FCE4FBFAF9F8C3122B246084
:101DCA0003021ECCFFFEFDFC78D6122B67C3122B32
:101DDA00247003021ECC78B1122B8000000000751B
:101DEA006FFF7570367571E17BFF7A36792F122293
:101DFA00E778C9122B5B1234E978CD122B7478B1CB
:101E0A00122B5B78CD122B67EB2FFFEA3EFEE93DE2
:101E1A00FDE83CFC78B5122B7478B5122B5B7B017C
:101E2A007A007900123DB678B1122B5BEF2401FFDC
:101E3A00E43EFEE43DFDE43CFC78B1122B7478B13B
:101E4A00122B5B78CD122B67EB2FFFEA3EFEE93DA2
:101E5A00FDE83CFC78B5122B7478B5122B5B7B013C
:101E6A007A027900123DB678B1122B5BEF2401FF9A
:101E7A00E43EFEE43DFDE43CFC78B1122B7478D1DB
:101E8A00122B800000000578C1122B80000000018F
:101E9A00E478B9F608F608F608F6C2CFD2CAE4FF23
:101EAA00FEFDFC78C1122B67C3122B2470F0C2CA44
:101EBA0078A7122B5B754A00754B00122E4B8E4485
:101ECA008F4578BD122B5BE4FEFDEC5480FC700359
:101EDA00021C6475410D021C64E5417003021C5A20
:101EEA00C2A77F0A12449C7F0D12449C756FFF752E
:101EFA0070367571EC7BFF7A36794E1222E77BFFDA
:101F0A007A36796085416F1222E77F0A12449C7FF4
:061F1A000D12449C80FE44
:104354002570200025322E32625820004164647298
:104364002E202020302020312020322020332020F5
:1043740034202035202036202037202038202039B2
:10438400202041202042202043202044202045207A
:0543940020460A0D00A7
:103F30008B678A6889698B6F8A7089717BFF7A4386
:103F400079541222E7E4F56AAB67AA68A969856A21
:103F500082758300122951F56B7BFF7A437958F5FE
:103F60006F1222E7056AE56AC3941040DBE4F56A44
:103F7000AB67AA68A969856A82758300122951F521
:103F80006BC394204007E56BD3947F4003756B2E81
:103F9000AF6B12449C056AE56AC3941040D27F0D52
:083FA00012449C7F0A02449CBC
:0A40ED008C628D638B5F8A6089612D
:1040F7008B648A658966AF0153070F7E00C3E49F0F
:10410700FFE49EFEEF2566F566EE3565F5657BFFF8
:104117007A4379601222E7AB64AA65A966123F3039
:1041270074102566F566E43565F565E5612563F97F
:10413700E5603562FA8A838982C3E5669582E5651B
:04414700958340D349
:01414B002251
:0845CA0025322E326258200058
:10337100758E0CD294E4F54C7B007A0079467FFF80
:103381001244E5054CE54CC3940A40EC7B007A00FD
:1033910079461243DA8F4BE4F54C7446254CF8E636
:1033A100F54D7BFF7A4579CAF56F1222E7054CE5A9
:1033B1004CC3940540E47F0A12449C7F0D12449C47
:1033C1007F647E00124473E54B700AFB7A007946F4
:1033D1001243998F4BE4F54C7446254CF8E6F54DB4
:1033E1007BFF7A4579CAF56F1222E7054CE54CC39C
:1033F100940540E47F0A12449C7F0D12449C7F6433
:103401007E00124473E54B7015FB7A007946120079
:10341100038F4BE54664016005754B05C2A5E4F5D4
:103421004C7446254CF8E6F54D7BFF7A4579CAF593
:103431006F1222E7054CE54CC3940540E47F0A1264
:10344100449C7F0D12449C7F647E00124473E54BC3
:10345100700AFB7A007946123E388F4BE4F54C74C2
:1034610046254CF8E6F54D7BFF7A4579CAF56F1292
:1034710022E7054CE54CC3940540E47F0A12449CC5
:103481007F0D12449C7F647E00124473E54B701DD6
:10349100FB7A0079461200038F4BE54754C0700D4B
:1034A100E54730E705754B078003754B05E4F54C9F
:1034B1007446254CF8E6F54D7BFF7A4579CAF56FE0
:1034C1001222E7054CE54CC3940540E47F0A1244FF
:1034D1009C7F0D12449C7F647E00124473E54B6017
:0734E10002C2A7D294AF4B19
:0134E80022C1
:0643DA008B4E8A4F895052
:1043E000C294E4F575F574F573F572FF123B74EF42
:1043F000700BAB4EAA4FA9507F01123C11EF700F0A
:10440000AB4EAA4FA950122938640160027F05D231
:014410009417
:014411002288
:064399008B4E8A4F895093
:10439F00C294E47575AA757401F573F5727F0812EE
:1043AF003B74EF700BAB4EAA4FA9507F05123C1117
:1043BF00AB4EAA4FA950122938FEB405047F0980CD
:0A43CF0007EE640160027F06D2943D
:0143D90022C1
:060003008B4E8A4F89506C
:10000900C294E4F575F574F573F5727F3A123B7491
:10001900EF700BAB4EAA4FA9507F05123C11D29439
:0100290022B4
:063E38008B4E8A4F8950F9
:103E3E00E4F555F554F553755240C294F5510551BC
:103E4E00E4F575F574F573F5727F37123B74EF7008
:103E5E0003123C09AB4EAA4FA950122938FE600638
:103E6E00640160027F02EF7011855575855474856B
:103E7E0053738552727F29123B74EF7003123C0903
:103E8E00AB4EAA4FA950122938FE6006640160029B
:103E9E007F020551EE6007E5516003EF60A0E5512A
:063EAE0070027F01D294B6
:013EB40022EB
:0A3B6A008F758E748D738C727F11BD
:023B74008F714F
:103B7600E571C394404003023C03E5714440F57788
:103B86007B007A007978FF1244E58F76757918E51F
:103B96007670047F0180027F00E579C39419500492
:103BA6007E0180027E00EE5F6024AF75AE74AD7359
:103BB600AC72A979A801122B358F777B007A007930
:103BC600781244E58F7674F82579F57980C1E57128
:103BD6007005757795800DE571B408057577878052
:103BE60003757701E576700CFB7A007978AF77126A
:103BF60044E58F76E5766008757602800375760370
:023C0600AF7697
:013C08002299
:023A1E008F3CDB
:103A2000E53CC394404003023ABCE53C4440FF7887
:103A3000E2F67B007A0079E312444878E1A6077841
:103A4000E4761878E1E670047F0180027F0078E474
:103A5000E6F9C3941950047E0180027E00EE5F6097
:103A600026AF40AE3FAD3EAC3DA801122B3578E20B
:103A7000EFF67B007A0079E312444878E1A60778F4
:103A8000E474F826F680BCE53C700678E276958012
:103A90000DE53C78E2B4080476878002760178E18F
:103AA000E6701008E6FF7B007A0079E3124448785C
:103AB000E1A60778E1E660087602800478E1760303
:043AC00078E1E6FFC4
:013AC40022DF
:083C0900AB4EAA4FA9507F0148
:083C11008F568B578A58895920
:103C1900E4F55AF55B7B007A00795C7FFF1244E595
:103C29008F5B055AE55A6009E55B7005E55CF46050
:103C3900E4AB57AA58A959E55C12297EE55A7005E3
:103C4900755B018046E55B6002800AE55C640160A2
:103C590009E55C6005755B028031E556D394014046
:103C69002A755D01E55DC3955650207B007A007980
:103C79005C7FFF1244E5AB57AA58A959855D827547
:103C89008300E55C122990055D80D9E55B700CFB2A
:0D3C99007A00795C7FFF1244E58F5BAF5B22
:013CA60022FB
:084305007F01FB7A00796CFED8
:0A430D008E718F728B738A748975AC
:10431700E4F576F577F579F57AC3E57A9572E57977
:10432700957150267B007A0079787FFF1244E5ABC0
:1043370073AA74A975857A82857983E5781229909D
:0C434700057AE57A70D3057980CFAF7756
:014353002247
:084202007F01FB7A0079DCFE6C
:0A420A008E3C8F3D8B3E8A3F8940B9
:10421400E478E1F608F678E4F608F6C378E5E6957E
:104224003D18E6953C502C7B007A0079E37FFF1221
:10423400444878E3E6FFAB3EAA3FA94008E6FC0801
:10424400E6F5828C83EF12299078E506E61870CBA8
:074254000680C878E2E6FFD6
:01425B002240
:0E4019008F678E668D658C648B688A69896AF4
:10402700C294E4F56B123B6A056BEF70031243050C
:10403700E56C6004E56B70F0E56B70027F01E4F5F9
:104047006B056BEF7003124305E56C64FE6007E5D3
:104057006B6003EF60EBE56B70027F01E56C54F07A
:1040670070027F08EF700CAB68AA69A96AFF7E022D
:0D40770012430DEF70057F03124307D29432
:014084002219
:0E3AC5008F388E378D368C358B398A3A893B97
:103AD300C294E478DBF685384085373F85363E85EA
:103AE300353D7F11123A1E78DAA60778DB0618E611
:103AF300700712420278DAA60778DCE6600418E65B
:103B030070E978DBE67003187601E478DBF678DB9E
:103B13000618E6700712420278DAA60778DCE6FF99
:103B230064FE600818E6600418E660E278DBE6707D
:103B330003187601EF54F0700478DA760878DAE641
:103B43007010AB39AA3AA93BFF7E0212420A78DA17
:103B5300A60778DAE670097F0312420478DAA6072B
:063B6300D29478DAE6FFBF
:013B69002239
:0E3DB6008F498E488D478C468B4A8A4B894C2C
:103DC400C294E4F54D123B6A054DEF700BFB7A008B
:103DD400794E7F01FE12430DE54E6004E54D70E817
:103DE400E54D70027F01E4F54D054DEF700BFB7A54
:103DF40000794E7F01FE12430DE54E64FE6007E537
:103E04004D6003EF60E3E54D70027F01E54E54F031
:103E140070027F08EF700CAB4AAA4BA94CFF7E02DC
:103E240012430DEF700BFB7A00794E7F03FE1243B1
:033E34000DD29418
:013E37002268
:0E3CA7008F268E258D248C238B278A28892931
:103CB500C294E4F52A8F408E3F8D3E8C3D7F1112D4
:103CC5003A1E052AEF700BFB7A00792B7F01FE1255
:103CD500420AE52B6004E52A70E8E52A70027F01B7
:103CE500E4F52A052AEF700BFB7A00792B7F01FE9C
:103CF50012420AE52B64FE6007E52A6003EF60E3E4
:103D0500E52A70027F01E52B54F070027F08EF7001
:103D15000CAB27AA28A929FF7E0212420AEF700BD5
:0D3D2500FB7A00792B7F03FE12420AD29434
:013D3200226E
:10408500E4F546AB07AA06A905A804FF7E407D19FD
:104095007C01122A92EFD39402500575C3708045B6
:1040A500EFD39404500575C371803AEFD39408504B
:1040B5000575C372802FEFD39410500575C37380B7
:1040C50024EFD39420500575C3F08019EFD39440A5
:1040D500500575C3F1800EEFD39480500575C3F27A
:0740E5008003754604AF469D
:0140EC0022B1
:1044E500E4FE8FC5AFC40EEF20E703EE70F6EE6075
:1044F5000BE5C512297EEF5470FE80027E01AF06E2
:014505002293
:10444800E4FE8FC5AFC40EEF54F07003EE70F5EEC6
:104458006014EF5470700BE5C512297EEF5470FE9E
:0A44680080067E0280027E01AF068E
:014472002227
:10452700759AC485878753877F759850E4F59B757F
:0C4537009AC4759B1ED299C2ACFEFF22F4
:1031E600252D333573004D42525F52656C5365632E
:1031F600202000256C7500252D3230730042504288
:103206005F42797465735065725365630025750076
:103216004250425F536563506572436C7573002577
:103226006275004250425F52737664536563436E23
:1032360074004250425F4E756D46415473004250D1
:10324600425F526F6F74456E74436E740042504213
:103256005F546F745365633136004250425F464196
:1032660054537A3136004250425F48696464656E51
:10327600536563004250425F546F74536563333243
:10328600004250425F464154537A33320042504224
:103296005F526F6F745F436C7500526F6F74446951
:1032A60072536563004641542073697A6533320070
:1032B6006572726F722077726F6E672066617474C2
:1032C6007970652000546F745365633332006E75F0
:1032D6006D6F66464154536563746F727300446143
:1032E600746153656300636F756E746F66436C75C6
:1032F60073746572730046697273744461746153C2
:103306006563004669727374526F6F7444697253D1
:103316006563004641542073697A65203132004660
:1033260041542073697A6520313600464154207332
:10333600697A652033320066697273745F736563F8
:10334600746F720025382E386C5800636C75737470
:1033560065725F6E756D0025382E3862580025350A
:0B336600642E20005B4449525D0A0009
:083D3300AA46A9477B017E00AE
:103D3B008E5F8F608B618A628963C3E55F940250EB
:013D4B006314
:103D4C00E4F567F566F565F564F569AB61E5632542
:103D5C0060F9E562355FFAC374039569FFE494007A
:103D6C00FEE92FF9EA3EFA122938F568AF67AE661C
:103D7C00AD65AC647808122B488F678E668D658CA8
:103D8C0064E5674568F567E566F566E565F565E53F
:103D9C0064F5640569E569B404B1AF67AE66AD65F9
:033DAC00AC6422E2
:073DAF00E47F0CFEFDFC2285
:103EB5008E358F368B378A388939C3E5359402506C
:013EC5006399
:103EC600E4F53DF53CF53BF53AF53FAB37E53925ED
:103ED60036F9E5383535FAC37403953FFFE49400A7
:103EE600FEE92FF9EA3EFA122938F53EAF3DAE3C1F
:103EF600AD3BAC3A7808122B488F3D8E3C8D3B8CFF
:103F06003AE53D453EF53DE53CF53CE53BF53BE513
:103F16003AF53A053FE53FB404B1AF3DAE3CAD3BA3
:033F2600AC3A2290
:073F2900E47F0CFEFDFC2209
:08425C00AA46A9477B017E0080
:0A4264008E5F8F608B618A628963B0
:10426E00E4F564F565C3E55F94025036E4FDAB6199
:10427E00E5632560F9E562355FFAEDFFC374019FD2
:10428E00FFE49400FEE92FF9EA3EFA122938FCE524
:10429E0065756500F564EC42650DBD02D1AE64AF87
:0642AE0065227E007F0C7A
:0142B40022E7
:0F450600E55B240BFFE4355AFEAB61AA62A963A3
:10451500C3EE940250098F828E83122951FF227FA8
:014525000C89
:014526002272
:040FFE008E468F4745
:10100200E4F548AA06A9077B01FFFEFDFC12401980
:10101200AA46A9477B017D007C021240EDAA46A99F
:10102200477B01E4FFFE124515EF64EB605DAA46C3
:10103200A947E4FF124515EF64E9604FAA46A947A4
:101042007FC60E123D3B7880122B747880122B5B88
:101052008F4E8E4D8D4C8C4B756FFF757031757147
:10106200EC7BFF7A3179E61222E77BFF7A3179F95C
:10107200854E72854D71854C70854B6F1222E77FCC
:101082000A12449C7F0D12449C800375480AE5486D
:101092006003021720AF4EAE4DAD4CAC4BAA46A931
:1010A200477B01124019AA46A9477B017D007C02B9
:1010B2001240ED756FFF7570327571037BFF7A31E7
:1010C20079FD1222E77F0B12425C7884A60608A6FD
:1010D200077BFF7A32791318E6F56F08E6F570128E
:1010E20022E77F0A12449C7F0D12449C756FFF75A4
:1010F20070327571167BFF7A3179FD1222E7AA46AA
:10110200A9477B017F0D7E001245157886A6077BD5
:10111200FF7A327925E6F56F1222E77F0A12449CA4
:101122007F0D12449C756FFF7570327571297BFFBC
:101132007A3179FD1222E77F0E12425C7887A60689
:1011420008A6077BFF7A32791318E6F56F08E6F5F1
:10115200701222E77F0A12449C7F0D12449C756F25
:10116200FF7570327571387BFF7A3179FD1222E793
:10117200AA46A9477B017F107E001245157894A6E6
:10118200077BFF7A327925E6F56F1222E77F0A1292
:10119200449C7F0D12449C756FFF757032757144CB
:1011A2007BFF7A3179FD1222E7AA46A9477B017FAC
:1011B200117E001242647892A60608A6077BFF7A87
:1011C20032791318E6F56F08E6F5701222E77F0A06
:1011D20012449C7F0D12449C756FFF7570327571BD
:1011E200537BFF7A3179FD1222E7AA46A9477B0198
:1011F2007F137E0012426478AFA60608A6077BFF23
:101202007A32791318E6F56F08E6F5701222E77F55
:101212000A12449C7F0D12449C756FFF75703275E3
:1012220071607BFF7A3179FD1222E7AA46A9477BDA
:10123200017F167E00124264789DA60608A6077BEF
:10124200FF7A32791318E6F56F08E6F5701222E795
:101252007F0A12449C7F0D12449C756FFF75703299
:1012620075716C7BFF7A3179FD1222E77F1C123D8A
:1012720033788A122B747BFF7A3179F9788A122BB0
:101282005B8F728E718D708C6F1222E77F0A12440F
:101292009C7F0D12449C756FFF75703275717A7B5D
:1012A200FF7A3179FD1222E77F20123D3378AB12AB
:1012B2002B747BFF7A3179F978AB122B5B8F728EAC
:1012C200718D708C6F1222E77F0A12449C7F0D127F
:1012D200449C756FFF7570327571877BFF7A317927
:1012E200FD1222E7AA46A9477B017F247E00123D18
:1012F2003B7899122B747BFF7A3179F97899122B0A
:101302005B8F728E718D708C6F1222E77F0A12448E
:101312009C7F0D12449C756FFF7570327571937BC3
:10132200FF7A3179FD1222E7AA46A9477B017F2C79
:101332007E00123D3B789F122B747BFF7A3179F944
:10134200789F122B5B8F728E718D708C6F1222E7D9
:101352007F0A12449C7F0D12449C756FFF75703298
:101362007571A07BFF7A3179FD1222E77892E6FE51
:1013720008E67805C333CE33CED8F9FF7884E6FC8D
:1013820008E6FD24FFFBEC34FFCB2FFFEB3EFE1201
:1013920029B2E4FCFD78A3122B747BFF7A3179F930
:1013A20078A3122B5B8F728E718D708C6F1222E775
:1013B2007F0A12449C7F0D12449C789EE618467068
:1013C200337899122B5B8F528E518D508C4F756FE3
:1013D200FF7570327571AB7BFF7A3179FD1222E7AE
:1013E2007BFF7A3179F9855272855171855070850A
:1013F2004F6F8022789DE6FE08E6FFE48F528E5101
:10140200F550F54F75480B756FFF7570327571B6F3
:101412007BFF7A3179F91222E77F0A12449C7F0D11
:1014220012449C78B0E61846704078AB122B5B8F62
:10143200568E558D548C53756FFF7570327571CB06
:101442007BFF7A3179FD1222E77BFF7A3179F985C8
:10145200567285557185547085536F1222E77F0A43
:1014620012449C7F0D12449C801378AFE6FE08E67E
:10147200FFE48F568E55F554F55375480B7894E674
:10148200FFE4FCFDFEAB52AA51A950A84F122A0755
:101492008E498F4A756FFF7570327571D47BFF7AF2
:1014A2003179FD1222E77BFF7A3179F985496F851F
:1014B2004A701222E77F0A12449C7F0D12449C78E4
:1014C20094E6FFE4FCFDFEAB52AA51A950A84F12CC
:1014D2002A07C004A905AA06AB077887E6FE08E634
:1014E200FFE4FCFDD000EB2FFFEA3EFEED39FDEC00
:1014F20038FC78A3122B67EF2BFBEE3AFAED39F9A1
:10150200EC38F8C3E5569BF55EE5559AF55DE55472
:1015120099F55CE55398F55B756FFF7570327571DF
:10152200E47BFF7A3179FD1222E77BFF7A3179F988
:10153200855E72855D71855C70855B6F1222E77FC7
:101542000A12449C7F0D12449C7886E6FBE4FAF969
:10155200F8AF5EAE5DAD5CAC5B122A928F5A8E59CB
:101562008D588C57756FFF7570327571EC7BFF7AF1
:101572003179FD1222E77BFF7A3179F9855A72853A
:10158200597185587085576F1222E77F0A12449C61
:101592007F0D12449C7894E6FFE4FCFDFEAB52AA58
:1015A20051A950A84F122A07C004A905AA06AB07E1
:1015B2007887E6FE08E6FFE4FCFDD000EB2FFFEAA9
:1015C2003EFEED39FDEC38FC78A3122B67EF2BFFC2
:1015D200EE3AFEED39FDEC38FC7880122B67EF2BEA
:1015E200FFEE3AFEED39FDEC38FC788E122B747565
:1015F2006FFF7570327571FC7BFF7A3179FD1222B3
:10160200E77BFF7A3179F9788E122B5B8F728E71BC
:101612008D708C6F1222E77F0A12449C7F0D124458
:101622009C789F122B5BEF24FEFFEE34FFFEED341D
:10163200FFFDEC34FFFCC004A905AA06AB077886BF
:10164200E6FFE4FCFDFED000122A07788E122B671B
:10165200EF2BFFEE3AFEED39FDEC38FC78A7122BAA
:1016620074756FFF7570337571097BFF7A3179FD7F
:101672001222E77BFF7A3179F978A7122B5B8F72FE
:101682008E718D708C6F1222E77F0A12449C7F0D3F
:1016920012449CE47FF57E0FFDFCAB5AAA59A9586F
:1016A200A857C3122B24501D7889760C75480B76E7
:1016B2000275480B756FFF7570337571197BFF7A70
:1016C2003179FD804CE47FF57EFFFDFCAB5AAA59CF
:1016D200A958A857C3122B2478895024760275483A
:1016E2000B756FFF7570337571257BFF7A3179FD4C
:1016F2001222E77BFF7A3179F97889E6F56F80115A
:101702007604756FFF7570337571317BFF7A3179AD
:10171200FD1222E77F0A12449C7F0D12449CAF48BF
:0117220022A4
:0834E9008F498E488D478C4687
:1034F100E4FFFEFDFCAB49AA48A947A846C3122B2D
:1035010024700578A7022B5BE54924FEFFE54834CA
:10351100FFFEE54734FFFDE54634FFFCC004A90585
:10352100AA06AB077886E6FFE4FCFDFED000122A6E
:1035310007788E122B67EF2BF54DEE3AF54CED39EE
:10354100F54BEC38F54A756FFF75703375713D7B3E
:10355100FF7A3179FD1222E77BFF7A33794A854D73
:1035610072854C71854B70854A6F1222E77F0A1272
:10357100449C7F0D12449C756FFF757033757151BA
:103581007BFF7A3179FD1222E77BFF7A33794A8515
:10359100497285487185477085466F1222E77F0A17
:1035A10012449C7F0D12449C756FFF7570327571CA
:1035B100167BFF7A3179FD1222E77BFF7A33795D41
:1035C1007886E6F56F1222E77F0A12449C7F0D127E
:1035D100449C756FFF7570327571FC7BFF7A317990
:1035E100FD1222E77BFF7A33794A788E122B5B8FAB
:1035F100728E718D708C6F1222E77F0A12449C7F4C
:0C3601000D12449CAF4DAE4CAD4BAC4ADA
:01360D00229A
:08414C008F268E258D248C23A3
:10415400E4FFFEFDFCAB26AA25A924A823C3122B49
:1041640024700578A7022B5BE52624FEFFE52534A1
:10417400FFFEE52434FFFDE52334FFFCC004A9055C
:10418400AA06AB077886E6FFE4FCFDFED000122AFF
:1041940007788E122B67EF2BFFEE3AFEED39FDEC1C
:0241A40038FCE5
:0141A60022F6
:083898008F0B8E0A8D098C08CC
:1038A0007887E6FE08E6FFE4FCFD7880122B67EFE0
:1038B0002BFFEE3AFEED39FDEC38FC7895122B74B7
:1038C000E47F04FEFDFCAB0BAA0AA909A808122A92
:1038D000078F118E108D0F8C0E7884E6FE08E6FBA4
:1038E000AA06E4F9F8AF11AE10122A927895122BBD
:1038F00067EF2BF519EE3AF518ED39F517EC38F5B9
:1039000016C294851975851874851773F5727F1121
:10391000123B74AA0CA90D7B017F007E027D007C06
:1039200000124019D2947884E6FE08E6FBAA06E469
:10393000F9F8AF11AE10AD0FAC0E122A92AC00AD7B
:1039400001AE02AF038F158E148D138C12AA0CA931
:0A3950000D7B01123D3BEC540FFC0F
:01395A00224A
:08395B008F268E258D248C239C
:103963007887E6FE08E6FFE4FCFD7880122B67EF1C
:103973002BFFEE3AFEED39FDEC38FC7895122B74F3
:10398300E47F04FEFDFCAB26AA25A924A823122A62
:10399300078F2C8E2B8D2A8C297884E6FE08E6FB74
:1039A300AA06E4F9F8AF2CAE2B122A927895122BC3
:1039B30067EF2BF534EE3AF533ED39F532EC38F5A4
:1039C30031C29485344085333F85323EF53D7F11C6
:1039D300123A1EAA27A9287B017F007E027D007C64
:1039E30000123AC5D2947884E6FE08E6FBAA06E400
:1039F300F9F8AF2CAE2BAD2AAC29122A92AC00AD4C
:103A030001AE02AF038F308E2F8D2E8C2DAA27A9E6
:0A3A1300287B01123EB5EC540FFCB5
:013A1D002286
:082E4B008F498E488D478C462B
:102E5300755D01854A5E854B5FE4F556F557F5547C
:102E6300F555788E122B5BAB49AA48A947A846C3F0
:102E7300122B24500F78A3122B5B8F538E528D513C
:102E83008C50800D7886E6FFE48F53F552F551F5AB
:102E93005085494F85484E85474D85464CAF4FAECB
:102EA3004EAD4DAC4CAB5DAA5EA95F1240198F5C71
:102EB300E55C600302301EAB5DAA5EA95FAF55AE51
:102EC300541245158F58E55864E57003022F9CE5AD
:102ED300587003022F9CE555240BFFE43554FEABD9
:102EE3005DAA5EA95F1245158F5AD2A5E55A540E05
:102EF3006003022F9C0557E557700205567BFF7A46
:102F030033796485566FF5701222E7E4F5597E0034
:102F1300E5552559FFEE3554FEAB5DAA5EA95F1258
:102F230045158F5B12449C0559E559C3940840DE4F
:102F3300E55A30E4307559087E00E5552559FFEE12
:102F43003554FEAB5DAA5EA95F1245158F5B124433
:102F53009C0559E559C3940B40DE7BFF7A33796AAC
:102F63001222E780347F2E12449C7559087E00E5B7
:102F7300552559FFEE3554FEAB5DAA5EA95F124598
:102F8300158F5B12449C0559E559C3940B40DE7FB2
:102F93000D12449C7F0A12449C74202555F555E478
:102FA3003554F554D3E55594FEE55494014063E557
:102FB3004F2401F54FE4354EF54EE4354DF54DE420
:102FC300354CF54CC3E54F9549FFE54E9548FEE575
:102FD3004D9547FDE54C9546FCAB53AA52A951A824
:102FE30050D3122B244025AF4FAE4EAD4DAC4CAB5E
:102FF3005DAA5EA95F1240198F5CE55C6007E4F58A
:1030030056F557F558E4F554F5558006435680E4D4
:10301300F558E5586003022EBA8005E4F556F557D6
:04302300AE56AF579F
:013027002286
:082C17008F498E488D478C4661
:102C1F00756101854C62854D63E4F55CF55DF55A90
:102C2F00F55BF559F558F557F556788E122B5BABCA
:102C3F0049AA48A947A846C3122B24500F78A312BC
:102C4F002B5B8F558E548D538C52800D7886E6FFFB
:102C5F00E48F55F554F553F5528549518548508504
:102C6F00474F85464EAF51AE50AD4FAC4EAB61AAFC
:102C7F0062A9631240198F60E5606003022E1CABDE
:102C8F0061AA62A963AF5BAE5A1245158F5EE55E0E
:102C9F0064E57003022D98E55E7003022D981245CE
:102CAF00068F5FE55F540E6003022D98055DE55DAD
:102CBF007002055C654B7004E55C654A6003022D8C
:102CCF00987889E66404705EE55B241512450AE482
:102CDF008F59F558F557F556E559540FF559E4F551
:102CEF0058F557F556AF59AE58AD57AC5678081240
:102CFF002B488F598E588D578C56E55B24141245EF
:102D0F000AE5594FF559E558F558E557F557E55682
:102D1F00F556AF59AE58AD57FC7808122B488F595E
:102D2F008E588D578C56E55B241B12450AE5594F7B
:102D3F00F559E558F558E557F557E556F556AF5996
:102D4F00AE58AD57FC7808122B488F598E588D57B7
:102D5F008C56E55B241A12450AE5594FF559E5588B
:102D6F00F558E557F557E556F5561245068F5FE5C9
:102D7F005F30E412E559F559E558F558E557F55721
:102D8F00E5564410F556E4F55E7420255BF55BE4DB
:102D9F00355AF55AD3E55B94FEE55A94014065E543
:102DAF00512401F551E43550F550E4354FF54FE41A
:102DBF00354EF54EC3E5519549FFE5509548FEE573
:102DCF004F9547FDE54E9546FCAB55AA54A953A820
:102DDF0052D3122B24402AAF51AE50AD4FAC4EAB55
:102DEF0061AA62A9631240198F60E560600CE4F577
:102DFF0059F558F557755680F55EE4F55AF55B8031
:102E0F0003E4F55EE55E6003022C8E800AE4F5595B
:102E1F00F558F557755680E4FFFEFDFCAB59AA58DF
:102E2F00A957A856C3122B247009F559F558F55711
:0B2E3F00755680AF59AE58AD57AC5629
:012E4A002265
:0A3028008F518D528B538A54895545
:10303200E4F55A309203209303755A0F12455FE567
:103042005125E054FEF559D293C292755607E556C2
:10305200C394085057E55A70537F04124549C293EE
:1030620074017E00A856088005C333CE33CED8F94A
:10307200FFE4FEEF5559A856088006CEA2E713CE0C
:1030820013D8F8FF139292EF5401F55B7F041245B7
:1030920049D293755801209308E558600405588079
:1030A200F5E5587003755A0E155680A2E55A700A56
:1030B200A29233655B6003755A0FE55A701F7F0455
:1030C200124549124543D293755801209308E55899
:1030D2006004055880F5E5587003755A0EE55A707C
:1030E20006309203755A10E4F557E557D3955240CE
:1030F200030231ABE55A60030231AB755607E55660
:10310200C3940850727F04124549C293AB53AA5428
:10311200A955855782758300122951FD74017E00DD
:10312200A856088005C333CE33CED8F9FFEDFBE4B1
:10313200FEEF5BA856088006CEA2E713CE13D8F89E
:10314200FF139292EF5401F55B7F04124549D2932B
:10315200755801209308E5586004055880F5E55834
:103162007003755A0EE55A700AA29233655B6003CA
:10317200755A0F15568087E55A701F7F041245490C
:10318200124543D293755801209308E5586004050F
:103192005880F5E5587003755A0EE55A700630925C
:1031A20003755A1005570230EC7F04124549C29349
:1031B200C292E4F55B7F07124549D293755801200C
:1031C2009308E5586004055880F5E5587003755A70
:1031D2000EE55A700AA29233655B6003755A0FD2EC
:0331E20092AF5A4F
:0131E50022C7
:0A1F20008F518D528B538A5489555E
:101F2A00E4F55A309203209303755A0F12455FE580
:101F3A005125E054FEF559D293C292755607E556DB
:101F4A00C394085065E55A70617F04124549C293EB
:101F5A0074017E00A856088005C333CE33CED8F963
:101F6A00FFE4FEEF5559A856088006CEA2E713CE25
:101F7A0013D8F8FF139292EF5401F55B7F041245D0
:101F8A0049D293755801209308E558600405588092
:101F9A00F5E5587003755A0EE55A700AA292336530
:101FAA005B6003755A0F15568094E55A701F7F04BB
:101FBA00124549124543D293755801209308E558B2
:101FCA006004055880F5E5587003755A0EE55A7095
:101FDA0006309203755A10E4F557E55A6003022059
:101FEA00A6755607E556C3940850787F04124549EA
:101FFA00C293AB53AA54A9558557827583001229F7
:10200A0051FD74017E00A856088005C333CE33CE35
:10201A00D8F9FFEDFBE4FEEF5BA856088006CEA2D6
:10202A00E713CE13D8F8FF139292EF5401F55B7FB2
:10203A0004124549D293755801209308E558600463
:10204A00055880F5E5587003755A0EE55A7010A2C6
:10205A009233F558A292E433655B6003755A0F1503
:10206A00568081E55A701F7F04124549124543D2B2
:10207A0093755801209308E5586004055880F5E5E2
:10208A00587003755A0EE55A7006309203755A1045
:10209A000557E557D394005003021FE47F04124505
:1020AA0049C293C292E4F55B7F07124549D2937500
:1020BA005801209308E5586004055880F5E55870E2
:1020CA0003755A0EE55A700AA29233655B6003756E
:1020DA005A0FD292309203209303755A0F12455F1A
:1020EA00E55125E04401F559D293C292755607E5A8
:1020FA0056C394085065E55A70617F04124549C277
:10210A009374017E00A856088005C333CE33CED817
:10211A00F9FFE4FEEF5559A856088006CEA2E71348
:10212A00CE13D8F8FF139292EF5401F55B7F041295
:10213A004549D293755801209308E558600405581B
:10214A0080F5E5587003755A0EE55A700AA2923363
:10215A00655B6003755A0F15568094E55A701F7FA8
:10216A0004124549124543D293755801209308E554
:10217A00586004055880F5E5587003755A0EE55AFB
:10218A007006309203755A10E4F557E557C3955215
:10219A00400302224AE55A600302224AAB53E5553C
:1021AA002557F9E43554FA122938E412297E75566E
:1021BA0007E556C3940850507F04124549C2937FDD
:1021CA0004124549D293755801209308E5586004D2
:1021DA00055880F5E5587003755A0EE55A7025A220
:1021EA009233F55BAB53E5552557F9E43554FA12AA
:1021FA002938FFAE56E55BA806088002C333D8FC2F
:10220A004F12297E155680A9E55A702F7F04124570
:10221A0049C293E55214B55704D2928002C2927F02
:10222A0004124549D293755801209308E558600471
:10223A00055880F5E5587003755A0E055702219521
:10224A007F04124549C293C292E4F55B7F071245A7
:10225A0049D293755801209308E5586004055880BF
:10226A00F5E5587003755A0EE55A700AA29233655D
:0A227A005B6003755A0FD292AF5A51
:012284002237
:06454300C293D2927F0436
:10454900308E03308FFDC28EBF040A758DFF758BC7
:06455900DEC28FD28E22AB
:10455F0053890F438910C2AB758DFF758BDEC28FE8
:03456F00D28E22C7
:103FA80070617463680A0D00252D31307300636FEA
:103FB800206572726F7231200025342E346C5800DF
:103FC800636F206572726F72200073656E643120B2
:103FD8000025322E326258006765743120007365FF
:103FE8006E64322000676574322000746573745FF4
:103FF8006572726F72200052656365697665642028
:1040080056616C7565203D2025322E3262580A0DA6
:0140180000A7
:1025E100D2B2C2B27BFF7A3F79A81222E7D2B2758A
:1025F10046FF75470075482EE4F550F54FF54EF549
:102601004DAB46AA47A948855082854F831229516F
:10261100F549E5502401F550E4354FF54FE4354EC9
:10262100F54EE4354DF54D855082854F8312295184
:10263100F54AE5502401F550E4354FF54FE4354EA8
:10264100F54EE4354DF54DE549F460117B007A0016
:1026510079497D017F431230288F4CC2A7E549F4A7
:102661006004E54C609BE54C6012756FFF75703F2F
:102671007571B67BFF7A3F79B01222E77BFF7A3F13
:1026810079C1855072854F71854E70854D6F1222CB
:10269100E77F0A12449C7F0D12449C7546FF7547E3
:1026A1000F7548CCE4F550F54FF54EF54DAB46AA04
:1026B10047A948855082854F83122951F549E55034
:1026C1002401F550E4354FF54FE4354EF54EE43530
:1026D1004DF54D855082854F83122951F54AE550BC
:1026E1002401F550E4354FF54FE4354EF54EE43510
:1026F1004DF54DE549F460117B007A0079497D0182
:102701007F431230288F4CC2A7E549F46004E54CA1
:10271100609BE54C6012756FFF75703F7571C87BEA
:10272100FF7A3F79B01222E77BFF7A3F79C185506A
:1027310072854F71854E70854D6F1222E77F0A12A7
:10274100449C7F0D12449C754954754A0785494B39
:102751007B007A0079497D017F431230287B007A22
:1027610000794B7D017F43121F208F4C756FFF75E0
:10277100703F7571D27BFF7A3F79B01222E77BFF00
:102781007A3F79D9854A6F1222E7756FFF75703FDD
:102791007571E07BFF7A3F79B01222E77BFF7A3FC8
:1027A10079D9854B6F1222E77F0A12449C7F0D1263
:1027B100449C754955754A1085494B7B007A0079CF
:1027C100497D017F431230287B007A00794B7D01DE
:1027D1007F43121F20756FFF75703F7571E67BFF98
:1027E1007A3F79B01222E77BFF7A3F79D9854A6F28
:1027F1001222E7756FFF75703F7571ED7BFF7A3FB0
:1028010079B01222E77BFF7A3F79D9854B6F12228B
:10281100E77F0A12449C7F0D12449C754906754A54
:10282100097B007A0079497D017F4312302875497F
:102831000B754A027B007A0079497D017F43123092
:1028410028754961754A057B007A0079497D017FC8
:1028510043123028754950754A067B007A00794940
:102861007D017F43123028754965E4F54AFB7A0002
:1028710079497D017F43123028754952754AB87BE9
:10288100007A0079497D017F43123028754964E45B
:10289100F54AFB7A0079497D017F43123028754959
:1028A10051E4F54AFB7A0079497D017F43123028D2
:1028B100754905754AA17B007A0079497D017F43FD
:1028C100123028754903E4F54AFB7A0079497D0104
:1028D1007F43123028754918754A047B007A0079C4
:1028E100497D017F4312302875490C754A057B00EB
:1028F1007A0079497D017F43123028754946754A2E
:10290100087B007A0079497D017F4312302875499F
:1029110048754A087B007A0079497D017F4312306E
:1029210028754972754A017B007A0079497D017FDA
:0629310043123028AF4CF8
:01293700227D
:0641A7008B468A4789489F
:1041AD00E4F54AF549AB46AA47A9487D017F43127C
:1041BD001F208F4A1549E54A6004E54970E7E54A35
:1041CD00601C756FFF75703F7571F37BFF7A3F79DA
:1041DD00B01222E77F0A12449C7F0D12449CAB461D
:1041ED00AA47A948122938F56F7BFF7A3F79FF124C
:0441FD0022E7AF4ABC
:01420100229A
:10002E003A012A0428002900200021002200230082
:10003E00240025002600270028012802218F2803EE
:10004E002100280428052806280728082809280A38
:10005E00280B280C20802190280D20002100280E2E
:10006E0020812191280F2000219228102100281193
:10007E0021932812210028132814281520822816CF
:10008E0020002817281828192194281A2195281B92
:10009E002196281C2100281D2083281E2000281FA1
:1000AE0021972820210028212822282328242825AA
:1000BE002826282728282829282A2084282B20008B
:1000CE00282C282D282E282F28302831283220851C
:1000DE002833200028342835283628372198283808
:1000EE0021002839283A283B283C283D283E283F25
:1000FE002840284128422843284428452846284796
:10010E0028482849284A284B284C284D284E284F45
:10011E0028502851285228532854285528562857F5
:10012E0028582859285A285B285C285D285E285FA5
:10013E002860286128622199286321002864286597
:10014E002866286728682869286A286B286C286D15
:10015E00286E286F287028712872287328742875C5
:10016E002876287728782879287A287B287C287D75
:10017E00287E287F28802881288228832884288525
:10018E002886288728882889288A288B288C288DD5
:10019E00288E288F289028912086289220872893B1
:1001AE002000289428952896289728982899289AE8
:1001BE00289B289C289D289E289F219A28A02100B4
:1001CE0028A128A228A328A428A528A628A728A8BD
:1001DE0028A928AA28AB28AC28AD28AE28AF28B06D
:1001EE0028B128B228B328B428B528B628B728B81D
:1001FE0028B9208828BA200028BB208928BC2000D6
:10020E0028BD28BE28BF28C028C128C228C3219BCC
:10021E0028C4210028C528C628C728C828C928CA26
:10022E0028CB28CC28CD28CE28CF28D028D128D20C
:10023E0028D328D428D528D628D728D828D928DABC
:10024E0028DB28DC28DD28DE28DF28E028E1208ACC
:10025E0028E2208B28E3200028E428E528E628E77A
:10026E0028E828E928EA28EB28EC28ED28EE28EFE4
:10027E0028F028F128F228F328F428F528F628F794
:10028E0028F8208C28F92000219C28FA219D28FB93
:10029E00208D219E28FC208E219F28FD20002100EC
:1002AE0028FE28FF2A0128002201239524892507EC
:1002BE0026A42707280121C72200238026C4270C45
:1002CE0028022009211C220426AA270A280320001E
:1002DE002100220023A626A0270728042805200592
:1002EE00238426B427092806200022032300248114
:1002FE0025C026AB270A280721AE22002395248984
:10030E00250726A42700280821482201238026C479
:10031E00270C280920092104220426AA270A280AC4
:10032E0020002100220023A826A42707280B280C32
:10033E0021402220238026C4270C280D222426C6E5
:10034E00280E219E220026C8280F200921022214E1
:10035E0026AA270A2810200521002200238426B46D
:10036E0027092811200021012300240125C026ABD6
:10037E00270A281221C32395248925072620270022
:10038E002813200321C223832626270D281421B3E8
:0D039E0022082815200021C62200239526E4
:1003AB000027082816210023002496250326AA27B8
:1003BB000A2817204221B6238024892507281820D4
:1003CB000021002394260E2819200F238426B427FE
:1003DB0009281A2000239326A82703281B26282741
:1003EB0000281C21012300240125C026AB270A2845
:1003FB001D21C523952489250726202700281E218A
:10040B000023942600270A281F260E2820200321CC
:10041B0079220123832626270D2821213228222009
:10042B0000210422002380240025FC26AA270A2869
:10043B0023210023002500282421A3220D2380241F
:10044B009E253B2825204221572201248925072858
:10045B002620002143220D2400253828272108229D
:10046B009823952489250726242700282820422114
:10047B00932201238026AA270A28292003217E22E2
:10048B000423832626270D282A200021B0220023AF
:10049B009526A02707282B21002300240C250426B2
:1004AB00AA270A282C21022380248625C326AB28C1
:1004BB002D2042219722012489250726AA282E20A8
:1004CB000021002200241F2504282F21B22395246C
:1004DB008925072620270428302042218B2204233C
:1004EB008026AA270A2831200021B1220023952635
:1004FB00A0270728322003217522042383262627D1
:10050B000D2833200521002200238426B427092837
:10051B0034200021602300240125C026AB270A28A4
:10052B00352108229823952489250726242700287E
:10053B003621BC2200283721A3220D2300240125BC
:10054B00C026AB270A2838216022002380240025EF
:10055B003826AA283921062298239524892507268F
:10056B00242700283A21BE2200283B200521002306
:10057B008426B42709283C20002160230024012570
:10058B00C026AB270A283D21422201239524892529
:10059B000726242700283E210C229826A42707286B
:1005AB003F21082840216022002300240125C0267A
:1005BB00AB270A2841210C2298239524892507264D
:1005CB002427002842200521002200238426B4275B
:1005DB00092843200023802400251026AB270A2856
:1005EB00442122220123952489250726242700282C
:1005FB00452100220023002404251226AA270A28BD
:10060B0046200321D4220523832489250726262768
:10061B000D28472000216022002300240125C0263D
:10062B00AB270A284821B3239524892507260027C1
:10063B00082849210023002409250026AA270A2877
:10064B004A210223802486253B284B204221DD2290
:10065B000524892507284C200021002200241F2572
:10066B0000284D21B3239524892507262027002810
:10067B004E210023002497250326AA270A284F2062
:10068B004221E222052380248925072850200021BE
:10069B001022002300248025CC26AB2851210022D8
:1006AB004023B42489250726AA2704285222002395
:1006BB00B0269227092853211422012395260027BF
:1006CB00082854214823A4262A2700285521002234
:1006DB000023002409250026AA270A2856210823CF
:1006EB00802486253B285720422111220724892567
:1006FB00072858200021002200241F2500285921FB
:10070B0014220123952489250726202700285A2106
:0D071B001626022709285B2100220023007A
:100728002480254826AA270A285C23A0248925078F
:1007380026142709285D2480255026A42704285E2E
:10074800211622012395248925072700285F2104E3
:1007580022002300249C257826AA270A2860214302
:10076800220D240125C426AB28612103220024156B
:10077800286221002400250026AA2863215E2395EB
:100788002489250726102709286421032300241516
:1007980025C426AB270A28652100238024002506C6
:1007A80026AA2866248F25E326AB2867204221CD78
:1007B80022072489250726AA28682000216022000C
:1007C8002300240125C026AB286921002380248F1B
:1007D800250326AA286A204221DD22072489250725
:1007E800286B20002143220D2300240125C026ABBD
:1007F800286C210022002400250426AA286D200345
:10080800217F22012383248925072626270D286E88
:100818002162286F200521002200238426B427099D
:100828002870200021062395260027082871210119
:1008380023002497253B26AA270A28722042210E46
:10084800220823802489250728732003213C220BB2
:1008580023832626270D28742000210322002395B0
:1008680026022708287521272300248125C426ABC2
:10087800270A2876210023802409254826AA2877D4
:100888002158223423A324892507262A27002878DB
:100898002100220023A02600270928792107238088
:1008A8002403253926AA270A287A21042300241C90
:1008B8002538287B2107238024832539287C210398
:1008C80023952489250726022708287D2127230028
:1008D800248125C426AB270A287E210023802409E9
:1008E800254826AA287F2158223423A324892507AE
:1008F800262A27002880210622002300248125C0DB
:10090800269327012881210023802489254826AAA7
:10091800270A28822002216622082300240025664F
:1009280028832000210022002380241F25022884F8
:1009380021062489250726DC270C2885210023AADF
:1009480026AA270A288623B6260027082887238070
:100958002486253B26AA270A2888210524892507D5
:1009680026DC270C2889210023AA26AA270A288AF8
:1009780023B626002708288B23802486253B26AA11
:10098800270A288C2042217B220824892507288DC4
:10099800200021002200230024012582288E210521
:1009A800248125C226AB288F200321932208238384
:1009B800248925072626270D2890200021052200B6
:1009C8002300248125C02613270128912100238094
:1009D8002489254826AA270A28922002217E22084F
:1009E800230024002566289320002100220023806C
:1009F800241F2502289421052489250726DC270C95
:100A08002895210023AA26AA270A289623B6260075
:100A18002708289723802486253B26AA270A289872
:100A280021052489250726DC270C2899210023AADB
:100A380026AA270A289A2380241F2502289B2101F9
:100A48002300248125C226AB289C20032193220859
:100A58002383248925072626270D289D2000210485
:100A68002200239526122708289E216023C426AA3F
:100A78002704289F210023C02600270928A02042F8
:100A880021CB2208238026AA270A28A120702154D6
:0D0A980022B823952612270828A22002214B
:100AA500CC2208238026AA270A28A3200321CA22AC
:100AB5000F23832626270D28A420002100220023AA
:100AC50000248C250C26AA270A28A5210424822582
:100AD5007828A62100238024892548261227042862
:100AE500A7200321DE220F238325072626270D288D
:100AF500A82000210122002300249C257826AA276E
:100B05000A28A9210023802481254028AA20032121
:100B1500CF220F2383248925072626270D28AB20DE
:100B250070210822B8239526A0270428AC2003218C
:100B3500D4220F23832626270D28AD2127220B2813
:100B4500AE2070216322B823952612270828AF20EE
:100B550000210122002380248625CB26AB270A28E5
:100B6500B0204221DD22082489250726AA28B120A4
:100B75000021182280239526A4270028B2200321CE
:100B8500D9220F23832626270D28B32070210A2278
:100B9500B8239526A0270028B4200221E0220823A7
:100BA5008026AA270A28B52070210A22B82395266F
:100BB500A0270028B621542602270828B72000219F
:100BC50018228026A4270028B8210022002380248B
:100BD50080254826AA270A28B92070215E22B82335
:100BE50095248925072612270828BA2000210022E6
:100BF5000023802409254B26AA270A28BB2070211B
:100C05005F22B82395248925072610270828BC20AC
:100C150000210022002300241C258326AB270A2857
:100C2500BD2003213222092383248925072626276F
:100C35000D28BE20002100220023002482258C26B9
:100C4500AB270A28BF2003212522092383248925D0
:100C5500072626270D28C0204221BC238026AA2747
:100C65000A28C12000210122002300240125C026D5
:100C7500AB28C22070210F22B82395248925072689
:100C850020270028C3200321E3220F2383262627BC
:100C95000D28C4200521002200238426B427092815
:100CA500C52000210323952614270828C621A6233D
:100CB500A4262A270528C7210023A026442709287A
:100CC500C82118226D2380249E257B26AA270A2861
:100CD500C920422113220B2489250728CA20002177
:100CE500AE220023952624270028CB2100220323AA
:100CF500802487257B26AA270A28CC204221162274
:100D05000B2489250728CD200021AE220023952616
:100D150024270028CE20052100238426B42709286E
:100D2500CF2003210D220B23832626270D28D02033
:100D35000021002200230024802602270028D12339
:100D45008024092548261E28D221582234233324FD
:100D5500802507262A28D321002200230026802764
:100D65001028D421102363262A270028D521002303
:100D75006026A8271228D621AF224C230026C82793
:100D85000C28D7210022002680270528D823802477
:100D950086253B261E270028D92042211C220E230A
:100DA500002480250728DA20002135222926C4279A
:100DB5000C28DB2002211D220E261E270028DC2000
:100DC50000217F223426C4270C28DD2100220023A0
:100DD50090249F25042610270A28DE230024842535
:100DE500002680271028DF21062363248025072677
:100DF5002A270028E021002380248926AA270A28FB
:100E0500E12005238426B4270928E22070216122E8
:0D0E1500B823952612270828E320002101AC
:100E220022002380248625C326AB270A28E42042F9
:100E320021CE220F2489250726AA28E520702150D9
:100E420022B823952612270828E620052100220031
:100E5200238426B4270928E72070216422B8239529
:100E62002612270828E82000210122002380248658
:100E720025C326AB270A28E9204221D3220F248941
:100E8200250726AA28EA2070215122B82395261286
:100E9200270828EB200521002200238426B42709F5
:100EA20028EC2070216522B823952612270828ED08
:100EB2002000210122002380248625C326AB270A95
:100EC20028EE204221D8220F2489250726AA28EFBE
:100ED2002070215222B823952612270828F02005D7
:100EE20021002200238426B4270928F120702161E1
:100EF20022B823952602270828F220002101220089
:100F02002380248625C326AB270A28F3204221DD2D
:100F1200220F2489250726AA28F42070215022B8FE
:100F220023952602270828F5200521002200238484
:100F320026B4270928F6200021012380248625CB08
:100F420026AB270A28F7204221E1220F2489250710
:100F520026AA28F82000210222002300248125C489
:100F620026AB28F9210023802489254826AA28FABD
:100F720020052384250726B4270928FB2070214E4B
:100F820022B823952610270828FC200021002200E1
:100F92002380248625C326AB270A28FD204221E789
:100FA200220F2489250726AA28FE200021BB220021
:100FB20023952620270028FF20052100238426B41C
:100FC20027092A081001FFFFFFFF3A00643A65BBB8
:100FD200083A09BB50105267517705A11804540111
:100FE20055210700060C0B03501051005204610FEB
:0C0FF2006455655505A11804FFFFFFFFC2
:030000000245B402
:0C45B400787FE4F6D8FD7581E5021B2A33
:10293800BB010689828A83E0225002E722BBFE029D
:09294800E32289828A83E49322D0
:10295100BB010CE58229F582E5833AF583E022503B
:1029610006E92582F8E622BBFE06E92582F8E22285
:0D297100E58229F582E5833AF583E493229F
:10297E00BB010689828A83F0225002F722BBFE0138
:02298E00F32232
:10299000F8BB010DE58229F582E5833AF583E8F07D
:1029A000225006E92582C8F622BBFE05E92582C829
:0229B000F22211
:1029B200BC000BBE0029EF8DF084FFADF022E4CC09
:1029C200F875F008EF2FFFEE33FEEC33FCEE9DECD2
:1029D200984005FCEE9DFE0FD5F0E9E4CEFD22ED18
:1029E200F8F5F0EE8420D21CFEADF075F008EF2F62
:1029F200FFED33FD4007985006D5F0F222C398FD53
:052A02000FD5F0EA22EF
:102A0700E88FF0A4CC8BF0A42CFCE98EF0A42CFC6E
:102A17008AF0EDA42CFCEA8EF0A4CDA8F08BF0A4EC
:102A27002DCC3825F0FDE98FF0A42CCD35F0FCEB4B
:102A37008EF0A4FEA9F0EB8FF0A4CFC5F02ECD3910
:0F2A4700FEE43CFCEAA42DCE35F0FDE43CFC227D
:102A560075F008758200EF2FFFEE33FECD33CDCC37
:102A660033CCC58233C5829BED9AEC99E5829840BA
:102A76000CF582EE9BFEED9AFDEC99FC0FD5F0D697
:102A8600E4CEFBE4CDFAE4CCF9A88222B800C1B9C1
:102A96000059BA002DEC8BF084CFCECDFCE5F0CBFF
:102AA600F97818EF2FFFEE33FEED33FDEC33FCEB38
:102AB60033FB10D703994004EB99FB0FD8E5E4F9F3
:102AC600FA227818EF2FFFEE33FEED33FDEC33FCE0
:102AD600C933C910D7059BE99A4007EC9BFCE99AD4
:102AE600F90FD8E0E4C9FAE4CCFB2275F010EF2F19
:102AF600FFEE33FEED33FDCC33CCC833C810D70719
:102B06009BEC9AE899400AED9BFDEC9AFCE899F853
:0E2B16000FD5F0DAE4CDFBE4CCFAE4C8F922E6
:102B2400EB9FF5F0EA9E42F0E99D42F0E89C45F007
:012B3400227E
:102B3500E8600FECC313FCED13FDEE13FEEF13FF7E
:032B4500D8F122A2
:102B4800E8600FEFC333FFEE33FEED33FDEC33FCEB
:032B5800D8F1228F
:0C2B5B00E6FC08E6FD08E6FE08E6FF22A6
:0D2B6700E6FB08E6F908E6FA08E6CBF822DE
:0C2B7400ECF608EDF608EEF608EFF6228D
:102B8000D083D082E493F608740193F6087402931C
:092B9000F608740393F674047353
:102B9900D083D082E4937012740193700DA3A39330
:102BA900F8740193F5828883E4737402936C70124C
:102BB9007403936D700C7404936E70067405936FAF
:0A2BC90060DDA3A3A3A3A3A380CAA9
:10449C00EFB40A07740D1244A7740A309811A89946
:1044AC00B8130CC2983098FDA899C298B811F63080
:0744BC0099FDC299F5992258
:10228500E57B246FF8E6057B22786C301002786FC9
:10229500E475F001122BE10229382009EB7F2ED2DB
:1022A500098018EF540F2490D43440D4FF300D0B1F
:1022B500EF24BFB41A0050032461FFE57C600215CA
:1022C5007C057FE57F7002057E30100D786CE47526
:1022D500F001122BE1EF02297E02449C7403D21017
:1022E5008003E4C210F57B8B6C8A6D896EE4F57C06
:1022F500F57EF57FE57C60077F201222C080F575AD
:102305007DFFC20AC209C20BC20CC20EC20FC211A6
:1023150012228EFF700D3010057F001222D1AF7F83
:10232500AE7E22B4255FC2D5C20D12228EFF24D007
:10233500B40A00501A75F00A787C30D50508B6FF46
:102345000106C6A426F620D5047002D20C80D92435
:10235500CFB41A00EF5004C2E5D20D0224D1D20A3F
:1023650080C6D20980C0D20B80BCD2D580BAD20E2D
:1023750080B47F201222C0200B077401B57C004079
:10238500F1122285FF1222C00222F9D211D20F804A
:1023950095122285FB122285FA122285F94A4B7085
:1023A5000679A27A257BFF200B2EE57C602A7E002C
:1023B5008E8275830012295160060EEE657D70F0E0
:1023C500C2D5EBC0E0EAC0E0E9C0E0EE122518D0C6
:1023D500E0F9D0E0FAD0E0FB122938FF60AAEBC0A3
:1023E500E0EAC0E0E9C0E01222C0D0E02401F9D063
:1023F500E03400FAD0E0FBE57D0460DCD57DD980D2
:10240500877BFF7A257914D20B809C79108002791D
:1024150008C20FC2118008D2D5790A8004790AC290
:10242500D5E57D047002F57DE4FAFDFEFF122285F7
:10243500FC7B08200A13122285FD7B1030090A1245
:102445002285FE122285FF7B20EC3382D592D55062
:1024550013C3E43009069FFFE49EFEE4200A039DB2
:10246500FDE49CFCE4CBF8C20AEC700CCFCECDCCDD
:10247500E824F8F870F38017C3EF33FFEE33FEED71
:1024850033FDEC33FCEB33FB994002FB0FD8E9EB52
:10249500300A05F8D0E0C448B20AC0E00AEC4D4E57
:1024A5004F78207B0070C2EAB57D0040BCC0E012C9
:1024B500251AD0F0D0E0200A04C4C0E0C4B20AC096
:1024C500F01222A9D0F0D5F0EB0222F9122BF1235C
:1024D500965324105823674C23634224144F241C1D
:0F24E50044241C49237C43242255240646240604
:1024F4004524064725C250236B2D236F2E23922B90
:1025040023732323902025AB2A232B480000238AFE
:102514003F3F3F00790AA2D5200C14300E09B910B0
:10252400020404B9080104A2D5200F0250010420BA
:102534000B68920BB57C005034C0E07F20300C193E
:102544007F30A20B720F720E500F122571C20BC294
:102554000FC20EC2117F30800F300E03E9C0E012AB
:1025640022C0300E03D0E0F9D0E0B57CCC300E1799
:102574007F30B9100C1222C07F58300D077F78804D
:1025840003B908031222C0300B057F2D0222C07F3D
:10259400202011F87F2B200FF322920B80CF286E7E
:1025A400756C6C2900D20A122285300AF8C20A78A6
:1025B4007C30D50108F602232B2D504349581222B2
:1025C400852403B405004001E49025BD931222B193
:0D25D400743A1222B1D20C757C040224105E
:1045850010120B1245C0BF0D027F0A02449CAF1AE0
:014595002203
:1036F4008B578A588959AB57AA58A959122938FFA8
:10370400124572500D74012559F559E43558F55890
:1037140080E4D209AB57AA58A959122938FF642B5F
:103724006004EFB42D1BAB570559E559AA58700234
:10373400055814F9122938642D6003D38001C3920B
:1037440009E4F55DF55CF55BF55AAB57AA58A95940
:10375400122938FF1245A5505CE47F0AFEFDFCAB3C
:103764005DAA5CA95BA85A122A07C8ECC8EDC0E0A0
:10377400EEC0E0EFC0E0AB57AA58A959122938FFB0
:103784003395E0FEEF24D0FFEE34FFFEE4FCFDD0E1
:10379400E0FBD0E0FAD0E0F9EB2FF55DEA3EF55C12
:1037A400ED39F55BEC38F55A74012559F559E435D2
:1037B40058F558809530090AAF5DAE5CAD5BAC5AE4
:0E37C400800BAF5DAE5CAD5BAC5A122BD32216
:0E2BD300C3E49FFFE49EFEE49DFDE49CFC2213
:102BE100FAE6FB0808E6F925F0F618E6CA3AF622F5
:102BF100D083D082F8E4937012740193700DA3A373
:102C010093F8740193F5828883E473740293686086
:062C1100EFA3A3A380DF86
:0A45C0003098FDAF99C2987E0022EA
:0F45A500EFC394304007EF943A50028001C322D5
:10457200EFC394094005EF940E4003BF2003D3809C
:0345820001C32250
:00000001FF
