:100EDE005389F0438901C2A9E4FDFCC3ED9FEC9E4A
:100EEE005016758CFA758A1FC28DD28C308DFDC24C
:080EFE008C0DBD00010C80E326
:010F060022C8
:050F7C00C200753438CD
:100F8100A20092B6D2B77F0A7E00120EDE853480AF
:0D0F9100C2B77F017E00120EDE7580FF22C8
:080D14008F2F8B308A318932E8
:100D1C00E52F701FF533AB30AA31A93285338275BC
:100D2C008300120378FF602FD200F534120F810577
:100D3C003380E3E4F533E533C3952F501AD200AB7F
:100D4C0030AA31A932853382758300120378F534C9
:070D5C00120F81053380DF57
:010D6300226D
:100EA8007F1E7E00120EDE120F7C7F057E00120E62
:100EB800DE120F7C120F7CC20075340F120F81C234
:100EC80000753401120F817F027E00120EDEC2000F
:060ED800753406020F81D3
:0F0FDE00C200753401120F817F027E00020EDE09
:1008FA00E4F52774292527F8E4F60527E527B40B3C
:10090A00F274FFF537F536F535F534E4F527120FAD
:10091A00CD8F28E528C394304012E528D394395066
:10092A000B74292527F8A6280527804AE528640894
:10093A006005E528B47F0B152774292527F8E4F606
:10094A00802AE528640D6005E528B40A1A7B007A36
:10095A000079291207448F378E368D358C347F0DF6
:10096A00120F307F0A800C7F08120F307F20120F7F
:10097A00307F08120F30E527B40A1B7B007A007912
:10098A00291207448F378E368D358C347F0D120F1E
:10099A00307F0A120F3074FFFFFEFDFCAB37AA3618
:1009AA00A935A834C31204A77003020918AF37AED9
:0509BA0036AD35AC3440
:0109BF002215
:100D640025322E3262582000456E7465722061204F
:100D7400426C6F636B004E756D6265723A2000259C
:100D84002D33357300456E746572206120426C6F9B
:100D9400636B204E756D6265720052656164205309
:080DA4007563636573732100A0
:10082200C2A6120F9E120EA87F807E1A7D067C0041
:10083200120C4E12055E8F22E522603EC2A7120FF5
:10084200DEC200753480120F817B007A0079227F2C
:1008520001120D147FE87E03120EDE7BFF7A0D7902
:10086200648522371200657F0A120F307F0D120F46
:10087200307FE87E03120EDE80BE7FE87E03120E1A
:10088200DE120FDEC200753480120F817BFF7A0DFB
:10089200796C7F0D120D14C2007534C0120F817B6A
:1008A200FF7A0D797A7F08120D147537FF75380DAE
:1008B2007539897BFF7A0D79831200651208FA8FE8
:1008C200268E258D248C23120FDEAF26AE25AD2475
:1008D200AC237B017A007900120A4D8F227BFF7ACA
:1008E2000D799E7F0D120D147B017A0079007D0037
:0808F2007C02120CB502083A69
:100DAC002570200025322E32625820004164647276
:100DBC002E202020302020312020322020332020D3
:100DCC003420203520203620203720203820203990
:100DDC002020412020422020432020442020452058
:050DEC0020460A0D0085
:100B62008B2F8A3089318B378A3889397BFF7A0D0E
:100B720079AC120065E4F532AB2FAA30A931853287
:100B820082758300120378F5337BFF7A0D79B0F515
:100B9200371200650532E532C3941040DBE4F532CA
:100BA200AB2FAA30A931853282758300120378F502
:100BB20033C394204007E533D3947F400375332E2B
:100BC200AF33120F300532E532C3941040D27F0D9D
:080BD200120F307F0A020F3000
:0A0CB5008C2A8D2B8B278A288929B1
:100CBF008B2C8A2D892EAF0153070F7E00C3E49F23
:100CCF00FFE49EFEEF252EF52EEE352DF52D7BFF45
:100CDF007A0D79B8120065AB2CAA2DA92E120B62D2
:100CEF007410252EF52EE4352DF52DE529252BF93C
:100CFF00E528352AFA8A838982C3E52E9582E52D68
:040D0F00958340D3B5
:010D130022BD
:0810120025322E326258200045
:10055E00758E0CD294E4F52D7B007A0079277FFFFF
:10056E00120F0F052DE52DC3940A40EC7B007A0087
:10057E007927120E708F2C120FDEC2007534801286
:10058E000F817B007A0079277F05120D14E4F52D7B
:10059E007427252DF8E6F52E7BFF7A107912F537A4
:1005AE00120065052DE52DC3940540E47F0A120F58
:1005BE00307F0D120F307F647E00120EDEE52C7040
:1005CE000AFB7A007927120DF18F2C120FDEC20072
:1005DE00753480120F817B007A0079277F05120D0A
:1005EE0014E4F52D7427252DF8E6F52E7BFF7A10F1
:1005FE007912F537120065052DE52DC3940540E4FB
:10060E007F0A120F307F0D120F307F647E00120EA4
:10061E00DEE52C7015FB7A007927120F578F2CE52B
:10062E002764016005752C05C2A5120FDEC2007588
:10063E003480120F817B007A0079277F05120D140A
:10064E00E4F52D7427252DF8E6F52E7BFF7A10792B
:10065E0012F537120065052DE52DC3940540E47F94
:10066E000A120F307F0D120F307F647E00120EDEE5
:10067E00E52C700AFB7A0079271209C08F2C120F15
:10068E00DEC200753480120F817B007A0079277FDD
:10069E0005120D14E4F52D7427252DF8E6F52E7BA5
:1006AE00FF7A107912F537120065052DE52DC394EA
:1006BE000540E47F0A120F307F0D120F307F647EEB
:1006CE0000120EDEE52C701DFB7A007927120F57F3
:1006DE008F2CE52854C0700DE52830E705752C07E2
:1006EE008003752C05120FDEC200753480120F8147
:1006FE007B007A0079277F05120D14E4F52D7427FF
:10070E00252DF8E6F52E7BFF7A107912F5371200BB
:10071E0065052DE52DC3940540E47F0A120F307F49
:10072E000D120F307F647E00120EDEE52C6002C2C9
:05073E00A7D294AF2CCE
:010743002293
:060E70008B2F8A3089314E
:100E7600C294E4F53BF53AF539F538FF120AD9EF95
:100E8600700BAB2FAA30A9317F01120BDAEF700F6E
:100E9600AB2FAA30A93112035F640160027F05D22D
:010EA60094B7
:010EA7002228
:060DF1008B2F8A308931CE
:100DF700C294E4753BAA753A01F539F5387F0812B4
:100E07000AD9EF700BAB2FAA30A9317F05120BDA85
:100E1700AB2FAA30A93112035FFEB405047F098006
:0A0E270007EE640160027F06D2941A
:010E3100229E
:060F57008B2F8A30893166
:100F5D00C294E4F53BF53AF539F5387F3A120AD9E2
:0E0F6D00EF700BAB2FAA30A9317F05120BDA03
:010F7B002253
:0609C0008B2F8A30893103
:1009C600E4F536F535F534753340C294F532053223
:1009D600E4F53BF53AF539F5387F37120AD9EF7069
:1009E6000BAB2FAA30A9317F01120BDAAB2FAA303D
:1009F600A93112035FFE6006640160027F02EF7098
:100A06001185363B85353A8534398533387F291249
:100A16000AD9EF700BAB2FAA30A9317F01120BDA7E
:100A2600AB2FAA30A93112035FFE60066401600293
:100A36007F020532EE6007E5326003EF6090E53233
:060A460070027F01D29452
:010A4C002287
:0E0A4D008F2A8E298D288C278B2B8A2C892DA1
:100A5B00C294E4F52E8F3B8E3A8D398C387F111270
:100A6B000AD9052EEF700BFB7A00792F7F01FE124E
:100A7B000E32E52F6004E52E70E8E52E70027F0143
:100A8B00E4F52E052EEF700BFB7A00792F7F01FE1C
:100A9B00120E32E52F64FE6007E52E6003EF60E374
:100AAB00E52E70027F01E52F54F070027F08EF7086
:100ABB000CAB2BAA2CA92DFF7E02120E32EF700B62
:0D0ACB00FB7A00792F7F03FE120E32D294C9
:010AD80022FB
:100C4E00E4F527AB07AA06A905A804FF7EA07D8CB4
:100C5E00FC120415EFD39402500575C3708045EF56
:100C6E00D39404500575C371803AEFD394085005A0
:100C7E0075C372802FEFD39410500575C373802403
:100C8E00EFD39420500575C3F08019EFD3944050E4
:100C9E000575C3F1800EEFD39480500575C3F280B5
:060CAE0003752704AF27C7
:010CB400221D
:080F07007B007A00793B7FFFBB
:100F0F00E4FE8FC5AFC40EEF20E703EE70F6EE6080
:100F1F000BE5C51203A5EF5470FE80027E01AF06EC
:010F2F00229F
:020AD9008F3755
:100ADB00E537C39440507BE5374440FCFF7B007AFD
:100AEB0000793C120F0FAD07753D18ED70047F01B7
:100AFB0080027F00E53DC3941950047E0180027E85
:100B0B0000EE5F6024AF3BAE3AAD39AC38A93DA8DF
:100B1B00011204B8AC077B007A00793C120F0FADC1
:100B2B000774F8253DF53D80C2E53770047C958050
:100B3B000BE537B408047C8780027C01ED700CAFA9
:100B4B0004FB7A00793C120F0FAD07ED60067D02B6
:060B5B0080027D03AF05DE
:010B61002271
:080BDA008F378B388A39893A04
:100BE200E4FDFC120F07AC070DED6008EC7005E5A3
:100BF2003BF460EFAB38AA39A93AE53B1203A5ED05
:100C020070047C01803AEC60047C028033E53B6432
:100C1200016008E53B60047C028025E537D394013E
:100C2200401E7D01EDC395375016120F07AB38AA4F
:100C320039A93A8D82758300E53B1203B70D80E432
:0B0C4200EC7006FB120F09AC07AF04BA
:010C4D002284
:0A0E32008E348F358B368A378938ED
:100E3C00E4F539F53AFDFCC3ED9535EC95345021CC
:100E4C007B007A00793B7FFF120F0FAB36AA37A9D4
:100E5C00388D828C83E53B1203B70DBD00010C80ED
:030E6C00D6AF3AC4
:010E6F002260
:100F9E00759AE285878753877F759850E4F59B7520
:0C0FAE009AE2759B1ED299C2ACFEFF2295
:03000000020FFCF0
:0C0FFC00787FE4F6D8FD758147020822DA
:10035F00BB010689828A83E0225002E722BBFE029C
:09036F00E32289828A83E49322CF
:10037800BB010CE58229F582E5833AF583E022503A
:1003880006E92582F8E622BBFE06E92582F8E22284
:0D039800E58229F582E5833AF583E493229E
:1003A500BB010689828A83F0225002F722BBFE0137
:0203B500F32231
:1003B700F8BB010DE58229F582E5833AF583E8F07C
:1003C700225006E92582C8F622BBFE05E92582C828
:0203D700F22210
:1003D90075F008758200EF2FFFEE33FECD33CDCCDB
:1003E90033CCC58233C5829BED9AEC99E58298405E
:1003F9000CF582EE9BFEED9AFDEC99FC0FD5F0D63B
:10040900E4CEFBE4CDFAE4CCF9A88222B800C1B964
:100419000059BA002DEC8BF084CFCECDFCE5F0CBA2
:10042900F97818EF2FFFEE33FEED33FDEC33FCEBDB
:1004390033FB10D703994004EB99FB0FD8E5E4F996
:10044900FA227818EF2FFFEE33FEED33FDEC33FC83
:10045900C933C910D7059BE99A4007EC9BFCE99A77
:10046900F90FD8E0E4C9FAE4CCFB2275F010EF2FBC
:10047900FFEE33FEED33FDCC33CCC833C810D707BC
:100489009BEC9AE899400AED9BFDEC9AFCE899F8F7
:0E0499000FD5F0DAE4CDFBE4CCFAE4C8F9228A
:1004A700EB9FF5F0EA9E42F0E99D42F0E89C45F0AB
:0104B7002222
:1004B800E8600FECC313FCED13FDEE13FEEF13FF22
:0304C800D8F12246
:100F3000EFB40A07740D120F3B740A309811A89988
:100F4000B8130CC2983098FDA899C298B811F63021
:070F500099FDC299F59922F9
:10000300E5432437F8E6054322783430070278378E
:10001300E475F00112052802035F2000EB7F2ED266
:10002300008018EF540F2490D43440D4FF30040BD5
:10003300EF24BFB41A0050032461FFE544600215A6
:10004300440547E5477002054630070D7834E475EB
:10005300F001120528EF0203A5020F307403D20743
:100063008003E4C207F5438B348A358936E4F544CB
:10007300F546F547E54460077F2012003E80F5759D
:1000830045FFC201C200C202C203C205C206C208C2
:1000930012000CFF700D3007057F0012004FAF47B1
:1000A300AE4622B4255FC2D5C20412000CFF24D091
:1000B300B40A00501A75F00A784430D50508B6FF23
:1000C3000106C6A426F620D5047002D20380D924E3
:1000D300CFB41A00EF5004C2E5D20402024FD2019A
:1000E30080C6D20080C0D20280BCD2D580BAD205ED
:1000F30080B47F2012003E2002077401B544004003
:10010300F1120003FF12003E020077D208D20680EC
:1001130095120003FB120003FA120003F94A4B7015
:100123000679207A037BFF20022EE544602A7E00B5
:100133008E8275830012037860060EEE654570F0BB
:10014300C2D5EBC0E0EAC0E0E9C0E0EE120296D00F
:10015300E0F9D0E0FAD0E0FB12035FFF60AAEBC046
:10016300E0EAC0E0E9C0E012003ED0E02401F9D0AB
:10017300E03400FAD0E0FBE5450460DCD545D980E6
:10018300877BFF7A027992D202809C791080027970
:1001930008C206C2088008D2D5790A8004790AC247
:1001A300D5E545047002F545E4FAFDFEFF120003B0
:1001B300FC7B08200113120003FD7B1030000A12A0
:1001C3000003FE120003FF7B20EC3382D592D5504F
:1001D30013C3E43000069FFFE49EFEE42001039D69
:1001E300FDE49CFCE4CBF8C201EC700CCFCECDCC8B
:1001F300E824F8F870F38017C3EF33FFEE33FEED16
:1002030033FDEC33FCEB33FB994002FB0FD8E9EBF6
:10021300300105F8D0E0C448B201C0E00AEC4D4E0D
:100223004F78207B0070C2EAB5450040BCC0E012A5
:100233000298D0F0D0E0200104C4C0E0C4B201C0F1
:10024300F0120027D0F0D5F0EB0200771205380149
:100253001453018E5800E54C00E14201924F019A7C
:0F02630044019A4900FA4301A0550184460184E1
:100272004501844703405000E92D00ED2E01102B6B
:1002820000F123010E2003292A00A94800000108D9
:100292003F3F3F00790AA2D5200314300509B91067
:1002A200020404B9080104A2D52006025001042068
:1002B20002689202B544005034C0E07F2030031936
:1002C2007F30A20272067205500F1202EFC202C202
:1002D20006C205C2087F30800F300503E9C0E01274
:1002E200003E300503D0E0F9D0E0B544CC3005172C
:1002F2007F30B9100C12003E7F583004077F78809F
:1003020003B9080312003E3002057F2D02003E7F32
:10031200202008F87F2B2006F322920280CF286E3D
:10032200756C6C2900D2011200033001F8C2017809
:100332004430D50108F60200A92D50434958120055
:10034200032403B405004001E490033B9312002F01
:0D035200743A12002FD20375440402018E8C
:100FCD0010090B121008BF0D027F0A020F30AF0877
:010FDD0022F1
:100744008B388A39893AAB38AA39A93A12035FFF40
:10075400120FBA500D7401253AF53AE43539F539DA
:1007640080E4D200AB38AA39A93A12035FFF642BA4
:100774006004EFB42D1BAB38053AE53AAA39700290
:10078400053914F912035F642D6003D38001C39209
:1007940000E4F53EF53DF53CF53BAB38AA39A93A02
:1007A40012035FFF120FED505CE47F0AFEFDFCAB09
:1007B4003EAA3DA93CA83B1204CBC8ECC8EDC0E05E
:1007C400EEC0E0EFC0E0AB38AA39A93A12035FFFEC
:1007D4003395E0FEEF24D0FFEE34FFFEE4FCFDD0C1
:1007E400E0FBD0E0FAD0E0F9EB2FF53EEA3EF53D30
:1007F400ED39F53CEC38F53B7401253AF53AE4352E
:1008040039F539809530000AAF3EAE3DAD3CAC3B86
:0E081400800BAF3EAE3DAD3CAC3B12051A2250
:1004CB00E88FF0A4CC8BF0A42CFCE98EF0A42CFCD0
:1004DB008AF0EDA42CFCEA8EF0A4CDA8F08BF0A44E
:1004EB002DCC3825F0FDE98FF0A42CCD35F0FCEBAD
:1004FB008EF0A4FEA9F0EB8FF0A4CFC5F02ECD3972
:0F050B00FEE43CFCEAA42DCE35F0FDE43CFC22DE
:0E051A00C3E49FFFE49EFEE49DFDE49CFC22F2
:10052800FAE6FB0808E6F925F0F618E6CA3AF622D4
:10053800D083D082F8E4937012740193700DA3A352
:1005480093F8740193F5828883E473740293686066
:06055800EFA3A3A380DF66
:0A1008003098FDAF99C2987E0022D7
:0F0FED00EFC394304007EF943A50028001C322C3
:100FBA00EFC394094005EF940E4003BF2003D3808A
:030FCA0001C3223E
:00000001FF
