:102B24005389F0438901C2A9E4FDFCC3ED9FEC9EE7
:102B34005016758CFA758A1FC28DD28C308DFDC2E9
:082B44008C0DBD00010C80E3C3
:012B4C002266
:052BBC00C200752A387B
:102BC100A20092B6D2B77F0A7E00122B24852A80FA
:0D2BD100C2B77F017E00122B247580FF2209
:082945008F258B268A278928C3
:10294D00E525701FF529AB26AA27A92885298275AB
:10295D008300121A6DFF602FD200F52A122BC105CC
:10296D002980E3E4F529E529C39525501AD200AB5A
:10297D0026AA27A928852982758300121A6DF52AA2
:07298D00122BC1052980DFB8
:012994002220
:102AEE007F1E7E00122B24122BBC7F057E00122B24
:102AFE0024122BBC122BBCC200752A0F122BC1C282
:102B0E0000752A01122BC17F027E00122B24C200F7
:062B1E00752A06022BC11E
:0F2C8100C200752A01122BC17F027E00022B2494
:102BFF00252D323073004D6F756E74696E672044EA
:0F2C0F007269766500696E697420646F6E650086
:10282800C2A6122C1E122AEE7F807E1A7D067C001C
:102838001227C11221C48F22754EFF754F2C755077
:10284800057BFF7A2B79FF12175A7F0A122B4D7FCF
:102858000D122B4D7E007F00120FD38F22788A1223
:102868001C77752900752A001220268E238F2412C2
:102878002C81C200752A80122BC17BFF7A2C791417
:052888007F0902294553
:102A30002570200025322E326258200041646472D5
:102A40002E20202030202031202032202033202032
:102A500034202035202036202037202038202039EF
:102A600020204120204220204320204420204520B7
:052A700020460A0D00E4
:1026D3008B468A4789488B4E8A4F89507BFF7A2ADB
:1026E300793012175AE4F549AB46AA47A9488549F8
:1026F30082758300121A6DF54A7BFF7A2A7934F5C5
:102703004E12175A0549E549C3941040DBE4F549D5
:10271300AB46AA47A948854982758300121A6DF50D
:102723004AC394204007E54AD3947F4003754A2E59
:10273300AF4A122B4D0549E549C3941040D27F0D92
:08274300122B4D7F0A022B4D01
:0A288D008C418D428B3E8A3F89404A
:102897008B438A448945AF0153070F7E00C3E49FEA
:1028A700FFE49EFEEF2545F545EE3544F5447BFFF5
:1028B7007A2A793C12175AAB43AA44A9451226D360
:1028C70074102545F545E43544F544E5402542F9BE
:1028D700E53F3541FA8A838982C3E5459582E54418
:0428E700958340D3C2
:0128EB0022CA
:082C9C0025322E32625820009F
:1021C400758E0CD294E4F52B7B007A0079257FFF81
:1021D400122BDE052BE52BC3940A40EC7B007A001E
:1021E4007925122AB68F2AE4F52B7425252BF8E6D7
:1021F400F52C7BFF7A2C799CF54E12175A052BE5AA
:102204002BC3940540E47F0A122B4D7F0D122B4DF6
:102214007F647E00122B24E52A700AFB7A0079255C
:10222400122A758F2AE4F52B7425252BF8E6F52C54
:102234007BFF7A2C799CF54E12175A052BE52BC39C
:10224400940540E47F0A122B4D7F0D122B4D7F64C1
:102254007E00122B24E52A7015FB7A007925122BB7
:10226400748F2AE52564016005752A05C2A5E4F585
:102274002B7425252BF8E6F52C7BFF7A2C799CF51D
:102284004E12175A052BE52BC3940540E47F0A121E
:102294002B4D7F0D122B4D7F647E00122B24E52ADB
:1022A400700AFB7A0079251226568F2AE4F52B74DE
:1022B40025252BF8E6F52C7BFF7A2C799CF54E121C
:1022C400175A052BE52BC3940540E47F0A122B4DC6
:1022D4007F0D122B4D7F647E00122B24E52A701D86
:1022E400FB7A007925122B748F2AE52654C0700DD1
:1022F400E52630E705752A078003752A05E4F52BE2
:102304007425252BF8E6F52C7BFF7A2C799CF54E69
:1023140012175A052BE52BC3940540E47F0A122BB0
:102324004D7F0D122B4D7F647E00122B24E52A6015
:0723340002C2A7D294AF2AF8
:01233B00227F
:062AB6008B2D8A2E892FF2
:102ABC00C294E4F550F54FF54EF54DFF12253EEF5F
:102ACC00700BAB2DAA2EA92F7F011224A8EF700F2B
:102ADC00AB2DAA2EA92F121A54640160027F05D2C5
:012AEC009455
:012AED0022C6
:062A75008B2D8A2E892F33
:102A7B00C294E47550AA754F01F54EF54D7F0812BF
:102A8B00253EEF700BAB2DAA2EA92F7F051224A884
:102A9B00AB2DAA2EA92F121A54FEB405047F098060
:0A2AAB0007EE640160027F06D2947A
:012AB50022FE
:062B74008B2D8A2E892F33
:102B7A00C294E4F550F54FF54EF54D7F3A12253ED5
:0E2B8A00EF700BAB2DAA2EA92F7F051224A8E9
:012B9800221A
:062656008B2D8A2E892F56
:10265C00E4F534F533F532753140C294F53005307C
:10266C00E4F550F54FF54EF54D7F3712253EEF70E2
:10267C00031224A0AB2DAA2EA92F121A54FE600609
:10268C00640160027F02EF701185345085334F85F1
:10269C00324E85314D7F2912253EEF70031224A056
:1026AC00AB2DAA2EA92F121A54FE600664016002EB
:1026BC007F020530EE6007E5306003EF60A0E53087
:0626CC0070027F01D294B0
:0126D20022E5
:02253E008F4CC0
:10254000E54CC3944040030225CDE54C4440F55290
:102550007B007A007953FF122BDE8F51755418E5FA
:102560005170047F0180027F00E554C39419500428
:102570007E0180027E00EE5F6024AF50AE4FAD4E14
:10258000AC4DA954A801121C518F527B007A0079DE
:1025900053122BDE8F5174F82554F55480C1E54C4D
:1025A0007005755295800DE54CB40805755287800D
:1025B00003755201E551700CFB7A007953AF52124A
:1025C0002BDE8F51E5516008755102800375510370
:0225D000AF5109
:0125D20022E6
:0824A000AB2DAA2EA92F7F012C
:0824A8008F358B368A37893825
:1024B000E4F539F53A7B007A00793B7FFF122BDE99
:1024C0008F3A0539E5396009E53A7005E53BF46076
:1024D000E4AB36AA37A938E53B121A9AE5397005FC
:1024E000753A018046E53A6002800AE53B64016086
:1024F00009E53B6005753A028031E535D39401402A
:102500002A753C01E53CC3953550207B007A007963
:102510003B7FFF122BDEAB36AA37A938853C82758C
:102520008300E53B121AAC053C80D9E53A700CFB00
:0D2530007A00793B7FFF122BDE8F3AAF3A25
:01253D00227B
:082995007F01FB7A007947FE87
:0A299D008E4C8F4D8B4E8A4F8950EF
:1029A700E4F551F552F554F555C3E555954DE55404
:1029B700954C50267B007A0079537FFF122BDEABB4
:1029C7004EAA4FA950855582855483E553121AACF8
:0C29D7000555E55570D3055480CFAF5274
:0129E30022D1
:0E274B008F428E418D408C3F8B438A448945DE
:10275900C294E4F5468F508E4F8D4E8C4D7F1112E9
:10276900253E0546EF7003122995E5476004E546C5
:1027790070F0E54670027F01E4F5460546EF700307
:10278900122995E54764FE6007E5466003EF60EBB3
:10279900E54670027F01E54754F070027F08EF704B
:1027A9000CAB43AA44A945FF7E0212299DEF70058F
:0727B9007F03122997D2945F
:0127C00022F6
:1027C100E4F525AB07AA06A905A804FF7EA07D8C28
:1027D100FC121BAEEFD39402500575C3708045EF18
:1027E100D39404500575C371803AEFD39408500512
:1027F10075C372802FEFD39410500575C373802475
:10280100EFD39420500575C3F08019EFD394405055
:102811000575C3F1800EEFD39480500575C3F28026
:0628210003752504AF253C
:01282700228E
:102BDE00E4FE8FC5AFC40EEF20E703EE70F6EE6095
:102BEE000BE5C5121A9AEF5470FE80027E01AF06F5
:012BFE0022B4
:102C1E00759AE285878753877F759850E4F59B7583
:0C2C2E009AE2759B1ED299C2ACFEFF22F8
:10233C00252D333573004D42525F52656C536563E6
:10234C00202000256C7500252D3230730042504240
:10235C005F4279746573506572536563002575002F
:10236C004250425F536563506572436C7573002530
:10237C006275004250425F52737664536563436EDC
:10238C0074004250425F4E756D464154730042508A
:10239C00425F526F6F74456E74436E7400425042CC
:1023AC005F546F745365633136004250425F46414F
:1023BC0054537A3136004250425F48696464656E0A
:1023CC00536563004250425F546F745365633332FC
:1023DC00004250425F464154537A333200425042DD
:1023EC005F526F6F745F436C7500526F6F7444690A
:1023FC0072536563004641542073697A6533320029
:10240C006572726F722077726F6E6720666174747A
:10241C007970652000546F745365633332006E75A8
:10242C006D6F66464154536563746F7273004461FB
:10243C00746153656300636F756E746F66436C757E
:10244C00737465727300466972737444617461537A
:10245C006563004669727374526F6F74446972538A
:10246C006563004641542073697A65203132004619
:10247C0041542073697A65203136004641542073EB
:10248C00697A65203332002535642E20005B44497F
:04249C00525D0A0083
:0825D300AA25A9267B017E0068
:1025DB008E3E8F3F8B408A418942C3E53E94025029
:0125EB00638C
:1025EC00E4F546F545F544F543F548AB40E54225A1
:1025FC003FF9E541353EFAC374039548FFE4940076
:10260C00FEE92FF9EA3EFA121A54F547AF46AE45E9
:10261C00AD44AC437808121C648F468E458D448CB7
:10262C0043E5464547F546E545F545E544F544E5BE
:10263C0043F5430548E548B404B1AF46AE45AD4457
:03264C00AC43227A
:07264F00E47F0CFEFDFC22FC
:0828EC00AA25A9267B017E004C
:0A28F4008E3E8F3F8B408A418942DF
:1028FE00E4F543F544C3E53E94025036E4FDAB40A7
:10290E00E542253FF9E541353EFAEDFFC374019FDF
:10291E00FFE49400FEE92FF9EA3EFA121A54FCE5A0
:10292E0044754400F543EC42440DBD02D1AE43AFB5
:06293E0044227E007F0C24
:012944002270
:102B99007E00E5342538FFEE3533FEAB3CAA3DA96E
:012BA9003EED
:102BAA00C3EE940250098F828E83121A6DFF227F20
:012BBA000C0E
:012BBB0022F7
:040FD3008E258F26B2
:100FD700E4F527AA06A9077B01FFFEFDFC12274BB4
:100FE700AA25A9267B017D007C0212288DAA25A9A6
:100FF700267B01E4FFFE122BAAEF64EB605DAA25B6
:10100700A926E4FF122BAAEF64E9604FAA25A926B7
:101017007FC60E1225DB7863121C907863121C774B
:101027008F2D8E2C8D2B8C2A754EFF754F23755067
:10103700427BFF7A23793C12175A7BFF7A23794F39
:10104700852D51852C50852B4F852A4E12175A7F97
:101057000A122B4D7F0D122B4D800375270AE527AA
:1010670060030216F5AF2DAE2CAD2BAC2AAA25A92D
:10107700267B0112274BAA25A9267B017D007C022E
:1010870012288D754EFF754F237550597BFF7A23B4
:10109700795312175A7F0B1228EC7867A60608A611
:1010A700077BFF7A23796918E6F54E08E6F54F12B4
:1010B700175A7F0A122B4D7F0D122B4D754EFF7558
:1010C7004F2375506C7BFF7A23795312175AAA2541
:1010D700A9267B017F0D7E00122BAA7869A6077BC4
:1010E700FF7A23797BE6F54E12175A7F0A122B4DAA
:1010F7007F0D122B4D754EFF754F2375507F7BFF6C
:101107007A23795312175A7F0E1228EC786AA606AB
:1011170008A6077BFF7A23796918E6F54E08E6F5F6
:101127004F12175A7F0A122B4D7F0D122B4D754EFA
:10113700FF754F2375508E7BFF7A23795312175A09
:10114700AA25A9267B017F107E00122BAA7877A6F5
:10115700077BFF7A23797BE6F54E12175A7F0A122F
:101167002B4D7F0D122B4D754EFF754F2375509AE2
:101177007BFF7A23795312175AAA25A9267B017F69
:10118700117E001228F47875A60608A6077BFF7A59
:1011970023796918E6F54E08E6F54F12175A7F0AC4
:1011A700122B4D7F0D122B4D754EFF754F2375502A
:1011B700A97BFF7A23795312175AAA25A9267B01FF
:1011C7007F137E001228F47892A60608A6077BFFF5
:1011D7007A23796918E6F54E08E6F54F12175A7F14
:1011E7000A122B4D7F0D122B4D754EFF754F237530
:1011F70050B67BFF7A23795312175AAA25A9267B63
:10120700017F167E001228F47880A60608A6077BC1
:10121700FF7A23796918E6F54E08E6F54F12175A53
:101227007F0A122B4D7F0D122B4D754EFF754F23E5
:101237007550C27BFF7A23795312175A7F1C1225E8
:10124700D3786D121C907BFF7A23794F786D121C2F
:10125700778F518E508D4F8C4E12175A7F0A122B53
:101267004D7F0D122B4D754EFF754F237550D07B5B
:10127700FF7A23795312175A7F201225D3788E12BB
:101287001C907BFF7A23794F788E121C778F518EB3
:10129700508D4F8C4E12175A7F0A122B4D7F0D120D
:1012A7002B4D754EFF754F237550DD7BFF7A2379E4
:1012B7005312175AAA25A9267B017F247E001225DF
:1012C700DB787C121C907BFF7A23794F787C121C89
:1012D700778F518E508D4F8C4E12175A7F0A122BD3
:1012E7004D7F0D122B4D754EFF754F237550E97BC2
:1012F700FF7A23795312175AAA25A9267B017F2C37
:101307007E001225DB7882121C907BFF7A23794FAF
:101317007882121C778F518E508D4F8C4E12175A30
:101327007F0A122B4D7F0D122B4D754EFF754F23E4
:101337007550F67BFF7A23795312175A7875E6FEB4
:1013470008E67805C333CE33CED8F9FF7867E6FCD5
:1013570008E6FD24FFFBEC34FFCB2FFFEB3EFE122C
:101367001ACEE4FCFD7886121C907BFF7A23794F16
:101377007886121C778F518E508D4F8C4E12175ACC
:101387007F0A122B4D7F0D122B4D7881E618467080
:1013970033787C121C778F318E308D2F8C2E754EC3
:1013A700FF754F247550017BFF7A23795312175A23
:1013B7007BFF7A23794F853151853050852F4F85B3
:1013C7002E4E80227880E6FE08E6FFE48F318E30CD
:1013D700F52FF52E75270B754EFF754F2475500C9D
:1013E7007BFF7A23794F12175A7F0A122B4D7F0DF5
:1013F700122B4D7893E618467040788E121C778F23
:10140700358E348D338C32754EFF754F24755021D0
:101417007BFF7A23795312175A7BFF7A23794F85FB
:10142700355185345085334F85324E12175A7F0A0E
:10143700122B4D7F0D122B4D80137892E6FE08E696
:10144700FFE48F358E34F533F53275270B7877E661
:10145700FFE4FCFDFEAB31AA30A92FA82E121B23F7
:101467008E288F29754EFF754F2475502A7BFF7A7A
:1014770023795312175A7BFF7A23794F85284E8594
:10148700294F12175A7F0A122B4D7F0D122B4D78B9
:1014970077E6FFE4FCFDFEAB31AA30A92FA82E1298
:1014A7001B23C004A905AA06AB07786AE6FE08E66F
:1014B700FFE4FCFDD000EB2FFFEA3EFEED39FDEC2B
:1014C70038FC7886121C83EF2BFBEE3AFAED39F9DC
:1014D700EC38F8C3E5359BF53DE5349AF53CE53343
:1014E70099F53BE53298F53A754EFF754F247550DF
:1014F7003A7BFF7A23795312175A7BFF7A23794F66
:10150700853D51853C50853B4F853A4E12175A7F92
:101517000A122B4D7F0D122B4D7869E6FBE4FAF981
:10152700F8AF3DAE3CAD3BAC3A121BAE8F398E38AF
:101537008D378C36754EFF754F247550427BFF7A79
:1015470023795312175A7BFF7A23794F85395185AF
:10155700385085374F85364E12175A7F0A122B4D52
:101567007F0D122B4D7877E6FFE4FCFDFEAB31AA29
:1015770030A92FA82E121B23C004A905AA06AB0762
:10158700786AE6FE08E6FFE4FCFDD000EB2FFFEAF1
:101597003EFEED39FDEC38FC7886121C83EF2BFFFD
:1015A700EE3AFEED39FDEC38FC7863121C83EF2B25
:1015B700FFEE3AFEED39FDEC38FC7871121C9075A0
:1015C7004EFF754F247550527BFF7A2379531217BC
:1015D7005A7BFF7A23794F7871121C778F518E507F
:1015E7008D4F8C4E12175A7F0A122B4D7F0D122BDF
:1015F7004D7882121C77EF24FEFFEE34FFFEED34A8
:10160700FFFDEC34FFFCC004A905AA06AB07786907
:10161700E6FFE4FCFDFED000121B237871121C8349
:10162700EF2BFFEE3AFEED39FDEC38FC788A121C01
:1016370090754EFF754F2475505F7BFF7A23795362
:1016470012175A7BFF7A23794F788A121C778F51AA
:101657008E508D4F8C4E12175A7F0A122B4D7F0DCD
:10166700122B4DE47FF57E0FFDFCAB39AA38A93765
:10167700A836C3121C40501D786C760C75270B7664
:101687000275270B754EFF754F2475506F7BFF7AD8
:10169700237953804CE47FF57EFFFDFCAB39AA38F4
:1016A700A937A836C3121C40786C502476027527D8
:1016B7000B754EFF754F2475507B7BFF7A2379534B
:1016C70012175A7BFF7A23794F786CE6F54E801113
:1016D7007604754EFF754F247550877BFF7A237903
:1016E7005312175A7F0A122B4D7F0D122B4DAF271E
:0116F70022D0
:082026008F288E278D268C25E2
:10202E00753C0185293D852A3EE4F535F536F533B7
:10203E00F5347871121C77AB28AA27A926A825C3D8
:10204E00121C40500F7886121C778F328E318D30D5
:10205E008C2F800D7869E6FFE48F32F531F530F57F
:10206E002F85282E85272D85262C85252BAF2EAE48
:10207E002DAD2CAC2BAB3CAA3DA93E12274B8F3B72
:10208E00E53B60030221BAAB3CAA3DA93EAF34AE9C
:10209E0033122BAA8F37E53764E57003022138E53A
:1020AE00377003022138E534240BFFE4122BA18F85
:1020BE0039D2A5E539540E70710536E53670020534
:1020CE00357BFF7A24799385354EF54F12175AE4F6
:1020DE00F538122B998F3A122B4D0538E538C394EB
:1020EE000840EFE53930E41F753808122B998F3A06
:1020FE00122B4D0538E538C3940B40EF7BFF7A2445
:10210E00799912175A80237F2E122B4D753808128B
:10211E002B998F3A122B4D0538E538C3940B40EFAF
:10212E007F0D122B4D7F0A122B4D74202534F53462
:10213E00E43533F533D3E53494FEE533940140634F
:10214E00E52E2401F52EE4352DF52DE4352CF52C58
:10215E00E4352BF52BC3E52E9528FFE52D9527FEAF
:10216E00E52C9526FDE52B9525FCAB32AA31A93041
:10217E00A82FD3121C404025AF2EAE2DAD2CAC2B6C
:10218E00AB3CAA3DA93E12274B8F3BE53B6007E4D3
:10219E00F535F536F537E4F533F5348006433580FD
:1021AE00E4F537E53760030220958005E4F535F553
:0521BE0036AE35AF361E
:0121C30022F9
:0A1CD2008F088D098B0A8A0B890C1C
:101CDC00122C6FE50825E054FEF510D293C29275D4
:101CEC000D07E50DD3940A4065E51170617F041270
:101CFC002C40C29374017E00A80D088005C333CE1E
:101D0C0033CED8F9FFE4FEEF5510A80D088006CEAF
:101D1C00A2E713CE13D8F8FF139292EF5401F512E9
:101D2C007F04122C40D293750F01209308E50F60AD
:101D3C0004050F80F5E50F700375110EE511700A9F
:101D4C00A292336512600375110F150D8094E51185
:101D5C00701F7F04122C40122C3AD293750F012065
:101D6C009308E50F6004050F80F5E50F70037511FE
:101D7C000EE5117006309203751110E4F50EE50EA8
:101D8C00C395094003021E49E5116003021E497503
:101D9C000D07E50DD3940840727F04122C40C293BA
:101DAC00AB0AAA0BA90C850E82758300121A6DFD65
:101DBC0074017E00A80D088005C333CE33CED8F94C
:101DCC00FFEDFBE4FEEF5BA80D088006CEA2E71347
:101DDC00CE13D8F8FF139292EF5401F5127F041230
:101DEC002C40D293750F01209308E50F6004050F6A
:101DFC0080F5E50F700375110EE511700AA2923390
:101E0C006512600375110F150D8087E511701F7F2A
:101E1C0004122C40122C3AD293750F01209308E532
:101E2C000F6004050F80F5E50F700375110EE511B9
:101E3C007006309203751110050E021D8A7F041274
:101E4C002C40C293C2927F07122C40D293750F0183
:101E5C00209308E50F6004050F80F5E50F700375FE
:101E6C00110EE511700AA292336512600375110F01
:041E7C00D292AF113E
:011E8000223F
:0A1E81008F138D148B158A16891734
:101E8B00122C6FE51325E04401F51BD293C292751A
:101E9B001807E518D3940A4065E51C70617F04129E
:101EAB002C40C29374017E00A818088005C333CE62
:101EBB0033CED8F9FFE4FEEF551BA818088006CEE9
:101ECB00A2E713CE13D8F8FF139292EF5401F51D2E
:101EDB007F04122C40D293751A01209308E51A60E7
:101EEB0004051A80F5E51A7003751C0EE51C700AC3
:101EFB00A29233651D6003751C0F15188094E51CA9
:101F0B00701F7F04122C40122C3AD293751A0120A9
:101F1B009308E51A6004051A80F5E51A7003751C21
:101F2B000EE51C7006309203751C10E4F519E519CB
:101F3B00C395144003021FEEE51C6003021FEEABBA
:101F4B0015E5172519F9E43516FA121A54E4121A85
:101F5B009A751807E518D3940840507F04122C404B
:101F6B00C2937F04122C40D293751A01209308E57B
:101F7B001A6004051A80F5E51A7003751C0EE51C32
:101F8B007025A29233F51DAB15E5172519F9E4352C
:101F9B0016FA121A54FFAE18E51DA806088002C3E4
:101FAB0033D8FC4F121A9A151880A9E51C702F7F95
:101FBB0004122C40C293E51414B51904D29280027A
:101FCB00C2927F04122C40D293751A01209308E51C
:101FDB001A6004051A80F5E51A7003751C0E0519B5
:101FEB00021F397F04122C40C293C2927F07122C1E
:101FFB0040D293751A01209308E51A6004051A80E4
:10200B00F5E51A7003751C0EE51C700AA292336578
:0A201B001D6003751C0FD292AF1C6C
:012025002298
:062C3A00C293D2927F0458
:102C4000308E03308FFDC28EBF0409E4F58DF58B05
:052C5000C28FD28E22AC
:102C6F0053890F438910C2ABE4F58DF58BC28FD218
:022C7F008E22A3
:100003003A012A04280029002000210022002300AD
:10001300240025002600270028012802218F280319
:100023002100280428052806280728082809280A63
:10003300280B280C20802190280D20002100280E59
:1000430020812191280F20002192281021002811BE
:1000530021932812210028132814281520822816FA
:1000630020002817281828192194281A2195281BBD
:100073002196281C2100281D2083281E2000281FCC
:1000830021972820210028212822282328242825D5
:100093002826282728282829282A2084282B2000B6
:1000A300282C282D282E282F283028312832208547
:1000B3002833200028342835283628372198283833
:1000C30021002839283A283B283C283D283E283F50
:1000D30028402841284228432844284528462847C1
:1000E30028482849284A284B284C284D284E284F71
:1000F3002850285128522853285428552856285721
:1001030028582859285A285B285C285D285E285FD0
:1001130028602861286221992863210028642865C2
:100123002866286728682869286A286B286C286D40
:10013300286E286F287028712872287328742875F0
:100143002876287728782879287A287B287C287DA0
:10015300287E287F28802881288228832884288550
:100163002886288728882889288A288B288C288D00
:10017300288E288F289028912086289220872893DC
:100183002000289428952896289728982899289A13
:10019300289B289C289D289E289F219A28A02100DF
:1001A30028A128A228A328A428A528A628A728A8E8
:1001B30028A928AA28AB28AC28AD28AE28AF28B098
:1001C30028B128B228B328B428B528B628B728B848
:1001D30028B9208828BA200028BB208928BC200001
:1001E30028BD28BE28BF28C028C128C228C3219BF8
:1001F30028C4210028C528C628C728C828C928CA52
:1002030028CB28CC28CD28CE28CF28D028D128D237
:1002130028D328D428D528D628D728D828D928DAE7
:1002230028DB28DC28DD28DE28DF28E028E1208AF7
:1002330028E2208B28E3200028E428E528E628E7A5
:1002430028E828E928EA28EB28EC28ED28EE28EF0F
:1002530028F028F128F228F328F428F528F628F7BF
:1002630028F8208C28F92000219C28FA219D28FBBE
:10027300208D219E28FC208E219F28FD2000210017
:1002830028FE28FF2A012800220123952489250717
:1002930026A42707280121C72200238026C4270C70
:1002A30028022009211C220426AA270A2803200049
:1002B3002100220023A626A02707280428052005BD
:1002C300238426B42709280620002203230024813F
:1002D30025C026AB270A280721AE220023952489AF
:1002E300250726A42700280821482201238026C4A5
:1002F300270C280920092104220426AA270A280AF0
:1003030020002100220023A826A42707280B280C5D
:1003130021402220238026C4270C280D222426C610
:10032300280E219E220026C8280F2009210222140C
:1003330026AA270A2810200521002200238426B498
:1003430027092811200021012300240125C026AB01
:10035300270A281221C3239524892507262027004D
:100363002813200321C223832626270D281421B313
:0D03730022082815200021C622002395260F
:100380000027082816210023002496250326AA27E3
:100390000A2817204221B6238024892507281820FF
:1003A0000021002394260E2819200F238426B42729
:1003B00009281A2000239326A82703281B2628276C
:1003C00000281C21012300240125C026AB270A2870
:1003D0001D21C523952489250726202700281E21B5
:1003E0000023942600270A281F260E2820200321F8
:1003F00079220123832626270D2821213228222035
:1004000000210422002380240025FC26AA270A2894
:1004100023210023002500282421A3220D2380244A
:100420009E253B2825204221572201248925072883
:100430002620002143220D240025382827210822C8
:10044000982395248925072624270028282042213F
:10045000932201238026AA270A28292003217E220D
:100460000423832626270D282A200021B0220023DA
:100470009526A02707282B21002300240C250426DD
:10048000AA270A282C21022380248625C326AB28EC
:100490002D2042219722012489250726AA282E20D3
:1004A0000021002200241F2504282F21B223952497
:1004B0008925072620270428302042218B22042367
:1004C0008026AA270A2831200021B1220023952660
:1004D000A0270728322003217522042383262627FC
:1004E0000D2833200521002200238426B427092863
:1004F00034200021602300240125C026AB270A28D0
:1005000035210822982395248925072624270028A9
:100510003621BC2200283721A3220D2300240125E7
:10052000C026AB270A28382160220023802400251A
:100530003826AA28392106229823952489250726BA
:10054000242700283A21BE2200283B200521002331
:100550008426B42709283C2000216023002401259B
:10056000C026AB270A283D21422201239524892554
:100570000726242700283E210C229826A427072896
:100580003F21082840216022002300240125C026A5
:10059000AB270A2841210C22982395248925072678
:1005A0002427002842200521002200238426B42786
:1005B000092843200023802400251026AB270A2881
:1005C0004421222201239524892507262427002857
:1005D000452100220023002404251226AA270A28E8
:1005E00046200321D4220523832489250726262794
:1005F0000D28472000216022002300240125C02669
:10060000AB270A284821B3239524892507260027EC
:10061000082849210023002409250026AA270A28A2
:100620004A210223802486253B284B204221DD22BB
:100630000524892507284C200021002200241F259D
:1006400000284D21B323952489250726202700283B
:100650004E210023002497250326AA270A284F208D
:100660004221E222052380248925072850200021E9
:100670001022002300248025CC26AB285121002203
:100680004023B42489250726AA27042852220023C0
:10069000B0269227092853211422012395260027EA
:1006A000082854214823A4262A270028552100225F
:1006B0000023002409250026AA270A2856210823FA
:1006C000802486253B285720422111220724892592
:1006D000072858200021002200241F250028592126
:1006E00014220123952489250726202700285A2132
:0D06F0001626022709285B210022002300A6
:1006FD002480254826AA270A285C23A024892507BB
:10070D0026142709285D2480255026A42704285E59
:10071D00211622012395248925072700285F21040E
:10072D0022002300249C257826AA270A286021432D
:10073D00220D240125C426AB286121032200241596
:10074D00286221002400250026AA2863215E239516
:10075D002489250726102709286421032300241541
:10076D0025C426AB270A28652100238024002506F1
:10077D0026AA2866248F25E326AB2867204221CDA3
:10078D0022072489250726AA286820002160220037
:10079D002300240125C026AB286921002380248F46
:1007AD00250326AA286A204221DD22072489250750
:1007BD00286B20002143220D2300240125C026ABE8
:1007CD00286C210022002400250426AA286D200370
:1007DD00217F22012383248925072626270D286EB4
:1007ED002162286F200521002200238426B42709C9
:1007FD002870200021062395260027082871210145
:10080D0023002497253B26AA270A28722042210E71
:10081D00220823802489250728732003213C220BDD
:10082D0023832626270D28742000210322002395DB
:10083D0026022708287521272300248125C426ABED
:10084D00270A2876210023802409254826AA2877FF
:10085D002158223423A324892507262A2700287806
:10086D002100220023A026002709287921072380B3
:10087D002403253926AA270A287A21042300241CBB
:10088D002538287B2107238024832539287C2103C3
:10089D0023952489250726022708287D2127230053
:1008AD00248125C426AB270A287E21002380240914
:1008BD00254826AA287F2158223423A324892507D9
:1008CD00262A27002880210622002300248125C006
:1008DD00269327012881210023802489254826AAD3
:1008ED00270A28822002216622082300240025667B
:1008FD0028832000210022002380241F2502288424
:10090D0021062489250726DC270C2885210023AA0A
:10091D0026AA270A288623B626002708288723809B
:10092D002486253B26AA270A288821052489250700
:10093D0026DC270C2889210023AA26AA270A288A23
:10094D0023B626002708288B23802486253B26AA3C
:10095D00270A288C2042217B220824892507288DEF
:10096D00200021002200230024012582288E21054C
:10097D00248125C226AB288F2003219322082383AF
:10098D00248925072626270D2890200021052200E1
:10099D002300248125C026132701289121002380BF
:1009AD002489254826AA270A28922002217E22087A
:1009BD002300240025662893200021002200238097
:1009CD00241F2502289421052489250726DC270CC0
:1009DD002895210023AA26AA270A289623B62600A1
:1009ED002708289723802486253B26AA270A28989E
:1009FD0021052489250726DC270C2899210023AA07
:100A0D0026AA270A289A2380241F2502289B210124
:100A1D002300248125C226AB289C20032193220884
:100A2D002383248925072626270D289D20002104B0
:100A3D002200239526122708289E216023C426AA6A
:100A4D002704289F210023C02600270928A0204223
:100A5D0021CB2208238026AA270A28A12070215401
:0D0A6D0022B823952612270828A220022176
:100A7A00CC2208238026AA270A28A3200321CA22D7
:100A8A000F23832626270D28A420002100220023D5
:100A9A0000248C250C26AA270A28A52104248225AD
:100AAA007828A6210023802489254826122704288D
:100ABA00A7200321DE220F238325072626270D28B8
:100ACA00A82000210122002300249C257826AA2799
:100ADA000A28A9210023802481254028AA2003214D
:100AEA00CF220F2383248925072626270D28AB200A
:100AFA0070210822B8239526A0270428AC200321B8
:100B0A00D4220F23832626270D28AD2127220B283E
:100B1A00AE2070216322B823952612270828AF2019
:100B2A0000210122002380248625CB26AB270A2810
:100B3A00B0204221DD22082489250726AA28B120CF
:100B4A000021182280239526A4270028B2200321F9
:100B5A00D9220F23832626270D28B32070210A22A3
:100B6A00B8239526A0270028B4200221E0220823D2
:100B7A008026AA270A28B52070210A22B82395269A
:100B8A00A0270028B621542602270828B7200021CA
:100B9A0018228026A4270028B821002200238024B6
:100BAA0080254826AA270A28B92070215E22B82360
:100BBA0095248925072612270828BA200021002211
:100BCA000023802409254B26AA270A28BB20702146
:100BDA005F22B82395248925072610270828BC20D8
:100BEA0000210022002300241C258326AB270A2883
:100BFA00BD2003213222092383248925072626279B
:100C0A000D28BE20002100220023002482258C26E4
:100C1A00AB270A28BF2003212522092383248925FB
:100C2A00072626270D28C0204221BC238026AA2772
:100C3A000A28C12000210122002300240125C02600
:100C4A00AB28C22070210F22B823952489250726B4
:100C5A0020270028C3200321E3220F2383262627E7
:100C6A000D28C4200521002200238426B427092840
:100C7A00C52000210323952614270828C621A62368
:100C8A00A4262A270528C7210023A02644270928A5
:100C9A00C82118226D2380249E257B26AA270A288C
:100CAA00C920422113220B2489250728CA200021A2
:100CBA00AE220023952624270028CB2100220323D5
:100CCA00802487257B26AA270A28CC20422116229F
:100CDA000B2489250728CD200021AE220023952642
:100CEA0024270028CE20052100238426B42709289A
:100CFA00CF2003210D220B23832626270D28D0205F
:100D0A000021002200230024802602270028D12364
:100D1A008024092548261E28D22158223423332428
:100D2A00802507262A28D32100220023002680278F
:100D3A001028D421102363262A270028D52100232E
:100D4A006026A8271228D621AF224C230026C827BE
:100D5A000C28D7210022002680270528D8238024A2
:100D6A0086253B261E270028D92042211C220E2335
:100D7A00002480250728DA20002135222926C427C5
:100D8A000C28DB2002211D220E261E270028DC202B
:100D9A0000217F223426C4270C28DD2100220023CB
:100DAA0090249F25042610270A28DE230024842560
:100DBA00002680271028DF210623632480250726A2
:100DCA002A270028E021002380248926AA270A2826
:100DDA00E12005238426B4270928E2207021612214
:0D0DEA00B823952612270828E320002101D8
:100DF70022002380248625C326AB270A28E4204225
:100E070021CE220F2489250726AA28E52070215004
:100E170022B823952612270828E62005210022005C
:100E2700238426B4270928E72070216422B8239554
:100E37002612270828E82000210122002380248683
:100E470025C326AB270A28E9204221D3220F24896C
:100E5700250726AA28EA2070215122B823952612B1
:100E6700270828EB200521002200238426B4270920
:100E770028EC2070216522B823952612270828ED33
:100E87002000210122002380248625C326AB270AC0
:100E970028EE204221D8220F2489250726AA28EFE9
:100EA7002070215222B823952612270828F0200502
:100EB70021002200238426B4270928F1207021610C
:100EC70022B823952602270828F2200021012200B4
:100ED7002380248625C326AB270A28F3204221DD59
:100EE700220F2489250726AA28F42070215022B82A
:100EF70023952602270828F52005210022002384B0
:100F070026B4270928F6200021012380248625CB33
:100F170026AB270A28F7204221E1220F248925073B
:100F270026AA28F82000210222002300248125C4B4
:100F370026AB28F9210023802489254826AA28FAE8
:100F470020052384250726B4270928FB2070214E76
:100F570022B823952610270828FC2000210022000C
:100F67002380248625C326AB270A28FD204221E7B4
:100F7700220F2489250726AA28FE200021BB22004C
:100F870023952620270028FF20052100238426B447
:100F970027092A081001FFFFFFFF3A00643A65BBE3
:100FA700083A09BB50105267517705A1180454013C
:100FB70055210700060C0B03501051005204610F16
:0C0FC7006455655505A11804FFFFFFFFED
:102C550052656365697665642056616C7565203DCE
:0A2C65002025322E3262580A0D00BD
:0629E4008B5F8A6089612F
:1029EA00E4F562AB5FAA60A9617D017F43121CD244
:1029FA001562EF6004E56270EAE4F562AB5FAA6013
:102A0A00A9617D017F43121E811562EF6004E562B0
:102A1A0070EAAB5FAA60A961121A54F54E7BFF7A7D
:062A2A002C795502175A39
:03000000022C903F
:0C2C9000787FE4F6D8FD758193022828B7
:101A5400BB010689828A83E0225002E722BBFE0290
:091A6400E32289828A83E49322C3
:101A6D00BB010CE58229F582E5833AF583E022502E
:101A7D0006E92582F8E622BBFE06E92582F8E22278
:0D1A8D00E58229F582E5833AF583E4932292
:101A9A00BB010689828A83F0225002F722BBFE012B
:021AAA00F32225
:101AAC00F8BB010DE58229F582E5833AF583E8F070
:101ABC00225006E92582C8F622BBFE05E92582C81C
:021ACC00F22204
:101ACE00BC000BBE0029EF8DF084FFADF022E4CCFC
:101ADE00F875F008EF2FFFEE33FEEC33FCEE9DECC5
:101AEE00984005FCEE9DFE0FD5F0E9E4CEFD22ED0B
:101AFE00F8F5F0EE8420D21CFEADF075F008EF2F55
:101B0E00FFED33FD4007985006D5F0F222C398FD45
:051B1E000FD5F0EA22E2
:101B2300E88FF0A4CC8BF0A42CFCE98EF0A42CFC61
:101B33008AF0EDA42CFCEA8EF0A4CDA8F08BF0A4DF
:101B43002DCC3825F0FDE98FF0A42CCD35F0FCEB3E
:101B53008EF0A4FEA9F0EB8FF0A4CFC5F02ECD3903
:0F1B6300FEE43CFCEAA42DCE35F0FDE43CFC2270
:101B720075F008758200EF2FFFEE33FECD33CDCC2A
:101B820033CCC58233C5829BED9AEC99E5829840AD
:101B92000CF582EE9BFEED9AFDEC99FC0FD5F0D68A
:101BA200E4CEFBE4CDFAE4CCF9A88222B800C1B9B4
:101BB2000059BA002DEC8BF084CFCECDFCE5F0CBF2
:101BC200F97818EF2FFFEE33FEED33FDEC33FCEB2B
:101BD20033FB10D703994004EB99FB0FD8E5E4F9E6
:101BE200FA227818EF2FFFEE33FEED33FDEC33FCD3
:101BF200C933C910D7059BE99A4007EC9BFCE99AC7
:101C0200F90FD8E0E4C9FAE4CCFB2275F010EF2F0B
:101C1200FFEE33FEED33FDCC33CCC833C810D7070B
:101C22009BEC9AE899400AED9BFDEC9AFCE899F846
:0E1C32000FD5F0DAE4CDFBE4CCFAE4C8F922D9
:101C4000EB9FF5F0EA9E42F0E99D42F0E89C45F0FA
:011C50002271
:101C5100E8600FECC313FCED13FDEE13FEEF13FF71
:031C6100D8F12295
:101C6400E8600FEFC333FFEE33FEED33FDEC33FCDE
:031C7400D8F12282
:0C1C7700E6FC08E6FD08E6FE08E6FF2299
:0D1C8300E6FB08E6F908E6FA08E6CBF822D1
:0C1C9000ECF608EDF608EEF608EFF62280
:102B4D00EFB40A07740D122B58740A309811A89916
:102B5D00B8130CC2983098FDA899C298B811F630E8
:072B6D0099FDC299F59922C0
:1016F800E55A244EF8E6055A22784B300702784E10
:10170800E475F001121C9C021A542000EB7F2ED2C3
:10171800008018EF540F2490D43440D4FF30040BC9
:10172800EF24BFB41A0050032461FFE55B60021583
:101738005B055EE55E7002055D30070D784BE4756C
:10174800F001121C9CEF021A9A022B4D7403D20767
:101758008003E4C207F55A8B4B8A4C894DE4F55B4C
:10176800F55DF55EE55B60077F2012173380F57540
:101778005CFFC201C200C202C203C205C206C2089F
:10178800121701FF700D3007057F00121744AF5E76
:10179800AE5D22B4255FC2D5C204121701FF24D062
:1017A800B40A00501A75F00A785B30D50508B6FF00
:1017B8000106C6A426F620D5047002D20380D924D7
:1017C800CFB41A00EF5004C2E5D204021944D20182
:1017D80080C6D20080C0D20280BCD2D580BAD205E1
:1017E80080B47F201217332002077401B55B0040D4
:1017F800F11216F8FF12173302176CD208D20680BE
:10180800951216F8FB1216F8FA1216F8F94A4B70E8
:101818000679157A1A7BFF20022EE55B602A7E0086
:101828008E82758300121A6D60060EEE655C70F08C
:10183800C2D5EBC0E0EAC0E0E9C0E0EE12198BD0F7
:10184800E0F9D0E0FAD0E0FB121A54FF60AAEBC02E
:10185800E0EAC0E0E9C0E0121733D0E02401F9D093
:10186800E03400FAD0E0FBE55C0460DCD55CD980AC
:10187800877BFF7A197987D202809C791080027958
:1018880008C206C2088008D2D5790A8004790AC23B
:10189800D5E55C047002F55CE4FAFDFEFF1216F86B
:1018A800FC7B082001131216F8FD7B1030000A1289
:1018B80016F8FE1216F8FF7B20EC3382D592D5502D
:1018C80013C3E43000069FFFE49EFEE42001039D5D
:1018D800FDE49CFCE4CBF8C201EC700CCFCECDCC7F
:1018E800E824F8F870F38017C3EF33FFEE33FEED0A
:1018F80033FDEC33FCEB33FB994002FB0FD8E9EBEB
:10190800300105F8D0E0C448B201C0E00AEC4D4E01
:101918004F78207B0070C2EAB55C0040BCC0E01282
:10192800198DD0F0D0E0200104C4C0E0C4B201C0D9
:10193800F012171CD0F0D5F0EB02176C121CAC1883
:10194800095318835817DA4C17D64218874F188F3F
:0F19580044188F4917EF43189555187946187999
:10196700451879471A355017DE2D17E22E18052B23
:1019770017E6231803201A1E2A179E48000017FD92
:101987003F3F3F00790AA2D5200314300509B9105B
:10199700020404B9080104A2D5200602500104205C
:1019A70002689202B55B005034C0E07F2030031913
:1019B7007F30A20272067205500F1219E4C202C2EA
:1019C70006C205C2087F30800F300503E9C0E01268
:1019D7001733300503D0E0F9D0E0B55BCC300517FD
:1019E7007F30B9100C1217337F583004077F788087
:1019F70003B908031217333002057F2D0217337F0F
:101A0700202008F87F2B2006F322920280CF286E31
:101A1700756C6C2900D2011216F83001F8C20178F2
:101A27005B30D50108F602179E2D50434958121610
:101A3700F82403B405004001E4901A3093121724E8
:0D1A4700743A121724D203755B0402188351
:101C9C00FAE6FB0808E6F925F0F618E6CA3AF62249
:101CAC00D083D082F8E4937012740193700DA3A3C7
:101CBC0093F8740193F5828883E4737402936860DB
:061CCC00EFA3A3A380DFDB
:00000001FF
