:101F6C005389F0438901C2A9E4FDFCC3ED9FEC9EAB
:101F7C005016758CFA758A1FC28DD28C308DFDC2AD
:081F8C008C0DBD00010C80E387
:011F9400222A
:05200400C200752C383C
:10200900A20092B6D2B77F0A7E00121F6C852C807F
:0D201900C2B77F017E00121F6C7580FF2290
:081D44008F278B288A29892AC8
:101D4C00E527701FF52BAB28AA29A92A852B8275AC
:101D5C008300120D29FF602FD200F52C12200905EB
:101D6C002B80E3E4F52BE52BC39527501AD200AB5F
:101D7C0028AA29A92A852B82758300120D29F52CF6
:071D8C00122009052B80DF86
:011D9300222D
:101F36007F1E7E00121F6C1220047F057E00121F7A
:101F46006C122004122004C200752C0F122009C244
:101F560000752C011220097F027E00121F6CC20040
:061F6600752C06022009A3
:0F20B300C200752C011220097F027E00021F6CF3
:101E2F00252D323073004D6F756E74696E672044C7
:101E3F007269766500696E697420646F6E6500253E
:101E4F002D313073004552524F523121200025322F
:101E5F002E326258004E6F204552524F5231212080
:091E6F00004552524F522120009F
:10181E00C2A4122068121F367F807E1A7D067C00BD
:10182E00121C251215428F227550FF75511E7552CE
:10183E00357BFF7A1E792F12078A7F0A121F957F3A
:10184E000D121F957E007F001200038F22788812E2
:10185E000F33752B00752C001213A48E258F2612B4
:10186E0020B3C200752C801220097BFF7A1E7944AA
:10187E007F09121D44C2A5E522601FC2A77550FF45
:10188E0075511E7552547BFF7A1E794E12078A7B54
:10189E00FF7A1E795D852250800F7550FF75511E9F
:1018AE007552647BFF7A1E794E12078A7F0A121FC9
:1018BE00957F0D121F95120F8E8F22E522602AC280
:1018CE00A77550FF75511E7552707BFF7A1E794EAB
:1018DE0012078A7BFF7A1E795D85225012078A7F56
:1018EE000A121F957F0D121F957B007A0079231225
:0618FE001DE3C2A680FEFE
:101E78002570200025322E32625820004164647299
:101E88002E202020302020312020322020332020F6
:101E980034202035202036202037202038202039B3
:101EA800202041202042202043202044202045207B
:051EB80020460A0D00A8
:101B37008B488A49894A8B508A5189527BFF7A1E82
:101B4700797812078AE4F54BAB48AA49A94A854B2D
:101B570082758300120D29F54C7BFF7A1E797CF57F
:101B67005012078A054BE54BC3941040DBE4F54B55
:101B7700AB48AA49A94A854B82758300120D29F5FE
:101B87004CC394204007E54CD3947F4003754C2EFB
:101B9700AF4C121F95054BE54BC3941040D27F0DF8
:081BA700121F957F0A021F9531
:0A1C8C008C438D448B408A4189424D
:101C96008B458A468947AF0153070F7E00C3E49FF1
:101CA600FFE49EFEEF2547F547EE3546F5467BFFFA
:101CB6007A1E798412078AAB45AA46A947121B37B2
:101CC60074102547F547E43546F546E5422544F9BF
:101CD600E5413543FA8A838982C3E5479582E5461D
:041CE600958340D3CF
:011CEA0022D7
:0820CE0025322E326258200079
:10154200758E0CD294E4F52D7B007A0079277FFF0B
:10155200122026052DE52DC3940A40EC7B007A006B
:101562007927121EFE8F2CE4F52D7427252DF8E61F
:10157200F52E7BFF7A2079CEF55012078A052DE5EC
:101582002DC3940540E47F0A121F957F0D121F950B
:101592007F647E00121F6CE52C700AFB7A007927AB
:1015A200121EBD8F2CE4F52D7427252DF8E6F52E9D
:1015B2007BFF7A2079CEF55012078A052DE52DC3DF
:1015C200940540E47F0A121F957F0D121F957F64D8
:1015D2007E00121F6CE52C7015FB7A007927121F12
:1015E200BC8F2CE52764016005752C05C2A5E4F5C6
:1015F2002D7427252DF8E6F52E7BFF7A2079CEF57E
:101602005012078A052DE52DC3940540E47F0A1286
:101612001F957F0D121F957F647E00121F6CE52CB3
:10162200700AFB7A007927121ABA8F2CE4F52D740E
:1016320027252DF8E6F52E7BFF7A2079CEF550127C
:10164200078A052DE52DC3940540E47F0A121F95F4
:101652007F0D121F957F647E00121F6CE52C701D9A
:10166200FB7A007927121FBC8F2CE52854C0700D1D
:10167200E52830E705752C078003752C05E4F52D68
:101682007427252DF8E6F52E7BFF7A2079CEF550CA
:1016920012078A052DE52DC3940540E47F0A121F27
:1016A200957F0D121F957F647E00121F6CE52C60E2
:0716B20002C2A7D294AF2C85
:0116B900220E
:061EFE008B2F8A308931B0
:101F0400C294E4F552F551F550F54FFF1219A2EFC2
:101F1400700BAB2FAA30A9317F0112190CEF700F8F
:101F2400AB2FAA30A931120D10640160027F05D2D3
:011F34009418
:011F35002289
:061EBD008B2F8A308931F1
:101EC300C294E47552AA755101F550F54F7F08127B
:101ED30019A2EF700BAB2FAA30A9317F0512190C91
:101EE300AB2FAA30A931120D10FEB405047F09806F
:0A1EF30007EE640160027F06D2943E
:011EFD0022C2
:061FBC008B2F8A308931F1
:101FC200C294E4F552F551F550F54F7F3A1219A239
:0E1FD200EF700BAB2FAA30A9317F0512190C4E
:011FE00022DE
:061ABA008B2F8A308931F8
:101AC000E4F536F535F534753340C294F532053218
:101AD000E4F552F551F550F54F7F371219A2EF702A
:101AE00003121904AB2FAA30A931120D10FE6006A3
:101AF000640160027F02EF70118536528535518591
:101B0000345085334F7F291219A2EF700312190444
:101B1000AB2FAA30A931120D10FE600664016002DD
:101B20007F020532EE6007E5326003EF60A0E53228
:061B300070027F01D29457
:011B3600228C
:0219A2008F4E66
:1019A400E54EC394404003021A31E54E4440F554D9
:1019B4007B007A007955FF1220268F53755618E55F
:1019C4005370047F0180027F00E556C394195004CC
:1019D4007E0180027E00EE5F6024AF52AE51AD50B6
:1019E400AC4FA956A801120F0D8F547B007A0079D1
:1019F400551220268F5374F82556F55680C1E54EAE
:101A04007005755495800DE54EB4080575548780AE
:101A140003755401E553700CFB7A007955AF5412E9
:101A240020268F53E55360087553028003755303D2
:021A3400AF53AE
:011A3600228D
:08190400AB2FAA30A9317F01CD
:08190C008F378B388A39893AC4
:10191400E4F53BF53C7B007A00793D7FFF122026FD
:101924008F3C053BE53B6009E53C7005E53DF46013
:10193400E4AB38AA39A93AE53D120D56E53B7005EA
:10194400753C018046E53C6002800AE53D64016027
:1019540009E53D6005753C028031E537D3940140CB
:101964002A753E01E53EC3953750207B007A007905
:101974003D7FFF122026AB38AA39A93A853E8275ED
:101984008300E53D120D68053E80D9E53C700CFBF3
:0D1994007A00793D7FFF1220268F3CAF3C8A
:0119A1002223
:081D94007F01FB7A007949FE92
:0A1D9C008E4E8F4F8B508A518952F2
:101DA600E4F553F554F556F557C3E557954FE55603
:101DB600954E50267B007A0079557FFF122026AB80
:101DC60050AA51A952855782855683E555120D684A
:0C1DD6000557E55770D3055680CFAF5479
:011DE20022DE
:0E1BAF008F448E438D428C418B458A46894778
:101BBD00C294E4F5488F528E518D508C4F7F111287
:101BCD0019A20548EF7003121D94E5496004E5481C
:101BDD0070F0E54870027F01E4F5480548EF7003A9
:101BED00121D94E54964FE6007E5486003EF60EB64
:101BFD00E54870027F01E54954F070027F08EF70EF
:101C0D000CAB45AA46A947FF7E02121D9CEF70053D
:071C1D007F03121D96D29413
:011C2400229D
:101C2500E4F527AB07AA06A905A804FF7EA07D8CCD
:101C3500FC120E6AEFD39402500575C3708045EF10
:101C4500D39404500575C371803AEFD394085005B9
:101C550075C372802FEFD39410500575C37380241C
:101C6500EFD39420500575C3F08019EFD3944050FD
:101C75000575C3F1800EEFD39480500575C3F280CE
:061C850003752704AF27E0
:011C8B002236
:10202600E4FE8FC5AFC40EEF20E703EE70F6EE6058
:102036000BE5C5120D56EF5470FE80027E01AF0609
:012046002277
:10206800759AE285878753877F759850E4F59B7545
:0C2078009AE2759B1ED299C2ACFEFF22BA
:1016BA00252D333573004D42525F52656C53656375
:1016CA00202000256C7500252D32307300425042CF
:1016DA005F427974657350657253656300257500BE
:1016EA004250425F536563506572436C75730025BF
:1016FA006275004250425F52737664536563436E6B
:10170A0074004250425F4E756D4641547300425018
:10171A00425F526F6F74456E74436E74004250425A
:10172A005F546F745365633136004250425F4641DD
:10173A0054537A3136004250425F48696464656E98
:10174A00536563004250425F546F7453656333328A
:10175A00004250425F464154537A3332004250426B
:10176A005F526F6F745F436C7500526F6F74446998
:10177A0072536563004641542073697A65333200B7
:10178A006572726F722077726F6E67206661747409
:10179A007970652000546F745365633332006E7537
:1017AA006D6F66464154536563746F72730044618A
:1017BA00746153656300636F756E746F66436C750D
:1017CA007374657273004669727374446174615309
:1017DA006563004669727374526F6F744469725319
:1017EA006563004641542073697A652031320046A8
:1017FA0041542073697A652031360046415420737A
:10180A00697A65203332002535642E20005B44490D
:04181A00525D0A0011
:081A3700AA27A9287B017E000B
:101A3F008E408F418B428A438944C3E540940250C4
:011A4F006333
:101A5000E4F548F547F546F545F54AAB42E544253A
:101A600041F9E5433540FAC37403954AFFE4940015
:101A7000FEE92FF9EA3EFA120D10F549AF48AE47DC
:101A8000AD46AC457808120F208F488E478D468CA6
:101A900045E5484549F548E547F547E546F546E556
:101AA00045F545054AE54AB404B1AF48AE47AD46F1
:031AB000AC452220
:071AB300E47F0CFEFDFC22A4
:081CEB00AA27A9287B017E0055
:0A1CF3008E408F418B428A438944E2
:101CFD00E4F545F546C3E54094025036E4FDAB42AC
:101D0D00E5442541F9E5433540FAEDFFC374019FE4
:101D1D00FFE49400FEE92FF9EA3EFA120D10FCE5FE
:101D2D0046754600F545EC42460DBD02D1AE45AFB8
:061D3D0046227E007F0C2F
:011D4300227D
:101FE1007E00E536253AFFEE3535FEAB3EAA3FA928
:011FF10040AF
:101FF200C3EE940250098F828E83120D29FF227F35
:012002000CD1
:0120030022BA
:040003008E278F288D
:10000700E4F529AA06A9077B01FFFEFDFC121BAF39
:10001700AA27A9287B017D007C02121C8CAA27A98C
:10002700287B01E4FFFE121FF2EF64EB605DAA2755
:10003700A928E4FF121FF2EF64E9604FAA27A92855
:100047007FC60E121A3F7861120F4C7861120F3378
:100057008F2F8E2E8D2D8C2C7550FF755116755246
:10006700C07BFF7A1679BA12078A7BFF7A1679CD99
:10007700852F53852E52852D51852C5012078A7F47
:100087000A121F957F0D121F95800375290AE5290E
:100097006003020725AF2FAE2EAD2DAC2CAA27A9E2
:1000A700287B01121BAFAA27A9287B017D007C02B0
:1000B700121C8C7550FF7551167552D77BFF7A1637
:1000C70079D112078A7F0B121CEB7865A60608A662
:1000D700077BFF7A1679E718E6F55008E6F551121F
:1000E700078A7F0A121F957F0D121F957550FF759E
:1000F70051167552EA7BFF7A1679D112078AAA2719
:10010700A9287B017F0D7E00121FF27867A6077B67
:10011700FF7A1679F9E6F55012078A7F0A121F95BA
:100127007F0D121F957550FF7551167552FD7BFF98
:100137007A1679D112078A7F0E121CEB7868A60609
:1001470008A6077BFF7A1679E718E6F55008E6F563
:100157005112078A7F0A121F957F0D121F9575503E
:10016700FF75511775520C7BFF7A1679D112078AE2
:10017700AA27A9287B017F107E00121FF27875A697
:10018700077BFF7A1679F9E6F55012078A7F0A127C
:100197001F957F0D121F957550FF755117755218D2
:1001A7007BFF7A1679D112078AAA27A9287B017FB4
:1001B700117E00121CF37873A60608A6077BFF7A48
:1001C7001679E718E6F55008E6F55112078A7F0A0F
:1001D700121F957F0D121F957550FF755117755298
:1001E700277BFF7A1679D112078AAA27A9287B01CC
:1001F7007F137E00121CF37890A60608A6077BFFE4
:100207007A1679E718E6F55008E6F55112078A7F5E
:100217000A121F957F0D121F957550FF755117759F
:1002270052347BFF7A1679D112078AAA27A9287B2D
:10023700017F167E00121CF3787EA60608A6077BB0
:10024700FF7A1679E718E6F55008E6F55112078A9E
:100257007F0A121F957F0D121F957550FF75511755
:100267007552407BFF7A1679D112078A7F1C121AC2
:1002770037786B120F4C7BFF7A1679CD786B120F9C
:10028700338F538E528D518C5012078A7F0A121F5B
:10029700957F0D121F957550FF75511775524E7B3F
:1002A700FF7A1679D112078A7F20121A37788C12B3
:1002B7000F4C7BFF7A1679CD788C120F338F538EC4
:1002C700528D518C5012078A7F0A121F957F0D128B
:1002D7001F957550FF75511775525B7BFF7A16791D
:1002E700D112078AAA27A9287B017F247E00121A28
:1002F7003F787A120F4C7BFF7A1679CD787A120FF6
:10030700338F538E528D518C5012078A7F0A121FDA
:10031700957F0D121F957550FF7551177552677BA5
:10032700FF7A1679D112078AAA27A9287B017F2C81
:100337007E00121A3F7880120F4C7BFF7A1679CD18
:100347007880120F338F538E528D518C5012078A3B
:100357007F0A121F957F0D121F957550FF75511754
:100367007552747BFF7A1679D112078A7873E6FE85
:1003770008E67805C333CE33CED8F9FF7865E6FCB7
:1003870008E6FD24FFFBEC34FFCB2FFFEB3EFE120C
:100397000D8AE4FCFD7884120F4C7BFF7A1679CD29
:1003A7007884120F338F538E528D518C5012078AD7
:1003B7007F0A121F957F0D121F95787FE6184670EA
:1003C70033787A120F338F338E328D318C307550EC
:1003D700FF75511775527F7BFF7A1679D112078AFD
:1003E7007BFF7A1679CD8533538532528531518516
:1003F70030508022787EE6FE08E6FFE48F338E32A7
:10040700F531F53075290B7550FF75511775528AFF
:100417007BFF7A1679CD12078A7F0A121F957F0D07
:10042700121F957891E618467040788C120F338F1B
:10043700378E368D358C347550FF75511775529F31
:100447007BFF7A1679D112078A7BFF7A1679CD85D9
:10045700375385365285355185345012078A7F0ABE
:10046700121F957F0D121F9580137890E6FE08E600
:10047700FFE48F378E36F535F53475290B7875E639
:10048700FFE4FCFDFEAB33AA32A931A830120DDF21
:100497008E2A8F2B7550FF7551177552A87BFF7ADF
:1004A7001679D112078A7BFF7A1679CD852A50856E
:1004B7002B5112078A7F0A121F957F0D121F9578FD
:1004C70075E6FFE4FCFDFEAB33AA32A931A8301272
:1004D7000DDFC004A905AA06AB077868E6FE08E6A3
:1004E700FFE4FCFDD000EB2FFFEA3EFEED39FDEC0B
:1004F70038FC7884120F3FEF2BFBEE3AFAED39F90F
:10050700EC38F8C3E5379BF53FE5369AF53EE53518
:1005170099F53DE53498F53C7550FF7551177552BF
:10052700B87BFF7A1679D112078A7BFF7A1679CDC5
:10053700853F53853E52853D51853C5012078A7F42
:100547000A121F957F0D121F957867E6FBE4FAF9EB
:10055700F8AF3FAE3EAD3DAC3C120E6A8F3B8E3AD4
:100567008D398C387550FF7551177552C07BFF7ADE
:100577001679D112078A7BFF7A1679CD853B538589
:100587003A5285395185385012078A7F0A121F95CA
:100597007F0D121F957875E6FFE4FCFDFEAB33AACD
:1005A70032A931A830120DDFC004A905AA06AB078E
:1005B7007868E6FE08E6FFE4FCFDD000EB2FFFEAD3
:1005C7003EFEED39FDEC38FC7884120F3FEF2BFF30
:1005D700EE3AFEED39FDEC38FC7861120F3FEF2B58
:1005E700FFEE3AFEED39FDEC38FC786F120F4C75D3
:1005F70050FF7551177552D07BFF7A1679D11207C4
:100607008A7BFF7A1679CD786F120F338F538E520C
:100617008D518C5012078A7F0A121F957F0D121F6A
:10062700957880120F33EF24FEFFEE34FFFEED3492
:10063700FFFDEC34FFFCC004A905AA06AB077867E9
:10064700E6FFE4FCFDFED000120DDF786F120F3FCE
:10065700EF2BFFEE3AFEED39FDEC38FC7888120FF0
:100667004C7550FF7551177552DD7BFF7A1679D19E
:1006770012078A7BFF7A1679CD7888120F338F534A
:100687008E528D518C5012078A7F0A121F957F0D4B
:10069700121F95E47FF57E0FFDFCAB3BAA3AA93903
:1006A700A838C3120EFC501D786A760C75290B7694
:1006B7000275290B7550FF7551177552ED7BFF7A3F
:1006C7001679D1804CE47FF57EFFFDFCAB3BAA3A5F
:1006D700A939A838C3120EFC786A50247602752906
:1006E7000B7550FF7551177552F97BFF7A1679D143
:1006F70012078A7BFF7A1679CD786AE6F550801162
:1007070076047550FF7551187552057BFF7A167977
:10071700D112078A7F0A121F957F0D121F95AF29E5
:0107270022AF
:0813A4008F2A8E298D288C2769
:1013AC00753E01852B3F852C40E4F537F538F53536
:1013BC00F536786F120F33AB2AAA29A928A827C3B0
:1013CC00120EFC500F7884120F338F348E338D3203
:1013DC008C31800D7867E6FFE48F34F533F532F508
:1013EC0031852A3085292F85282E85272DAF30AEC3
:1013FC002FAD2EAC2DAB3EAA3FA940121BAF8F3D9B
:10140C00E53D6003021538AB3EAA3FA940AF36AEAE
:10141C0035121FF28F39E53964E570030214B6E515
:10142C003970030214B6E536240BFFE4121FE98F62
:10143C003BD2A5E53B540E70710538E538700205BA
:10144C00377BFF7A187911853750F55112078AE4EA
:10145C00F53A121FE18F3C121F95053AE53AC394F9
:10146C000840EFE53B30E41F753A08121FE18F3C52
:10147C00121F95053AE53AC3940B40EF7BFF7A189F
:10148C00791712078A80237F2E121F95753A08123E
:10149C001FE18F3C121F95053AE53AC3940B40EFC0
:1014AC007F0D121F957F0A121F9574202536F53675
:1014BC00E43535F535D3E53694FEE53594014063D6
:1014CC00E5302401F530E4352FF52FE4352EF52EDB
:1014DC00E4352DF52DC3E530952AFFE52F9529FE32
:1014EC00E52E9528FDE52D9527FCAB34AA33A932C2
:1014FC00A831D3120EFC4025AF30AE2FAD2EAC2D43
:10150C00AB3EAA3FA940121BAF8F3DE53D6007E4FF
:10151C00F537F538F539E4F535F53680064337807F
:10152C00E4F539E53960030214138005E4F537F569
:05153C0038AE37AF38A6
:011541002287
:0A11E6008F318D328B338A34893546
:1011F000E4F53A309203209303753A0F1220A0E5EC
:101200003125E054FEF539D293C292753607E536A2
:10121000C394085057E53A70537F0412208AC29352
:1012200074017E00A836088005C333CE33CED8F9CA
:10123000FFE4FEEF5539A836088006CEA2E713CEAC
:1012400013D8F8FF139292EF5401F53B7F0412205C
:101250008AD293753801209308E5386004053880F8
:10126000F5E5387003753A0E153680A2E53A700A36
:10127000A29233653B6003753A0FE53A701F7F0415
:1012800012208A122084D293753801209308E53801
:101290006004053880F5E5387003753A0EE53A705C
:1012A00006309203753A10E4F537E537D3953240AE
:1012B00003021369E53A6003021369753607E536E0
:1012C000C3940850727F0412208AC293AB33AA34AD
:1012D000A935853782758300120D29FD74017E00C2
:1012E000A836088005C333CE33CED8F9FFEDFBE432
:1012F000FEEF5BA836088006CEA2E713CE13D8F81F
:10130000FF139292EF5401F53B7F0412208AD2938F
:10131000753801209308E5386004053880F5E53814
:101320007003753A0EE53A700AA29233653B60038A
:10133000753A0F15368087E53A701F7F0412208AB0
:10134000122084D293753801209308E53860040593
:101350003880F5E5387003753A0EE53A700630923C
:1013600003753A1005370212AA7F0412208AC2932D
:10137000C292E4F53B7F0712208AD2937538012090
:101380009308E5386004053880F5E5387003753A50
:101390000EE53A700AA29233653B6003753A0FD2AC
:0313A00092AF3ACF
:0113A3002227
:0A0A84008F2B8D2C8B2D8A2E892FCD
:100A8E001220A0E52B25E04401F533D293C29275D6
:100A9E003007E530C394085065E53470617F041269
:100AAE00208AC29374017E00A830088005C333CE1D
:100ABE0033CED8F9FFE4FEEF5533A830088006CECA
:100ACE00A2E713CE13D8F8FF139292EF5401F53527
:100ADE007F0412208AD293753201209308E532608A
:100AEE0004053280F5E532700375340EE534700A74
:100AFE00A292336535600375340F15308094E5345A
:100B0E00701F7F0412208A122084D2937532012026
:100B1E009308E5326004053280F5E53270037534D2
:100B2E000EE5347006309203753410753007E530DB
:100B3E00C394085063E534705F7F0412208AC29319
:100B4E00AB2DAA2EA92F120D10FD7C0074017E0074
:100B5E00A830088005C333CE33CED8F9FFEE5CFE45
:100B6E00EF5DA830088006CEA2E713CE13D8F8FFAB
:100B7E00139292EF5401F5357F0412208AD29375A9
:100B8E003201209308E5326004053280F5E53270BB
:100B9E000375340E15308096E534700AA2923365D3
:100BAE0035600375340FE534701F7F0412208A12EE
:100BBE002084D293753201209308E5326004053209
:100BCE0080F5E532700375340EE53470063092030D
:100BDE007534107F0412208AC293C2927F071220AE
:100BEE008AD293753201209308E532600405328073
:100BFE00F5E532700375340EE534700AA292336552
:100C0E0035600375340FD2921220A0D293C292E4B3
:100C1E00F531E531D3952C4003020CD5E534600354
:100C2E00020CD5AB2DE52F2531F9E4352EFA120D38
:100C3E0010E4120D56753007E530C3940850507FFE
:100C4E000412208AC2937F0412208AD29375320135
:100C5E00209308E5326004053280F5E532700375A5
:100C6E00340EE5347025A29233F535AB2DE52F25E4
:100C7E0031F9E4352EFA120D10FFAE30E535A80627
:100C8E00088002C333D8FC4F120D56153080A9E5EB
:100C9E0034702F7F0412208AC293E52C14B53104D0
:100CAE00D2928002C2927F0412208AD293753201B0
:100CBE00209308E5326004053280F5E53270037545
:100CCE00340E0531020C207F0412208AC293C29288
:100CDE00E4F5357F0712208AD293753201209308EE
:100CEE00E5326004053280F5E532700375340EE5A9
:100CFE0034700AA292336535600375340FD292AF09
:010D0E0034B0
:010D0F0022C1
:06208400C293D2927F041A
:10208A00308E03308FFDC28EBF040A758DFB758BAF
:06209A0022C28FD28E224B
:1020A00053890F438910C2AB758DFB758B22C28F8C
:0320B000D28E22AB
:1020470025322E32625800526563656976656420D1
:1020570056616C7565203D2025322E3262580A0D77
:012067000078
:100F8E00D2B27527FF752800752900E4F530F52FCC
:100F9E00F52EF52DAB27AA28A929853082852F831A
:100FAE00120D29F52AE5302401F530E4352FF52F01
:100FBE00E4352EF52EE4352DF52D853082852F83E3
:100FCE00120D29F52BE5302401F530E4352FF52FE0
:100FDE00E4352EF52EE4352DF52D7BFF7A2079475D
:100FEE00852A5012078A7F0A121F957F0D121F95B0
:100FFE00E52AF460117B007A00792A7D017F431285
:10100E0011E68F2CC2A7E52AF470897527FF752883
:10101E0000752900F530F52FF52EF52DAB27AA28F2
:10102E00A929853082852F83120D29F52AE53024D2
:10103E0001F530E4352FF52FE4352EF52EE4352D60
:10104E00F52D853082852F83120D29F52BE5302461
:10105E0001F530E4352FF52FE4352EF52EE4352D40
:10106E00F52D7BFF7A207947852A5012078A7F0A51
:10107E00121F957F0D121F95E52AF460117B007AE1
:10108E0000792A7D017F431211E68F2CC2A7E52A33
:10109E00F47089C2B2D2B2752A54752B07FB7A004E
:1010AE00792A7D017F431211E6752A55752B107B27
:1010BE00007A00792A7D017F431211E6752A0675A2
:1010CE002B097B007A00792A7D017F431211E67588
:1010DE002A0B752B027B007A00792A7D017F431241
:1010EE0011E6752A61752B057B007A00792A7D0140
:1010FE007F431211E6752A50752B067B007A007914
:10110E002A7D017F431211E6752A65E4F52BFB7AE1
:10111E0000792A7D017F431211E6752A52752BB88C
:10112E007B007A00792A7D017F431211E6752A64CD
:10113E00E4F52BFB7A00792A7D017F431211E675C7
:10114E002A51E4F52BFB7A00792A7D017F43121197
:10115E00E6752A05752BA17B007A00792A7D017F21
:10116E00431211E6752A03E4F52BFB7A00792A7DEA
:10117E00017F431211E6752A18752B047B007A0045
:10118E00792A7D017F431211E6752A0C752B057B9A
:10119E00007A00792A7D017F431211E6752A467581
:1011AE002B087B007A00792A7D017F431211E675A8
:1011BE002A48752B087B007A00792A7D017F43121D
:1011CE0011E6752A72752B017B007A00792A7D0152
:0711DE007F431211E6AF2C64
:0111E50022E7
:061DE3008B278A288929E4
:101DE900E4F52AAB27AA28A9297D017F431211E628
:101DF900152AEF6004E52A70EAE4F52AAB27AA2838
:101E0900A9297D017F43120A84152AEF6004E52A76
:101E190070EAAB27AA28A929120D10F5507BFF7A81
:061E290020794E02078A39
:030000000220C219
:0C20C200787FE4F6D8FD75819102181EAD
:100D1000BB010689828A83E0225002E722BBFE02E1
:090D2000E32289828A83E4932214
:100D2900BB010CE58229F582E5833AF583E022507F
:100D390006E92582F8E622BBFE06E92582F8E222C9
:0D0D4900E58229F582E5833AF583E49322E3
:100D5600BB010689828A83F0225002F722BBFE017C
:020D6600F32276
:100D6800F8BB010DE58229F582E5833AF583E8F0C1
:100D7800225006E92582C8F622BBFE05E92582C86D
:020D8800F22255
:100D8A00BC000BBE0029EF8DF084FFADF022E4CC4D
:100D9A00F875F008EF2FFFEE33FEEC33FCEE9DEC16
:100DAA00984005FCEE9DFE0FD5F0E9E4CEFD22ED5C
:100DBA00F8F5F0EE8420D21CFEADF075F008EF2FA6
:100DCA00FFED33FD4007985006D5F0F222C398FD97
:050DDA000FD5F0EA2234
:100DDF00E88FF0A4CC8BF0A42CFCE98EF0A42CFCB3
:100DEF008AF0EDA42CFCEA8EF0A4CDA8F08BF0A431
:100DFF002DCC3825F0FDE98FF0A42CCD35F0FCEB90
:100E0F008EF0A4FEA9F0EB8FF0A4CFC5F02ECD3954
:0F0E1F00FEE43CFCEAA42DCE35F0FDE43CFC22C1
:100E2E0075F008758200EF2FFFEE33FECD33CDCC7B
:100E3E0033CCC58233C5829BED9AEC99E5829840FE
:100E4E000CF582EE9BFEED9AFDEC99FC0FD5F0D6DB
:100E5E00E4CEFBE4CDFAE4CCF9A88222B800C1B905
:100E6E000059BA002DEC8BF084CFCECDFCE5F0CB43
:100E7E00F97818EF2FFFEE33FEED33FDEC33FCEB7C
:100E8E0033FB10D703994004EB99FB0FD8E5E4F937
:100E9E00FA227818EF2FFFEE33FEED33FDEC33FC24
:100EAE00C933C910D7059BE99A4007EC9BFCE99A18
:100EBE00F90FD8E0E4C9FAE4CCFB2275F010EF2F5D
:100ECE00FFEE33FEED33FDCC33CCC833C810D7075D
:100EDE009BEC9AE899400AED9BFDEC9AFCE899F898
:0E0EEE000FD5F0DAE4CDFBE4CCFAE4C8F9222B
:100EFC00EB9FF5F0EA9E42F0E99D42F0E89C45F04C
:010F0C0022C2
:100F0D00E8600FECC313FCED13FDEE13FEEF13FFC2
:030F1D00D8F122E6
:100F2000E8600FEFC333FFEE33FEED33FDEC33FC2F
:030F3000D8F122D3
:0C0F3300E6FC08E6FD08E6FE08E6FF22EA
:0D0F3F00E6FB08E6F908E6FA08E6CBF82222
:0C0F4C00ECF608EDF608EEF608EFF622D1
:101F9500EFB40A07740D121FA0740A309811A8999E
:101FA500B8130CC2983098FDA899C298B811F630AC
:071FB50099FDC299F5992284
:10072800E55C2450F8E6055C22784D3007027850E5
:10073800E475F001120F58020D102000EB7F2ED245
:10074800008018EF540F2490D43440D4FF30040BA9
:10075800EF24BFB41A0050032461FFE55D60021561
:100768005D0560E5607002055F30070D784DE47542
:10077800F001120F58EF020D56021F957403D207AD
:100788008003E4C207F55C8B4D8A4E894FE4F55D22
:10079800F55FF560E55D60077F2012076380F575FA
:1007A8005EFFC201C200C202C203C205C206C2087D
:1007B800120731FF700D3007057F00120774AF6014
:1007C800AE5F22B4255FC2D5C204120731FF24D020
:1007D800B40A00501A75F00A785D30D50508B6FFDE
:1007E8000106C6A426F620D5047002D20380D924B7
:1007F800CFB41A00EF5004C2E5D204020974D20142
:1008080080C6D20080C0D20280BCD2D580BAD205C0
:1008180080B47F201207632002077401B55D004091
:10082800F1120728FF12076302079CD208D206803C
:1008380095120728FB120728FA120728F94A4B7065
:100848000679457A0A7BFF20022EE55D602A7E0044
:100858008E82758300120D2960060EEE655E70F0BB
:10086800C2D5EBC0E0EAC0E0E9C0E0EE1209BBD0B7
:10087800E0F9D0E0FAD0E0FB120D10FF60AAEBC05F
:10088800E0EAC0E0E9C0E0120763D0E02401F9D053
:10089800E03400FAD0E0FBE55E0460DCD55ED98088
:1008A800877BFF7A0979B7D202809C791080027918
:1008B80008C206C2088008D2D5790A8004790AC21B
:1008C800D5E55E047002F55EE4FAFDFEFF12072826
:1008D800FC7B08200113120728FD7B1030000A1248
:1008E8000728FE120728FF7B20EC3382D592D550CB
:1008F80013C3E43000069FFFE49EFEE42001039D3D
:10090800FDE49CFCE4CBF8C201EC700CCFCECDCC5E
:10091800E824F8F870F38017C3EF33FFEE33FEEDE9
:1009280033FDEC33FCEB33FB994002FB0FD8E9EBCA
:10093800300105F8D0E0C448B201C0E00AEC4D4EE1
:100948004F78207B0070C2EAB55E0040BCC0E01260
:1009580009BDD0F0D0E0200104C4C0E0C4B201C099
:10096800F012074CD0F0D5F0EB02079C120F680884
:10097800395308B358080A4C08064208B74F08BF4D
:0F0988004408BF49081F4308C55508A94608A9D8
:100997004508A9470A6550080E2D08122E08352B61
:1009A7000816230833200A4E2A07CE480000082DD0
:1009B7003F3F3F00790AA2D5200314300509B9103B
:1009C700020404B9080104A2D5200602500104203C
:1009D70002689202B55D005034C0E07F20300319F1
:1009E7007F30A20272067205500F120A14C202C2A9
:1009F70006C205C2087F30800F300503E9C0E01248
:100A07000763300503D0E0F9D0E0B55DCC300517BA
:100A17007F30B9100C1207637F583004077F788046
:100A270003B908031207633002057F2D0207637FAE
:100A3700202008F87F2B2006F322920280CF286E11
:100A4700756C6C2900D2011207283001F8C20178B1
:100A57005D30D50108F60207CE2D504349581207DD
:100A6700282403B405004001E4900A609312075458
:0D0A7700743A120754D203755D040208B3EF
:100F5800FAE6FB0808E6F925F0F618E6CA3AF6229A
:100F6800D083D082F8E4937012740193700DA3A318
:100F780093F8740193F5828883E47374029368602C
:060F8800EFA3A3A380DF2C
:00000001FF
