:101E74005389F0438901C2A9E4FDFCC3ED9FEC9EA4
:101E84005016758CFA758A1FC28DD28C308DFDC2A6
:081E94008C0DBD00010C80E380
:011E9C002223
:051F0C00C200752C3835
:101F1100A20092B6D2B77F0A7E00121E74852C8071
:0D1F2100C2B77F017E00121E747580FF2282
:081C95008F278B288A29892A78
:101C9D00E527701FF52BAB28AA29A92A852B82755C
:101CAD008300120D26FF602FD200F52C121F110597
:101CBD002B80E3E4F52BE52BC39527501AD200AB0F
:101CCD0028AA29A92A852B82758300120D26F52CA9
:071CDD00121F11052B80DF2F
:011CE40022DD
:101E3E007F1E7E00121E74121F0C7F057E00121E66
:101E4E0074121F0C121F0CC200752C0F121F11C220
:101E5E0000752C01121F117F027E00121E74C2002B
:061E6E00752C06021F1195
:0F1FD300C200752C01121F117F027E00021E74C6
:101F4F00252D323073004D6F756E74696E672044A6
:0F1F5F007269766500696E697420646F6E650043
:101B0500C2A6121F6E121E3E7F807E1A7D067C00C5
:101B1500121B761215088F227550FF75511F7552CD
:101B2500557BFF7A1F794F12078A7F0A121E9D7F08
:101B35000D121E9D7E007F001200038F22788812F1
:101B45000F30752B00752C0012136A8E258F261207
:101B55001FD3C200752C80121F117BFF7A1F796479
:101B65007F09121C95120F8B7B007A007923021DC9
:011B7500343B
:101D80002570200025322E32625820004164647292
:101D90002E202020302020312020322020332020EF
:101DA00034202035202036202037202038202039AC
:101DB0002020412020422020432020442020452074
:051DC00020460A0D00A1
:101A17008B488A49894A8B508A5189527BFF7A1DA4
:101A2700798012078AE4F54BAB48AA49A94A854B46
:101A370082758300120D26F54C7BFF7A1D7984F59C
:101A47005012078A054BE54BC3941040DBE4F54B76
:101A5700AB48AA49A94A854B82758300120D26F522
:101A67004CC394204007E54CD3947F4003754C2E1C
:101A7700AF4C121E9D054BE54BC3941040D27F0D12
:081A8700121E9D7F0A021E9D44
:0A1BDD008C438D448B408A418942FD
:101BE7008B458A468947AF0153070F7E00C3E49FA1
:101BF700FFE49EFEEF2547F547EE3546F5467BFFAA
:101C07007A1D798C12078AAB45AA46A947121A177B
:101C170074102547F547E43546F546E5422544F96E
:101C2700E5413543FA8A838982C3E5479582E546CC
:041C3700958340D37E
:011C3B002286
:081FEE0025322E32625820005A
:10150800758E0CD294E4F52D7B007A0079277FFF45
:10151800121F2E052DE52DC3940A40EC7B007A009E
:101528007927121E068F2CE4F52D7427252DF8E651
:10153800F52E7BFF7A1F79EEF55012078A052DE507
:101548002DC3940540E47F0A121E9D7F0D121E9D37
:101558007F647E00121E74E52C700AFB7A007927DE
:10156800121DC58F2CE4F52D7427252DF8E6F52ED0
:101578007BFF7A1F79EEF55012078A052DE52DC3FA
:10158800940540E47F0A121E9D7F0D121E9D7F6404
:101598007E00121E74E52C7015FB7A007927121E46
:1015A800C48F2CE52764016005752C05C2A5E4F5F8
:1015B8002D7427252DF8E6F52E7BFF7A1F79EEF599
:1015C8005012078A052DE52DC3940540E47F0A12C1
:1015D8001E9D7F0D121E9D7F647E00121E74E52CD9
:1015E800700AFB7A00792712199A8F2CE4F52D746A
:1015F80027252DF8E6F52E7BFF7A1F79EEF5501298
:10160800078A052DE52DC3940540E47F0A121E9D27
:101618007F0D121E9D7F647E00121E74E52C701DC6
:10162800FB7A007927121EC48F2CE52854C0700D50
:10163800E52830E705752C078003752C05E4F52DA2
:101648007427252DF8E6F52E7BFF7A1F79EEF550E5
:1016580012078A052DE52DC3940540E47F0A121E62
:101668009D7F0D121E9D7F647E00121E74E52C6006
:0716780002C2A7D294AF2CBF
:01167F002248
:061E06008B2F8A308931A8
:101E0C00C294E4F552F551F550F54FFF121882EFDC
:101E1C00700BAB2FAA30A9317F011217ECEF700FAA
:101E2C00AB2FAA30A931120D0D640160027F05D2CF
:011E3C009411
:011E3D002282
:061DC5008B2F8A308931EA
:101DCB00C294E47552AA755101F550F54F7F081274
:101DDB001882EF700BAB2FAA30A9317F051217ECCD
:101DEB00AB2FAA30A931120D0DFEB405047F09806B
:0A1DFB0007EE640160027F06D29437
:011E050022BA
:061EC4008B2F8A308931EA
:101ECA00C294E4F552F551F550F54F7F3A12188253
:0E1EDA00EF700BAB2FAA30A9317F051217EC69
:011EE80022D7
:06199A008B2F8A30893119
:1019A000E4F536F535F534753340C294F532053239
:1019B000E4F552F551F550F54F7F37121882EF706C
:1019C000031217E4AB2FAA30A931120D0DFE6006E9
:1019D000640160027F02EF701185365285355185B2
:1019E000345085334F7F29121882EF70031217E4A9
:1019F000AB2FAA30A931120D0DFE60066401600202
:101A00007F020532EE6007E5326003EF60A0E53249
:061A100070027F01D29478
:011A160022AD
:021882008F4E87
:10188400E54EC394404003021911E54E4440F5541B
:101894007B007A007955FF121F2E8F53755618E579
:1018A4005370047F0180027F00E556C394195004ED
:1018B4007E0180027E00EE5F6024AF52AE51AD50D7
:1018C400AC4FA956A801120F0A8F547B007A0079F5
:1018D40055121F2E8F5374F82556F55680C1E54EC8
:1018E4007005755495800DE54EB4080575548780D0
:1018F40003755401E553700CFB7A007955AF54120B
:101904001F2E8F53E55360087553028003755303EC
:02191400AF53CF
:0119160022AE
:0817E400AB2FAA30A9317F01EF
:0817EC008F378B388A39893AE6
:1017F400E4F53BF53C7B007A00793D7FFF121F2E18
:101804008F3C053BE53B6009E53C7005E53DF46034
:10181400E4AB38AA39A93AE53D120D53E53B70050E
:10182400753C018046E53C6002800AE53D64016048
:1018340009E53D6005753C028031E537D3940140EC
:101844002A753E01E53EC3953750207B007A007926
:101854003D7FFF121F2EAB38AA39A93A853E827507
:101864008300E53D120D65053E80D9E53C700CFB17
:0D1874007A00793D7FFF121F2E8F3CAF3CA4
:011881002244
:081CE5007F01FB7A007949FE42
:0A1CED008E4E8F4F8B508A518952A2
:101CF700E4F553F554F556F557C3E557954FE556B3
:101D0700954E50267B007A0079557FFF121F2EAB28
:101D170050AA51A952855782855683E555120D65FC
:0C1D27000557E55770D3055680CFAF5428
:011D3300228D
:0E1A8F008F448E438D428C418B458A46894799
:101A9D00C294E4F5488F528E518D508C4F7F1112A8
:101AAD0018820548EF7003121CE5E5496004E5480E
:101ABD0070F0E54870027F01E4F5480548EF7003CA
:101ACD00121CE5E54964FE6007E5486003EF60EB35
:101ADD00E54870027F01E54954F070027F08EF7010
:101AED000CAB45AA46A947FF7E02121CEDEF70050F
:071AFD007F03121CE7D294E5
:011B040022BE
:101B7600E4F527AB07AA06A905A804FF7EA07D8C7D
:101B8600FC120E67EFD39402500575C3708045EFC3
:101B9600D39404500575C371803AEFD39408500569
:101BA60075C372802FEFD39410500575C3738024CC
:101BB600EFD39420500575C3F08019EFD3944050AD
:101BC6000575C3F1800EEFD39480500575C3F2807E
:061BD60003752704AF2790
:011BDC0022E6
:101F2E00E4FE8FC5AFC40EEF20E703EE70F6EE6051
:101F3E000BE5C5120D53EF5470FE80027E01AF0605
:011F4E002270
:101F6E00759AE285878753877F759850E4F59B7540
:0C1F7E009AE2759B1ED299C2ACFEFF22B5
:10168000252D333573004D42525F52656C536563AF
:10169000202000256C7500252D3230730042504209
:1016A0005F427974657350657253656300257500F8
:1016B0004250425F536563506572436C75730025F9
:1016C0006275004250425F52737664536563436EA5
:1016D00074004250425F4E756D4641547300425053
:1016E000425F526F6F74456E74436E740042504295
:1016F0005F546F745365633136004250425F464118
:1017000054537A3136004250425F48696464656ED2
:10171000536563004250425F546F745365633332C4
:10172000004250425F464154537A333200425042A5
:101730005F526F6F745F436C7500526F6F744469D2
:1017400072536563004641542073697A65333200F1
:101750006572726F722077726F6E67206661747443
:101760007970652000546F745365633332006E7571
:101770006D6F66464154536563746F7273004461C4
:10178000746153656300636F756E746F66436C7547
:101790007374657273004669727374446174615343
:1017A0006563004669727374526F6F744469725353
:1017B0006563004641542073697A652031320046E2
:1017C00041542073697A65203136004641542073B4
:1017D000697A65203332002535642E20005B444948
:0417E000525D0A004C
:08191700AA27A9287B017E002C
:10191F008E408F418B428A438944C3E540940250E5
:01192F006354
:10193000E4F548F547F546F545F54AAB42E544255B
:1019400041F9E5433540FAC37403954AFFE4940036
:10195000FEE92FF9EA3EFA120D0DF549AF48AE4700
:10196000AD46AC457808120F1D8F488E478D468CCA
:1019700045E5484549F548E547F547E546F546E577
:1019800045F545054AE54AB404B1AF48AE47AD4612
:03199000AC452241
:07199300E47F0CFEFDFC22C5
:081C3C00AA27A9287B017E0004
:0A1C44008E408F418B428A43894491
:101C4E00E4F545F546C3E54094025036E4FDAB425B
:101C5E00E5442541F9E5433540FAEDFFC374019F94
:101C6E00FFE49400FEE92FF9EA3EFA120D0DFCE5B1
:101C7E0046754600F545EC42460DBD02D1AE45AF68
:061C8E0046227E007F0CDF
:011C9400222D
:101EE9007E00E536253AFFEE3535FEAB3EAA3FA921
:011EF90040A8
:101EFA00C3EE940250098F828E83120D26FF227F31
:011F0A000CCA
:011F0B0022B3
:040003008E278F288D
:10000700E4F529AA06A9077B01FFFEFDFC121A8F5A
:10001700AA27A9287B017D007C02121BDDAA27A93C
:10002700287B01E4FFFE121EFAEF64EB605DAA274E
:10003700A928E4FF121EFAEF64E9604FAA27A9284E
:100047007FC60E12191F7861120F497861120F309F
:100057008F2F8E2E8D2D8C2C7550FF755116755246
:10006700867BFF7A16798012078A7BFF7A16799347
:10007700852F53852E52852D51852C5012078A7F47
:100087000A121E9D7F0D121E9D800375290AE52900
:100097006003020725AF2FAE2EAD2DAC2CAA27A9E2
:1000A700287B01121A8FAA27A9287B017D007C02D1
:1000B700121BDD7550FF75511675529D7BFF7A1621
:1000C700799712078A7F0B121C3C7865A60608A64B
:1000D700077BFF7A1679AD18E6F55008E6F5511259
:1000E700078A7F0A121E9D7F0D121E9D7550FF7590
:1000F70051167552B07BFF7A16799712078AAA278D
:10010700A9287B017F0D7E00121EFA7867A6077B60
:10011700FF7A1679BFE6F55012078A7F0A121E9DED
:100127007F0D121E9D7550FF7551167552C37BFFCB
:100137007A16799712078A7F0E121C3C7868A606F2
:1001470008A6077BFF7A1679AD18E6F55008E6F59D
:100157005112078A7F0A121E9D7F0D121E9D755030
:10016700FF7551167552D27BFF7A16799712078A57
:10017700AA27A9287B017F107E00121EFA7875A690
:10018700077BFF7A1679BFE6F55012078A7F0A12B6
:100197001E9D7F0D121E9D7550FF7551167552DEFF
:1001A7007BFF7A16799712078AAA27A9287B017FEE
:1001B700117E00121C447873A60608A6077BFF7AF7
:1001C7001679AD18E6F55008E6F55112078A7F0A49
:1001D700121E9D7F0D121E9D7550FF75511675528B
:1001E700ED7BFF7A16799712078AAA27A9287B0140
:1001F7007F137E00121C447890A60608A6077BFF93
:100207007A1679AD18E6F55008E6F55112078A7F98
:100217000A121E9D7F0D121E9D7550FF7551167592
:1002270052FA7BFF7A16799712078AAA27A9287BA1
:10023700017F167E00121C44787EA60608A6077B5F
:10024700FF7A1679AD18E6F55008E6F55112078AD8
:100257007F0A121E9D7F0D121E9D7550FF75511747
:100267007552067BFF7A16799712078A7F1C121937
:1002770017786B120F497BFF7A167993786B120FF9
:10028700308F538E528D518C5012078A7F0A121E5F
:100297009D7F0D121E9D7550FF7551177552147B6A
:1002A700FF7A16799712078A7F20121917788C120E
:1002B7000F497BFF7A167993788C120F308F538E04
:1002C700528D518C5012078A7F0A121E9D7F0D1284
:1002D7001E9D7550FF7551177552217BFF7A167950
:1002E7009712078AAA27A9287B017F247E00121963
:1002F7001F787A120F497BFF7A167993787A120F53
:10030700308F538E528D518C5012078A7F0A121EDE
:100317009D7F0D121E9D7550FF75511775522D7BD0
:10032700FF7A16799712078AAA27A9287B017F2CBB
:100337007E0012191F7880120F497BFF7A16799376
:100347007880120F308F538E528D518C5012078A3E
:100357007F0A121E9D7F0D121E9D7550FF75511746
:1003670075523A7BFF7A16799712078A7873E6FEF9
:1003770008E67805C333CE33CED8F9FF7865E6FCB7
:1003870008E6FD24FFFBEC34FFCB2FFFEB3EFE120C
:100397000D87E4FCFD7884120F497BFF7A16799369
:1003A7007884120F308F538E528D518C5012078ADA
:1003B7007F0A121E9D7F0D121E9D787FE6184670DC
:1003C70033787A120F308F338E328D318C307550EF
:1003D700FF7551177552457BFF7A16799712078A71
:1003E7007BFF7A1679938533538532528531518550
:1003F70030508022787EE6FE08E6FFE48F338E32A7
:10040700F531F53075290B7550FF75511775525039
:100417007BFF7A16799312078A7F0A121E9D7F0D3A
:10042700121E9D7891E618467040788C120F308F17
:10043700378E368D358C347550FF7551177552656B
:100447007BFF7A16799712078A7BFF7A167993854D
:10045700375385365285355185345012078A7F0ABE
:10046700121E9D7F0D121E9D80137890E6FE08E6F2
:10047700FFE48F378E36F535F53475290B7875E639
:10048700FFE4FCFDFEAB33AA32A931A830120DDC24
:100497008E2A8F2B7550FF75511775526E7BFF7A19
:1004A70016799712078A7BFF7A167993852A5085E2
:1004B7002B5112078A7F0A121E9D7F0D121E9D78EF
:1004C70075E6FFE4FCFDFEAB33AA32A931A8301272
:1004D7000DDCC004A905AA06AB077868E6FE08E6A6
:1004E700FFE4FCFDD000EB2FFFEA3EFEED39FDEC0B
:1004F70038FC7884120F3CEF2BFBEE3AFAED39F912
:10050700EC38F8C3E5379BF53FE5369AF53EE53518
:1005170099F53DE53498F53C7550FF7551177552BF
:100527007E7BFF7A16799712078A7BFF7A16799373
:10053700853F53853E52853D51853C5012078A7F42
:100547000A121E9D7F0D121E9D7867E6FBE4FAF9DD
:10055700F8AF3FAE3EAD3DAC3C120E678F3B8E3AD7
:100567008D398C387550FF7551177552867BFF7A18
:1005770016799712078A7BFF7A167993853B5385FD
:100587003A5285395185385012078A7F0A121E9DC3
:100597007F0D121E9D7875E6FFE4FCFDFEAB33AAC6
:1005A70032A931A830120DDCC004A905AA06AB0791
:1005B7007868E6FE08E6FFE4FCFDD000EB2FFFEAD3
:1005C7003EFEED39FDEC38FC7884120F3CEF2BFF33
:1005D700EE3AFEED39FDEC38FC7861120F3CEF2B5B
:1005E700FFEE3AFEED39FDEC38FC786F120F4975D6
:1005F70050FF7551177552967BFF7A167997120738
:100607008A7BFF7A167993786F120F308F538E5249
:100617008D518C5012078A7F0A121E9D7F0D121E64
:100627009D7880120F30EF24FEFFEE34FFFEED348D
:10063700FFFDEC34FFFCC004A905AA06AB077867E9
:10064700E6FFE4FCFDFED000120DDC786F120F3CD4
:10065700EF2BFFEE3AFEED39FDEC38FC7888120FF0
:10066700497550FF7551177552A37BFF7A16799715
:1006770012078A7BFF7A1679937888120F308F5387
:100687008E528D518C5012078A7F0A121E9D7F0D44
:10069700121E9DE47FF57E0FFDFCAB3BAA3AA939FC
:1006A700A838C3120EF9501D786A760C75290B7697
:1006B7000275290B7550FF7551177552B37BFF7A79
:1006C700167997804CE47FF57EFFFDFCAB3BAA3A99
:1006D700A939A838C3120EF9786A50247602752909
:1006E7000B7550FF7551177552BF7BFF7A167997B7
:1006F70012078A7BFF7A167993786AE6F55080119C
:1007070076047550FF7551177552CB7BFF7A1679B2
:100717009712078A7F0A121E9D7F0D121E9DAF2911
:0107270022AF
:08136A008F2A8E298D288C27A3
:10137200753E01852B3F852C40E4F537F538F53570
:10138200F536786F120F30AB2AAA29A928A827C3ED
:10139200120EF9500F7884120F308F348E338D3243
:1013A2008C31800D7867E6FFE48F34F533F532F542
:1013B20031852A3085292F85282E85272DAF30AEFD
:1013C2002FAD2EAC2DAB3EAA3FA940121A8F8F3DF6
:1013D200E53D60030214FEAB3EAA3FA940AF36AE24
:1013E20035121EFA8F39E53964E5700302147CE583
:1013F20039700302147CE536240BFFE4121EF18FD0
:101402003BD2A5E53B540E70710538E538700205F4
:10141200377BFF7A1779D7853750F55112078AE45F
:10142200F53A121EE98F3C121E9D053AE53AC39425
:101432000840EFE53B30E41F753A08121EE98F3C85
:10144200121E9D053AE53AC3940B40EF7BFF7A17D3
:1014520079DD12078A80237F2E121E9D753A0812AB
:101462001EE98F3C121E9D053AE53AC3940B40EFEC
:101472007F0D121E9D7F0A121E9D74202536F536A1
:10148200E43535F535D3E53694FEE5359401406310
:10149200E5302401F530E4352FF52FE4352EF52E15
:1014A200E4352DF52DC3E530952AFFE52F9529FE6C
:1014B200E52E9528FDE52D9527FCAB34AA33A932FC
:1014C200A831D3120EF94025AF30AE2FAD2EAC2D80
:1014D200AB3EAA3FA940121A8F8F3DE53D6007E45B
:1014E200F537F538F539E4F535F5368006433780BA
:1014F200E4F539E53960030213D98005E4F537F5DF
:0515020038AE37AF38E0
:0115070022C1
:0A11B2008F318D328B338A3489357A
:1011BC00309203209303753A0F121FC0E53125E0DE
:1011CC0054FEF539D293C292753607E536D3940A9C
:1011DC004057E53A70537F04121F90C29374017EFE
:1011EC0000A836088005C333CE33CED8F9FFE4FE11
:1011FC00EF5539A836088006CEA2E713CE13D8F8DF
:10120C00FF139292EF5401F53B7F04121F90D2937F
:10121C00753801209308E5386004053880F5E53809
:10122C007003753A0E153680A2E53A700AA2923315
:10123C00653B6003753A0FE53A701F7F04121F90EF
:10124C00121F8AD293753801209308E53860040583
:10125C003880F5E5387003753A0EE53A7006309231
:10126C0003753A10E4F537E537D395324003021392
:10127C0032E53A6003021332753607E536D394082B
:10128C0040727F04121F90C293AB33AA34A93585E8
:10129C003782758300120D26FD74017E00A8360876
:1012AC008005C333CE33CED8F9FFEDFBE4FEEF5B04
:1012BC00A836088006CEA2E713CE13D8F8FF1392F7
:1012CC0092EF5401F53B7F04121F90D293753801B5
:1012DC00209308E5386004053880F5E5387003750F
:1012EC003A0EE53A700AA29233653B6003753A0FE9
:1012FC0015368087E53A701F7F04121F90121F8AE3
:10130C00D293753801209308E5386004053880F5D0
:10131C00E5387003753A0EE53A7006309203753A6B
:10132C001005370212737F04121F90C293C2927F72
:10133C0007121F90D293753801209308E53860048A
:10134C00053880F5E5387003753A0EE53A700AA257
:0D135C009233653B6003753A0FD292AF3AB1
:011369002261
:0A0A84008F2B8D2C8B2D8A2E892FCD
:100A8E00121FC0E52B25E04401F533D293C29275B7
:100A9E003007E530D3940A4065E53470617F041267
:100AAE001F90C29374017E00A830088005C333CE18
:100ABE0033CED8F9FFE4FEEF5533A830088006CECA
:100ACE00A2E713CE13D8F8FF139292EF5401F53527
:100ADE007F04121F90D293753201209308E5326085
:100AEE0004053280F5E532700375340EE534700A74
:100AFE00A292336535600375340F15308094E5345A
:100B0E00701F7F04121F90121F8AD293753201201C
:100B1E009308E5326004053280F5E53270037534D2
:100B2E000EE5347006309203753410753007E530DB
:100B3E00D3940A4063E534705F7F04121F90C29312
:100B4E00AB2DAA2EA92F120D0DFD7C0074017E0077
:100B5E00A830088005C333CE33CED8F9FFEE5CFE45
:100B6E00EF5DA830088006CEA2E713CE13D8F8FFAB
:100B7E00139292EF5401F5357F04121F90D29375A4
:100B8E003201209308E5326004053280F5E53270BB
:100B9E000375340E15308096E534700AA2923365D3
:100BAE0035600375340FE534701F7F04121F9012E9
:100BBE001F8AD293753201209308E5326004053204
:100BCE0080F5E532700375340EE53470063092030D
:100BDE007534107F04121F90C293C2927F07121FAA
:100BEE0090D293753201209308E53260040532806D
:100BFE00F5E532700375340EE534700AA292336552
:100C0E0035600375340FD292121FC0D293C292E494
:100C1E00F531E531D3952C4003020CD5E534600354
:100C2E00020CD5AB2DE52F2531F9E4352EFA120D38
:100C3E000DE4120D53753007E530D3940840507F04
:100C4E0004121F90C2937F04121F90D2937532012B
:100C5E00209308E5326004053280F5E532700375A5
:100C6E00340EE5347025A29233F535AB2DE52F25E4
:100C7E0031F9E4352EFA120D0DFFAE30E535A8062A
:100C8E00088002C333D8FC4F120D53153080A9E5EE
:100C9E0034702F7F04121F90C293E52C14B53104CB
:100CAE00D2928002C2927F04121F90D293753201AB
:100CBE00209308E5326004053280F5E53270037545
:100CCE00340E0531020C207F04121F90C293C29283
:100CDE007F07121F90D293753201209308E5326080
:100CEE0004053280F5E532700375340EE534700A72
:0E0CFE00A292336535600375340FD292AF3485
:010D0C0022C4
:061F8A00C293D2927F0415
:101F9000308E03308FFDC28EBF040A758DFB758BAA
:061FA00022C28FD28E2246
:101FC00053890F438910C2AB758DFB758B22C28F6D
:031FD000D28E228C
:101FA60052656365697665642056616C7565203D8A
:0A1FB6002025322E3262580A0D0079
:100F8B00D2B27527FF752800752900E4F530F52FCF
:100F9B00F52EF52DAB27AA28A929853082852F831D
:100FAB00120D26F52AE5302401F530E4352FF52F07
:100FBB00E4352EF52EE4352DF52D853082852F83E6
:100FCB00120D26F52BE5302401F530E4352FF52FE6
:100FDB00E4352EF52EE4352DF52DE52AF4600F7B47
:100FEB00007A00792A7D017F431211B28F2CE52AFA
:100FFB00B4FFA17527FF752800752900E4F530F5BE
:10100B002FF52EF52DAB27AA28A929853082852F00
:10101B0083120D26F52AE5302401F530E4352FF542
:10102B002FE4352EF52EE4352DF52D853082852FC9
:10103B0083120D26F52BE5302401F530E4352FF521
:10104B002FE4352EF52EE4352DF52DE52AF4600F22
:10105B007B007A00792A7D017F431211B28F2CE538
:10106B002AB4FFA1C2B2D2B2752A54752B077B00EA
:10107B007A00792A7D017F431211B2752A55752B9F
:10108B00107B007A00792A7D017F431211B2752AF9
:10109B0006752B097B007A00792A7D017F4312119B
:1010AB00B2752A0B752B027B007A00792A7D017FA2
:1010BB00431211B2752A61752B057B007A00792AD0
:1010CB007D017F431211B2752A50752B067B007A76
:1010DB0000792A7D017F431211B2752A65E4F52B45
:1010EB00FB7A00792A7D017F431211B2752A527562
:1010FB002BB87B007A00792A7D017F431211B275E0
:10110B002A64E4F52BFB7A00792A7D017F431211C7
:10111B00B2752A51E4F52BFB7A00792A7D017F43C6
:10112B001211B2752A05752BA17B007A00792A7DE5
:10113B00017F431211B2752A03E4F52BFB7A007978
:10114B002A7D017F431211B2752A18752B047B007F
:10115B007A00792A7D017F431211B2752A0C752B07
:10116B00057B007A00792A7D017F431211B2752A23
:10117B0046752B087B007A00792A7D017F4312117B
:10118B00B2752A48752B087B007A00792A7D017F7E
:10119B00431211B2752A72752B017B007A00792AE2
:0711AB007D017F430211B238
:061D34008B278A28892993
:101D3A00E4F52AAB27AA28A9297D017F431211B20B
:101D4A00152AEF6004E52A70EAE4F52AAB27AA28E7
:101D5A00A9297D017F43120A84152AEF6004E52A26
:101D6A0070EAAB27AA28A929120D0DF5507BFF7A34
:061D7A001F79A602078A92
:03000000021FE2FA
:0C1FE200787FE4F6D8FD758191021B05A4
:100D0D00BB010689828A83E0225002E722BBFE02E4
:090D1D00E32289828A83E4932217
:100D2600BB010CE58229F582E5833AF583E0225082
:100D360006E92582F8E622BBFE06E92582F8E222CC
:0D0D4600E58229F582E5833AF583E49322E6
:100D5300BB010689828A83F0225002F722BBFE017F
:020D6300F32279
:100D6500F8BB010DE58229F582E5833AF583E8F0C4
:100D7500225006E92582C8F622BBFE05E92582C870
:020D8500F22258
:100D8700BC000BBE0029EF8DF084FFADF022E4CC50
:100D9700F875F008EF2FFFEE33FEEC33FCEE9DEC19
:100DA700984005FCEE9DFE0FD5F0E9E4CEFD22ED5F
:100DB700F8F5F0EE8420D21CFEADF075F008EF2FA9
:100DC700FFED33FD4007985006D5F0F222C398FD9A
:050DD7000FD5F0EA2237
:100DDC00E88FF0A4CC8BF0A42CFCE98EF0A42CFCB6
:100DEC008AF0EDA42CFCEA8EF0A4CDA8F08BF0A434
:100DFC002DCC3825F0FDE98FF0A42CCD35F0FCEB93
:100E0C008EF0A4FEA9F0EB8FF0A4CFC5F02ECD3957
:0F0E1C00FEE43CFCEAA42DCE35F0FDE43CFC22C4
:100E2B0075F008758200EF2FFFEE33FECD33CDCC7E
:100E3B0033CCC58233C5829BED9AEC99E582984001
:100E4B000CF582EE9BFEED9AFDEC99FC0FD5F0D6DE
:100E5B00E4CEFBE4CDFAE4CCF9A88222B800C1B908
:100E6B000059BA002DEC8BF084CFCECDFCE5F0CB46
:100E7B00F97818EF2FFFEE33FEED33FDEC33FCEB7F
:100E8B0033FB10D703994004EB99FB0FD8E5E4F93A
:100E9B00FA227818EF2FFFEE33FEED33FDEC33FC27
:100EAB00C933C910D7059BE99A4007EC9BFCE99A1B
:100EBB00F90FD8E0E4C9FAE4CCFB2275F010EF2F60
:100ECB00FFEE33FEED33FDCC33CCC833C810D70760
:100EDB009BEC9AE899400AED9BFDEC9AFCE899F89B
:0E0EEB000FD5F0DAE4CDFBE4CCFAE4C8F9222E
:100EF900EB9FF5F0EA9E42F0E99D42F0E89C45F04F
:010F090022C5
:100F0A00E8600FECC313FCED13FDEE13FEEF13FFC5
:030F1A00D8F122E9
:100F1D00E8600FEFC333FFEE33FEED33FDEC33FC32
:030F2D00D8F122D6
:0C0F3000E6FC08E6FD08E6FE08E6FF22ED
:0D0F3C00E6FB08E6F908E6FA08E6CBF82225
:0C0F4900ECF608EDF608EEF608EFF622D4
:101E9D00EFB40A07740D121EA8740A309811A89990
:101EAD00B8130CC2983098FDA899C298B811F630A5
:071EBD0099FDC299F599227D
:10072800E55C2450F8E6055C22784D3007027850E5
:10073800E475F001120F55020D0D2000EB7F2ED24B
:10074800008018EF540F2490D43440D4FF30040BA9
:10075800EF24BFB41A0050032461FFE55D60021561
:100768005D0560E5607002055F30070D784DE47542
:10077800F001120F55EF020D53021E9D7403D207AC
:100788008003E4C207F55C8B4D8A4E894FE4F55D22
:10079800F55FF560E55D60077F2012076380F575FA
:1007A8005EFFC201C200C202C203C205C206C2087D
:1007B800120731FF700D3007057F00120774AF6014
:1007C800AE5F22B4255FC2D5C204120731FF24D020
:1007D800B40A00501A75F00A785D30D50508B6FFDE
:1007E8000106C6A426F620D5047002D20380D924B7
:1007F800CFB41A00EF5004C2E5D204020974D20142
:1008080080C6D20080C0D20280BCD2D580BAD205C0
:1008180080B47F201207632002077401B55D004091
:10082800F1120728FF12076302079CD208D206803C
:1008380095120728FB120728FA120728F94A4B7065
:100848000679457A0A7BFF20022EE55D602A7E0044
:100858008E82758300120D2660060EEE655E70F0BE
:10086800C2D5EBC0E0EAC0E0E9C0E0EE1209BBD0B7
:10087800E0F9D0E0FAD0E0FB120D0DFF60AAEBC062
:10088800E0EAC0E0E9C0E0120763D0E02401F9D053
:10089800E03400FAD0E0FBE55E0460DCD55ED98088
:1008A800877BFF7A0979B7D202809C791080027918
:1008B80008C206C2088008D2D5790A8004790AC21B
:1008C800D5E55E047002F55EE4FAFDFEFF12072826
:1008D800FC7B08200113120728FD7B1030000A1248
:1008E8000728FE120728FF7B20EC3382D592D550CB
:1008F80013C3E43000069FFFE49EFEE42001039D3D
:10090800FDE49CFCE4CBF8C201EC700CCFCECDCC5E
:10091800E824F8F870F38017C3EF33FFEE33FEEDE9
:1009280033FDEC33FCEB33FB994002FB0FD8E9EBCA
:10093800300105F8D0E0C448B201C0E00AEC4D4EE1
:100948004F78207B0070C2EAB55E0040BCC0E01260
:1009580009BDD0F0D0E0200104C4C0E0C4B201C099
:10096800F012074CD0F0D5F0EB02079C120F650887
:10097800395308B358080A4C08064208B74F08BF4D
:0F0988004408BF49081F4308C55508A94608A9D8
:100997004508A9470A6550080E2D08122E08352B61
:1009A7000816230833200A4E2A07CE480000082DD0
:1009B7003F3F3F00790AA2D5200314300509B9103B
:1009C700020404B9080104A2D5200602500104203C
:1009D70002689202B55D005034C0E07F20300319F1
:1009E7007F30A20272067205500F120A14C202C2A9
:1009F70006C205C2087F30800F300503E9C0E01248
:100A07000763300503D0E0F9D0E0B55DCC300517BA
:100A17007F30B9100C1207637F583004077F788046
:100A270003B908031207633002057F2D0207637FAE
:100A3700202008F87F2B2006F322920280CF286E11
:100A4700756C6C2900D2011207283001F8C20178B1
:100A57005D30D50108F60207CE2D504349581207DD
:100A6700282403B405004001E4900A609312075458
:0D0A7700743A120754D203755D040208B3EF
:100F5500FAE6FB0808E6F925F0F618E6CA3AF6229D
:100F6500D083D082F8E4937012740193700DA3A31B
:100F750093F8740193F5828883E47374029368602F
:060F8500EFA3A3A380DF2F
:00000001FF
