:10333F005389F0438901C2A9E4FDFCC3ED9FEC9EC4
:10334F005016758CFA758A1FC28DD28C308DFDC2C6
:08335F008C0DBD00010C80E3A0
:013367002243
:0533D700C200752C3856
:1033DC00A20092B6D2B77F0A7E0012333F852C80B2
:0D33EC00C2B77F017E0012333F7580FF22C3
:08315D008F278B288A29892A9B
:10316500E527701FF52BAB28AA29A92A852B82757F
:10317500830012221EFF602FD200F52C1233DC05CE
:103185002B80E3E4F52BE52BC39527501AD200AB32
:1031950028AA29A92A852B8275830012221EF52CBF
:0731A5001233DC052B80DF73
:0131AC002200
:103309007F1E7E0012333F1233D77F057E001233B2
:103319003F1233D71233D7C200752C0F1233DCC2D8
:1033290000752C011233DC7F027E0012333FC2008C
:06333900752C060233DCD6
:0F346500C200752C011233DC7F027E0002333F60
:1031AD00252D323073004D6F756E74696E67204436
:1031BD007269766500696E697420646F6E650025AD
:1031CD002D313073004552524F523121200025329E
:1031DD002E32625800636F6E6669672065727220C9
:0F31ED0000746573745F6932632065727220002D
:102AF300D2B3C2A412341A1233097F807E1A7D0620
:102B03007C00122F8A1228178F227550FF755131BE
:102B13007552B37BFF7A3179AD121BBD7F0A123335
:102B2300687F0D1233687E007F00120FD38F2278E7
:102B330088122428752B00752C001226798E258F78
:102B430026123465C200752C801233DC7BFF7A3188
:102B530079C27F0912315DC2A57523017524AC7B4F
:102B6300007A007923122FF18F22E522602AC2A76F
:102B73007550FF7551317552D27BFF7A3179CC1282
:102B83001BBD7BFF7A3179DB852250121BBD7F0A87
:102B93001233687F0D123368121EB78F22E522604D
:102BA3002AC2A77550FF7551317552E27BFF7A3106
:102BB30079CC121BBD7BFF7A3179DB852250121B46
:102BC300BD7F0A1233687F0D123368C2A6E5226007
:102BD3002AC2A77550FF7551317552EE7BFF7A31CA
:102BE30079CC121BBD7BFF7A3179DB852250121B16
:0D2BF300BD7F0A1233687F0D12336880FE2B
:10324B002570200025322E326258200041646472B2
:10325B002E2020203020203120203220203320200F
:10326B0034202035202036202037202038202039CC
:10327B002020412020422020432020442020452094
:05328B0020460A0D00C1
:102E33008B488A49894A8B508A5189527BFF7A325F
:102E4300794B121BBDE4F54BAB48AA49A94A854B04
:102E53008275830012221EF54C7BFF7A32794FF57F
:102E630050121BBD054BE54BC3941040DBE4F54BFF
:102E7300AB48AA49A94A854B8275830012221EF5E5
:102E83004CC394204007E54CD3947F4003754C2EEC
:102E9300AF4C123368054BE54BC3941040D27F0D02
:082EA3001233687F0A02336854
:0A3052008C438D448B408A41894273
:10305C008B458A468947AF0153070F7E00C3E49F17
:10306C00FFE49EFEEF2547F547EE3546F5467BFF20
:10307C007A327957121BBDAB45AA46A947122E339B
:10308C0074102547F547E43546F546E5422544F9E5
:10309C00E5413543FA8A838982C3E5479582E54643
:0430AC00958340D3F5
:0130B00022FD
:0834800025322E3262582000B3
:10281700758E0CD294E4F52D7B007A0079277FFF23
:102827001233F9052DE52DC3940A40EC7B007A009D
:1028370079271232D18F2CE4F52D7427252DF8E650
:10284700F52E7BFF7A347980F550121BBD052DE5F7
:102857002DC3940540E47F0A1233687F0D12336855
:102867007F647E0012333FE52C700AFB7A007927DC
:102877001232908F2CE4F52D7427252DF8E6F52ECE
:102887007BFF7A347980F550121BBD052DE52DC3EA
:10289700940540E47F0A1233687F0D1233687F6422
:1028A7007E0012333FE52C7015FB7A00792712332F
:1028B7008F8F2CE52764016005752C05C2A5E4F50B
:1028C7002D7427252DF8E6F52E7BFF7A347980F5D0
:1028D70050121BBD052DE52DC3940540E47F0A1258
:1028E70033687F0D1233687F647E0012333FE52C17
:1028F700700AFB7A007927122DB68F2CE4F52D7418
:1029070027252DF8E6F52E7BFF7A347980F55012CE
:102917001BBD052DE52DC3940540E47F0A123368DE
:102927007F0D1233687F647E0012333FE52C701DE4
:10293700FB7A00792712338F8F2CE52854C0700D4E
:10294700E52830E705752C078003752C05E4F52D80
:102957007427252DF8E6F52E7BFF7A347980F5501C
:10296700121BBD052DE52DC3940540E47F0A1233E4
:10297700687F0D1233687F647E0012333FE52C6059
:0729870002C2A7D294AF2C9D
:01298E002226
:0632D1008B2F8A308931C9
:1032D700C294E4F552F551F550F54FFF122C9EEFCD
:1032E700700BAB2FAA30A9317F01122C08EF700F9A
:1032F700AB2FAA30A931122205640160027F05D2E3
:013307009431
:0133080022A2
:063290008B2F8A3089310A
:10329600C294E47552AA755101F550F54F7F081294
:1032A6002C9EEF700BAB2FAA30A9317F05122C088C
:1032B600AB2FAA30A931122205FEB405047F09807E
:0A32C60007EE640160027F06D29457
:0132D00022DB
:06338F008B2F8A3089310A
:10339500C294E4F552F551F550F54F7F3A122C9E43
:0E33A500EF700BAB2FAA30A9317F05122C0858
:0133B30022F7
:062DB6008B2F8A308931E9
:102DBC00E4F536F535F534753340C294F532053209
:102DCC00E4F552F551F550F54F7F37122C9EEF700C
:102DDC0003122C00AB2FAA30A931122205FE60067B
:102DEC00640160027F02EF70118536528535518582
:102DFC00345085334F7F29122C9EEF7003122C0018
:102E0C00AB2FAA30A931122205FE600664016002C4
:102E1C007F020532EE6007E5326003EF60A0E53219
:062E2C0070027F01D29448
:012E3200227D
:022C9E008F4E57
:102CA000E54EC394404003022D2DE54E4440F554BB
:102CB0007B007A007955FF1233F98F53755618E56A
:102CC0005370047F0180027F00E556C394195004BD
:102CD0007E0180027E00EE5F6024AF52AE51AD50A7
:102CE000AC4FA956A8011224028F547B007A0079B8
:102CF000551233F98F5374F82556F55680C1E54EB9
:102D00007005755495800DE54EB40805755487809F
:102D100003755401E553700CFB7A007955AF5412DA
:102D200033F98F53E55360087553028003755303DD
:022D3000AF539F
:012D3200227E
:082C0000AB2FAA30A9317F01BE
:082C08008F378B388A39893AB5
:102C1000E4F53BF53C7B007A00793D7FFF1233F908
:102C20008F3C053BE53B6009E53C7005E53DF46004
:102C3000E4AB38AA39A93AE53D12224BE53B7005D1
:102C4000753C018046E53C6002800AE53D64016018
:102C500009E53D6005753C028031E537D3940140BC
:102C60002A753E01E53EC3953750207B007A0079F6
:102C70003D7FFF1233F9AB38AA39A93A853E8275F8
:102C80008300E53D12225D053E80D9E53C700CFBDA
:0D2C90007A00793D7FFF1233F98F3CAF3C95
:012C9D002214
:0831FC007F01FB7A007949FE16
:0A3204008E4E8F4F8B508A51895275
:10320E00E4F553F554F556F557C3E557954FE55686
:10321E00954E50267B007A0079557FFF1233F9AB1D
:10322E0050AA51A952855782855683E55512225DC3
:0C323E000557E55770D3055680CFAF54FC
:01324A002261
:0E2EAB008F448E438D428C418B458A46894769
:102EB900C294E4F5488F528E518D508C4F7F111278
:102EC9002C9E0548EF70031231FCE5496004E54882
:102ED90070F0E54870027F01E4F5480548EF70039A
:102EE9001231FCE54964FE6007E5486003EF60EBD9
:102EF900E54870027F01E54954F070027F08EF70E0
:102F09000CAB45AA46A947FF7E02123204EF7005B1
:072F19007F031231FED29488
:012F2000228E
:102F8A00E4F527AB07AA06A905A804FF7EA07D8C55
:102F9A00FC12235FEFD39402500575C3708045EF8E
:102FAA00D39404500575C371803AEFD39408500541
:102FBA0075C372802FEFD39410500575C3738024A4
:102FCA00EFD39420500575C3F08019EFD394405085
:102FDA000575C3F1800EEFD39480500575C3F28056
:062FEA0003752704AF2768
:012FF00022BE
:1033F900E4FE8FC5AFC40EEF20E703EE70F6EE6072
:103409000BE5C512224BEF5470FE80027E01AF0618
:013419002290
:10341A00759AE285878753877F759850E4F59B757F
:0C342A009AE2759B1ED299C2ACFEFF22F4
:10298F00252D333573004D42525F52656C5365638D
:10299F00202000256C7500252D32307300425042E7
:1029AF005F427974657350657253656300257500D6
:1029BF004250425F536563506572436C75730025D7
:1029CF006275004250425F52737664536563436E83
:1029DF0074004250425F4E756D4641547300425031
:1029EF00425F526F6F74456E74436E740042504273
:1029FF005F546F745365633136004250425F4641F6
:102A0F0054537A3136004250425F48696464656EB0
:102A1F00536563004250425F546F745365633332A2
:102A2F00004250425F464154537A33320042504283
:102A3F005F526F6F745F436C7500526F6F744469B0
:102A4F0072536563004641542073697A65333200CF
:102A5F006572726F722077726F6E67206661747421
:102A6F007970652000546F745365633332006E754F
:102A7F006D6F66464154536563746F7273004461A2
:102A8F00746153656300636F756E746F66436C7525
:102A9F007374657273004669727374446174615321
:102AAF006563004669727374526F6F744469725331
:102ABF006563004641542073697A652031320046C0
:102ACF0041542073697A6520313600464154207392
:102ADF00697A65203332002535642E20005B444926
:042AEF00525D0A002A
:082D3300AA27A9287B017E00FC
:102D3B008E408F418B428A438944C3E540940250B5
:012D4B006324
:102D4C00E4F548F547F546F545F54AAB42E544252B
:102D5C0041F9E5433540FAC37403954AFFE4940006
:102D6C00FEE92FF9EA3EFA122205F549AF48AE47C3
:102D7C00AD46AC4578081224158F488E478D468C8D
:102D8C0045E5484549F548E547F547E546F546E547
:102D9C0045F545054AE54AB404B1AF48AE47AD46E2
:032DAC00AC452211
:072DAF00E47F0CFEFDFC2295
:0830B100AA27A9287B017E007B
:0A30B9008E408F418B428A43894408
:1030C300E4F545F546C3E54094025036E4FDAB42D2
:1030D300E5442541F9E5433540FAEDFFC374019F0B
:1030E300FFE49400FEE92FF9EA3EFA122205FCE51B
:1030F30046754600F545EC42460DBD02D1AE45AFDF
:0631030046227E007F0C55
:0131090022A3
:1033B4007E00E536253AFFEE3535FEAB3EAA3FA941
:0133C40040C8
:1033C500C3EE940250098F828E8312221EFF227F44
:0133D5000CEB
:0133D60022D4
:040FD3008E278F28AE
:100FD700E4F529AA06A9077B01FFFEFDFC122EAB4B
:100FE700AA27A9287B017D007C02123052AA27A9D3
:100FF700287B01E4FFFE1233C5EF64EB605DAA278F
:10100700A928E4FF1233C5EF64E9604FAA27A9288E
:101017007FC60E122D3B7861122441786112242875
:101027008F2F8E2E8D2D8C2C7550FF755129755253
:10103700957BFF7A29798F121BBD7BFF7A2979A2CD
:10104700852F53852E52852D51852C50121BBD7F20
:101057000A1233687F0D123368800375290AE52960
:1010670060030216F5AF2FAE2EAD2DAC2CAA27A923
:10107700287B01122EABAA27A9287B017D007C02C1
:101087001230527550FF7551297552AC7BFF7A2982
:1010970079A6121BBD7F0B1230B17865A60608A68C
:1010A700077BFF7A2979BC18E6F55008E6F5511257
:1010B7001BBD7F0A1233687F0D1233687550FF75A9
:1010C70051297552BF7BFF7A2979A6121BBDAA2722
:1010D700A9287B017F0D7E001233C57867A6077BA1
:1010E700FF7A2979CEE6F550121BBD7F0A123368C5
:1010F7007F0D1233687550FF7551297552D27BFFEA
:101107007A2979A6121BBD7F0E1230B17868A60620
:1011170008A6077BFF7A2979BC18E6F55008E6F59B
:1011270051121BBD7F0A1233687F0D123368755049
:10113700FF7551297552E17BFF7A2979A6121BBDEC
:10114700AA27A9287B017F107E001233C57875A6D0
:10115700077BFF7A2979CEE6F550121BBD7F0A126D
:1011670033687F0D1233687550FF7551297552ED3D
:101177007BFF7A2979A6121BBDAA27A9287B017FA5
:10118700117E001230B97873A60608A6077BFF7A8E
:101197002979BC18E6F55008E6F551121BBD7F0A00
:1011A7001233687F0D1233687550FF7551297552D8
:1011B700FC7BFF7A2979A6121BBDAA27A9287B01E8
:1011C7007F137E001230B97890A60608A6077BFF2A
:1011D7007A2979BC18E6F55008E6F551121BBD7F50
:1011E7000A1233687F0D1233687550FF75512A75DF
:1011F70052097BFF7A2979A6121BBDAA27A9287B4A
:10120700017F167E001230B9787EA60608A6077BF6
:10121700FF7A2979BC18E6F55008E6F551121BBD8F
:101227007F0A1233687F0D1233687550FF75512A94
:101237007552157BFF7A2979A6121BBD7F1C122DCB
:1012470033786B1224417BFF7A2979A2786B1224B9
:10125700288F538E528D518C50121BBD7F0A12332B
:10126700687F0D1233687550FF75512A7552237BBD
:10127700FF7A2979A6121BBD7F20122D33788C1295
:1012870024417BFF7A2979A2788C1224288F538EE8
:10129700528D518C50121BBD7F0A1233687F0D127D
:1012A70033687550FF75512A7552307BFF7A29795B
:1012B700A6121BBDAA27A9287B017F247E00122D19
:1012C7003B787A1224417BFF7A2979A2787A122413
:1012D700288F538E528D518C50121BBD7F0A1233AB
:1012E700687F0D1233687550FF75512A75523C7B24
:1012F700FF7A2979A6121BBDAA27A9287B017F2C73
:101307007E00122D3B78801224417BFF7A2979A237
:1013170078801224288F538E528D518C50121BBD0A
:101327007F0A1233687F0D1233687550FF75512A93
:101337007552497BFF7A2979A6121BBD7873E6FEA1
:1013470008E67805C333CE33CED8F9FF7865E6FCD7
:1013570008E6FD24FFFBEC34FFCB2FFFEB3EFE122C
:10136700227FE4FCFD78841224417BFF7A2979A24D
:1013770078841224288F538E528D518C50121BBDA6
:101387007F0A1233687F0D123368787FE61846703C
:1013970033787A1224288F338E328D318C30755002
:1013A700FF75512A7552547BFF7A2979A6121BBD06
:1013B7007BFF7A2979A2853353853252853151854E
:1013C70030508022787EE6FE08E6FFE48F338E32C7
:1013D700F531F53075290B7550FF75512A75525F38
:1013E7007BFF7A2979A2121BBD7F0A1233687F0D12
:1013F7001233687891E618467040788C1224288F4B
:10140700378E368D358C347550FF75512A75527469
:101417007BFF7A2979A6121BBD7BFF7A2979A285E2
:101427003753853652853551853450121BBD7F0A97
:101437001233687F0D12336880137890E6FE08E652
:10144700FFE48F378E36F535F53475290B7875E659
:10145700FFE4FCFDFEAB33AA32A931A8301222D437
:101467008E2A8F2B7550FF75512A75527D7BFF7A17
:101477002979A6121BBD7BFF7A2979A2852A508577
:101487002B51121BBD7F0A1233687F0D1233687808
:1014970075E6FFE4FCFDFEAB33AA32A931A8301292
:1014A70022D4C004A905AA06AB077868E6FE08E6B9
:1014B700FFE4FCFDD000EB2FFFEA3EFEED39FDEC2B
:1014C70038FC7884122434EF2BFBEE3AFAED39F925
:1014D700EC38F8C3E5379BF53FE5369AF53EE53539
:1014E70099F53DE53498F53C7550FF75512A7552CD
:1014F7008D7BFF7A2979A6121BBD7BFF7A2979A2FA
:10150700853F53853E52853D51853C50121BBD7F1B
:101517000A1233687F0D1233687867E6FBE4FAF93D
:10152700F8AF3FAE3EAD3DAC3C12235F8F3B8E3AEA
:101537008D398C387550FF75512A7552957BFF7A16
:101547002979A6121BBD7BFF7A2979A2853B538592
:101557003A52853951853850121BBD7F0A123368BC
:101567007F0D1233687875E6FFE4FCFDFEAB33AA06
:1015770032A931A8301222D4C004A905AA06AB07A4
:101587007868E6FE08E6FFE4FCFDD000EB2FFFEAF3
:101597003EFEED39FDEC38FC7884122434EF2BFF46
:1015A700EE3AFEED39FDEC38FC7861122434EF2B6E
:1015B700FFEE3AFEED39FDEC38FC786F12244175E9
:1015C70050FF75512A7552A57BFF7A2979A6121B00
:1015D700BD7BFF7A2979A2786F1224288F538E5208
:1015E7008D518C50121BBD7F0A1233687F0D123349
:1015F700687880122428EF24FEFFEE34FFFEED34D6
:10160700FFFDEC34FFFCC004A905AA06AB07786709
:10161700E6FFE4FCFDFED0001222D4786F122434DA
:10162700EF2BFFEE3AFEED39FDEC38FC78881224FB
:10163700417550FF75512A7552B27BFF7A2979A6F9
:10164700121BBD7BFF7A2979A278881224288F5331
:101657008E528D518C50121BBD7F0A1233687F0D3D
:10166700123368E47FF57E0FFDFCAB3BAA3AA9393C
:10167700A838C31223F1501D786A760C75290B76AA
:101687000275290B7550FF75512A7552C27BFF7A77
:101697002979A6804CE47FF57EFFFDFCAB3BAA3A97
:1016A700A939A838C31223F1786A5024760275291C
:1016B7000B7550FF75512A7552CE7BFF7A2979A693
:1016C700121BBD7BFF7A2979A2786AE6F550801153
:1016D70076047550FF75512A7552DA7BFF7A29799E
:1016E700A6121BBD7F0A1233687F0D123368AF291C
:0116F70022D0
:082679008F2A8E298D288C2781
:10268100753E01852B3F852C40E4F537F538F5354E
:10269100F536786F122428AB2AAA29A928A827C3BE
:1026A1001223F1500F78841224288F348E338D3207
:1026B1008C31800D7867E6FFE48F34F533F532F520
:1026C10031852A3085292F85282E85272DAF30AEDB
:1026D1002FAD2EAC2DAB3EAA3FA940122EAB8F3DA4
:1026E100E53D600302280DAB3EAA3FA940AF36AEDF
:1026F100351233C58F39E53964E5700302278BE55F
:1027010039700302278BE536240BFFE41233BC8FAB
:102711003BD2A5E53B540E70710538E538700205D2
:10272100377BFF7A2A79E6853750F551121BBDE4D4
:10273100F53A1233B48F3C123368053AE53AC39443
:102741000840EFE53B30E41F753A081233B48F3C83
:10275100123368053AE53AC3940B40EF7BFF7A2ABE
:1027610079EC121BBD80237F2E123368753A081253
:1027710033B48F3C123368053AE53AC3940B40EF0A
:102781007F0D1233687F0A12336874202536F536BF
:10279100E43535F535D3E53694FEE53594014063EE
:1027A100E5302401F530E4352FF52FE4352EF52EF3
:1027B100E4352DF52DC3E530952AFFE52F9529FE4A
:1027C100E52E9528FDE52D9527FCAB34AA33A932DA
:1027D100A831D31223F14025AF30AE2FAD2EAC2D51
:1027E100AB3EAA3FA940122EAB8F3DE53D6007E409
:1027F100F537F538F539E4F535F536800643378098
:10280100E4F539E53960030226E88005E4F537F59A
:0528110038AE37AF38BE
:01281600229F
:10310A00252D313073004E41434B20322E3320009F
:10311A004E41434B20322E342000424220312000BF
:10312A004E41434B20312E352000424220322000AE
:10313A0025322E326258004E41434B203220004243
:10314A0042203320004E41434B203320004242208C
:03315A003420001E
:0A2483008F328D338B348A35893691
:10248D00E4F53B309203209303753B0F123452E574
:10249D003225E054FEF53AD293C292753707E537EF
:1024AD00C394085057E53B70537F0412343CC293DC
:1024BD0074017E00A837088005C333CE33CED8F91A
:1024CD00FFE4FEEF553AA837088006CEA2E713CEFB
:1024DD0013D8F8FF139292EF5401F53C7F04123498
:1024ED003CD293753901209308E539600405398094
:1024FD00F5E5397003753B0E153780A2E53B700A83
:10250D00A29233653C6003753B0FE53B701F7F0462
:10251D0012343C123436D293753901209308E539C3
:10252D006004053980F5E5397003753B0EE53B70A8
:10253D002230921F753B107550FF75513175521039
:10254D007BFF7A31790A121BBD7F0A1233687F0D2A
:10255D00123368E4F538E538D39533400302263E4F
:10256D00E53B600302263E753707E537C3940850F7
:10257D00727F0412343CC293AB34AA35A936853828
:10258D008275830012221EFD74017E00A83708801B
:10259D0005C333CE33CED8F9FFEDFBE4FEEF5BA8D8
:1025AD0037088006CEA2E713CE13D8F8FF13929208
:1025BD00EF5401F53C7F0412343CD2937539012060
:1025CD009308E5396004053980F5E5397003753BED
:1025DD000EE53B700AA29233653C6003753B0F1507
:1025ED00378087E53B701F7F0412343C123436D29E
:1025FD0093753901209308E5396004053980F5E5B7
:10260D00397003753B0EE53B702230921F753B1000
:10261D007550FF75513175521A7BFF7A31790A1257
:10262D001BBD7F0A1233687F0D12336805380225F2
:10263D00637F0412343CC293C292E4F53C7F0712CF
:10264D00343CD293753901209308E539600405397E
:10265D0080F5E5397003753B0EE53B700AA29233A8
:0B266D00653C6003753B0FD292AF3B51
:01267800223F
:0A16F8008F328D338B348A3589362A
:10170200E4F53B309203209303753B0F123452E50C
:101712003225E054FEF53AD293C292753707E53787
:10172200C3940840030217AFE53B60030217AF7F83
:101732000412343CC29374017E00A837088005C3AA
:1017420033CE33CED8F9FFE4FEEF553AA8370880FE
:1017520006CEA2E713CE13D8F8FF139292EF5401EC
:10176200F53C7F0412343CD293753901209308E58D
:10177200396004053980F5E5397003753B0EE53BA8
:101782007026A29233653C601F753B0F7550FF7542
:1017920051317552247BFF7A31790A121BBD7F0ABF
:1017A2001233687F0D1233681537021720E53B703C
:1017B2001F7F0412343C123436D2937539012093C0
:1017C20008E5396004053980F5E5397003753B0E8B
:1017D200E53B702230921F753B107550FF755131F9
:1017E20075522A7BFF7A31790A121BBD7F0A1233A6
:1017F200687F0D123368E4F538E53B600302190592
:10180200753707E537C3940840030218B07F041206
:10181200343CC293AB34AA35A9368538827583002D
:1018220012221EFD74017E00A837088005C333CE44
:1018320033CED8F9FFEDFBE4FEEF5BA83708800654
:10184200CEA2E713CE13D8F8FF139292EF5401F50C
:101852003C7F0412343CD293753901209308E53958
:101862006004053980F5E5397003753B0EE53B7080
:1018720038A29233F539A292E433653C602B753B72
:101882000F7550FF7551317552347BFF7A31790AE9
:10189200121BBD7BFF7A31793A853750121BBD7F0F
:1018A2000A1233687F0D1233681537021805E53BBB
:1018B200701F7F0412343C123436D29375390120E2
:1018C2009308E5396004053980F5E5397003753B05
:1018D2000EE53B702230921F753B107550FF75511B
:1018E200317552417BFF7A31790A121BBD7F0A1290
:1018F20033687F0D1233680538E538D394005003FE
:101902000217FB7F0412343CC293C292E4F53C7F7F
:101912000712343CD293753901209308E5396004EB
:10192200053980F5E5397003753B0EE53B7026A25B
:101932009233653C601F753B0F7550FF75513175D1
:1019420052497BFF7A31790A121BBD7F0A12336832
:101952007F0D123368D292309203209303753B0FAE
:10196200123452E53225E04401F53AD293C292751F
:101972003707E537C394084003021A03E53B6003C7
:10198200021A037F0412343CC29374017E00A8370A
:10199200088005C333CE33CED8F9FFE4FEEF553AC3
:1019A200A837088006CEA2E713CE13D8F8FF139209
:1019B20092EF5401F53C7F0412343CD29375390105
:1019C200209308E5396004053980F5E5397003751F
:1019D2003B0EE53B7026A29233653C601F753B0FC0
:1019E2007550FF7551317552247BFF7A31790A1295
:1019F2001BBD7F0A1233687F0D1233681537021937
:101A020074E53B701F7F0412343C123436D2937556
:101A12003901209308E5396004053980F5E539700C
:101A220003753B0EE53B702230921F753B107550DB
:101A3200FF75513175524F7BFF7A31790A121BBD06
:101A42007F0A1233687F0D123368E4F538E538C334
:101A520095334003021B04E53B6003021B04AB34D5
:101A6200E5362538F9E43535FA122205E412224B1F
:101A7200753707E537C3940850507F0412343CC2CF
:101A8200937F0412343CD293753901209308E539CF
:101A92006004053980F5E5397003753B0EE53B704E
:101AA20025A29233F53CAB34E5362538F9E43535D9
:101AB200FA122205FFAE37E53CA806088002C333BE
:101AC200D8FC4F12224B153780A9E53B702F7F04BB
:101AD20012343CC293E53314B53804D2928002C268
:101AE200927F0412343CD293753901209308E53970
:101AF2006004053980F5E5397003753B0E0538023F
:101B02001A4F7F0412343CC293C292E4F53C7F0721
:101B120012343CD293753901209308E539600405EB
:101B22003980F5E5397003753B0EE53B7026A292CC
:101B320033653C601F753B0F7550FF75513175520F
:101B4200577BFF7A31790A121BBD7F0A1233687FF5
:081B52000D123368D292AF3B83
:011B5A002268
:06343600C293D2927F0454
:10343C00308E03308FFDC28EBF040A758DFF758BE5
:06344C00EFC28FD28E22B8
:1034520053890F438910C2AB758DFF758BEFC28FF5
:03346200D28E22E5
:102F2100252D31307300636F206572726F7231200D
:102F31000025342E346C5800636F206572726F72F5
:102F4100200073656E6431200025322E32625800F4
:102F510067657431200073656E64322000676574A3
:102F6100322000746573745F6572726F7220005253
:102F7100656365697665642056616C7565203D20E1
:092F810025322E3262580A0D00BF
:101EB700D2B27527FF752800752903E4F531F5308F
:101EC700F52FF52EAB27AA28A929853182853083DE
:101ED70012221EF52AE5312401F531E43530F530BB
:101EE700E4352FF52FE4352EF52E853182853083A5
:101EF70012221EF52BE5312401F531E43530F5309A
:101F0700E4352FF52FE4352EF52EE52AF460117B05
:101F1700007A00792A7D017F431224838F2DC2A77F
:101F2700E52AF46004E52D609BE52D60127550FFEE
:101F370075512F7552277BFF7A2F7921121BBD7B95
:101F4700FF7A2F7932853153853052852F51852E6F
:101F570050121BBD7F0A1233687F0D123368752735
:101F6700FF75280F7529A1E4F531F530F52FF52E0A
:101F7700AB27AA28A92985318285308312221EF52D
:101F87002AE5312401F531E43530F530E4352FF514
:101F97002FE4352EF52E85318285308312221EF5EA
:101FA7002BE5312401F531E43530F530E4352FF5F3
:101FB7002FE4352EF52EE52AF460117B007A00799F
:101FC7002A7D017F431224838F2DC2A7E52AF4605F
:101FD70004E52D609BE52D60127550FF75512F7537
:101FE70052397BFF7A2F7921121BBD7BFF7A2F791C
:101FF70032853153853052852F51852E50121BBDA6
:102007007F0A1233687F0D123368C2B2D2B2752AC3
:1020170054752B07852A2C7B007A00792A7D017F4E
:10202700431224837B007A00792C7D017F431216AB
:10203700F88F2D7550FF75512F7552437BFF7A2FFF
:102047007921121BBD7BFF7A2F794A852B50121BF2
:10205700BD7550FF75512F7552517BFF7A2F79212E
:10206700121BBD7BFF7A2F794A852C50121BBD7F2F
:102077000A1233687F0D123368752A55752B108540
:102087002A2C7B007A00792A7D017F431224837BE7
:10209700007A00792C7D017F431216F87550FF7581
:1020A700512F7552577BFF7A2F7921121BBD7BFF6A
:1020B7007A2F794A852B50121BBD7550FF75512F0A
:1020C70075525E7BFF7A2F7921121BBD7BFF7A2F1A
:1020D700794A852C50121BBD7F0A1233687F0D1277
:1020E7003368752A06752B097B007A00792A7D01EA
:1020F7007F43122483752A0B752B027B007A0079A4
:102107002A7D017F43122483752A61752B057B0085
:102117007A00792A7D017F43122483752A50752B13
:10212700067B007A00792A7D017F43122483752A72
:1021370065E4F52BFB7A00792A7D017F431224831E
:10214700752A52752BB87B007A00792A7D017F4367
:10215700122483752A64E4F52BFB7A00792A7D0122
:102167007F43122483752A51E4F52BFB7A00792AE1
:102177007D017F43122483752A05752BA17B007A85
:1021870000792A7D017F43122483752A03E4F52B06
:10219700FB7A00792A7D017F43122483752A1875FB
:1021A7002B047B007A00792A7D017F4312248375F3
:1021B7002A0C752B057B007A00792A7D017F431253
:1021C7002483752A46752B087B007A00792A7D01BE
:1021D7007F43122483752A48752B087B007A007980
:1021E7002A7D017F43122483752A72752B017B0098
:0D21F7007A00792A7D017F43122483AF2DE9
:0122040022B7
:062FF1008B278A288929C4
:102FF700E4F52BF52AC2B3F52AAB27AA28A9297D20
:10300700017F431216F88F2B152AE52B6004E52A5A
:1030170070E7E52B601C7550FF75512F7552647B67
:10302700FF7A2F7921121BBD7F0A1233687F0D1299
:103037003368AB27AA28A929122205F5507BFF7A06
:0A3047002F7970121BBDD2B3AF2B1E
:01305100225C
:100003003A012A04280029002000210022002300AD
:10001300240025002600270028012802218F280319
:100023002100280428052806280728082809280A63
:10003300280B280C20802190280D20002100280E59
:1000430020812191280F20002192281021002811BE
:1000530021932812210028132814281520822816FA
:1000630020002817281828192194281A2195281BBD
:100073002196281C2100281D2083281E2000281FCC
:1000830021972820210028212822282328242825D5
:100093002826282728282829282A2084282B2000B6
:1000A300282C282D282E282F283028312832208547
:1000B3002833200028342835283628372198283833
:1000C30021002839283A283B283C283D283E283F50
:1000D30028402841284228432844284528462847C1
:1000E30028482849284A284B284C284D284E284F71
:1000F3002850285128522853285428552856285721
:1001030028582859285A285B285C285D285E285FD0
:1001130028602861286221992863210028642865C2
:100123002866286728682869286A286B286C286D40
:10013300286E286F287028712872287328742875F0
:100143002876287728782879287A287B287C287DA0
:10015300287E287F28802881288228832884288550
:100163002886288728882889288A288B288C288D00
:10017300288E288F289028912086289220872893DC
:100183002000289428952896289728982899289A13
:10019300289B289C289D289E289F219A28A02100DF
:1001A30028A128A228A328A428A528A628A728A8E8
:1001B30028A928AA28AB28AC28AD28AE28AF28B098
:1001C30028B128B228B328B428B528B628B728B848
:1001D30028B9208828BA200028BB208928BC200001
:1001E30028BD28BE28BF28C028C128C228C3219BF8
:1001F30028C4210028C528C628C728C828C928CA52
:1002030028CB28CC28CD28CE28CF28D028D128D237
:1002130028D328D428D528D628D728D828D928DAE7
:1002230028DB28DC28DD28DE28DF28E028E1208AF7
:1002330028E2208B28E3200028E428E528E628E7A5
:1002430028E828E928EA28EB28EC28ED28EE28EF0F
:1002530028F028F128F228F328F428F528F628F7BF
:1002630028F8208C28F92000219C28FA219D28FBBE
:10027300208D219E28FC208E219F28FD2000210017
:1002830028FE28FF2A012800220123952489250717
:1002930026A42707280121C72200238026C4270C70
:1002A30028022009211C220426AA270A2803200049
:1002B3002100220023A626A02707280428052005BD
:1002C300238426B42709280620002203230024813F
:1002D30025C026AB270A280721AE220023952489AF
:1002E300250726A42700280821482201238026C4A5
:1002F300270C280920092104220426AA270A280AF0
:1003030020002100220023A826A42707280B280C5D
:1003130021402220238026C4270C280D222426C610
:10032300280E219E220026C8280F2009210222140C
:1003330026AA270A2810200521002200238426B498
:1003430027092811200021012300240125C026AB01
:10035300270A281221C3239524892507262027004D
:100363002813200321C223832626270D281421B313
:0D03730022082815200021C622002395260F
:100380000027082816210023002496250326AA27E3
:100390000A2817204221B6238024892507281820FF
:1003A0000021002394260E2819200F238426B42729
:1003B00009281A2000239326A82703281B2628276C
:1003C00000281C21012300240125C026AB270A2870
:1003D0001D21C523952489250726202700281E21B5
:1003E0000023942600270A281F260E2820200321F8
:1003F00079220123832626270D2821213228222035
:1004000000210422002380240025FC26AA270A2894
:1004100023210023002500282421A3220D2380244A
:100420009E253B2825204221572201248925072883
:100430002620002143220D240025382827210822C8
:10044000982395248925072624270028282042213F
:10045000932201238026AA270A28292003217E220D
:100460000423832626270D282A200021B0220023DA
:100470009526A02707282B21002300240C250426DD
:10048000AA270A282C21022380248625C326AB28EC
:100490002D2042219722012489250726AA282E20D3
:1004A0000021002200241F2504282F21B223952497
:1004B0008925072620270428302042218B22042367
:1004C0008026AA270A2831200021B1220023952660
:1004D000A0270728322003217522042383262627FC
:1004E0000D2833200521002200238426B427092863
:1004F00034200021602300240125C026AB270A28D0
:1005000035210822982395248925072624270028A9
:100510003621BC2200283721A3220D2300240125E7
:10052000C026AB270A28382160220023802400251A
:100530003826AA28392106229823952489250726BA
:10054000242700283A21BE2200283B200521002331
:100550008426B42709283C2000216023002401259B
:10056000C026AB270A283D21422201239524892554
:100570000726242700283E210C229826A427072896
:100580003F21082840216022002300240125C026A5
:10059000AB270A2841210C22982395248925072678
:1005A0002427002842200521002200238426B42786
:1005B000092843200023802400251026AB270A2881
:1005C0004421222201239524892507262427002857
:1005D000452100220023002404251226AA270A28E8
:1005E00046200321D4220523832489250726262794
:1005F0000D28472000216022002300240125C02669
:10060000AB270A284821B3239524892507260027EC
:10061000082849210023002409250026AA270A28A2
:100620004A210223802486253B284B204221DD22BB
:100630000524892507284C200021002200241F259D
:1006400000284D21B323952489250726202700283B
:100650004E210023002497250326AA270A284F208D
:100660004221E222052380248925072850200021E9
:100670001022002300248025CC26AB285121002203
:100680004023B42489250726AA27042852220023C0
:10069000B0269227092853211422012395260027EA
:1006A000082854214823A4262A270028552100225F
:1006B0000023002409250026AA270A2856210823FA
:1006C000802486253B285720422111220724892592
:1006D000072858200021002200241F250028592126
:1006E00014220123952489250726202700285A2132
:0D06F0001626022709285B210022002300A6
:1006FD002480254826AA270A285C23A024892507BB
:10070D0026142709285D2480255026A42704285E59
:10071D00211622012395248925072700285F21040E
:10072D0022002300249C257826AA270A286021432D
:10073D00220D240125C426AB286121032200241596
:10074D00286221002400250026AA2863215E239516
:10075D002489250726102709286421032300241541
:10076D0025C426AB270A28652100238024002506F1
:10077D0026AA2866248F25E326AB2867204221CDA3
:10078D0022072489250726AA286820002160220037
:10079D002300240125C026AB286921002380248F46
:1007AD00250326AA286A204221DD22072489250750
:1007BD00286B20002143220D2300240125C026ABE8
:1007CD00286C210022002400250426AA286D200370
:1007DD00217F22012383248925072626270D286EB4
:1007ED002162286F200521002200238426B42709C9
:1007FD002870200021062395260027082871210145
:10080D0023002497253B26AA270A28722042210E71
:10081D00220823802489250728732003213C220BDD
:10082D0023832626270D28742000210322002395DB
:10083D0026022708287521272300248125C426ABED
:10084D00270A2876210023802409254826AA2877FF
:10085D002158223423A324892507262A2700287806
:10086D002100220023A026002709287921072380B3
:10087D002403253926AA270A287A21042300241CBB
:10088D002538287B2107238024832539287C2103C3
:10089D0023952489250726022708287D2127230053
:1008AD00248125C426AB270A287E21002380240914
:1008BD00254826AA287F2158223423A324892507D9
:1008CD00262A27002880210622002300248125C006
:1008DD00269327012881210023802489254826AAD3
:1008ED00270A28822002216622082300240025667B
:1008FD0028832000210022002380241F2502288424
:10090D0021062489250726DC270C2885210023AA0A
:10091D0026AA270A288623B626002708288723809B
:10092D002486253B26AA270A288821052489250700
:10093D0026DC270C2889210023AA26AA270A288A23
:10094D0023B626002708288B23802486253B26AA3C
:10095D00270A288C2042217B220824892507288DEF
:10096D00200021002200230024012582288E21054C
:10097D00248125C226AB288F2003219322082383AF
:10098D00248925072626270D2890200021052200E1
:10099D002300248125C026132701289121002380BF
:1009AD002489254826AA270A28922002217E22087A
:1009BD002300240025662893200021002200238097
:1009CD00241F2502289421052489250726DC270CC0
:1009DD002895210023AA26AA270A289623B62600A1
:1009ED002708289723802486253B26AA270A28989E
:1009FD0021052489250726DC270C2899210023AA07
:100A0D0026AA270A289A2380241F2502289B210124
:100A1D002300248125C226AB289C20032193220884
:100A2D002383248925072626270D289D20002104B0
:100A3D002200239526122708289E216023C426AA6A
:100A4D002704289F210023C02600270928A0204223
:100A5D0021CB2208238026AA270A28A12070215401
:0D0A6D0022B823952612270828A220022176
:100A7A00CC2208238026AA270A28A3200321CA22D7
:100A8A000F23832626270D28A420002100220023D5
:100A9A0000248C250C26AA270A28A52104248225AD
:100AAA007828A6210023802489254826122704288D
:100ABA00A7200321DE220F238325072626270D28B8
:100ACA00A82000210122002300249C257826AA2799
:100ADA000A28A9210023802481254028AA2003214D
:100AEA00CF220F2383248925072626270D28AB200A
:100AFA0070210822B8239526A0270428AC200321B8
:100B0A00D4220F23832626270D28AD2127220B283E
:100B1A00AE2070216322B823952612270828AF2019
:100B2A0000210122002380248625CB26AB270A2810
:100B3A00B0204221DD22082489250726AA28B120CF
:100B4A000021182280239526A4270028B2200321F9
:100B5A00D9220F23832626270D28B32070210A22A3
:100B6A00B8239526A0270028B4200221E0220823D2
:100B7A008026AA270A28B52070210A22B82395269A
:100B8A00A0270028B621542602270828B7200021CA
:100B9A0018228026A4270028B821002200238024B6
:100BAA0080254826AA270A28B92070215E22B82360
:100BBA0095248925072612270828BA200021002211
:100BCA000023802409254B26AA270A28BB20702146
:100BDA005F22B82395248925072610270828BC20D8
:100BEA0000210022002300241C258326AB270A2883
:100BFA00BD2003213222092383248925072626279B
:100C0A000D28BE20002100220023002482258C26E4
:100C1A00AB270A28BF2003212522092383248925FB
:100C2A00072626270D28C0204221BC238026AA2772
:100C3A000A28C12000210122002300240125C02600
:100C4A00AB28C22070210F22B823952489250726B4
:100C5A0020270028C3200321E3220F2383262627E7
:100C6A000D28C4200521002200238426B427092840
:100C7A00C52000210323952614270828C621A62368
:100C8A00A4262A270528C7210023A02644270928A5
:100C9A00C82118226D2380249E257B26AA270A288C
:100CAA00C920422113220B2489250728CA200021A2
:100CBA00AE220023952624270028CB2100220323D5
:100CCA00802487257B26AA270A28CC20422116229F
:100CDA000B2489250728CD200021AE220023952642
:100CEA0024270028CE20052100238426B42709289A
:100CFA00CF2003210D220B23832626270D28D0205F
:100D0A000021002200230024802602270028D12364
:100D1A008024092548261E28D22158223423332428
:100D2A00802507262A28D32100220023002680278F
:100D3A001028D421102363262A270028D52100232E
:100D4A006026A8271228D621AF224C230026C827BE
:100D5A000C28D7210022002680270528D8238024A2
:100D6A0086253B261E270028D92042211C220E2335
:100D7A00002480250728DA20002135222926C427C5
:100D8A000C28DB2002211D220E261E270028DC202B
:100D9A0000217F223426C4270C28DD2100220023CB
:100DAA0090249F25042610270A28DE230024842560
:100DBA00002680271028DF210623632480250726A2
:100DCA002A270028E021002380248926AA270A2826
:100DDA00E12005238426B4270928E2207021612214
:0D0DEA00B823952612270828E320002101D8
:100DF70022002380248625C326AB270A28E4204225
:100E070021CE220F2489250726AA28E52070215004
:100E170022B823952612270828E62005210022005C
:100E2700238426B4270928E72070216422B8239554
:100E37002612270828E82000210122002380248683
:100E470025C326AB270A28E9204221D3220F24896C
:100E5700250726AA28EA2070215122B823952612B1
:100E6700270828EB200521002200238426B4270920
:100E770028EC2070216522B823952612270828ED33
:100E87002000210122002380248625C326AB270AC0
:100E970028EE204221D8220F2489250726AA28EFE9
:100EA7002070215222B823952612270828F0200502
:100EB70021002200238426B4270928F1207021610C
:100EC70022B823952602270828F2200021012200B4
:100ED7002380248625C326AB270A28F3204221DD59
:100EE700220F2489250726AA28F42070215022B82A
:100EF70023952602270828F52005210022002384B0
:100F070026B4270928F6200021012380248625CB33
:100F170026AB270A28F7204221E1220F248925073B
:100F270026AA28F82000210222002300248125C4B4
:100F370026AB28F9210023802489254826AA28FAE8
:100F470020052384250726B4270928FB2070214E76
:100F570022B823952610270828FC2000210022000C
:100F67002380248625C326AB270A28FD204221E7B4
:100F7700220F2489250726AA28FE200021BB22004C
:100F870023952620270028FF20052100238426B447
:100F970027092A081001FFFFFFFF3A00643A65BBE3
:100FA700083A09BB50105267517705A1180454013C
:100FB70055210700060C0B03501051005204610F16
:0C0FC7006455655505A11804FFFFFFFFED
:0300000002347453
:0C347400787FE4F6D8FD758191022AF300
:10220500BB010689828A83E0225002E722BBFE02D7
:09221500E32289828A83E493220A
:10221E00BB010CE58229F582E5833AF583E0225075
:10222E0006E92582F8E622BBFE06E92582F8E222BF
:0D223E00E58229F582E5833AF583E49322D9
:10224B00BB010689828A83F0225002F722BBFE0172
:02225B00F3226C
:10225D00F8BB010DE58229F582E5833AF583E8F0B7
:10226D00225006E92582C8F622BBFE05E92582C863
:02227D00F2224B
:10227F00BC000BBE0029EF8DF084FFADF022E4CC43
:10228F00F875F008EF2FFFEE33FEEC33FCEE9DEC0C
:10229F00984005FCEE9DFE0FD5F0E9E4CEFD22ED52
:1022AF00F8F5F0EE8420D21CFEADF075F008EF2F9C
:1022BF00FFED33FD4007985006D5F0F222C398FD8D
:0522CF000FD5F0EA222A
:1022D400E88FF0A4CC8BF0A42CFCE98EF0A42CFCA9
:1022E4008AF0EDA42CFCEA8EF0A4CDA8F08BF0A427
:1022F4002DCC3825F0FDE98FF0A42CCD35F0FCEB86
:102304008EF0A4FEA9F0EB8FF0A4CFC5F02ECD394A
:0F231400FEE43CFCEAA42DCE35F0FDE43CFC22B7
:1023230075F008758200EF2FFFEE33FECD33CDCC71
:1023330033CCC58233C5829BED9AEC99E5829840F4
:102343000CF582EE9BFEED9AFDEC99FC0FD5F0D6D1
:10235300E4CEFBE4CDFAE4CCF9A88222B800C1B9FB
:102363000059BA002DEC8BF084CFCECDFCE5F0CB39
:10237300F97818EF2FFFEE33FEED33FDEC33FCEB72
:1023830033FB10D703994004EB99FB0FD8E5E4F92D
:10239300FA227818EF2FFFEE33FEED33FDEC33FC1A
:1023A300C933C910D7059BE99A4007EC9BFCE99A0E
:1023B300F90FD8E0E4C9FAE4CCFB2275F010EF2F53
:1023C300FFEE33FEED33FDCC33CCC833C810D70753
:1023D3009BEC9AE899400AED9BFDEC9AFCE899F88E
:0E23E3000FD5F0DAE4CDFBE4CCFAE4C8F92221
:1023F100EB9FF5F0EA9E42F0E99D42F0E89C45F042
:0124010022B8
:10240200E8600FECC313FCED13FDEE13FEEF13FFB8
:03241200D8F122DC
:10241500E8600FEFC333FFEE33FEED33FDEC33FC25
:03242500D8F122C9
:0C242800E6FC08E6FD08E6FE08E6FF22E0
:0D243400E6FB08E6F908E6FA08E6CBF82218
:0C244100ECF608EDF608EEF608EFF622C7
:10336800EFB40A07740D123373740A309811A899D0
:10337800B8130CC2983098FDA899C298B811F630C5
:0733880099FDC299F599229D
:101B5B00E55C2450F8E6055C22784D30070278509E
:101B6B00E475F00112244D0222052000EB7F2ED2EA
:101B7B00008018EF540F2490D43440D4FF30040B62
:101B8B00EF24BFB41A0050032461FFE55D6002151A
:101B9B005D0560E5607002055F30070D784DE475FB
:101BAB00F00112244DEF02224B0233687403D2076B
:101BBB008003E4C207F55C8B4D8A4E894FE4F55DDB
:101BCB00F55FF560E55D60077F20121B9680F5756C
:101BDB005EFFC201C200C202C203C205C206C20836
:101BEB00121B64FF700D3007057F00121BA7AF603F
:101BFB00AE5F22B4255FC2D5C204121B64FF24D092
:101C0B00B40A00501A75F00A785D30D50508B6FF96
:101C1B000106C6A426F620D5047002D20380D9246F
:101C2B00CFB41A00EF5004C2E5D204021DA7D201B3
:101C3B0080C6D20080C0D20280BCD2D580BAD20579
:101C4B0080B47F20121B962002077401B55D004003
:101C5B00F1121B5BFF121B96021BCFD208D2068020
:101C6B0095121B5BFB121B5BFA121B5BF94A4B7049
:101C7B000679787A1E7BFF20022EE55D602A7E00B6
:101C8B008E8275830012221E60060EEE655E70F06A
:101C9B00C2D5EBC0E0EAC0E0E9C0E0EE121DEED029
:101CAB00E0F9D0E0FAD0E0FB122205FF60AAEBC00E
:101CBB00E0EAC0E0E9C0E0121B96D0E02401F9D0C5
:101CCB00E03400FAD0E0FBE55E0460DCD55ED98041
:101CDB00877BFF7A1D79EAD202809C79108002798A
:101CEB0008C206C2088008D2D5790A8004790AC2D4
:101CFB00D5E55E047002F55EE4FAFDFEFF121B5B98
:101D0B00FC7B08200113121B5BFD7B1030000A12B9
:101D1B001B5BFE121B5BFF7B20EC3382D592D550F5
:101D2B0013C3E43000069FFFE49EFEE42001039DF5
:101D3B00FDE49CFCE4CBF8C201EC700CCFCECDCC17
:101D4B00E824F8F870F38017C3EF33FFEE33FEEDA2
:101D5B0033FDEC33FCEB33FB994002FB0FD8E9EB83
:101D6B00300105F8D0E0C448B201C0E00AEC4D4E9A
:101D7B004F78207B0070C2EAB55E0040BCC0E01219
:101D8B001DF0D0F0D0E0200104C4C0E0C4B201C00B
:101D9B00F0121B7FD0F0D5F0EB021BCF12245D1C91
:101DAB006C531CE6581C3D4C1C39421CEA4F1CF270
:0F1DBB00441CF2491C52431CF8551CDC461CDC2E
:101DCA00451CDC471E98501C412D1C452E1C682BB7
:101DDA001C49231C66201E812A1C014800001C6025
:101DEA003F3F3F00790AA2D5200314300509B910F4
:101DFA00020404B9080104A2D520060250010420F5
:101E0A0002689202B55D005034C0E07F20300319A9
:101E1A007F30A20272067205500F121E47C202C21A
:101E2A0006C205C2087F30800F300503E9C0E01200
:101E3A001B96300503D0E0F9D0E0B55DCC3005172C
:101E4A007F30B9100C121B967F583004077F7880B8
:101E5A0003B90803121B963002057F2D021B967FD9
:101E6A00202008F87F2B2006F322920280CF286ECA
:101E7A00756C6C2900D201121B5B3001F8C2017823
:101E8A005D30D50108F6021C012D50434958121B3A
:101E9A005B2403B405004001E4901E9393121B8750
:0D1EAA00743A121B87D203755D04021CE61A
:10244D00FAE6FB0808E6F925F0F618E6CA3AF62290
:10245D00D083D082F8E4937012740193700DA3A30E
:10246D0093F8740193F5828883E473740293686022
:06247D00EFA3A3A380DF22
:00000001FF
