:101C46005389F0438901C2A9E4FDFCC3ED9FEC9ED4
:101C56005016758CFA758A1FC28DD28C308DFDC2D6
:081C66008C0DBD00010C80E3B0
:011C6E002253
:051CBB00C200753E3877
:101CC000A20092B6D2B77F0A7E00121C46853E80E3
:0D1CD000C2B77F017E00121C467580FF2206
:081A19008F398B3A8A3B893CAE
:101A2100E539701FF53DAB3AAA3BA93C853D82756E
:101A310083001206D9FF602FD200F53E121CC005AB
:101A41003D80E3E4F53DE53DC39539501AD200AB45
:101A51003AAA3BA93C853D827583001206D9F53E21
:071A6100121CC0053D80DFEF
:011A6800225B
:101BB0007F1E7E00121C46121CBB7F057E00121C7D
:101BC00046121CBB121CBBC200753E0F121CC0C2C9
:101BD00000753E01121CC07F027E00121C46C2002E
:061BE000753E06021CC068
:0F1D3E00C200753E01121CC07F027E00021C46CF
:10130B00E4F53F7441253FF8E4F6053FE53FB40BA8
:10131B00F274FFF54FF54EF54DF54CE4F53F121D0C
:10132B002D8F40E540C394304012E540D3943950A3
:10133B000B7441253FF8A640053F804AE540640801
:10134B006005E540B47F0B153F7441253FF8E4F68B
:10135B00802AE540640D6005E540B40A1A7B007AEB
:10136B000079411211578F4F8E4E8D4D8C4C7F0D46
:10137B00121C6F7F0A800C7F08121C6F7F20121CBF
:10138B006F7F08121C6FE53FB40A1B7B007A007954
:10139B00411211578F4F8E4E8D4D8C4C7F0D121C61
:1013AB006F7F0A121C6F74FFFFFEFDFCAB4FAA4E42
:1013BB00A94DA84CC31208BE7003021329AF4FAE40
:0513CB004EAD4DAC4CDD
:0113D00022FA
:101B3E00252D3230730020204D6F756E74696E67DF
:101B4E00204472697665200025322E3262580025B7
:101B5E002D33357300456E746572206120426C6FB3
:0A1B6E00636B204E756D6265720016
:100F8500C2A6121CFE121BB07F807E1A7D067C0055
:100F95001218F0120D9F8F22755FFF75601B75612A
:100FA500447BFF7A1B793E1203C61200038F227819
:100FB500931208F5753500753600120BAA8E2F8F22
:100FC50030E52260157BFF7A1B7956F55F1203C663
:100FD5007F0A121C6F7F0D121C6FE52270E3755F8F
:100FE500FF75601B7561637BFF7A1B795D1203C614
:100FF50012130B8F268E258D248C23AE2FAF30E454
:10100500FCFDAB26AA25A924A823D31208BE50CEE1
:10101500AF26AE25AD24AC23753502753600753780
:101025000075380012095E8F2A8E298D288C277449
:10103500FFF52EF52DF52CE527440FF52BE5274477
:10104500104D4E4F70030210F2E52AFFE529FEE52B
:1010550028FDE52744104D4E4F601BE52744804D84
:101065004E4F7012FFFEFDFCAB26AA25A924A8232E
:10107500C31208BE70D3AF2EAE2DAD2CAC2B1219FA
:101085005F753500753600120BAA8E2F8F30755F90
:10109500FF75601B7561637BFF7A1B795D1203C663
:1010A50012130B8F268E258D248C23AE2FAF30E4A3
:1010B500FCFDAB26AA25A924A823D31208BE50CE31
:1010C500AF26AE25AD24AC237535027536007537D0
:1010D5000075380012095E8F2A8E298D288C277499
:1010E500FFF52EF52DF52CE527440FF52BE52AFF09
:1010F500E529FEE528FDE5274410FCE4FBFAF9F8AF
:10110500C31208BE7031FFFEFDFCAB26AA25A9243B
:10111500A823C31208BE601FAF2EAE2DAD2CAC2B7D
:1011250075350075360012149474FFF52EF52DF5FE
:101135002CE527440FF52BE52AFFE529FEE528FDDB
:10114500E52744804D4E4F7003020FDF75220D02D7
:021155000FDFAA
:101AB8002570200025322E3262582000416464725D
:101AC8002E202020302020312020322020332020BA
:101AD8003420203520203620203720203820203977
:101AE800202041202042202043202044202045203F
:051AF80020460A0D006C
:101799008B478A4889498B5F8A6089617BFF7A1AFE
:1017A90079B81203C6E4F54AAB47AA48A949854A5C
:1017B900827583001206D9F54B7BFF7A1A79BCF53D
:1017C9005F1203C6054AE54AC3941040DBE4F54AB3
:1017D900AB47AA48A949854A827583001206D9F5FB
:1017E9004BC394204007E54BD3947F4003754B2EA0
:1017F900AF4B121C6F054AE54AC3941040D27F0DC6
:08180900121C6F7F0A021C6F24
:0A19BA008C428D438B3F8A40894127
:1019C4008B448A458946AF0153070F7E00C3E49FC9
:1019D400FFE49EFEEF2546F546EE3545F5457BFFD3
:1019E4007A1A79C41203C6AB44AA45A946121799B8
:1019F40074102546F546E43545F545E5412543F99A
:101A0400E5403542FA8A838982C3E5469582E545F5
:041A1400958340D3A3
:011A180022AB
:081D720025322E3262582000D8
:100D9F00758E0CD294E4F5377B007A0079317FFFA2
:100DAF00121CDD0537E537C3940A40EC7B007A004F
:100DBF007931121B788F36121D3EC200753E80129C
:100DCF001CC07B007A0079317F05121A19E4F537C0
:100DDF0074312537F8E6F5387BFF7A1D7972F55FA8
:100DEF001203C60537E537C3940540E47F0A121C8A
:100DFF006F7F0D121C6F7F647E00121C46E53670EC
:100E0F000AFB7A007931121AFD8F36121D3EC2008D
:100E1F00753E80121CC07B007A0079317F05121A53
:100E2F0019E4F53774312537F8E6F5387BFF7A1D6D
:100E3F007972F55F1203C60537E537C3940540E4B1
:100E4F007F0A121C6F7F0D121C6F7F647E00121CB5
:100E5F0046E5367015FB7A007931121C968F36E510
:100E6F003164016005753605C2A5121D3EC20075BD
:100E7F003E80121CC07B007A0079317F05121A194F
:100E8F00E4F53774312537F8E6F5387BFF7A1D79AD
:100E9F0072F55F1203C60537E537C3940540E47F4B
:100EAF000A121C6F7F0D121C6F7F647E00121C468E
:100EBF00E536700AFB7A00793112171C8F36121D36
:100ECF003EC200753E80121CC07B007A0079317FD4
:100EDF0005121A19E4F53774312537F8E6F5387B22
:100EEF00FF7A1D7972F55F1203C60537E537C39494
:100EFF000540E47F0A121C6F7F0D121C6F7F647E0A
:100F0F0000121C46E536701DFB7A007931121C96D3
:100F1F008F36E53254C0700DE53230E70575360770
:100F2F008003753605121D3EC200753E80121CC02F
:100F3F007B007A0079317F05121A19E4F537743185
:100F4F002537F8E6F5387BFF7A1D7972F55F1203C6
:100F5F00C60537E537C3940540E47F0A121C6F7F3F
:100F6F000D121C6F7F647E00121C46E5366002C2B4
:050F7F00A7D294AF367B
:010F8400224A
:061B78008B398A3A893B1B
:101B7E00C294E4F569F568F567F566FF121687EF0E
:101B8E00700BAB39AA3AA93B7F01121559EF700FB2
:101B9E00AB39AA3AA93B1206C0640160027F05D296
:011BAE0094A2
:011BAF002213
:061AFD008B398A3A893B97
:101B0300C294E47569AA756801F567F5667F0812E2
:101B13001687EF700BAB39AA3AA93B7F051215590B
:101B2300AB39AA3AA93B1206C0FEB405047F09806B
:0A1B330007EE640160027F06D29401
:011B3D002285
:061C96008B398A3A893BFC
:101C9C00C294E4F569F568F567F5667F3A12168724
:0E1CAC00EF700BAB39AA3AA93B7F0512155910
:011CBA002207
:06171C008B398A3A893B7B
:10172200E4F540F53FF53E753D40C294F53C053C7D
:10173200E4F569F568F567F5667F37121687EF708D
:1017420003121551AB39AA3AA93B1206C0FE600634
:10175200640160027F02EF7011854069853F6885F0
:101762003E67853D667F29121687EF700312155179
:10177200AB39AA3AA93B1206C0FE600664016002B8
:101782007F02053CEE6007E53C6003EF60A0E53CAC
:0617920070027F01D294F9
:01179800222E
:021687008F656D
:10168900E565C394404003021716E5654440F56BD0
:101699007B007A00796CFF121CDD8F6A756D18E585
:1016A9006A70047F0180027F00E56DC394195004BC
:1016B9007E0180027E00EE5F6024AF69AE68AD678F
:1016C900AC66A96DA8011208CF8F6B7B007A0079EF
:1016D9006C121CDD8F6A74F8256DF56D80C1E565A6
:1016E9007005756B95800DE565B40805756B878088
:1016F90003756B01E56A700CFB7A00796CAF6B12AC
:101709001CDD8F6AE56A6008756A028003756A03E1
:02171900AF6AB5
:01171B0022AB
:08155100AB39AA3AA93B7F0166
:081559008F418B428A43894453
:10156100E4F545F5467B007A0079477FFF121CDDE3
:101571008F460545E5456009E5467005E547F46098
:10158100E4AB42AA43A944E547120706E5457005C5
:101591007546018046E5466002800AE547640160C0
:1015A10009E54760057546028031E541D394014064
:1015B1002A754801E548C3954150207B007A00799E
:1015C100477FFF121CDDAB42AA43A94485488275BF
:1015D1008300E547120718054880D9E546700CFBE2
:0D15E1007A0079477FFF121CDD8F46AF4670
:0115EE0022DA
:081A69007F01FB7A007960FEA9
:0A1A71008E658F668B678A688969AD
:101A7B00E4F56AF56BF56DF56EC3E56E9566E56D90
:101A8B00956550267B007A00796C7FFF121CDDABCD
:101A9B0067AA68A969856E82856D83E56C12071844
:0C1AAB00056EE56E70D3056D80CFAF6B4B
:011AB700220C
:0E1811008F5B8E5A8D598C588B5C8A5D895E78
:10181F00C294E4F55F8F698E688D678C667F1112B5
:10182F001687055FEF7003121A69E5606004E55FC4
:10183F0070F0E55F70027F01E4F55F055FEF700305
:10184F00121A69E56064FE6007E55F6003EF60EB05
:10185F00E55F70027F01E56054F070027F08EF7062
:10186F000CAB5CAA5DA95EFF7E02121A71EF7005C8
:07187F007F03121A6BD294E3
:01188600223F
:1018F000E4F531AB07AA06A905A804FF7EA07D8CFC
:10190000FC12082CEFD39402500575C3708045EF8C
:10191000D39404500575C371803AEFD394085005F1
:1019200075C372802FEFD39410500575C373802454
:10193000EFD39420500575C3F08019EFD394405035
:101940000575C3F1800EEFD39480500575C3F28006
:0619500003753104AF3104
:01195600226E
:101CDD00E4FE8FC5AFC40EEF20E703EE70F6EE60A5
:101CED000BE5C5120706EF5470FE80027E01AF06AC
:011CFD0022C4
:101CFE00759AE285878753877F759850E4F59B75B3
:0C1D0E009AE2759B1ED299C2ACFEFF2227
:081C1C008F528E518D508C4F48
:101C2400C2948F698E688D678C667F11121687AE99
:101C340053AF54E4FCFDAB55AA56A957121811D260
:011C4400940B
:011C4500227C
:10123500256C750025750025627500252D323073E6
:101245000020204641542073697A65333220697342
:10125500200025382E3862580020206572726F7282
:101265002077726F6E6720666174747970652000EF
:101275002020546F74536563333220697320002036
:10128500206E756D6F66464154536563746F727356
:10129500206973200020204669727374446174616B
:1012A50053656320697320002020636F756E746F2A
:1012B50066436C7573746572732069732000252D00
:1012C50031327300204641542073697A6520697371
:1012D500200025326400252D33357300436F6E746D
:1012E500696E75653F202820793D202731272C2000
:1012F5006E3D202732272029002535642E20005BEE
:061305004449525D0A009C
:0815EF007B017A0279007E0005
:1015F7008E518F528B538A548955C3E551940250AB
:01160700786A
:10160800E4F559F558F557F556F55BAB53E555250F
:1016180052F9E5543551FAC37403955BFFE494001D
:10162800FEE92FF9EA3EFA1206C0F55AAF59AE584C
:10163800AD57AC5678081208E28F598E588D578CE2
:1016480056E559455AF559E558F558E557F557E51A
:1016580056F556055BE55BB404B17BFF7A12793524
:1016680085596285586185576085565F1203C6AFF4
:0816780059AE58AD57AC5622E3
:07168000E47F0CFEFDFC22DB
:081887007B017A0279007E006A
:0A188F008E488F498B4A8A4B894C22
:10189900E4F54DF54EC3E54894025046E4FDAB4AE4
:1018A900E54C2549F9E54B3548FAEDFFC374019F2D
:1018B900FFE49400FEE92FF9EA3EFA1206C0FCE5BE
:1018C9004E754E00F54DEC424EE40DBD02D07BFF46
:1018D9007A127939854D5F854E601203C6AE4DAFD8
:0618E9004E227E007F0C80
:0118EF0022D6
:0F1BE600E546240BFFE43545FEAB4CAA4DA94E56
:101BF500E4F54FC3EE9402501B8F828E831206D9F3
:101C0500754F00424F7BFF7A12793C854F5F120377
:061C1500C6AF4F227F0C58
:011C1B0022A6
:10000300E4F531755302F55475550175560275576C
:1000130000FFFEFDFC121C1C7B017A027900E4FF49
:10002300FE121BF5EF64EB60327B017A027900E488
:10003300FFFE121BF5EF64E960217B017A02790070
:100043007FC67E011215F7787012090E78701208B8
:10005300F58F378E368D358C34800375310AE53153
:100063006003020361AF37AE36AD35AC347553026E
:10007300F554755501755602755700121C1C7F0BFC
:100083001218877874A60608A6077B017A027900FE
:100093007F0D7E00121BF57876A6077F0E12188758
:1000A3007877A60608A6077B017A0279007F107E7F
:1000B30000121BF57884A6077B017A0279007F1171
:1000C3007E0012188F7882A60608A6077B017A02A3
:1000D30079007F137E0012188F789BA60608A60767
:1000E3007B017A0279007F167E0012188F788DA625
:1000F3000608A6077F1C1215EF787A12090E7F20D7
:100103001215EF789712090E7B017A0279007F248A
:100113007E001215F7788912090E7B017A027900A5
:100123007F2C7E001215F7788F12090E7882E6FE77
:1001330008E67805C333CE33CED8F9FF7874E6FCEE
:1001430008E6FD24FFFBEC34FFCB2FFFEB3EFE1252
:10015300074CE4FCFD789312090E788EE61846707E
:100163003378891208F58F3B8E3A8D398C38755F59
:10017300FF7560127561467BFF7A1279401203C6E0
:100183007BFF7A127957853B62853A6185396085B1
:10019300385F8022788DE6FE08E6FFE48F3B8E3AD7
:1001A300F539F53875310B755FFF75601275615E52
:1001B3007BFF7A1279401203C6789CE618467036A4
:1001C30078971208F58F3F8E3E8D3D8C3C755FFF0F
:1001D3007560127561757BFF7A1279401203C67BD5
:1001E300FF7A127957853F62853E61853D60853C84
:1001F3005F1203C68013789BE6FE08E6FFE48F3F99
:100203008E3EF53DF53C75310B7884E6FFE4FCFD4D
:10021300FEAB3BAA3AA939A8381207A18E328F3315
:10022300755FFF7560127561847BFF7A12794012E6
:1002330003C67BFF7A12795785325F8533601203D9
:10024300C67884E6FFE4FCFDFEAB3BAA3AA939A8D5
:10025300381207A1C004A905AA06AB077877E6FE02
:1002630008E6FFE4FCFDD000EB2FFFEA3EFEED398C
:10027300FDEC38FC7893120901EF2BFBEE3AFAED13
:1002830039F9EC38F8C3E53F9BF547E53E9AF54667
:10029300E53D99F545E53C98F544755FFF756012BA
:1002A30075619A7BFF7A1279401203C67BFF7A123B
:1002B300795785476285466185456085445F1203AA
:1002C300C67876E6FBE4FAF9F8AF47AE46AD45AC3F
:1002D3004412082C8F438E428D418C40755FFF750D
:1002E30060127561AD7BFF7A1279401203C67BFF02
:1002F3007A12795785436285426185416085405F03
:100303001203C6E47FF57E0FFDFCAB43AA42A9416D
:10031300A840C31208BE50067879760C8019E47F92
:10032300F57EFFFDFCAB43AA42A941A840C31208D6
:10033300BE78795007760275310B80027604755FBB
:10034300FF7560127561C97BFF7A1279C31203C608
:100353007BFF7A1279D77879E6F55F1203C6AF315E
:010363002277
:081957008F3E8E3D8D3C8C3B60
:08195F008F428E418D408C3F48
:10196700E4FFFEFDFCAB42AA41A940A83FC3120811
:10197700BE700578930208F5E54224FEFFE5413481
:10198700FFFEE54034FFFDE53F34FFFCC004A90539
:10199700AA06AB077876E6FFE4FCFDFED000120747
:1019A700A1787E120901EF2BFFEE3AFEED39FDEC2F
:0219B70038FCFA
:0119B900220B
:0813D1008F428E418D408C3FDC
:1013D9007877E6FE08E6FFE4FCFD7870120901EF74
:1013E9002BFFEE3AFEED39FDEC38FC788512090E3B
:1013F900E47F04FEFDFCAB42AA41A940A83F1207C5
:10140900A18F488E478D468C457874E6FE08E6FB29
:10141900AA06E4F9F8AF48AE4712082C78851209F4
:1014290001EF2BF550EE3AF54FED39F54EEC38F565
:101439004DC294855069854F68854E67F5667F1161
:10144900121687AA43A9447B017F007E027D007C96
:1014590000121811D2947874E6FE08E6FBAA06E495
:10146900F9F8AF48AE47AD46AC4512082CAC00AD13
:1014790001AE02AF038F4C8E4B8D4A8C49AA43A90A
:0A148900447B011215F7EC540FFC30
:011493002236
:081494008F348E338D328C3150
:10149C00E4F5391219578F37E4FCFDFE7874E6F544
:1014AC005308E6F554755501853556853657121C8B
:1014BC001C8F38E538600302154E805CE53A6401F8
:1014CC00600302154EE5387079E539D3787696408D
:1014DC0019E4F539AF3EAE3DAD3CAC3B85354385AB
:1014EC0036441213D11219578F37AF397E007874E6
:1014FC00E6FA08E6FBFDAC0212073A7C00EF253752
:10150C00FFEC3EFEE4FD8A538B5475550185355630
:10151C00853657121C1C8F38AA35A9367B01787476
:10152C00E6FC08E6FD1219BA755FFF75601275616D
:10153C00E17BFF7A1279DB1203C612130B8F3A028E
:04154C0014C8AF38D8
:011550002278
:080BAA008F348E338D328C3143
:100BB20075480185354985364AE4F541F542F53FE8
:100BC200F540787E1208F5AB34AA33A932A831C3B6
:100BD2001208BE500F78931208F58F3E8E3D8D3C61
:100BE2008C3B800D7876E6FFE48F3EF53DF53CF5D3
:100BF2003B85343A853339853238853137AF3AAE61
:100C020039AD38AC377874E6F55308E6F5548548C3
:100C120055854956854A57121C1C8F47E547600384
:100C2200020D95AB48AA49A94AAF40AE3F121BF547
:100C32008F43E54364E57003020D07E54370030249
:100C42000D07E540240BFFE4353FFEAB48AA49A956
:100C52004A121BF58F45D2A5E545540E6003020DDD
:100C6200070542E542700205417BFF7A1279FE8553
:100C7200415FF5601203C6E4F5447E00E540254479
:100C8200FFEE353FFEAB48AA49A94A121BF58F4633
:100C9200121C6F0544E544C3940840DEE54530E488
:100CA200307544087E00E5402544FFEE353FFEAB3B
:100CB20048AA49A94A121BF58F46121C6F0544E542
:100CC20044C3940B40DE7BFF7A1379041203C6807F
:100CD200347F2E121C6F7544087E00E5402544FFC8
:100CE200EE353FFEAB48AA49A94A121BF58F4612C0
:100CF2001C6F0544E544C3940B40DE7F0D121C6F4C
:100D02007F0A121C6F74202540F540E4353FF53F01
:100D1200D3E54094FEE53F9401406FE53A2401F5A6
:100D22003AE43539F539E43538F538E43537F5370D
:100D3200C3E53A9534FFE5399533FEE5389532FD42
:100D4200E5379531FCAB3EAA3DA93CA83BD312083E
:100D5200BE4031AF3AAE39AD38AC377874E6F553B0
:100D620008E6F554854855854956854A57121C1C94
:100D72008F47E5476007E4F541F542F543E4F53F67
:100D8200F5408006434180E4F543E5436003020CED
:0C0D9200258005E4F541F542AE41AF427A
:010D9E002232
:08095E008F348E338D328C3191
:10096600754C0185374D85384EE4F547F548F54514
:10097600F546F544F543F542F541787E1208F5ABA8
:1009860034AA33A932A831C31208BE500F78931285
:1009960008F58F408E3F8D3E8C3D800D7876E6FFC4
:1009A600E48F40F53FF53EF53D85343C85333B8588
:1009B600323A853139AF3CAE3BAD3AAC397874E664
:1009C600F55308E6F554854C55854D56854E571218
:1009D6001C1C8F4BE54B6003020B7BAB4CAA4DA94D
:1009E6004EAF46AE45121BF58F49E54964E57003E7
:1009F600020AEBE5497003020AEB121BE68F4AE591
:100A06004A540E6003020AEB0548E54870020547A2
:100A160065367004E54765356003020AEB7879E6CA
:100A26006404705EE5462415121BEAE48F44F54320
:100A3600F542F541E544540FF544E4F543F542F536
:100A460041AF44AE43AD42AC4178081208E28F4450
:100A56008E438D428C41E5462414121BEAE5444F31
:100A6600F544E543F543E542F542E541F541AF443A
:100A7600AE43AD42FC78081208E28F448E438D42A5
:100A86008C41E546241B121BEAE5444FF544E54339
:100A9600F543E542F542E541F541AF44AE43AD428B
:100AA600FC78081208E28F448E438D428C41E5465D
:100AB600241A121BEAE5444FF544E543F543E542A3
:100AC600F542E541F541121BE68F4AE54A30E4124C
:100AD600E544F544E543F543E542F542E541441076
:100AE600F541E4F54974202546F546E43545F545D6
:100AF600D3E54694FEE54594014071E53C2401F5B5
:100B06003CE4353BF53BE4353AF53AE43539F5391D
:100B1600C3E53C9534FFE53B9533FEE53A9532FD5A
:100B2600E5399531FCAB40AA3FA93EA83DD3120852
:100B3600BE4036AF3CAE3BAD3AAC397874E6F553C1
:100B460008E6F554854C55854D56854E57121C1CA6
:100B56008F4BE54B600CE4F544F543F54275418057
:100B6600F549E4F545F5468003E4F549E5496003B2
:100B76000209E1800AE4F544F543F542754180E453
:100B8600FFFEFDFCAB44AA43A942A841C31208BE1E
:100B96007009F544F543F542754180AF44AE43AD67
:030BA60042AC411D
:010BA9002229
:03000000021D5C82
:0C1D5C00787FE4F6D8FD75819C020F85AD
:1006C000BB010689828A83E0225002E722BBFE0238
:0906D000E32289828A83E493226B
:1006D900BB010CE58229F582E5833AF583E02250D6
:1006E90006E92582F8E622BBFE06E92582F8E22220
:0D06F900E58229F582E5833AF583E493223A
:10070600BB010689828A83F0225002F722BBFE01D2
:02071600F322CC
:10071800F8BB010DE58229F582E5833AF583E8F017
:10072800225006E92582C8F622BBFE05E92582C8C3
:02073800F222AB
:10073A00EF8DF0A4A8F0CF8CF0A428CE8DF0A42ED3
:02074A00FE228D
:10074C00BC000BBE0029EF8DF084FFADF022E4CC91
:10075C00F875F008EF2FFFEE33FEEC33FCEE9DEC5A
:10076C00984005FCEE9DFE0FD5F0E9E4CEFD22EDA0
:10077C00F8F5F0EE8420D21CFEADF075F008EF2FEA
:10078C00FFED33FD4007985006D5F0F222C398FDDB
:05079C000FD5F0EA2278
:1007A100E88FF0A4CC8BF0A42CFCE98EF0A42CFCF7
:1007B1008AF0EDA42CFCEA8EF0A4CDA8F08BF0A475
:1007C1002DCC3825F0FDE98FF0A42CCD35F0FCEBD4
:1007D1008EF0A4FEA9F0EB8FF0A4CFC5F02ECD3999
:0F07E100FEE43CFCEAA42DCE35F0FDE43CFC2206
:1007F00075F008758200EF2FFFEE33FECD33CDCCC0
:1008000033CCC58233C5829BED9AEC99E582984042
:100810000CF582EE9BFEED9AFDEC99FC0FD5F0D61F
:10082000E4CEFBE4CDFAE4CCF9A88222B800C1B949
:100830000059BA002DEC8BF084CFCECDFCE5F0CB87
:10084000F97818EF2FFFEE33FEED33FDEC33FCEBC0
:1008500033FB10D703994004EB99FB0FD8E5E4F97B
:10086000FA227818EF2FFFEE33FEED33FDEC33FC68
:10087000C933C910D7059BE99A4007EC9BFCE99A5C
:10088000F90FD8E0E4C9FAE4CCFB2275F010EF2FA1
:10089000FFEE33FEED33FDCC33CCC833C810D707A1
:1008A0009BEC9AE899400AED9BFDEC9AFCE899F8DC
:0E08B0000FD5F0DAE4CDFBE4CCFAE4C8F9226F
:1008BE00EB9FF5F0EA9E42F0E99D42F0E89C45F090
:0108CE002207
:1008CF00E8600FECC313FCED13FDEE13FEEF13FF07
:0308DF00D8F1222B
:1008E200E8600FEFC333FFEE33FEED33FDEC33FC74
:0308F200D8F12218
:0C08F500E6FC08E6FD08E6FE08E6FF222F
:0D090100E6FB08E6F908E6FA08E6CBF82266
:0C090E00ECF608EDF608EEF608EFF62215
:101C6F00EFB40A07740D121C7A740A309811A899F0
:101C7F00B8130CC2983098FDA899C298B811F630D5
:071C8F0099FDC299F59922AD
:10036400E56B245FF8E6056B22785C300702785F62
:10037400E475F0011209280206C02000EB7F2ED29A
:10038400008018EF540F2490D43440D4FF30040B71
:10039400EF24BFB41A0050032461FFE56C6002151A
:1003A4006C056FE56F7002056E30070D785CE475BF
:1003B400F001120928EF020706021C6F7403D2072A
:1003C4008003E4C207F56B8B5C8A5D895EE4F56C9F
:1003D400F56EF56FE56C60077F2012039F80F5755D
:1003E4006DFFC201C200C202C203C205C206C20836
:1003F40012036DFF700D3007057F001203B0AF6F5D
:10040400AE6E22B4255FC2D5C20412036DFF24D0A0
:10041400B40A00501A75F00A786C30D50508B6FF96
:100424000106C6A426F620D5047002D20380D9247E
:10043400CFB41A00EF5004C2E5D2040205B0D201D1
:1004440080C6D20080C0D20280BCD2D580BAD20588
:1004540080B47F2012039F2002077401B56C004012
:10046400F1120364FF12039F0203D8D208D206805C
:1004740095120364FB120364FA120364F94A4B7085
:100484000679817A067BFF20022EE56C602A7E00C5
:100494008E827583001206D960060EEE656D70F0CB
:1004A400C2D5EBC0E0EAC0E0E9C0E0EE1205F7D047
:1004B400E0F9D0E0FAD0E0FB1206C0FF60AAEBC07E
:1004C400E0EAC0E0E9C0E012039FD0E02401F9D0E3
:1004D400E03400FAD0E0FBE56D0460DCD56DD98032
:1004E400877BFF7A0579F3D202809C7910800279A8
:1004F40008C206C2088008D2D5790A8004790AC2E3
:10050400D5E56D047002F56DE4FAFDFEFF12036497
:10051400FC7B08200113120364FD7B1030000A12D7
:100524000364FE120364FF7B20EC3382D592D55022
:1005340013C3E43000069FFFE49EFEE42001039D04
:10054400FDE49CFCE4CBF8C201EC700CCFCECDCC26
:10055400E824F8F870F38017C3EF33FFEE33FEEDB1
:1005640033FDEC33FCEB33FB994002FB0FD8E9EB92
:10057400300105F8D0E0C448B201C0E00AEC4D4EA9
:100584004F78207B0070C2EAB56D0040BCC0E01219
:1005940005F9D0F0D0E0200104C4C0E0C4B201C029
:1005A400F0120388D0F0D5F0EB0203D81209380416
:1005B400755304EF5804464C04424204F34F04FBC1
:0F05C4004404FB49045B4305015504E54604E587
:1005D3004504E54706A150044A2D044E2E04712B11
:1005E300045223046F20068A2A040A48000004697F
:1005F3003F3F3F00790AA2D5200314300509B91003
:10060300020404B9080104A2D52006025001042003
:1006130002689202B56C005034C0E07F20300319A9
:100623007F30A20272067205500F120650C202C238
:1006330006C205C2087F30800F300503E9C0E0120F
:10064300039F300503D0E0F9D0E0B56CCC3005173B
:100653007F30B9100C12039F7F583004077F7880D6
:1006630003B9080312039F3002057F2D02039F7F06
:10067300202008F87F2B2006F322920280CF286ED9
:10068300756C6C2900D2011203643001F8C2017841
:100693006C30D50108F602040A2D50434958120361
:1006A300642403B405004001E490069C9312039074
:0D06B300743A120390D203756C040204EF38
:101D2D0010090B121D68BF0D027F0A021C6FAF0850
:011D3D002283
:101157008B508A518952AB50AA51A9521206C0FF2F
:10116700121D1A500D74012552F552E43551F551EF
:1011770080E4D200AB50AA51A9521206C0FF642BDB
:101187006004EFB42D1BAB500552E552AA51700213
:10119700055114F91206C0642D6003D38001C39270
:1011A70000E4F556F555F554F553AB50AA51A9523D
:1011B7001206C0FF121D4D505CE47F0AFEFDFCAB1A
:1011C70056AA55A954A8531207A1C8ECC8EDC0E008
:1011D700EEC0E0EFC0E0AB50AA51A9521206C0FF23
:1011E7003395E0FEEF24D0FFEE34FFFEE4FCFDD0A4
:1011F700E0FBD0E0FAD0E0F9EB2FF556EA3EF555E3
:10120700ED39F554EC38F55374012552F552E435B0
:1012170051F551809530000AAF56AE55AD54AC53D9
:0E122700800BAF56AE55AD54AC5312091A22CF
:0E091A00C3E49FFFE49EFEE49DFDE49CFC22EE
:10092800FAE6FB0808E6F925F0F618E6CA3AF622D0
:10093800D083D082F8E4937012740193700DA3A34E
:1009480093F8740193F5828883E473740293686062
:06095800EFA3A3A380DF62
:0A1D68003098FDAF99C2987E00226A
:0F1D4D00EFC394304007EF943A50028001C32255
:101D1A00EFC394094005EF940E4003BF2003D3801C
:031D2A0001C322D0
:00000001FF
